{
  "_format": "hh-sol-artifact-1",
  "contractName": "YourContract",
  "sourceName": "contracts/YourContract.sol",
  "abi": [
    {
      "inputs": [
        {
          "internalType": "string",
          "name": "_greeting",
          "type": "string"
        }
      ],
      "stateMutability": "nonpayable",
      "type": "constructor"
    },
    {
      "inputs": [],
      "name": "greeting",
      "outputs": [
        {
          "internalType": "string",
          "name": "",
          "type": "string"
        }
      ],
      "stateMutability": "view",
      "type": "function"
    },
    {
      "inputs": [
        {
          "internalType": "string",
          "name": "_greeting",
          "type": "string"
        }
      ],
      "name": "setGreeting",
      "outputs": [],
      "stateMutability": "nonpayable",
      "type": "function"
    }
  ],
  "bytecode": "0x60806040523480156200001157600080fd5b50604051620009b0380380620009b0833981016040819052620000349162000199565b620000646040518060600160405280602581526020016200098b60259139826200008160201b620001c01760201c565b805162000079906000906020840190620000f3565b505062000337565b620000ce82826040516024016200009a9291906200027f565b60408051601f198184030181529190526020810180516001600160e01b03908116634b5c427760e01b17909152620000d216565b5050565b80516a636f6e736f6c652e6c6f67602083016000808483855afa5050505050565b8280546200010190620002e4565b90600052602060002090601f01602090048101928262000125576000855562000170565b82601f106200014057805160ff191683800117855562000170565b8280016001018555821562000170579182015b828111156200017057825182559160200191906001019062000153565b506200017e92915062000182565b5090565b5b808211156200017e576000815560010162000183565b600060208284031215620001ac57600080fd5b81516001600160401b0380821115620001c457600080fd5b818401915084601f830112620001d957600080fd5b815181811115620001ee57620001ee62000321565b604051601f8201601f19908116603f0116810190838211818310171562000219576200021962000321565b816040528281528760208487010111156200023357600080fd5b62000246836020830160208801620002b1565b979650505050505050565b600081518084526200026b816020860160208601620002b1565b601f01601f19169290920160200192915050565b60408152600062000294604083018562000251565b8281036020840152620002a8818562000251565b95945050505050565b60005b83811015620002ce578181015183820152602001620002b4565b83811115620002de576000848401525b50505050565b600181811c90821680620002f957607f821691505b602082108114156200031b57634e487b7160e01b600052602260045260246000fd5b50919050565b634e487b7160e01b600052604160045260246000fd5b61064480620003476000396000f3fe608060405234801561001057600080fd5b50600436106100365760003560e01c8063a41368621461003b578063ef690cc014610050575b600080fd5b61004e6100493660046103a3565b61006e565b005b610058610132565b60405161006591906104dd565b60405180910390f35b61011b6040518060600160405280602381526020016105ec602391396000805461009790610568565b80601f01602080910402602001604051908101604052809291908181526020018280546100c390610568565b80156101105780601f106100e557610100808354040283529160200191610110565b820191906000526020600020905b8154815290600101906020018083116100f357829003601f168201915b505050505083610251565b805161012e90600090602084019061030a565b5050565b6000805461013f90610568565b80601f016020809104026020016040519081016040528092919081815260200182805461016b90610568565b80156101b85780601f1061018d576101008083540402835291602001916101b8565b820191906000526020600020905b81548152906001019060200180831161019b57829003601f168201915b505050505081565b61012e82826040516024016101d69291906104f7565b604080517fffffffffffffffffffffffffffffffffffffffffffffffffffffffffffffffe08184030181529190526020810180517bffffffffffffffffffffffffffffffffffffffffffffffffffffffff167f4b5c4277000000000000000000000000000000000000000000000000000000001790526102e9565b6102e483838360405160240161026993929190610525565b604080517fffffffffffffffffffffffffffffffffffffffffffffffffffffffffffffffe08184030181529190526020810180517bffffffffffffffffffffffffffffffffffffffffffffffffffffffff167f2ced7cef000000000000000000000000000000000000000000000000000000001790526102e9565b505050565b80516a636f6e736f6c652e6c6f67602083016000808483855afa5050505050565b82805461031690610568565b90600052602060002090601f016020900481019282610338576000855561037e565b82601f1061035157805160ff191683800117855561037e565b8280016001018555821561037e579182015b8281111561037e578251825591602001919060010190610363565b5061038a92915061038e565b5090565b5b8082111561038a576000815560010161038f565b6000602082840312156103b557600080fd5b813567ffffffffffffffff808211156103cd57600080fd5b818401915084601f8301126103e157600080fd5b8135818111156103f3576103f36105bc565b604051601f82017fffffffffffffffffffffffffffffffffffffffffffffffffffffffffffffffe0908116603f01168101908382118183101715610439576104396105bc565b8160405282815287602084870101111561045257600080fd5b826020860160208301376000928101602001929092525095945050505050565b6000815180845260005b818110156104985760208185018101518683018201520161047c565b818111156104aa576000602083870101525b50601f017fffffffffffffffffffffffffffffffffffffffffffffffffffffffffffffffe0169290920160200192915050565b6020815260006104f06020830184610472565b9392505050565b60408152600061050a6040830185610472565b828103602084015261051c8185610472565b95945050505050565b6060815260006105386060830186610472565b828103602084015261054a8186610472565b9050828103604084015261055e8185610472565b9695505050505050565b600181811c9082168061057c57607f821691505b602082108114156105b6577f4e487b7100000000000000000000000000000000000000000000000000000000600052602260045260246000fd5b50919050565b7f4e487b7100000000000000000000000000000000000000000000000000000000600052604160045260246000fdfe4368616e67696e67206772656574696e672066726f6d202725732720746f2027257327a2646970667358221220c9aacf46f762e6dcb2a49a72db21445f6ce99414ba8d1620e609d4746097958664736f6c634300080600334465706c6f79696e6720596f7572436f6e74726163742077697468206772656574696e673a",
  "linkReferences": {},
  "deployedLinkReferences": {}
}