{
  "_format": "hh-sol-artifact-1",
  "contractName": "FixedPriceMinter",
  "sourceName": "contracts/FixedPriceMinter.sol",
  "abi": [
    {
      "anonymous": false,
      "inputs": [
        {
          "indexed": true,
          "internalType": "address",
          "name": "previousOwner",
          "type": "address"
        },
        {
          "indexed": true,
          "internalType": "address",
          "name": "newOwner",
          "type": "address"
        }
      ],
      "name": "OwnershipTransferred",
      "type": "event"
    },
    {
      "anonymous": false,
      "inputs": [
        {
          "indexed": false,
          "internalType": "address",
          "name": "account",
          "type": "address"
        },
        {
          "indexed": false,
          "internalType": "uint256",
          "name": "shares",
          "type": "uint256"
        }
      ],
      "name": "PayeeAdded",
      "type": "event"
    },
    {
      "anonymous": false,
      "inputs": [
        {
          "indexed": false,
          "internalType": "address",
          "name": "from",
          "type": "address"
        },
        {
          "indexed": false,
          "internalType": "uint256",
          "name": "amount",
          "type": "uint256"
        }
      ],
      "name": "PaymentReceived",
      "type": "event"
    },
    {
      "anonymous": false,
      "inputs": [
        {
          "indexed": false,
          "internalType": "address",
          "name": "to",
          "type": "address"
        },
        {
          "indexed": false,
          "internalType": "uint256",
          "name": "amount",
          "type": "uint256"
        }
      ],
      "name": "PaymentReleased",
      "type": "event"
    },
    {
      "inputs": [
        {
          "internalType": "contract ERC721DAOToken",
          "name": "token_",
          "type": "address"
        },
        {
          "internalType": "uint256",
          "name": "maxTokens_",
          "type": "uint256"
        },
        {
          "internalType": "uint256",
          "name": "tokenPrice_",
          "type": "uint256"
        },
        {
          "internalType": "uint256",
          "name": "maxMintsPerTx_",
          "type": "uint256"
        },
        {
          "internalType": "uint256",
          "name": "startingBlock_",
          "type": "uint256"
        },
        {
          "internalType": "address[]",
          "name": "payees_",
          "type": "address[]"
        },
        {
          "internalType": "uint256[]",
          "name": "shares_",
          "type": "uint256[]"
        }
      ],
      "name": "initialize",
      "outputs": [],
      "stateMutability": "nonpayable",
      "type": "function"
    },
    {
      "inputs": [],
      "name": "maxMintsPerTx",
      "outputs": [
        {
          "internalType": "uint256",
          "name": "",
          "type": "uint256"
        }
      ],
      "stateMutability": "view",
      "type": "function"
    },
    {
      "inputs": [],
      "name": "maxTokens",
      "outputs": [
        {
          "internalType": "uint256",
          "name": "",
          "type": "uint256"
        }
      ],
      "stateMutability": "view",
      "type": "function"
    },
    {
      "inputs": [
        {
          "internalType": "uint256",
          "name": "quantity",
          "type": "uint256"
        }
      ],
      "name": "mint",
      "outputs": [],
      "stateMutability": "payable",
      "type": "function"
    },
    {
      "inputs": [],
      "name": "nextTokenId",
      "outputs": [
        {
          "internalType": "uint256",
          "name": "",
          "type": "uint256"
        }
      ],
      "stateMutability": "view",
      "type": "function"
    },
    {
      "inputs": [],
      "name": "owner",
      "outputs": [
        {
          "internalType": "address",
          "name": "",
          "type": "address"
        }
      ],
      "stateMutability": "view",
      "type": "function"
    },
    {
      "inputs": [
        {
          "internalType": "uint256",
          "name": "index",
          "type": "uint256"
        }
      ],
      "name": "payee",
      "outputs": [
        {
          "internalType": "address",
          "name": "",
          "type": "address"
        }
      ],
      "stateMutability": "view",
      "type": "function"
    },
    {
      "inputs": [
        {
          "internalType": "address payable",
          "name": "account",
          "type": "address"
        }
      ],
      "name": "release",
      "outputs": [],
      "stateMutability": "nonpayable",
      "type": "function"
    },
    {
      "inputs": [
        {
          "internalType": "address",
          "name": "account",
          "type": "address"
        }
      ],
      "name": "released",
      "outputs": [
        {
          "internalType": "uint256",
          "name": "",
          "type": "uint256"
        }
      ],
      "stateMutability": "view",
      "type": "function"
    },
    {
      "inputs": [],
      "name": "renounceOwnership",
      "outputs": [],
      "stateMutability": "nonpayable",
      "type": "function"
    },
    {
      "inputs": [
        {
          "internalType": "uint256",
          "name": "startingBlock_",
          "type": "uint256"
        }
      ],
      "name": "setStartingBlock",
      "outputs": [],
      "stateMutability": "nonpayable",
      "type": "function"
    },
    {
      "inputs": [
        {
          "internalType": "address",
          "name": "account",
          "type": "address"
        }
      ],
      "name": "shares",
      "outputs": [
        {
          "internalType": "uint256",
          "name": "",
          "type": "uint256"
        }
      ],
      "stateMutability": "view",
      "type": "function"
    },
    {
      "inputs": [],
      "name": "startingBlock",
      "outputs": [
        {
          "internalType": "uint256",
          "name": "",
          "type": "uint256"
        }
      ],
      "stateMutability": "view",
      "type": "function"
    },
    {
      "inputs": [],
      "name": "token",
      "outputs": [
        {
          "internalType": "contract ERC721DAOToken",
          "name": "",
          "type": "address"
        }
      ],
      "stateMutability": "view",
      "type": "function"
    },
    {
      "inputs": [],
      "name": "tokenPrice",
      "outputs": [
        {
          "internalType": "uint256",
          "name": "",
          "type": "uint256"
        }
      ],
      "stateMutability": "view",
      "type": "function"
    },
    {
      "inputs": [],
      "name": "totalReleased",
      "outputs": [
        {
          "internalType": "uint256",
          "name": "",
          "type": "uint256"
        }
      ],
      "stateMutability": "view",
      "type": "function"
    },
    {
      "inputs": [],
      "name": "totalShares",
      "outputs": [
        {
          "internalType": "uint256",
          "name": "",
          "type": "uint256"
        }
      ],
      "stateMutability": "view",
      "type": "function"
    },
    {
      "inputs": [
        {
          "internalType": "address",
          "name": "newOwner",
          "type": "address"
        }
      ],
      "name": "transferOwnership",
      "outputs": [],
      "stateMutability": "nonpayable",
      "type": "function"
    },
    {
      "stateMutability": "payable",
      "type": "receive"
    }
  ],
  "bytecode": "0x608060405234801561001057600080fd5b50611a4e806100206000396000f3fe60806040526004361061012d5760003560e01c8063a0712d68116100a5578063e33b7de311610074578063ec17b20e11610059578063ec17b20e1461038f578063f2fde38b146103af578063fc0c546a146103cf57600080fd5b8063e33b7de314610364578063e83157421461037957600080fd5b8063a0712d68146102e2578063ce7c2ac2146102f5578063d91c98d314610338578063dc30158b1461034e57600080fd5b806375794a3c116100fc5780638b83209b116100e15780638b83209b1461022f5780638da5cb5b146102745780639852595c1461029f57600080fd5b806375794a3c146102035780637ff9b5961461021957600080fd5b80631916558714610188578063279708e8146101aa5780633a98ef39146101ca578063715018a6146101ee57600080fd5b36610183577f6ef95f06320e7a25a04a175ca677b7052bdd97131872c2192525a629f51be770336040805173ffffffffffffffffffffffffffffffffffffffff90921682523460208301520160405180910390a1005b600080fd5b34801561019457600080fd5b506101a86101a33660046116d5565b6103fc565b005b3480156101b657600080fd5b506101a86101c53660046116f9565b61063c565b3480156101d657600080fd5b506033545b6040519081526020015b60405180910390f35b3480156101fa57600080fd5b506101a861078d565b34801561020f57600080fd5b506101db609c5481565b34801561022557600080fd5b506101db60995481565b34801561023b57600080fd5b5061024f61024a3660046117fd565b610800565b60405173ffffffffffffffffffffffffffffffffffffffff90911681526020016101e5565b34801561028057600080fd5b5060655473ffffffffffffffffffffffffffffffffffffffff1661024f565b3480156102ab57600080fd5b506101db6102ba3660046116d5565b73ffffffffffffffffffffffffffffffffffffffff1660009081526036602052604090205490565b6101a86102f03660046117fd565b61083d565b34801561030157600080fd5b506101db6103103660046116d5565b73ffffffffffffffffffffffffffffffffffffffff1660009081526035602052604090205490565b34801561034457600080fd5b506101db609b5481565b34801561035a57600080fd5b506101db609a5481565b34801561037057600080fd5b506034546101db565b34801561038557600080fd5b506101db60985481565b34801561039b57600080fd5b506101a86103aa3660046117fd565b610b8e565b3480156103bb57600080fd5b506101a86103ca3660046116d5565b610bfa565b3480156103db57600080fd5b5060975461024f9073ffffffffffffffffffffffffffffffffffffffff1681565b73ffffffffffffffffffffffffffffffffffffffff81166000908152603560205260409020546104995760405162461bcd60e51b815260206004820152602660248201527f5061796d656e7453706c69747465723a206163636f756e7420686173206e6f2060448201527f736861726573000000000000000000000000000000000000000000000000000060648201526084015b60405180910390fd5b6000603454476104a99190611889565b73ffffffffffffffffffffffffffffffffffffffff831660009081526036602090815260408083205460335460359093529083205493945091926104ed90856118dc565b6104f791906118a1565b6105019190611919565b9050806105765760405162461bcd60e51b815260206004820152602b60248201527f5061796d656e7453706c69747465723a206163636f756e74206973206e6f742060448201527f647565207061796d656e740000000000000000000000000000000000000000006064820152608401610490565b73ffffffffffffffffffffffffffffffffffffffff83166000908152603660205260409020546105a7908290611889565b73ffffffffffffffffffffffffffffffffffffffff84166000908152603660205260409020556034546105db908290611889565b6034556105e88382610cf6565b6040805173ffffffffffffffffffffffffffffffffffffffff85168152602081018390527fdf20fd1e76bc69d672e4814fafb2c449bba3a5369d8359adf9e05e6fde87b056910160405180910390a1505050565b600054610100900460ff1680610655575060005460ff16155b6106c75760405162461bcd60e51b815260206004820152602e60248201527f496e697469616c697a61626c653a20636f6e747261637420697320616c72656160448201527f647920696e697469616c697a65640000000000000000000000000000000000006064820152608401610490565b600054610100900460ff161580156106e9576000805461ffff19166101011790555b6106f38383610e21565b6106fb610f13565b609780547fffffffffffffffffffffffff00000000000000000000000000000000000000001673ffffffffffffffffffffffffffffffffffffffff8a1617905560988790556099869055609a859055609b8490556001609c55801561078357600080547fffffffffffffffffffffffffffffffffffffffffffffffffffffffffffff00ff1690555b5050505050505050565b60655473ffffffffffffffffffffffffffffffffffffffff1633146107f45760405162461bcd60e51b815260206004820181905260248201527f4f776e61626c653a2063616c6c6572206973206e6f7420746865206f776e65726044820152606401610490565b6107fe6000611001565b565b60006037828154811061081557610815611998565b60009182526020909120015473ffffffffffffffffffffffffffffffffffffffff1692915050565b609b544310156108b55760405162461bcd60e51b815260206004820152602a60248201527f466978656450726963654d696e7465723a2053616c65206861736e277420737460448201527f61727465642079657421000000000000000000000000000000000000000000006064820152608401610490565b609a548111156109535760405162461bcd60e51b815260206004820152604160248201527f466978656450726963654d696e7465723a2054686572652069732061206c696d60448201527f6974206f6e206d696e74696e6720746f6f206d616e7920617420612074696d6560648201527f2100000000000000000000000000000000000000000000000000000000000000608482015260a401610490565b609854816001609c546109669190611919565b6109709190611889565b11156109e45760405162461bcd60e51b815260206004820152603860248201527f466978656450726963654d696e7465723a204d696e74696e672074686973206d60448201527f616e7920776f756c642065786365656420737570706c792100000000000000006064820152608401610490565b806099546109f291906118dc565b341015610a675760405162461bcd60e51b815260206004820152602860248201527f466978656450726963654d696e7465723a206e6f7420656e6f7567682065746860448201527f65722073656e74210000000000000000000000000000000000000000000000006064820152608401610490565b333214610ab65760405162461bcd60e51b815260206004820152601f60248201527f466978656450726963654d696e7465723a204e6f20636f6e74726163747321006044820152606401610490565b60005b81811015610b8a5760975473ffffffffffffffffffffffffffffffffffffffff166340c10f1933609c8054906000610af083611930565b909155506040517fffffffff0000000000000000000000000000000000000000000000000000000060e085901b16815273ffffffffffffffffffffffffffffffffffffffff90921660048301526024820152604401600060405180830381600087803b158015610b5f57600080fd5b505af1158015610b73573d6000803e3d6000fd5b505050508080610b8290611930565b915050610ab9565b5050565b60655473ffffffffffffffffffffffffffffffffffffffff163314610bf55760405162461bcd60e51b815260206004820181905260248201527f4f776e61626c653a2063616c6c6572206973206e6f7420746865206f776e65726044820152606401610490565b609b55565b60655473ffffffffffffffffffffffffffffffffffffffff163314610c615760405162461bcd60e51b815260206004820181905260248201527f4f776e61626c653a2063616c6c6572206973206e6f7420746865206f776e65726044820152606401610490565b73ffffffffffffffffffffffffffffffffffffffff8116610cea5760405162461bcd60e51b815260206004820152602660248201527f4f776e61626c653a206e6577206f776e657220697320746865207a65726f206160448201527f64647265737300000000000000000000000000000000000000000000000000006064820152608401610490565b610cf381611001565b50565b80471015610d465760405162461bcd60e51b815260206004820152601d60248201527f416464726573733a20696e73756666696369656e742062616c616e63650000006044820152606401610490565b60008273ffffffffffffffffffffffffffffffffffffffff168260405160006040518083038185875af1925050503d8060008114610da0576040519150601f19603f3d011682016040523d82523d6000602084013e610da5565b606091505b5050905080610e1c5760405162461bcd60e51b815260206004820152603a60248201527f416464726573733a20756e61626c6520746f2073656e642076616c75652c207260448201527f6563697069656e74206d617920686176652072657665727465640000000000006064820152608401610490565b505050565b600054610100900460ff1680610e3a575060005460ff16155b610eac5760405162461bcd60e51b815260206004820152602e60248201527f496e697469616c697a61626c653a20636f6e747261637420697320616c72656160448201527f647920696e697469616c697a65640000000000000000000000000000000000006064820152608401610490565b600054610100900460ff16158015610ece576000805461ffff19166101011790555b610ed6611078565b610ee08383611155565b8015610e1c57600080547fffffffffffffffffffffffffffffffffffffffffffffffffffffffffffff00ff169055505050565b600054610100900460ff1680610f2c575060005460ff16155b610f9e5760405162461bcd60e51b815260206004820152602e60248201527f496e697469616c697a61626c653a20636f6e747261637420697320616c72656160448201527f647920696e697469616c697a65640000000000000000000000000000000000006064820152608401610490565b600054610100900460ff16158015610fc0576000805461ffff19166101011790555b610fc8611078565b610fd0611358565b8015610cf357600080547fffffffffffffffffffffffffffffffffffffffffffffffffffffffffffff00ff16905550565b6065805473ffffffffffffffffffffffffffffffffffffffff8381167fffffffffffffffffffffffff0000000000000000000000000000000000000000831681179093556040519116919082907f8be0079c531659141344cd1fd0a4f28419497f9722a3daafe3b4186f6b6457e090600090a35050565b600054610100900460ff1680611091575060005460ff16155b6111035760405162461bcd60e51b815260206004820152602e60248201527f496e697469616c697a61626c653a20636f6e747261637420697320616c72656160448201527f647920696e697469616c697a65640000000000000000000000000000000000006064820152608401610490565b600054610100900460ff16158015610fd0576000805461ffff19166101011790558015610cf357600080547fffffffffffffffffffffffffffffffffffffffffffffffffffffffffffff00ff16905550565b600054610100900460ff168061116e575060005460ff16155b6111e05760405162461bcd60e51b815260206004820152602e60248201527f496e697469616c697a61626c653a20636f6e747261637420697320616c72656160448201527f647920696e697469616c697a65640000000000000000000000000000000000006064820152608401610490565b600054610100900460ff16158015611202576000805461ffff19166101011790555b81518351146112795760405162461bcd60e51b815260206004820152603260248201527f5061796d656e7453706c69747465723a2070617965657320616e64207368617260448201527f6573206c656e677468206d69736d6174636800000000000000000000000000006064820152608401610490565b60008351116112ca5760405162461bcd60e51b815260206004820152601a60248201527f5061796d656e7453706c69747465723a206e6f207061796565730000000000006044820152606401610490565b60005b8351811015611324576113128482815181106112eb576112eb611998565b602002602001015184838151811061130557611305611998565b602002602001015161140e565b8061131c81611930565b9150506112cd565b508015610e1c57600080547fffffffffffffffffffffffffffffffffffffffffffffffffffffffffffff00ff169055505050565b600054610100900460ff1680611371575060005460ff16155b6113e35760405162461bcd60e51b815260206004820152602e60248201527f496e697469616c697a61626c653a20636f6e747261637420697320616c72656160448201527f647920696e697469616c697a65640000000000000000000000000000000000006064820152608401610490565b600054610100900460ff16158015611405576000805461ffff19166101011790555b610fd033611001565b73ffffffffffffffffffffffffffffffffffffffff82166114975760405162461bcd60e51b815260206004820152602c60248201527f5061796d656e7453706c69747465723a206163636f756e74206973207468652060448201527f7a65726f206164647265737300000000000000000000000000000000000000006064820152608401610490565b600081116114e75760405162461bcd60e51b815260206004820152601d60248201527f5061796d656e7453706c69747465723a207368617265732061726520300000006044820152606401610490565b73ffffffffffffffffffffffffffffffffffffffff8216600090815260356020526040902054156115805760405162461bcd60e51b815260206004820152602b60248201527f5061796d656e7453706c69747465723a206163636f756e7420616c726561647960448201527f20686173207368617265730000000000000000000000000000000000000000006064820152608401610490565b60378054600181019091557f42a7b7dd785cd69714a189dffb3fd7d7174edc9ece837694ce50f7078f7c31ae0180547fffffffffffffffffffffffff00000000000000000000000000000000000000001673ffffffffffffffffffffffffffffffffffffffff8416908117909155600090815260356020526040902081905560335461160d908290611889565b6033556040805173ffffffffffffffffffffffffffffffffffffffff84168152602081018390527f40c340f65e17194d14ddddb073d3c9f888e3cb52b5aae0c6c7706b4fbc905fac910160405180910390a15050565b600082601f83011261167457600080fd5b8135602061168961168483611865565b611816565b80838252828201915082860187848660051b89010111156116a957600080fd5b60005b858110156116c8578135845292840192908401906001016116ac565b5090979650505050505050565b6000602082840312156116e757600080fd5b81356116f2816119f6565b9392505050565b600080600080600080600060e0888a03121561171457600080fd5b873561171f816119f6565b9650602088810135965060408901359550606089013594506080890135935060a089013567ffffffffffffffff8082111561175957600080fd5b818b0191508b601f83011261176d57600080fd5b813561177b61168482611865565b8082825285820191508585018f878560051b880101111561179b57600080fd5b600095505b838610156117c75780356117b3816119f6565b8352600195909501949186019186016117a0565b509650505060c08b01359250808311156117e057600080fd5b50506117ee8a828b01611663565b91505092959891949750929550565b60006020828403121561180f57600080fd5b5035919050565b604051601f82017fffffffffffffffffffffffffffffffffffffffffffffffffffffffffffffffe016810167ffffffffffffffff8111828210171561185d5761185d6119c7565b604052919050565b600067ffffffffffffffff82111561187f5761187f6119c7565b5060051b60200190565b6000821982111561189c5761189c611969565b500190565b6000826118d7577f4e487b7100000000000000000000000000000000000000000000000000000000600052601260045260246000fd5b500490565b6000817fffffffffffffffffffffffffffffffffffffffffffffffffffffffffffffffff048311821515161561191457611914611969565b500290565b60008282101561192b5761192b611969565b500390565b60007fffffffffffffffffffffffffffffffffffffffffffffffffffffffffffffffff82141561196257611962611969565b5060010190565b7f4e487b7100000000000000000000000000000000000000000000000000000000600052601160045260246000fd5b7f4e487b7100000000000000000000000000000000000000000000000000000000600052603260045260246000fd5b7f4e487b7100000000000000000000000000000000000000000000000000000000600052604160045260246000fd5b73ffffffffffffffffffffffffffffffffffffffff81168114610cf357600080fdfea2646970667358221220ee91cb922b6198fcf18f223c63c2189285e4e5a50083241447343c52b35da73464736f6c63430008060033",
  "linkReferences": {},
  "deployedLinkReferences": {}
}