{
  "_format": "hh-sol-artifact-1",
  "contractName": "ERC721Timelock",
  "sourceName": "contracts/ERC721Timelock.sol",
  "abi": [
    {
      "anonymous": false,
      "inputs": [
        {
          "indexed": true,
          "internalType": "bytes32",
          "name": "id",
          "type": "bytes32"
        },
        {
          "indexed": true,
          "internalType": "uint256",
          "name": "index",
          "type": "uint256"
        },
        {
          "indexed": false,
          "internalType": "address",
          "name": "target",
          "type": "address"
        },
        {
          "indexed": false,
          "internalType": "uint256",
          "name": "value",
          "type": "uint256"
        },
        {
          "indexed": false,
          "internalType": "bytes",
          "name": "data",
          "type": "bytes"
        }
      ],
      "name": "CallExecuted",
      "type": "event"
    },
    {
      "anonymous": false,
      "inputs": [
        {
          "indexed": true,
          "internalType": "bytes32",
          "name": "id",
          "type": "bytes32"
        },
        {
          "indexed": true,
          "internalType": "uint256",
          "name": "index",
          "type": "uint256"
        },
        {
          "indexed": false,
          "internalType": "address",
          "name": "target",
          "type": "address"
        },
        {
          "indexed": false,
          "internalType": "uint256",
          "name": "value",
          "type": "uint256"
        },
        {
          "indexed": false,
          "internalType": "bytes",
          "name": "data",
          "type": "bytes"
        },
        {
          "indexed": false,
          "internalType": "bytes32",
          "name": "predecessor",
          "type": "bytes32"
        },
        {
          "indexed": false,
          "internalType": "uint256",
          "name": "delay",
          "type": "uint256"
        }
      ],
      "name": "CallScheduled",
      "type": "event"
    },
    {
      "anonymous": false,
      "inputs": [
        {
          "indexed": true,
          "internalType": "bytes32",
          "name": "id",
          "type": "bytes32"
        }
      ],
      "name": "Cancelled",
      "type": "event"
    },
    {
      "anonymous": false,
      "inputs": [
        {
          "indexed": false,
          "internalType": "uint256",
          "name": "oldDuration",
          "type": "uint256"
        },
        {
          "indexed": false,
          "internalType": "uint256",
          "name": "newDuration",
          "type": "uint256"
        }
      ],
      "name": "MinDelayChange",
      "type": "event"
    },
    {
      "anonymous": false,
      "inputs": [
        {
          "indexed": true,
          "internalType": "bytes32",
          "name": "role",
          "type": "bytes32"
        },
        {
          "indexed": true,
          "internalType": "bytes32",
          "name": "previousAdminRole",
          "type": "bytes32"
        },
        {
          "indexed": true,
          "internalType": "bytes32",
          "name": "newAdminRole",
          "type": "bytes32"
        }
      ],
      "name": "RoleAdminChanged",
      "type": "event"
    },
    {
      "anonymous": false,
      "inputs": [
        {
          "indexed": true,
          "internalType": "bytes32",
          "name": "role",
          "type": "bytes32"
        },
        {
          "indexed": true,
          "internalType": "address",
          "name": "account",
          "type": "address"
        },
        {
          "indexed": true,
          "internalType": "address",
          "name": "sender",
          "type": "address"
        }
      ],
      "name": "RoleGranted",
      "type": "event"
    },
    {
      "anonymous": false,
      "inputs": [
        {
          "indexed": true,
          "internalType": "bytes32",
          "name": "role",
          "type": "bytes32"
        },
        {
          "indexed": true,
          "internalType": "address",
          "name": "account",
          "type": "address"
        },
        {
          "indexed": true,
          "internalType": "address",
          "name": "sender",
          "type": "address"
        }
      ],
      "name": "RoleRevoked",
      "type": "event"
    },
    {
      "inputs": [],
      "name": "DEFAULT_ADMIN_ROLE",
      "outputs": [
        {
          "internalType": "bytes32",
          "name": "",
          "type": "bytes32"
        }
      ],
      "stateMutability": "view",
      "type": "function"
    },
    {
      "inputs": [],
      "name": "EXECUTOR_ROLE",
      "outputs": [
        {
          "internalType": "bytes32",
          "name": "",
          "type": "bytes32"
        }
      ],
      "stateMutability": "view",
      "type": "function"
    },
    {
      "inputs": [],
      "name": "PROPOSER_ROLE",
      "outputs": [
        {
          "internalType": "bytes32",
          "name": "",
          "type": "bytes32"
        }
      ],
      "stateMutability": "view",
      "type": "function"
    },
    {
      "inputs": [],
      "name": "TIMELOCK_ADMIN_ROLE",
      "outputs": [
        {
          "internalType": "bytes32",
          "name": "",
          "type": "bytes32"
        }
      ],
      "stateMutability": "view",
      "type": "function"
    },
    {
      "inputs": [
        {
          "internalType": "bytes32",
          "name": "id",
          "type": "bytes32"
        }
      ],
      "name": "cancel",
      "outputs": [],
      "stateMutability": "nonpayable",
      "type": "function"
    },
    {
      "inputs": [
        {
          "internalType": "address",
          "name": "target",
          "type": "address"
        },
        {
          "internalType": "uint256",
          "name": "value",
          "type": "uint256"
        },
        {
          "internalType": "bytes",
          "name": "data",
          "type": "bytes"
        },
        {
          "internalType": "bytes32",
          "name": "predecessor",
          "type": "bytes32"
        },
        {
          "internalType": "bytes32",
          "name": "salt",
          "type": "bytes32"
        }
      ],
      "name": "execute",
      "outputs": [],
      "stateMutability": "payable",
      "type": "function"
    },
    {
      "inputs": [
        {
          "internalType": "address[]",
          "name": "targets",
          "type": "address[]"
        },
        {
          "internalType": "uint256[]",
          "name": "values",
          "type": "uint256[]"
        },
        {
          "internalType": "bytes[]",
          "name": "datas",
          "type": "bytes[]"
        },
        {
          "internalType": "bytes32",
          "name": "predecessor",
          "type": "bytes32"
        },
        {
          "internalType": "bytes32",
          "name": "salt",
          "type": "bytes32"
        }
      ],
      "name": "executeBatch",
      "outputs": [],
      "stateMutability": "payable",
      "type": "function"
    },
    {
      "inputs": [],
      "name": "getMinDelay",
      "outputs": [
        {
          "internalType": "uint256",
          "name": "duration",
          "type": "uint256"
        }
      ],
      "stateMutability": "view",
      "type": "function"
    },
    {
      "inputs": [
        {
          "internalType": "bytes32",
          "name": "role",
          "type": "bytes32"
        }
      ],
      "name": "getRoleAdmin",
      "outputs": [
        {
          "internalType": "bytes32",
          "name": "",
          "type": "bytes32"
        }
      ],
      "stateMutability": "view",
      "type": "function"
    },
    {
      "inputs": [
        {
          "internalType": "bytes32",
          "name": "id",
          "type": "bytes32"
        }
      ],
      "name": "getTimestamp",
      "outputs": [
        {
          "internalType": "uint256",
          "name": "timestamp",
          "type": "uint256"
        }
      ],
      "stateMutability": "view",
      "type": "function"
    },
    {
      "inputs": [
        {
          "internalType": "bytes32",
          "name": "role",
          "type": "bytes32"
        },
        {
          "internalType": "address",
          "name": "account",
          "type": "address"
        }
      ],
      "name": "grantRole",
      "outputs": [],
      "stateMutability": "nonpayable",
      "type": "function"
    },
    {
      "inputs": [
        {
          "internalType": "bytes32",
          "name": "role",
          "type": "bytes32"
        },
        {
          "internalType": "address",
          "name": "account",
          "type": "address"
        }
      ],
      "name": "hasRole",
      "outputs": [
        {
          "internalType": "bool",
          "name": "",
          "type": "bool"
        }
      ],
      "stateMutability": "view",
      "type": "function"
    },
    {
      "inputs": [
        {
          "internalType": "address",
          "name": "target",
          "type": "address"
        },
        {
          "internalType": "uint256",
          "name": "value",
          "type": "uint256"
        },
        {
          "internalType": "bytes",
          "name": "data",
          "type": "bytes"
        },
        {
          "internalType": "bytes32",
          "name": "predecessor",
          "type": "bytes32"
        },
        {
          "internalType": "bytes32",
          "name": "salt",
          "type": "bytes32"
        }
      ],
      "name": "hashOperation",
      "outputs": [
        {
          "internalType": "bytes32",
          "name": "hash",
          "type": "bytes32"
        }
      ],
      "stateMutability": "pure",
      "type": "function"
    },
    {
      "inputs": [
        {
          "internalType": "address[]",
          "name": "targets",
          "type": "address[]"
        },
        {
          "internalType": "uint256[]",
          "name": "values",
          "type": "uint256[]"
        },
        {
          "internalType": "bytes[]",
          "name": "datas",
          "type": "bytes[]"
        },
        {
          "internalType": "bytes32",
          "name": "predecessor",
          "type": "bytes32"
        },
        {
          "internalType": "bytes32",
          "name": "salt",
          "type": "bytes32"
        }
      ],
      "name": "hashOperationBatch",
      "outputs": [
        {
          "internalType": "bytes32",
          "name": "hash",
          "type": "bytes32"
        }
      ],
      "stateMutability": "pure",
      "type": "function"
    },
    {
      "inputs": [
        {
          "internalType": "uint256",
          "name": "minDelay",
          "type": "uint256"
        },
        {
          "internalType": "address",
          "name": "initialAdmin",
          "type": "address"
        },
        {
          "internalType": "address[]",
          "name": "proposers",
          "type": "address[]"
        },
        {
          "internalType": "address[]",
          "name": "executors",
          "type": "address[]"
        }
      ],
      "name": "initialize",
      "outputs": [],
      "stateMutability": "nonpayable",
      "type": "function"
    },
    {
      "inputs": [
        {
          "internalType": "bytes32",
          "name": "id",
          "type": "bytes32"
        }
      ],
      "name": "isOperation",
      "outputs": [
        {
          "internalType": "bool",
          "name": "pending",
          "type": "bool"
        }
      ],
      "stateMutability": "view",
      "type": "function"
    },
    {
      "inputs": [
        {
          "internalType": "bytes32",
          "name": "id",
          "type": "bytes32"
        }
      ],
      "name": "isOperationDone",
      "outputs": [
        {
          "internalType": "bool",
          "name": "done",
          "type": "bool"
        }
      ],
      "stateMutability": "view",
      "type": "function"
    },
    {
      "inputs": [
        {
          "internalType": "bytes32",
          "name": "id",
          "type": "bytes32"
        }
      ],
      "name": "isOperationPending",
      "outputs": [
        {
          "internalType": "bool",
          "name": "pending",
          "type": "bool"
        }
      ],
      "stateMutability": "view",
      "type": "function"
    },
    {
      "inputs": [
        {
          "internalType": "bytes32",
          "name": "id",
          "type": "bytes32"
        }
      ],
      "name": "isOperationReady",
      "outputs": [
        {
          "internalType": "bool",
          "name": "ready",
          "type": "bool"
        }
      ],
      "stateMutability": "view",
      "type": "function"
    },
    {
      "inputs": [
        {
          "internalType": "bytes32",
          "name": "role",
          "type": "bytes32"
        },
        {
          "internalType": "address",
          "name": "account",
          "type": "address"
        }
      ],
      "name": "renounceRole",
      "outputs": [],
      "stateMutability": "nonpayable",
      "type": "function"
    },
    {
      "inputs": [
        {
          "internalType": "bytes32",
          "name": "role",
          "type": "bytes32"
        },
        {
          "internalType": "address",
          "name": "account",
          "type": "address"
        }
      ],
      "name": "revokeRole",
      "outputs": [],
      "stateMutability": "nonpayable",
      "type": "function"
    },
    {
      "inputs": [
        {
          "internalType": "address",
          "name": "target",
          "type": "address"
        },
        {
          "internalType": "uint256",
          "name": "value",
          "type": "uint256"
        },
        {
          "internalType": "bytes",
          "name": "data",
          "type": "bytes"
        },
        {
          "internalType": "bytes32",
          "name": "predecessor",
          "type": "bytes32"
        },
        {
          "internalType": "bytes32",
          "name": "salt",
          "type": "bytes32"
        },
        {
          "internalType": "uint256",
          "name": "delay",
          "type": "uint256"
        }
      ],
      "name": "schedule",
      "outputs": [],
      "stateMutability": "nonpayable",
      "type": "function"
    },
    {
      "inputs": [
        {
          "internalType": "address[]",
          "name": "targets",
          "type": "address[]"
        },
        {
          "internalType": "uint256[]",
          "name": "values",
          "type": "uint256[]"
        },
        {
          "internalType": "bytes[]",
          "name": "datas",
          "type": "bytes[]"
        },
        {
          "internalType": "bytes32",
          "name": "predecessor",
          "type": "bytes32"
        },
        {
          "internalType": "bytes32",
          "name": "salt",
          "type": "bytes32"
        },
        {
          "internalType": "uint256",
          "name": "delay",
          "type": "uint256"
        }
      ],
      "name": "scheduleBatch",
      "outputs": [],
      "stateMutability": "nonpayable",
      "type": "function"
    },
    {
      "inputs": [
        {
          "internalType": "bytes4",
          "name": "interfaceId",
          "type": "bytes4"
        }
      ],
      "name": "supportsInterface",
      "outputs": [
        {
          "internalType": "bool",
          "name": "",
          "type": "bool"
        }
      ],
      "stateMutability": "view",
      "type": "function"
    },
    {
      "inputs": [
        {
          "internalType": "uint256",
          "name": "newDelay",
          "type": "uint256"
        }
      ],
      "name": "updateDelay",
      "outputs": [],
      "stateMutability": "nonpayable",
      "type": "function"
    },
    {
      "stateMutability": "payable",
      "type": "receive"
    }
  ],
  "bytecode": "0x608060405234801561001057600080fd5b50612821806100206000396000f3fe60806040526004361061019a5760003560e01c8063584b153e116100e1578063a217fddf1161008a578063d45c443511610064578063d45c4435146104e2578063d547741f1461050f578063e38335e51461052f578063f27a0c921461054257600080fd5b8063a217fddf1461048d578063b1c5f427146104a2578063c4d252f5146104c257600080fd5b80638f2a0bb0116100bb5780638f2a0bb0146103e65780638f61f4f51461040657806391d148541461043a57600080fd5b8063584b153e1461038657806364d62353146103a65780638065657f146103c657600080fd5b8063163a63fb116101435780632f2ff15d1161011d5780632f2ff15d1461032657806331d507501461034657806336568abe1461036657600080fd5b8063163a63fb146102a6578063248a9ca3146102c65780632ab0f529146102f657600080fd5b80630d3cf6fc116101745780630d3cf6fc1461023f578063134008d31461027357806313bc9f201461028657600080fd5b806301d5062a146101a657806301ffc9a7146101c857806307bd0265146101fd57600080fd5b366101a157005b600080fd5b3480156101b257600080fd5b506101c66101c1366004611fff565b610557565b005b3480156101d457600080fd5b506101e86101e3366004612214565b6105ed565b60405190151581526020015b60405180910390f35b34801561020957600080fd5b506102317fd8aa0f3194971a2a116679f7c2090f6939c8d4e01a2a8d7e41d55e5351469e6381565b6040519081526020016101f4565b34801561024b57600080fd5b506102317f5f58e3a2316349923ce3780f8d587db2d72378aed66a8261c916544fa6846ca581565b6101c6610281366004611f93565b610686565b34801561029257600080fd5b506101e86102a13660046121cf565b610741565b3480156102b257600080fd5b506101c66102c1366004612256565b610767565b3480156102d257600080fd5b506102316102e13660046121cf565b60009081526065602052604090206001015490565b34801561030257600080fd5b506101e86103113660046121cf565b60009081526097602052604090205460011490565b34801561033257600080fd5b506101c66103413660046121e8565b6108cb565b34801561035257600080fd5b506101e86103613660046121cf565b6108f6565b34801561037257600080fd5b506101c66103813660046121e8565b61090f565b34801561039257600080fd5b506101e86103a13660046121cf565b6109a8565b3480156103b257600080fd5b506101c66103c13660046121cf565b6109bf565b3480156103d257600080fd5b506102316103e1366004611f93565b610a75565b3480156103f257600080fd5b506101c661040136600461211d565b610ab4565b34801561041257600080fd5b506102317fb09aa5aeb3702cfd50b6b62bc4532604938f21248a27a1d5ca736082b6819cc181565b34801561044657600080fd5b506101e86104553660046121e8565b600091825260656020908152604080842073ffffffffffffffffffffffffffffffffffffffff93909316845291905290205460ff1690565b34801561049957600080fd5b50610231600081565b3480156104ae57600080fd5b506102316104bd366004612074565b610cb3565b3480156104ce57600080fd5b506101c66104dd3660046121cf565b610cf8565b3480156104ee57600080fd5b506102316104fd3660046121cf565b60009081526097602052604090205490565b34801561051b57600080fd5b506101c661052a3660046121e8565b610dda565b6101c661053d366004612074565b610e00565b34801561054e57600080fd5b50609854610231565b7fb09aa5aeb3702cfd50b6b62bc4532604938f21248a27a1d5ca736082b6819cc16105828133611024565b6000610592898989898989610a75565b905061059e81846110dc565b6000817f4cf4410cc57040e44862ef0f45f3dd5a5e02db8eb8add648d4b0e236f1d07dca8b8b8b8b8b8a6040516105da9695949392919061249d565b60405180910390a3505050505050505050565b60007fffffffff0000000000000000000000000000000000000000000000000000000082167f7965db0b00000000000000000000000000000000000000000000000000000000148061068057507f01ffc9a7000000000000000000000000000000000000000000000000000000007fffffffff000000000000000000000000000000000000000000000000000000008316145b92915050565b600080527f7dc9f88e569f94faad6fa0d44dd44858caf3f34f1bd1c985800aedf5793aad8b6020527fa01e231ca478cf51f663e103939e98de36fa76d3e4e0b1de673dc711acc3a01b547fd8aa0f3194971a2a116679f7c2090f6939c8d4e01a2a8d7e41d55e5351469e639060ff16610703576107038133611024565b6000610713888888888888610a75565b905061071f81856111f0565b61072e8160008a8a8a8a6112f8565b61073781611423565b5050505050505050565b6000818152609760205260408120546001811180156107605750428111155b9392505050565b600054610100900460ff1680610780575060005460ff16155b6107f75760405162461bcd60e51b815260206004820152602e60248201527f496e697469616c697a61626c653a20636f6e747261637420697320616c72656160448201527f647920696e697469616c697a656400000000000000000000000000000000000060648201526084015b60405180910390fd5b600054610100900460ff1615801561083657600080547fffffffffffffffffffffffffffffffffffffffffffffffffffffffffffff0000166101011790555b6108418584846114b2565b61086b7f5f58e3a2316349923ce3780f8d587db2d72378aed66a8261c916544fa6846ca533610dda565b6108957f5f58e3a2316349923ce3780f8d587db2d72378aed66a8261c916544fa6846ca5856115d4565b80156108c457600080547fffffffffffffffffffffffffffffffffffffffffffffffffffffffffffff00ff1690555b5050505050565b6000828152606560205260409020600101546108e78133611024565b6108f183836115da565b505050565b60008181526097602052604081205481905b1192915050565b73ffffffffffffffffffffffffffffffffffffffff8116331461099a5760405162461bcd60e51b815260206004820152602f60248201527f416363657373436f6e74726f6c3a2063616e206f6e6c792072656e6f756e636560448201527f20726f6c657320666f722073656c66000000000000000000000000000000000060648201526084016107ee565b6109a482826116ce565b5050565b600081815260976020526040812054600190610908565b333014610a345760405162461bcd60e51b815260206004820152602b60248201527f54696d656c6f636b436f6e74726f6c6c65723a2063616c6c6572206d7573742060448201527f62652074696d656c6f636b00000000000000000000000000000000000000000060648201526084016107ee565b60985460408051918252602082018390527f11c24f4ead16507c69ac467fbd5e4eed5fb5c699626d2cc6d66421df253886d5910160405180910390a1609855565b6000868686868686604051602001610a929695949392919061249d565b6040516020818303038152906040528051906020012090509695505050505050565b7fb09aa5aeb3702cfd50b6b62bc4532604938f21248a27a1d5ca736082b6819cc1610adf8133611024565b888714610b545760405162461bcd60e51b815260206004820152602360248201527f54696d656c6f636b436f6e74726f6c6c65723a206c656e677468206d69736d6160448201527f746368000000000000000000000000000000000000000000000000000000000060648201526084016107ee565b888514610bc95760405162461bcd60e51b815260206004820152602360248201527f54696d656c6f636b436f6e74726f6c6c65723a206c656e677468206d69736d6160448201527f746368000000000000000000000000000000000000000000000000000000000060648201526084016107ee565b6000610bdb8b8b8b8b8b8b8b8b610cb3565b9050610be781846110dc565b60005b8a811015610ca55780827f4cf4410cc57040e44862ef0f45f3dd5a5e02db8eb8add648d4b0e236f1d07dca8e8e85818110610c2757610c2761278d565b9050602002016020810190610c3c9190611f78565b8d8d86818110610c4e57610c4e61278d565b905060200201358c8c87818110610c6757610c6761278d565b9050602002810190610c79919061260a565b8c8b604051610c8d9695949392919061249d565b60405180910390a3610c9e81612725565b9050610bea565b505050505050505050505050565b60008888888888888888604051602001610cd49897969594939291906124e8565b60405160208183030381529060405280519060200120905098975050505050505050565b7fb09aa5aeb3702cfd50b6b62bc4532604938f21248a27a1d5ca736082b6819cc1610d238133611024565b610d2c826109a8565b610d9e5760405162461bcd60e51b815260206004820152603160248201527f54696d656c6f636b436f6e74726f6c6c65723a206f7065726174696f6e20636160448201527f6e6e6f742062652063616e63656c6c656400000000000000000000000000000060648201526084016107ee565b6000828152609760205260408082208290555183917fbaa1eb22f2a492ba1a5fea61b8df4d27c6c8b5f3971e63bb58fa14ff72eedb7091a25050565b600082815260656020526040902060010154610df68133611024565b6108f183836116ce565b600080527f7dc9f88e569f94faad6fa0d44dd44858caf3f34f1bd1c985800aedf5793aad8b6020527fa01e231ca478cf51f663e103939e98de36fa76d3e4e0b1de673dc711acc3a01b547fd8aa0f3194971a2a116679f7c2090f6939c8d4e01a2a8d7e41d55e5351469e639060ff16610e7d57610e7d8133611024565b878614610ef25760405162461bcd60e51b815260206004820152602360248201527f54696d656c6f636b436f6e74726f6c6c65723a206c656e677468206d69736d6160448201527f746368000000000000000000000000000000000000000000000000000000000060648201526084016107ee565b878414610f675760405162461bcd60e51b815260206004820152602360248201527f54696d656c6f636b436f6e74726f6c6c65723a206c656e677468206d69736d6160448201527f746368000000000000000000000000000000000000000000000000000000000060648201526084016107ee565b6000610f798a8a8a8a8a8a8a8a610cb3565b9050610f8581856111f0565b60005b8981101561100e57610ffe82828d8d85818110610fa757610fa761278d565b9050602002016020810190610fbc9190611f78565b8c8c86818110610fce57610fce61278d565b905060200201358b8b87818110610fe757610fe761278d565b9050602002810190610ff9919061260a565b6112f8565b61100781612725565b9050610f88565b5061101881611423565b50505050505050505050565b600082815260656020908152604080832073ffffffffffffffffffffffffffffffffffffffff8516845290915290205460ff166109a45761107c8173ffffffffffffffffffffffffffffffffffffffff166014611789565b611087836020611789565b6040516020016110989291906123dc565b604080517fffffffffffffffffffffffffffffffffffffffffffffffffffffffffffffffe08184030181529082905262461bcd60e51b82526107ee916004016125b9565b6110e5826108f6565b156111585760405162461bcd60e51b815260206004820152602f60248201527f54696d656c6f636b436f6e74726f6c6c65723a206f7065726174696f6e20616c60448201527f7265616479207363686564756c6564000000000000000000000000000000000060648201526084016107ee565b6098548110156111d05760405162461bcd60e51b815260206004820152602660248201527f54696d656c6f636b436f6e74726f6c6c65723a20696e73756666696369656e7460448201527f2064656c6179000000000000000000000000000000000000000000000000000060648201526084016107ee565b6111da814261266f565b6000928352609760205260409092209190915550565b6111f982610741565b61126b5760405162461bcd60e51b815260206004820152602a60248201527f54696d656c6f636b436f6e74726f6c6c65723a206f7065726174696f6e20697360448201527f206e6f742072656164790000000000000000000000000000000000000000000060648201526084016107ee565b80158061128657506000818152609760205260409020546001145b6109a45760405162461bcd60e51b815260206004820152602660248201527f54696d656c6f636b436f6e74726f6c6c65723a206d697373696e67206465706560448201527f6e64656e6379000000000000000000000000000000000000000000000000000060648201526084016107ee565b60008473ffffffffffffffffffffffffffffffffffffffff168484846040516113229291906123cc565b60006040518083038185875af1925050503d806000811461135f576040519150601f19603f3d011682016040523d82523d6000602084013e611364565b606091505b50509050806113db5760405162461bcd60e51b815260206004820152603360248201527f54696d656c6f636b436f6e74726f6c6c65723a20756e6465726c79696e67207460448201527f72616e73616374696f6e2072657665727465640000000000000000000000000060648201526084016107ee565b85877fc2617efa69bab66782fa219543714338489c4e9e178271560a91b82c3f612b5887878787604051611412949392919061245d565b60405180910390a350505050505050565b61142c81610741565b61149e5760405162461bcd60e51b815260206004820152602a60248201527f54696d656c6f636b436f6e74726f6c6c65723a206f7065726174696f6e20697360448201527f206e6f742072656164790000000000000000000000000000000000000000000060648201526084016107ee565b600090815260976020526040902060019055565b600054610100900460ff16806114cb575060005460ff16155b61153d5760405162461bcd60e51b815260206004820152602e60248201527f496e697469616c697a61626c653a20636f6e747261637420697320616c72656160448201527f647920696e697469616c697a656400000000000000000000000000000000000060648201526084016107ee565b600054610100900460ff1615801561157c57600080547fffffffffffffffffffffffffffffffffffffffffffffffffffffffffffff0000166101011790555b6115846119b2565b61158c6119b2565b6115946119b2565b61159f848484611aae565b80156115ce57600080547fffffffffffffffffffffffffffffffffffffffffffffffffffffffffffff00ff1690555b50505050565b6109a482825b600082815260656020908152604080832073ffffffffffffffffffffffffffffffffffffffff8516845290915290205460ff166109a457600082815260656020908152604080832073ffffffffffffffffffffffffffffffffffffffff85168452909152902080547fffffffffffffffffffffffffffffffffffffffffffffffffffffffffffffff001660011790556116703390565b73ffffffffffffffffffffffffffffffffffffffff168173ffffffffffffffffffffffffffffffffffffffff16837f2f8788117e7eff1d82e926ec794901d17c78024a50270940304540a733656f0d60405160405180910390a45050565b600082815260656020908152604080832073ffffffffffffffffffffffffffffffffffffffff8516845290915290205460ff16156109a457600082815260656020908152604080832073ffffffffffffffffffffffffffffffffffffffff8516808552925280832080547fffffffffffffffffffffffffffffffffffffffffffffffffffffffffffffff0016905551339285917ff6391f5c32d9c69d2a47ea670b442974b53935d1edc7fd64eb21e047a839171b9190a45050565b60606000611798836002612687565b6117a390600261266f565b67ffffffffffffffff8111156117bb576117bb6127bc565b6040519080825280601f01601f1916602001820160405280156117e5576020820181803683370190505b5090507f30000000000000000000000000000000000000000000000000000000000000008160008151811061181c5761181c61278d565b60200101907effffffffffffffffffffffffffffffffffffffffffffffffffffffffffffff1916908160001a9053507f78000000000000000000000000000000000000000000000000000000000000008160018151811061187f5761187f61278d565b60200101907effffffffffffffffffffffffffffffffffffffffffffffffffffffffffffff1916908160001a90535060006118bb846002612687565b6118c690600161266f565b90505b6001811115611963577f303132333435363738396162636465660000000000000000000000000000000085600f16601081106119075761190761278d565b1a60f81b82828151811061191d5761191d61278d565b60200101907effffffffffffffffffffffffffffffffffffffffffffffffffffffffffffff1916908160001a90535060049490941c9361195c816126f0565b90506118c9565b5083156107605760405162461bcd60e51b815260206004820181905260248201527f537472696e67733a20686578206c656e67746820696e73756666696369656e7460448201526064016107ee565b600054610100900460ff16806119cb575060005460ff16155b611a3d5760405162461bcd60e51b815260206004820152602e60248201527f496e697469616c697a61626c653a20636f6e747261637420697320616c72656160448201527f647920696e697469616c697a656400000000000000000000000000000000000060648201526084016107ee565b600054610100900460ff16158015611a7c57600080547fffffffffffffffffffffffffffffffffffffffffffffffffffffffffffff0000166101011790555b8015611aab57600080547fffffffffffffffffffffffffffffffffffffffffffffffffffffffffffff00ff1690555b50565b600054610100900460ff1680611ac7575060005460ff16155b611b395760405162461bcd60e51b815260206004820152602e60248201527f496e697469616c697a61626c653a20636f6e747261637420697320616c72656160448201527f647920696e697469616c697a656400000000000000000000000000000000000060648201526084016107ee565b600054610100900460ff16158015611b7857600080547fffffffffffffffffffffffffffffffffffffffffffffffffffffffffffff0000166101011790555b611ba27f5f58e3a2316349923ce3780f8d587db2d72378aed66a8261c916544fa6846ca580611db0565b611bec7fb09aa5aeb3702cfd50b6b62bc4532604938f21248a27a1d5ca736082b6819cc17f5f58e3a2316349923ce3780f8d587db2d72378aed66a8261c916544fa6846ca5611db0565b611c367fd8aa0f3194971a2a116679f7c2090f6939c8d4e01a2a8d7e41d55e5351469e637f5f58e3a2316349923ce3780f8d587db2d72378aed66a8261c916544fa6846ca5611db0565b611c607f5f58e3a2316349923ce3780f8d587db2d72378aed66a8261c916544fa6846ca5336115d4565b611c8a7f5f58e3a2316349923ce3780f8d587db2d72378aed66a8261c916544fa6846ca5306115d4565b60005b8351811015611ce957611cd97fb09aa5aeb3702cfd50b6b62bc4532604938f21248a27a1d5ca736082b6819cc1858381518110611ccc57611ccc61278d565b60200260200101516115d4565b611ce281612725565b9050611c8d565b5060005b8251811015611d3c57611d2c7fd8aa0f3194971a2a116679f7c2090f6939c8d4e01a2a8d7e41d55e5351469e63848381518110611ccc57611ccc61278d565b611d3581612725565b9050611ced565b5060988490556040805160008152602081018690527f11c24f4ead16507c69ac467fbd5e4eed5fb5c699626d2cc6d66421df253886d5910160405180910390a180156115ce57600080547fffffffffffffffffffffffffffffffffffffffffffffffffffffffffffff00ff16905550505050565b600082815260656020526040808220600101805490849055905190918391839186917fbd79b86ffe0ab8e8776151514217cd7cacd52c909f66475c3af44e129f0b00ff9190a4505050565b803573ffffffffffffffffffffffffffffffffffffffff81168114611e1f57600080fd5b919050565b60008083601f840112611e3657600080fd5b50813567ffffffffffffffff811115611e4e57600080fd5b6020830191508360208260051b8501011115611e6957600080fd5b9250929050565b600082601f830112611e8157600080fd5b8135602067ffffffffffffffff80831115611e9e57611e9e6127bc565b8260051b6040517fffffffffffffffffffffffffffffffffffffffffffffffffffffffffffffffe0603f83011681018181108482111715611ee157611ee16127bc565b60405284815283810192508684018288018501891015611f0057600080fd5b600092505b85831015611f2a57611f1681611dfb565b845292840192600192909201918401611f05565b50979650505050505050565b60008083601f840112611f4857600080fd5b50813567ffffffffffffffff811115611f6057600080fd5b602083019150836020828501011115611e6957600080fd5b600060208284031215611f8a57600080fd5b61076082611dfb565b60008060008060008060a08789031215611fac57600080fd5b611fb587611dfb565b955060208701359450604087013567ffffffffffffffff811115611fd857600080fd5b611fe489828a01611f36565b979a9699509760608101359660809091013595509350505050565b600080600080600080600060c0888a03121561201a57600080fd5b61202388611dfb565b965060208801359550604088013567ffffffffffffffff81111561204657600080fd5b6120528a828b01611f36565b989b979a50986060810135976080820135975060a09091013595509350505050565b60008060008060008060008060a0898b03121561209057600080fd5b883567ffffffffffffffff808211156120a857600080fd5b6120b48c838d01611e24565b909a50985060208b01359150808211156120cd57600080fd5b6120d98c838d01611e24565b909850965060408b01359150808211156120f257600080fd5b506120ff8b828c01611e24565b999c989b509699959896976060870135966080013595509350505050565b600080600080600080600080600060c08a8c03121561213b57600080fd5b893567ffffffffffffffff8082111561215357600080fd5b61215f8d838e01611e24565b909b50995060208c013591508082111561217857600080fd5b6121848d838e01611e24565b909950975060408c013591508082111561219d57600080fd5b506121aa8c828d01611e24565b9a9d999c50979a969997986060880135976080810135975060a0013595509350505050565b6000602082840312156121e157600080fd5b5035919050565b600080604083850312156121fb57600080fd5b8235915061220b60208401611dfb565b90509250929050565b60006020828403121561222657600080fd5b81357fffffffff000000000000000000000000000000000000000000000000000000008116811461076057600080fd5b6000806000806080858703121561226c57600080fd5b8435935061227c60208601611dfb565b9250604085013567ffffffffffffffff8082111561229957600080fd5b6122a588838901611e70565b935060608701359150808211156122bb57600080fd5b506122c887828801611e70565b91505092959194509250565b81835260006020808501808196508560051b810191508460005b8781101561237657828403895281357fffffffffffffffffffffffffffffffffffffffffffffffffffffffffffffffe188360301811261232d57600080fd5b8701803567ffffffffffffffff81111561234657600080fd5b80360389131561235557600080fd5b6123628682898501612383565b9a87019a95505050908401906001016122ee565b5091979650505050505050565b8183528181602085013750600060208284010152600060207fffffffffffffffffffffffffffffffffffffffffffffffffffffffffffffffe0601f840116840101905092915050565b8183823760009101908152919050565b7f416363657373436f6e74726f6c3a206163636f756e74200000000000000000008152600083516124148160178501602088016126c4565b7f206973206d697373696e6720726f6c652000000000000000000000000000000060179184019182015283516124518160288401602088016126c4565b01602801949350505050565b73ffffffffffffffffffffffffffffffffffffffff85168152836020820152606060408201526000612493606083018486612383565b9695505050505050565b73ffffffffffffffffffffffffffffffffffffffff8716815285602082015260a0604082015260006124d360a083018688612383565b60608301949094525060800152949350505050565b60a0808252810188905260008960c08301825b8b8110156125365773ffffffffffffffffffffffffffffffffffffffff61252184611dfb565b168252602092830192909101906001016124fb565b5083810360208501528881527f07ffffffffffffffffffffffffffffffffffffffffffffffffffffffffffffff89111561256f57600080fd5b8860051b9150818a6020830137818101915050602081016000815260208483030160408501526125a081888a6122d4565b6060850196909652505050608001529695505050505050565b60208152600082518060208401526125d88160408501602087016126c4565b601f017fffffffffffffffffffffffffffffffffffffffffffffffffffffffffffffffe0169190910160400192915050565b60008083357fffffffffffffffffffffffffffffffffffffffffffffffffffffffffffffffe184360301811261263f57600080fd5b83018035915067ffffffffffffffff82111561265a57600080fd5b602001915036819003821315611e6957600080fd5b600082198211156126825761268261275e565b500190565b6000817fffffffffffffffffffffffffffffffffffffffffffffffffffffffffffffffff04831182151516156126bf576126bf61275e565b500290565b60005b838110156126df5781810151838201526020016126c7565b838111156115ce5750506000910152565b6000816126ff576126ff61275e565b507fffffffffffffffffffffffffffffffffffffffffffffffffffffffffffffffff0190565b60007fffffffffffffffffffffffffffffffffffffffffffffffffffffffffffffffff8214156127575761275761275e565b5060010190565b7f4e487b7100000000000000000000000000000000000000000000000000000000600052601160045260246000fd5b7f4e487b7100000000000000000000000000000000000000000000000000000000600052603260045260246000fd5b7f4e487b7100000000000000000000000000000000000000000000000000000000600052604160045260246000fdfea2646970667358221220bff1e5bddc7de95e0584639b5c01616460aa7c98a63742a3d615cf6c5a7f8f2b64736f6c63430008060033",
  "linkReferences": {},
  "deployedLinkReferences": {}
}