{
  "_format": "hh-sol-artifact-1",
  "contractName": "CloneFactory",
  "sourceName": "contracts/CloneFactory.sol",
  "abi": [
    {
      "anonymous": false,
      "inputs": [
        {
          "indexed": false,
          "internalType": "address",
          "name": "instance",
          "type": "address"
        }
      ],
      "name": "NewClone",
      "type": "event"
    },
    {
      "anonymous": false,
      "inputs": [
        {
          "indexed": false,
          "internalType": "address",
          "name": "implementation",
          "type": "address"
        },
        {
          "indexed": false,
          "internalType": "string",
          "name": "details",
          "type": "string"
        }
      ],
      "name": "NewImplementationAdded",
      "type": "event"
    },
    {
      "anonymous": false,
      "inputs": [
        {
          "indexed": true,
          "internalType": "address",
          "name": "previousOwner",
          "type": "address"
        },
        {
          "indexed": true,
          "internalType": "address",
          "name": "newOwner",
          "type": "address"
        }
      ],
      "name": "OwnershipTransferred",
      "type": "event"
    },
    {
      "inputs": [
        {
          "internalType": "address",
          "name": "_implementation",
          "type": "address"
        },
        {
          "internalType": "string",
          "name": "_details",
          "type": "string"
        }
      ],
      "name": "addImplementation",
      "outputs": [],
      "stateMutability": "nonpayable",
      "type": "function"
    },
    {
      "inputs": [
        {
          "internalType": "uint256",
          "name": "implementation",
          "type": "uint256"
        },
        {
          "internalType": "bytes",
          "name": "initdata",
          "type": "bytes"
        }
      ],
      "name": "clone",
      "outputs": [
        {
          "internalType": "address",
          "name": "",
          "type": "address"
        }
      ],
      "stateMutability": "payable",
      "type": "function"
    },
    {
      "inputs": [
        {
          "internalType": "address",
          "name": "implementation",
          "type": "address"
        },
        {
          "internalType": "bytes32",
          "name": "salt",
          "type": "bytes32"
        },
        {
          "internalType": "bytes",
          "name": "initdata",
          "type": "bytes"
        }
      ],
      "name": "cloneDeterministic",
      "outputs": [],
      "stateMutability": "payable",
      "type": "function"
    },
    {
      "inputs": [
        {
          "internalType": "uint256",
          "name": "",
          "type": "uint256"
        }
      ],
      "name": "implementations",
      "outputs": [
        {
          "internalType": "address",
          "name": "",
          "type": "address"
        }
      ],
      "stateMutability": "view",
      "type": "function"
    },
    {
      "inputs": [],
      "name": "owner",
      "outputs": [
        {
          "internalType": "address",
          "name": "",
          "type": "address"
        }
      ],
      "stateMutability": "view",
      "type": "function"
    },
    {
      "inputs": [
        {
          "internalType": "address",
          "name": "implementation",
          "type": "address"
        },
        {
          "internalType": "bytes32",
          "name": "salt",
          "type": "bytes32"
        }
      ],
      "name": "predictDeterministicAddress",
      "outputs": [
        {
          "internalType": "address",
          "name": "predicted",
          "type": "address"
        }
      ],
      "stateMutability": "view",
      "type": "function"
    },
    {
      "inputs": [],
      "name": "renounceOwnership",
      "outputs": [],
      "stateMutability": "nonpayable",
      "type": "function"
    },
    {
      "inputs": [
        {
          "internalType": "address",
          "name": "newOwner",
          "type": "address"
        }
      ],
      "name": "transferOwnership",
      "outputs": [],
      "stateMutability": "nonpayable",
      "type": "function"
    }
  ],
  "bytecode": "0x608060405234801561001057600080fd5b50610f6a806100206000396000f3fe60806040526004361061007b5760003560e01c8063845affc81161004e578063845affc8146101135780638da5cb5b14610133578063b90fb1121461015e578063f2fde38b1461017157600080fd5b8063360d0fad1461008057806351d58934146100c95780636e9ebc81146100eb578063715018a6146100fe575b600080fd5b34801561008c57600080fd5b506100a061009b366004610c0c565b610191565b60405173ffffffffffffffffffffffffffffffffffffffff909116815260200160405180910390f35b3480156100d557600080fd5b506100e96100e4366004610c90565b6101bc565b005b6100e96100f9366004610c36565b61037e565b34801561010a57600080fd5b506100e96103e4565b34801561011f57600080fd5b506100a061012e366004610d70565b610471565b34801561013f57600080fd5b5060335473ffffffffffffffffffffffffffffffffffffffff166100a0565b6100a061016c366004610d89565b6104a8565b34801561017d57600080fd5b506100e961018c366004610bf1565b610530565b60006101b373ffffffffffffffffffffffffffffffffffffffff841683610660565b90505b92915050565b60335473ffffffffffffffffffffffffffffffffffffffff163314610242576040517f08c379a000000000000000000000000000000000000000000000000000000000815260206004820181905260248201527f4f776e61626c653a2063616c6c6572206973206e6f7420746865206f776e657260448201526064015b60405180910390fd5b813b6102d0576040517f08c379a000000000000000000000000000000000000000000000000000000000815260206004820152602a60248201527f4572723a20496d706c656d656e746174696f6e2061646472657373206e6f742060448201527f6120636f6e7472616374000000000000000000000000000000000000000000006064820152608401610239565b606580546001810182556000919091527f8ff97419363ffd7000167f130ef7168fbea05faf9251824ca5043f113cc6a7c70180547fffffffffffffffffffffffff00000000000000000000000000000000000000001673ffffffffffffffffffffffffffffffffffffffff84161790556040517fb6084c7a9189e3538dc3ad56bd250ed1836b77a053e054bc19214120bd52c3d2906103729084908490610e3b565b60405180910390a15050565b6103dd6103a173ffffffffffffffffffffffffffffffffffffffff8616856106dc565b83838080601f0160208091040260200160405190810160405280939291908181526020018383808284376000920191909152506107ba92505050565b5050505050565b60335473ffffffffffffffffffffffffffffffffffffffff163314610465576040517f08c379a000000000000000000000000000000000000000000000000000000000815260206004820181905260248201527f4f776e61626c653a2063616c6c6572206973206e6f7420746865206f776e65726044820152606401610239565b61046f6000610837565b565b6065818154811061048157600080fd5b60009182526020909120015473ffffffffffffffffffffffffffffffffffffffff16905081565b60006105266104ea606586815481106104c3576104c3610ead565b60009182526020909120015473ffffffffffffffffffffffffffffffffffffffff166108ae565b84848080601f0160208091040260200160405190810160405280939291908181526020018383808284376000920191909152506107ba92505050565b90505b9392505050565b60335473ffffffffffffffffffffffffffffffffffffffff1633146105b1576040517f08c379a000000000000000000000000000000000000000000000000000000000815260206004820181905260248201527f4f776e61626c653a2063616c6c6572206973206e6f7420746865206f776e65726044820152606401610239565b73ffffffffffffffffffffffffffffffffffffffff8116610654576040517f08c379a000000000000000000000000000000000000000000000000000000000815260206004820152602660248201527f4f776e61626c653a206e6577206f776e657220697320746865207a65726f206160448201527f64647265737300000000000000000000000000000000000000000000000000006064820152608401610239565b61065d81610837565b50565b60006101b38383306040517f3d602d80600a3d3981f3363d3d373d3d3d363d730000000000000000000000008152606093841b60148201527f5af43d82803e903d91602b57fd5bf3ff000000000000000000000000000000006028820152921b6038830152604c8201526037808220606c830152605591012090565b60006040517f3d602d80600a3d3981f3363d3d373d3d3d363d7300000000000000000000000081528360601b60148201527f5af43d82803e903d91602b57fd5bf300000000000000000000000000000000006028820152826037826000f591505073ffffffffffffffffffffffffffffffffffffffff81166101b6576040517f08c379a000000000000000000000000000000000000000000000000000000000815260206004820152601760248201527f455243313136373a2063726561746532206661696c65640000000000000000006044820152606401610239565b8051600090156107e7576107e573ffffffffffffffffffffffffffffffffffffffff84168334610990565b505b60405173ffffffffffffffffffffffffffffffffffffffff841681527fcc1e9c890bc4f4943c457abb8d17f97703b9f7144e1f4a69e50c6e4988ef38b79060200160405180910390a15090919050565b6033805473ffffffffffffffffffffffffffffffffffffffff8381167fffffffffffffffffffffffff0000000000000000000000000000000000000000831681179093556040519116919082907f8be0079c531659141344cd1fd0a4f28419497f9722a3daafe3b4186f6b6457e090600090a35050565b60006040517f3d602d80600a3d3981f3363d3d373d3d3d363d7300000000000000000000000081528260601b60148201527f5af43d82803e903d91602b57fd5bf3000000000000000000000000000000000060288201526037816000f091505073ffffffffffffffffffffffffffffffffffffffff811661098b576040517f08c379a000000000000000000000000000000000000000000000000000000000815260206004820152601660248201527f455243313136373a20637265617465206661696c6564000000000000000000006044820152606401610239565b919050565b6060610526848484604051806060016040528060298152602001610f0c60299139606082471015610a43576040517f08c379a000000000000000000000000000000000000000000000000000000000815260206004820152602660248201527f416464726573733a20696e73756666696369656e742062616c616e636520666f60448201527f722063616c6c00000000000000000000000000000000000000000000000000006064820152608401610239565b843b610aab576040517f08c379a000000000000000000000000000000000000000000000000000000000815260206004820152601d60248201527f416464726573733a2063616c6c20746f206e6f6e2d636f6e74726163740000006044820152606401610239565b6000808673ffffffffffffffffffffffffffffffffffffffff168587604051610ad49190610e1f565b60006040518083038185875af1925050503d8060008114610b11576040519150601f19603f3d011682016040523d82523d6000602084013e610b16565b606091505b5091509150610b26828286610b31565b979650505050505050565b60608315610b40575081610529565b825115610b505782518084602001fd5b816040517f08c379a00000000000000000000000000000000000000000000000000000000081526004016102399190610e6a565b803573ffffffffffffffffffffffffffffffffffffffff8116811461098b57600080fd5b60008083601f840112610bba57600080fd5b50813567ffffffffffffffff811115610bd257600080fd5b602083019150836020828501011115610bea57600080fd5b9250929050565b600060208284031215610c0357600080fd5b6101b382610b84565b60008060408385031215610c1f57600080fd5b610c2883610b84565b946020939093013593505050565b60008060008060608587031215610c4c57600080fd5b610c5585610b84565b935060208501359250604085013567ffffffffffffffff811115610c7857600080fd5b610c8487828801610ba8565b95989497509550505050565b60008060408385031215610ca357600080fd5b610cac83610b84565b9150602083013567ffffffffffffffff80821115610cc957600080fd5b818501915085601f830112610cdd57600080fd5b813581811115610cef57610cef610edc565b604051601f82017fffffffffffffffffffffffffffffffffffffffffffffffffffffffffffffffe0908116603f01168101908382118183101715610d3557610d35610edc565b81604052828152886020848701011115610d4e57600080fd5b8260208601602083013760006020848301015280955050505050509250929050565b600060208284031215610d8257600080fd5b5035919050565b600080600060408486031215610d9e57600080fd5b83359250602084013567ffffffffffffffff811115610dbc57600080fd5b610dc886828701610ba8565b9497909650939450505050565b60008151808452610ded816020860160208601610e7d565b601f017fffffffffffffffffffffffffffffffffffffffffffffffffffffffffffffffe0169290920160200192915050565b60008251610e31818460208701610e7d565b9190910192915050565b73ffffffffffffffffffffffffffffffffffffffff831681526040602082015260006105266040830184610dd5565b6020815260006101b36020830184610dd5565b60005b83811015610e98578181015183820152602001610e80565b83811115610ea7576000848401525b50505050565b7f4e487b7100000000000000000000000000000000000000000000000000000000600052603260045260246000fd5b7f4e487b7100000000000000000000000000000000000000000000000000000000600052604160045260246000fdfe416464726573733a206c6f772d6c6576656c2063616c6c20776974682076616c7565206661696c6564a264697066735822122024749f539d03860e9416306f7a45f2510c086dc20dfb256b3d955fd46c5cda5f64736f6c63430008060033",
  "linkReferences": {},
  "deployedLinkReferences": {}
}