{
  "_format": "hh-sol-artifact-1",
  "contractName": "ERC721DAOToken",
  "sourceName": "contracts/ERC721DAOToken.sol",
  "abi": [
    {
      "anonymous": false,
      "inputs": [
        {
          "indexed": true,
          "internalType": "address",
          "name": "owner",
          "type": "address"
        },
        {
          "indexed": true,
          "internalType": "address",
          "name": "approved",
          "type": "address"
        },
        {
          "indexed": true,
          "internalType": "uint256",
          "name": "tokenId",
          "type": "uint256"
        }
      ],
      "name": "Approval",
      "type": "event"
    },
    {
      "anonymous": false,
      "inputs": [
        {
          "indexed": true,
          "internalType": "address",
          "name": "owner",
          "type": "address"
        },
        {
          "indexed": true,
          "internalType": "address",
          "name": "operator",
          "type": "address"
        },
        {
          "indexed": false,
          "internalType": "bool",
          "name": "approved",
          "type": "bool"
        }
      ],
      "name": "ApprovalForAll",
      "type": "event"
    },
    {
      "anonymous": false,
      "inputs": [
        {
          "indexed": true,
          "internalType": "address",
          "name": "delegator",
          "type": "address"
        },
        {
          "indexed": true,
          "internalType": "address",
          "name": "fromDelegate",
          "type": "address"
        },
        {
          "indexed": true,
          "internalType": "address",
          "name": "toDelegate",
          "type": "address"
        }
      ],
      "name": "DelegateChanged",
      "type": "event"
    },
    {
      "anonymous": false,
      "inputs": [
        {
          "indexed": true,
          "internalType": "address",
          "name": "delegate",
          "type": "address"
        },
        {
          "indexed": false,
          "internalType": "uint256",
          "name": "previousBalance",
          "type": "uint256"
        },
        {
          "indexed": false,
          "internalType": "uint256",
          "name": "newBalance",
          "type": "uint256"
        }
      ],
      "name": "DelegateVotesChanged",
      "type": "event"
    },
    {
      "anonymous": false,
      "inputs": [
        {
          "indexed": true,
          "internalType": "bytes32",
          "name": "role",
          "type": "bytes32"
        },
        {
          "indexed": true,
          "internalType": "bytes32",
          "name": "previousAdminRole",
          "type": "bytes32"
        },
        {
          "indexed": true,
          "internalType": "bytes32",
          "name": "newAdminRole",
          "type": "bytes32"
        }
      ],
      "name": "RoleAdminChanged",
      "type": "event"
    },
    {
      "anonymous": false,
      "inputs": [
        {
          "indexed": true,
          "internalType": "bytes32",
          "name": "role",
          "type": "bytes32"
        },
        {
          "indexed": true,
          "internalType": "address",
          "name": "account",
          "type": "address"
        },
        {
          "indexed": true,
          "internalType": "address",
          "name": "sender",
          "type": "address"
        }
      ],
      "name": "RoleGranted",
      "type": "event"
    },
    {
      "anonymous": false,
      "inputs": [
        {
          "indexed": true,
          "internalType": "bytes32",
          "name": "role",
          "type": "bytes32"
        },
        {
          "indexed": true,
          "internalType": "address",
          "name": "account",
          "type": "address"
        },
        {
          "indexed": true,
          "internalType": "address",
          "name": "sender",
          "type": "address"
        }
      ],
      "name": "RoleRevoked",
      "type": "event"
    },
    {
      "anonymous": false,
      "inputs": [
        {
          "indexed": true,
          "internalType": "address",
          "name": "from",
          "type": "address"
        },
        {
          "indexed": true,
          "internalType": "address",
          "name": "to",
          "type": "address"
        },
        {
          "indexed": true,
          "internalType": "uint256",
          "name": "tokenId",
          "type": "uint256"
        }
      ],
      "name": "Transfer",
      "type": "event"
    },
    {
      "inputs": [],
      "name": "DEFAULT_ADMIN_ROLE",
      "outputs": [
        {
          "internalType": "bytes32",
          "name": "",
          "type": "bytes32"
        }
      ],
      "stateMutability": "view",
      "type": "function"
    },
    {
      "inputs": [],
      "name": "DELEGATION_TYPEHASH",
      "outputs": [
        {
          "internalType": "bytes32",
          "name": "",
          "type": "bytes32"
        }
      ],
      "stateMutability": "view",
      "type": "function"
    },
    {
      "inputs": [],
      "name": "DOMAIN_TYPEHASH",
      "outputs": [
        {
          "internalType": "bytes32",
          "name": "",
          "type": "bytes32"
        }
      ],
      "stateMutability": "view",
      "type": "function"
    },
    {
      "inputs": [
        {
          "internalType": "address",
          "name": "to",
          "type": "address"
        },
        {
          "internalType": "uint256",
          "name": "tokenId",
          "type": "uint256"
        }
      ],
      "name": "approve",
      "outputs": [],
      "stateMutability": "nonpayable",
      "type": "function"
    },
    {
      "inputs": [
        {
          "internalType": "address",
          "name": "owner",
          "type": "address"
        }
      ],
      "name": "balanceOf",
      "outputs": [
        {
          "internalType": "uint256",
          "name": "",
          "type": "uint256"
        }
      ],
      "stateMutability": "view",
      "type": "function"
    },
    {
      "inputs": [
        {
          "internalType": "address",
          "name": "",
          "type": "address"
        },
        {
          "internalType": "uint32",
          "name": "",
          "type": "uint32"
        }
      ],
      "name": "checkpoints",
      "outputs": [
        {
          "internalType": "uint32",
          "name": "fromBlock",
          "type": "uint32"
        },
        {
          "internalType": "uint96",
          "name": "votes",
          "type": "uint96"
        }
      ],
      "stateMutability": "view",
      "type": "function"
    },
    {
      "inputs": [],
      "name": "decimals",
      "outputs": [
        {
          "internalType": "uint8",
          "name": "",
          "type": "uint8"
        }
      ],
      "stateMutability": "view",
      "type": "function"
    },
    {
      "inputs": [
        {
          "internalType": "address",
          "name": "delegatee",
          "type": "address"
        }
      ],
      "name": "delegate",
      "outputs": [],
      "stateMutability": "nonpayable",
      "type": "function"
    },
    {
      "inputs": [
        {
          "internalType": "address",
          "name": "delegatee",
          "type": "address"
        },
        {
          "internalType": "uint256",
          "name": "nonce",
          "type": "uint256"
        },
        {
          "internalType": "uint256",
          "name": "expiry",
          "type": "uint256"
        },
        {
          "internalType": "uint8",
          "name": "v",
          "type": "uint8"
        },
        {
          "internalType": "bytes32",
          "name": "r",
          "type": "bytes32"
        },
        {
          "internalType": "bytes32",
          "name": "s",
          "type": "bytes32"
        }
      ],
      "name": "delegateBySig",
      "outputs": [],
      "stateMutability": "nonpayable",
      "type": "function"
    },
    {
      "inputs": [
        {
          "internalType": "address",
          "name": "delegator",
          "type": "address"
        }
      ],
      "name": "delegates",
      "outputs": [
        {
          "internalType": "address",
          "name": "",
          "type": "address"
        }
      ],
      "stateMutability": "view",
      "type": "function"
    },
    {
      "inputs": [
        {
          "internalType": "uint256",
          "name": "tokenId",
          "type": "uint256"
        }
      ],
      "name": "getApproved",
      "outputs": [
        {
          "internalType": "address",
          "name": "",
          "type": "address"
        }
      ],
      "stateMutability": "view",
      "type": "function"
    },
    {
      "inputs": [
        {
          "internalType": "address",
          "name": "account",
          "type": "address"
        }
      ],
      "name": "getCurrentVotes",
      "outputs": [
        {
          "internalType": "uint96",
          "name": "",
          "type": "uint96"
        }
      ],
      "stateMutability": "view",
      "type": "function"
    },
    {
      "inputs": [
        {
          "internalType": "address",
          "name": "account",
          "type": "address"
        },
        {
          "internalType": "uint256",
          "name": "blockNumber",
          "type": "uint256"
        }
      ],
      "name": "getPriorVotes",
      "outputs": [
        {
          "internalType": "uint96",
          "name": "",
          "type": "uint96"
        }
      ],
      "stateMutability": "view",
      "type": "function"
    },
    {
      "inputs": [
        {
          "internalType": "bytes32",
          "name": "role",
          "type": "bytes32"
        }
      ],
      "name": "getRoleAdmin",
      "outputs": [
        {
          "internalType": "bytes32",
          "name": "",
          "type": "bytes32"
        }
      ],
      "stateMutability": "view",
      "type": "function"
    },
    {
      "inputs": [
        {
          "internalType": "bytes32",
          "name": "role",
          "type": "bytes32"
        },
        {
          "internalType": "uint256",
          "name": "index",
          "type": "uint256"
        }
      ],
      "name": "getRoleMember",
      "outputs": [
        {
          "internalType": "address",
          "name": "",
          "type": "address"
        }
      ],
      "stateMutability": "view",
      "type": "function"
    },
    {
      "inputs": [
        {
          "internalType": "bytes32",
          "name": "role",
          "type": "bytes32"
        }
      ],
      "name": "getRoleMemberCount",
      "outputs": [
        {
          "internalType": "uint256",
          "name": "",
          "type": "uint256"
        }
      ],
      "stateMutability": "view",
      "type": "function"
    },
    {
      "inputs": [
        {
          "internalType": "bytes32",
          "name": "role",
          "type": "bytes32"
        },
        {
          "internalType": "address",
          "name": "account",
          "type": "address"
        }
      ],
      "name": "grantRole",
      "outputs": [],
      "stateMutability": "nonpayable",
      "type": "function"
    },
    {
      "inputs": [
        {
          "internalType": "bytes32",
          "name": "role",
          "type": "bytes32"
        },
        {
          "internalType": "address",
          "name": "account",
          "type": "address"
        }
      ],
      "name": "hasRole",
      "outputs": [
        {
          "internalType": "bool",
          "name": "",
          "type": "bool"
        }
      ],
      "stateMutability": "view",
      "type": "function"
    },
    {
      "inputs": [
        {
          "internalType": "address",
          "name": "owner",
          "type": "address"
        },
        {
          "internalType": "address",
          "name": "operator",
          "type": "address"
        }
      ],
      "name": "isApprovedForAll",
      "outputs": [
        {
          "internalType": "bool",
          "name": "",
          "type": "bool"
        }
      ],
      "stateMutability": "view",
      "type": "function"
    },
    {
      "inputs": [
        {
          "internalType": "address",
          "name": "to",
          "type": "address"
        },
        {
          "internalType": "uint256",
          "name": "tokenId",
          "type": "uint256"
        }
      ],
      "name": "mint",
      "outputs": [],
      "stateMutability": "nonpayable",
      "type": "function"
    },
    {
      "inputs": [],
      "name": "name",
      "outputs": [
        {
          "internalType": "string",
          "name": "",
          "type": "string"
        }
      ],
      "stateMutability": "view",
      "type": "function"
    },
    {
      "inputs": [
        {
          "internalType": "address",
          "name": "",
          "type": "address"
        }
      ],
      "name": "nonces",
      "outputs": [
        {
          "internalType": "uint256",
          "name": "",
          "type": "uint256"
        }
      ],
      "stateMutability": "view",
      "type": "function"
    },
    {
      "inputs": [
        {
          "internalType": "address",
          "name": "",
          "type": "address"
        }
      ],
      "name": "numCheckpoints",
      "outputs": [
        {
          "internalType": "uint32",
          "name": "",
          "type": "uint32"
        }
      ],
      "stateMutability": "view",
      "type": "function"
    },
    {
      "inputs": [
        {
          "internalType": "uint256",
          "name": "tokenId",
          "type": "uint256"
        }
      ],
      "name": "ownerOf",
      "outputs": [
        {
          "internalType": "address",
          "name": "",
          "type": "address"
        }
      ],
      "stateMutability": "view",
      "type": "function"
    },
    {
      "inputs": [
        {
          "internalType": "bytes32",
          "name": "role",
          "type": "bytes32"
        },
        {
          "internalType": "address",
          "name": "account",
          "type": "address"
        }
      ],
      "name": "renounceRole",
      "outputs": [],
      "stateMutability": "nonpayable",
      "type": "function"
    },
    {
      "inputs": [
        {
          "internalType": "bytes32",
          "name": "role",
          "type": "bytes32"
        },
        {
          "internalType": "address",
          "name": "account",
          "type": "address"
        }
      ],
      "name": "revokeRole",
      "outputs": [],
      "stateMutability": "nonpayable",
      "type": "function"
    },
    {
      "inputs": [
        {
          "internalType": "address",
          "name": "from",
          "type": "address"
        },
        {
          "internalType": "address",
          "name": "to",
          "type": "address"
        },
        {
          "internalType": "uint256",
          "name": "tokenId",
          "type": "uint256"
        }
      ],
      "name": "safeTransferFrom",
      "outputs": [],
      "stateMutability": "nonpayable",
      "type": "function"
    },
    {
      "inputs": [
        {
          "internalType": "address",
          "name": "from",
          "type": "address"
        },
        {
          "internalType": "address",
          "name": "to",
          "type": "address"
        },
        {
          "internalType": "uint256",
          "name": "tokenId",
          "type": "uint256"
        },
        {
          "internalType": "bytes",
          "name": "_data",
          "type": "bytes"
        }
      ],
      "name": "safeTransferFrom",
      "outputs": [],
      "stateMutability": "nonpayable",
      "type": "function"
    },
    {
      "inputs": [
        {
          "internalType": "address",
          "name": "operator",
          "type": "address"
        },
        {
          "internalType": "bool",
          "name": "approved",
          "type": "bool"
        }
      ],
      "name": "setApprovalForAll",
      "outputs": [],
      "stateMutability": "nonpayable",
      "type": "function"
    },
    {
      "inputs": [
        {
          "internalType": "bytes4",
          "name": "interfaceId",
          "type": "bytes4"
        }
      ],
      "name": "supportsInterface",
      "outputs": [
        {
          "internalType": "bool",
          "name": "",
          "type": "bool"
        }
      ],
      "stateMutability": "view",
      "type": "function"
    },
    {
      "inputs": [],
      "name": "symbol",
      "outputs": [
        {
          "internalType": "string",
          "name": "",
          "type": "string"
        }
      ],
      "stateMutability": "view",
      "type": "function"
    },
    {
      "inputs": [
        {
          "internalType": "uint256",
          "name": "index",
          "type": "uint256"
        }
      ],
      "name": "tokenByIndex",
      "outputs": [
        {
          "internalType": "uint256",
          "name": "",
          "type": "uint256"
        }
      ],
      "stateMutability": "view",
      "type": "function"
    },
    {
      "inputs": [
        {
          "internalType": "address",
          "name": "owner",
          "type": "address"
        },
        {
          "internalType": "uint256",
          "name": "index",
          "type": "uint256"
        }
      ],
      "name": "tokenOfOwnerByIndex",
      "outputs": [
        {
          "internalType": "uint256",
          "name": "",
          "type": "uint256"
        }
      ],
      "stateMutability": "view",
      "type": "function"
    },
    {
      "inputs": [
        {
          "internalType": "uint256",
          "name": "tokenId",
          "type": "uint256"
        }
      ],
      "name": "tokenURI",
      "outputs": [
        {
          "internalType": "string",
          "name": "",
          "type": "string"
        }
      ],
      "stateMutability": "view",
      "type": "function"
    },
    {
      "inputs": [],
      "name": "totalSupply",
      "outputs": [
        {
          "internalType": "uint256",
          "name": "",
          "type": "uint256"
        }
      ],
      "stateMutability": "view",
      "type": "function"
    },
    {
      "inputs": [
        {
          "internalType": "address",
          "name": "from",
          "type": "address"
        },
        {
          "internalType": "address",
          "name": "to",
          "type": "address"
        },
        {
          "internalType": "uint256",
          "name": "tokenId",
          "type": "uint256"
        }
      ],
      "name": "transferFrom",
      "outputs": [],
      "stateMutability": "nonpayable",
      "type": "function"
    },
    {
      "inputs": [
        {
          "internalType": "address",
          "name": "delegator",
          "type": "address"
        }
      ],
      "name": "votesToDelegate",
      "outputs": [
        {
          "internalType": "uint96",
          "name": "",
          "type": "uint96"
        }
      ],
      "stateMutability": "view",
      "type": "function"
    }
  ],
  "bytecode": "0x608060405234801561001057600080fd5b50615b4a80620000216000396000f3fe608060405234801561001057600080fd5b50600436106102275760003560e01c80636fcfff4511610130578063b4b5ea57116100b8578063d547741f1161007c578063d547741f146106f8578063e7a324dc14610714578063e9580e9114610732578063e985e9c514610762578063f1127ed81461079257610227565b8063b4b5ea5714610630578063b88d4fde14610660578063c3cda5201461067c578063c87b56dd14610698578063ca15c873146106c857610227565b80639010d07c116100ff5780639010d07c1461057857806391d14854146105a857806395d89b41146105d8578063a217fddf146105f6578063a22cb4651461061457610227565b80636fcfff45146104b857806370a08231146104e8578063782d6fe1146105185780637ecebe001461054857610227565b80632f745c59116101b357806342842e0e1161018257806342842e0e146103f05780634f6ccce71461040c578063587cde1e1461043c5780635c19a95c1461046c5780636352211e1461048857610227565b80632f745c591461036a578063313ce5671461039a57806336568abe146103b857806340c10f19146103d457610227565b806318160ddd116101fa57806318160ddd146102c657806320606b70146102e457806323b872dd14610302578063248a9ca31461031e5780632f2ff15d1461034e57610227565b806301ffc9a71461022c57806306fdde031461025c578063081812fc1461027a578063095ea7b3146102aa575b600080fd5b610246600480360381019061024191906141f9565b6107c3565b6040516102539190614819565b60405180910390f35b6102646107d5565b604051610271919061491e565b60405180910390f35b610294600480360381019061028f9190614253565b610867565b6040516102a191906147b2565b60405180910390f35b6102c460048036038101906102bf919061403f565b6108ec565b005b6102ce610a04565b6040516102db9190614c00565b60405180910390f35b6102ec610a11565b6040516102f99190614834565b60405180910390f35b61031c60048036038101906103179190613f29565b610a35565b005b6103386004803603810190610333919061414c565b610a95565b6040516103459190614834565b60405180910390f35b61036860048036038101906103639190614179565b610ab5565b005b610384600480360381019061037f919061403f565b610ae9565b6040516103919190614c00565b60405180910390f35b6103a2610b8e565b6040516103af9190614c5f565b60405180910390f35b6103d260048036038101906103cd9190614179565b610b93565b005b6103ee60048036038101906103e9919061403f565b610bc7565b005b61040a60048036038101906104059190613f29565b610bd5565b005b61042660048036038101906104219190614253565b610bf5565b6040516104339190614c00565b60405180910390f35b61045660048036038101906104519190613ebc565b610c66565b60405161046391906147b2565b60405180910390f35b61048660048036038101906104819190613ebc565b610d0f565b005b6104a2600480360381019061049d9190614253565b610d55565b6040516104af91906147b2565b60405180910390f35b6104d260048036038101906104cd9190613ebc565b610e07565b6040516104df9190614c1b565b60405180910390f35b61050260048036038101906104fd9190613ebc565b610e2a565b60405161050f9190614c00565b60405180910390f35b610532600480360381019061052d919061403f565b610ee2565b60405161053f9190614c7a565b60405180910390f35b610562600480360381019061055d9190613ebc565b61131d565b60405161056f9190614c00565b60405180910390f35b610592600480360381019061058d91906141b9565b611335565b60405161059f91906147b2565b60405180910390f35b6105c260048036038101906105bd9190614179565b611364565b6040516105cf9190614819565b60405180910390f35b6105e06113cf565b6040516105ed919061491e565b60405180910390f35b6105fe611461565b60405161060b9190614834565b60405180910390f35b61062e60048036038101906106299190613fff565b611468565b005b61064a60048036038101906106459190613ebc565b6115e9565b6040516106579190614c7a565b60405180910390f35b61067a60048036038101906106759190613f7c565b6116e0565b005b6106966004803603810190610691919061407f565b611742565b005b6106b260048036038101906106ad9190614253565b6119d7565b6040516106bf919061491e565b60405180910390f35b6106e260048036038101906106dd919061414c565b611a7e565b6040516106ef9190614c00565b60405180910390f35b610712600480360381019061070d9190614179565b611aa2565b005b61071c611ad6565b6040516107299190614834565b60405180910390f35b61074c60048036038101906107479190613ebc565b611afa565b6040516107599190614c7a565b60405180910390f35b61077c60048036038101906107779190613ee9565b611b2d565b6040516107899190614819565b60405180910390f35b6107ac60048036038101906107a7919061410c565b611bc1565b6040516107ba929190614c36565b60405180910390f35b60006107ce82611c1a565b9050919050565b6060606580546107e4906150b2565b80601f0160208091040260200160405190810160405280929190818152602001828054610810906150b2565b801561085d5780601f106108325761010080835404028352916020019161085d565b820191906000526020600020905b81548152906001019060200180831161084057829003601f168201915b5050505050905090565b600061087282611c94565b6108b1576040517f08c379a00000000000000000000000000000000000000000000000000000000081526004016108a890614b00565b60405180910390fd5b6069600083815260200190815260200160002060009054906101000a900473ffffffffffffffffffffffffffffffffffffffff169050919050565b60006108f782610d55565b90508073ffffffffffffffffffffffffffffffffffffffff168373ffffffffffffffffffffffffffffffffffffffff161415610968576040517f08c379a000000000000000000000000000000000000000000000000000000000815260040161095f90614b60565b60405180910390fd5b8073ffffffffffffffffffffffffffffffffffffffff16610987611d00565b73ffffffffffffffffffffffffffffffffffffffff1614806109b657506109b5816109b0611d00565b611b2d565b5b6109f5576040517f08c379a00000000000000000000000000000000000000000000000000000000081526004016109ec90614a80565b60405180910390fd5b6109ff8383611d08565b505050565b6000609980549050905090565b7f8cad95687ba82c2ce50e74f7b754645e5117c3a5bec8151c0726d5857980a86681565b610a46610a40611d00565b82611dc1565b610a85576040517f08c379a0000000000000000000000000000000000000000000000000000000008152600401610a7c90614b80565b60405180910390fd5b610a90838383611e9f565b505050565b600060cd6000838152602001908152602001600020600101549050919050565b610abf82826120fb565b610ae48160ff600085815260200190815260200160002061212490919063ffffffff16565b505050565b6000610af483610e2a565b8210610b35576040517f08c379a0000000000000000000000000000000000000000000000000000000008152600401610b2c90614980565b60405180910390fd5b609760008473ffffffffffffffffffffffffffffffffffffffff1673ffffffffffffffffffffffffffffffffffffffff168152602001908152602001600020600083815260200190815260200160002054905092915050565b600081565b610b9d8282612154565b610bc28160ff60008581526020019081526020016000206121d790919063ffffffff16565b505050565b610bd18282612207565b5050565b610bf0838383604051806020016040528060008152506116e0565b505050565b6000610bff610a04565b8210610c40576040517f08c379a0000000000000000000000000000000000000000000000000000000008152600401610c3790614bc0565b60405180910390fd5b60998281548110610c5457610c53615255565b5b90600052602060002001549050919050565b60008060c960008473ffffffffffffffffffffffffffffffffffffffff1673ffffffffffffffffffffffffffffffffffffffff16815260200190815260200160002060009054906101000a900473ffffffffffffffffffffffffffffffffffffffff169050600073ffffffffffffffffffffffffffffffffffffffff168173ffffffffffffffffffffffffffffffffffffffff1614610d055780610d07565b825b915050919050565b600073ffffffffffffffffffffffffffffffffffffffff168173ffffffffffffffffffffffffffffffffffffffff161415610d48573390505b610d5233826123d5565b50565b6000806067600084815260200190815260200160002060009054906101000a900473ffffffffffffffffffffffffffffffffffffffff169050600073ffffffffffffffffffffffffffffffffffffffff168173ffffffffffffffffffffffffffffffffffffffff161415610dfe576040517f08c379a0000000000000000000000000000000000000000000000000000000008152600401610df590614ac0565b60405180910390fd5b80915050919050565b60cb6020528060005260406000206000915054906101000a900463ffffffff1681565b60008073ffffffffffffffffffffffffffffffffffffffff168273ffffffffffffffffffffffffffffffffffffffff161415610e9b576040517f08c379a0000000000000000000000000000000000000000000000000000000008152600401610e9290614aa0565b60405180910390fd5b606860008373ffffffffffffffffffffffffffffffffffffffff1673ffffffffffffffffffffffffffffffffffffffff168152602001908152602001600020549050919050565b6000438210610f26576040517f08c379a0000000000000000000000000000000000000000000000000000000008152600401610f1d90614ba0565b60405180910390fd5b600060cb60008573ffffffffffffffffffffffffffffffffffffffff1673ffffffffffffffffffffffffffffffffffffffff16815260200190815260200160002060009054906101000a900463ffffffff16905060008163ffffffff161415610f93576000915050611317565b8260ca60008673ffffffffffffffffffffffffffffffffffffffff1673ffffffffffffffffffffffffffffffffffffffff1681526020019081526020016000206000600184610fe29190614f19565b63ffffffff1663ffffffff16815260200190815260200160002060000160009054906101000a900463ffffffff1663ffffffff16116110a75760ca60008573ffffffffffffffffffffffffffffffffffffffff1673ffffffffffffffffffffffffffffffffffffffff16815260200190815260200160002060006001836110699190614f19565b63ffffffff1663ffffffff16815260200190815260200160002060000160049054906101000a90046bffffffffffffffffffffffff16915050611317565b8260ca60008673ffffffffffffffffffffffffffffffffffffffff1673ffffffffffffffffffffffffffffffffffffffff16815260200190815260200160002060008063ffffffff16815260200190815260200160002060000160009054906101000a900463ffffffff1663ffffffff161115611128576000915050611317565b6000806001836111389190614f19565b90505b8163ffffffff168163ffffffff1611156112995760006002838361115f9190614f19565b6111699190614e5a565b826111749190614f19565b9050600060ca60008973ffffffffffffffffffffffffffffffffffffffff1673ffffffffffffffffffffffffffffffffffffffff16815260200190815260200160002060008363ffffffff1663ffffffff1681526020019081526020016000206040518060400160405290816000820160009054906101000a900463ffffffff1663ffffffff1663ffffffff1681526020016000820160049054906101000a90046bffffffffffffffffffffffff166bffffffffffffffffffffffff166bffffffffffffffffffffffff1681525050905086816000015163ffffffff16141561126857806020015195505050505050611317565b86816000015163ffffffff16101561128257819350611292565b60018261128f9190614f19565b92505b505061113b565b60ca60008773ffffffffffffffffffffffffffffffffffffffff1673ffffffffffffffffffffffffffffffffffffffff16815260200190815260200160002060008363ffffffff1663ffffffff16815260200190815260200160002060000160049054906101000a90046bffffffffffffffffffffffff1693505050505b92915050565b60cc6020528060005260406000206000915090505481565b600061135c8260ff60008681526020019081526020016000206124ef90919063ffffffff16565b905092915050565b600060cd600084815260200190815260200160002060000160008373ffffffffffffffffffffffffffffffffffffffff1673ffffffffffffffffffffffffffffffffffffffff16815260200190815260200160002060009054906101000a900460ff16905092915050565b6060606680546113de906150b2565b80601f016020809104026020016040519081016040528092919081815260200182805461140a906150b2565b80156114575780601f1061142c57610100808354040283529160200191611457565b820191906000526020600020905b81548152906001019060200180831161143a57829003601f168201915b5050505050905090565b6000801b81565b611470611d00565b73ffffffffffffffffffffffffffffffffffffffff168273ffffffffffffffffffffffffffffffffffffffff1614156114de576040517f08c379a00000000000000000000000000000000000000000000000000000000081526004016114d590614a20565b60405180910390fd5b80606a60006114eb611d00565b73ffffffffffffffffffffffffffffffffffffffff1673ffffffffffffffffffffffffffffffffffffffff16815260200190815260200160002060008473ffffffffffffffffffffffffffffffffffffffff1673ffffffffffffffffffffffffffffffffffffffff16815260200190815260200160002060006101000a81548160ff0219169083151502179055508173ffffffffffffffffffffffffffffffffffffffff16611598611d00565b73ffffffffffffffffffffffffffffffffffffffff167f17307eab39ab6107e8899845ad3d59bd9653f200f220920489ca2b5937696c31836040516115dd9190614819565b60405180910390a35050565b60008060cb60008473ffffffffffffffffffffffffffffffffffffffff1673ffffffffffffffffffffffffffffffffffffffff16815260200190815260200160002060009054906101000a900463ffffffff16905060008163ffffffff16116116535760006116d8565b60ca60008473ffffffffffffffffffffffffffffffffffffffff1673ffffffffffffffffffffffffffffffffffffffff16815260200190815260200160002060006001836116a19190614f19565b63ffffffff1663ffffffff16815260200190815260200160002060000160049054906101000a90046bffffffffffffffffffffffff165b915050919050565b6116f16116eb611d00565b83611dc1565b611730576040517f08c379a000000000000000000000000000000000000000000000000000000000815260040161172790614b80565b60405180910390fd5b61173c84848484612509565b50505050565b60007f8cad95687ba82c2ce50e74f7b754645e5117c3a5bec8151c0726d5857980a86661176d6107d5565b8051906020012061177c612565565b306040516020016117909493929190614894565b60405160208183030381529060405280519060200120905060007fe48329057bfd03d55e49b547132e39cffd9c1820ad7b9d4c5307691425d15adf8888886040516020016117e1949392919061484f565b6040516020818303038152906040528051906020012090506000828260405160200161180e929190614741565b60405160208183030381529060405280519060200120905060006001828888886040516000815260200160405260405161184b94939291906148d9565b6020604051602081039080840390855afa15801561186d573d6000803e3d6000fd5b505050602060405103519050600073ffffffffffffffffffffffffffffffffffffffff168173ffffffffffffffffffffffffffffffffffffffff1614156118e9576040517f08c379a00000000000000000000000000000000000000000000000000000000081526004016118e090614a40565b60405180910390fd5b60cc60008273ffffffffffffffffffffffffffffffffffffffff1673ffffffffffffffffffffffffffffffffffffffff168152602001908152602001600020600081548092919061193990615115565b91905055891461197e576040517f08c379a0000000000000000000000000000000000000000000000000000000008152600401611975906149e0565b60405180910390fd5b874211156119c1576040517f08c379a00000000000000000000000000000000000000000000000000000000081526004016119b890614960565b60405180910390fd5b6119cb818b6123d5565b50505050505050505050565b60606119e282611c94565b611a21576040517f08c379a0000000000000000000000000000000000000000000000000000000008152600401611a1890614b40565b60405180910390fd5b6000611a2b612572565b90506000815111611a4b5760405180602001604052806000815250611a76565b80611a5584612589565b604051602001611a6692919061471d565b6040516020818303038152906040525b915050919050565b6000611a9b60ff60008481526020019081526020016000206126ea565b9050919050565b611aac82826126ff565b611ad18160ff60008581526020019081526020016000206121d790919063ffffffff16565b505050565b7fe48329057bfd03d55e49b547132e39cffd9c1820ad7b9d4c5307691425d15adf81565b6000611b26611b0883610e2a565b6040518060600160405280603d8152602001615aa1603d9139612728565b9050919050565b6000606a60008473ffffffffffffffffffffffffffffffffffffffff1673ffffffffffffffffffffffffffffffffffffffff16815260200190815260200160002060008373ffffffffffffffffffffffffffffffffffffffff1673ffffffffffffffffffffffffffffffffffffffff16815260200190815260200160002060009054906101000a900460ff16905092915050565b60ca602052816000526040600020602052806000526040600020600091509150508060000160009054906101000a900463ffffffff16908060000160049054906101000a90046bffffffffffffffffffffffff16905082565b60007f5a05180f000000000000000000000000000000000000000000000000000000007bffffffffffffffffffffffffffffffffffffffffffffffffffffffff1916827bffffffffffffffffffffffffffffffffffffffffffffffffffffffff19161480611c8d5750611c8c82612786565b5b9050919050565b60008073ffffffffffffffffffffffffffffffffffffffff166067600084815260200190815260200160002060009054906101000a900473ffffffffffffffffffffffffffffffffffffffff1673ffffffffffffffffffffffffffffffffffffffff1614159050919050565b600033905090565b816069600083815260200190815260200160002060006101000a81548173ffffffffffffffffffffffffffffffffffffffff021916908373ffffffffffffffffffffffffffffffffffffffff160217905550808273ffffffffffffffffffffffffffffffffffffffff16611d7b83610d55565b73ffffffffffffffffffffffffffffffffffffffff167f8c5be1e5ebec7d5bd14f71427d1e84f3dd0314c0f7b2291e5b200ac8c7c3b92560405160405180910390a45050565b6000611dcc82611c94565b611e0b576040517f08c379a0000000000000000000000000000000000000000000000000000000008152600401611e0290614a60565b60405180910390fd5b6000611e1683610d55565b90508073ffffffffffffffffffffffffffffffffffffffff168473ffffffffffffffffffffffffffffffffffffffff161480611e8557508373ffffffffffffffffffffffffffffffffffffffff16611e6d84610867565b73ffffffffffffffffffffffffffffffffffffffff16145b80611e965750611e958185611b2d565b5b91505092915050565b8273ffffffffffffffffffffffffffffffffffffffff16611ebf82610d55565b73ffffffffffffffffffffffffffffffffffffffff1614611f15576040517f08c379a0000000000000000000000000000000000000000000000000000000008152600401611f0c90614b20565b60405180910390fd5b600073ffffffffffffffffffffffffffffffffffffffff168273ffffffffffffffffffffffffffffffffffffffff161415611f85576040517f08c379a0000000000000000000000000000000000000000000000000000000008152600401611f7c90614a00565b60405180910390fd5b611f90838383612800565b611f9b600082611d08565b6001606860008573ffffffffffffffffffffffffffffffffffffffff1673ffffffffffffffffffffffffffffffffffffffff1681526020019081526020016000206000828254611feb9190614ee5565b925050819055506001606860008473ffffffffffffffffffffffffffffffffffffffff1673ffffffffffffffffffffffffffffffffffffffff16815260200190815260200160002060008282546120429190614d57565b92505081905550816067600083815260200190815260200160002060006101000a81548173ffffffffffffffffffffffffffffffffffffffff021916908373ffffffffffffffffffffffffffffffffffffffff160217905550808273ffffffffffffffffffffffffffffffffffffffff168473ffffffffffffffffffffffffffffffffffffffff167fddf252ad1be2c89b69c2b068fc378daa952ba7f163c4a11628f55a4df523b3ef60405160405180910390a4505050565b61210482610a95565b61211581612110611d00565b61282c565b61211f83836128c9565b505050565b600061214c836000018373ffffffffffffffffffffffffffffffffffffffff1660001b6129aa565b905092915050565b61215c611d00565b73ffffffffffffffffffffffffffffffffffffffff168173ffffffffffffffffffffffffffffffffffffffff16146121c9576040517f08c379a00000000000000000000000000000000000000000000000000000000081526004016121c090614be0565b60405180910390fd5b6121d38282612a1a565b5050565b60006121ff836000018373ffffffffffffffffffffffffffffffffffffffff1660001b612afc565b905092915050565b600073ffffffffffffffffffffffffffffffffffffffff168273ffffffffffffffffffffffffffffffffffffffff161415612277576040517f08c379a000000000000000000000000000000000000000000000000000000000815260040161226e90614ae0565b60405180910390fd5b61228081611c94565b156122c0576040517f08c379a00000000000000000000000000000000000000000000000000000000081526004016122b7906149c0565b60405180910390fd5b6122cc60008383612800565b6001606860008473ffffffffffffffffffffffffffffffffffffffff1673ffffffffffffffffffffffffffffffffffffffff168152602001908152602001600020600082825461231c9190614d57565b92505081905550816067600083815260200190815260200160002060006101000a81548173ffffffffffffffffffffffffffffffffffffffff021916908373ffffffffffffffffffffffffffffffffffffffff160217905550808273ffffffffffffffffffffffffffffffffffffffff16600073ffffffffffffffffffffffffffffffffffffffff167fddf252ad1be2c89b69c2b068fc378daa952ba7f163c4a11628f55a4df523b3ef60405160405180910390a45050565b60006123e083610c66565b90508160c960008573ffffffffffffffffffffffffffffffffffffffff1673ffffffffffffffffffffffffffffffffffffffff16815260200190815260200160002060006101000a81548173ffffffffffffffffffffffffffffffffffffffff021916908373ffffffffffffffffffffffffffffffffffffffff1602179055508173ffffffffffffffffffffffffffffffffffffffff168173ffffffffffffffffffffffffffffffffffffffff168473ffffffffffffffffffffffffffffffffffffffff167f3134e8a2e6d97e929a7e54011ea5485d7d196dd5f0ba4d4ef95803e8e3fc257f60405160405180910390a460006124dc84611afa565b90506124e9828483612c10565b50505050565b60006124fe8360000183612f1d565b60001c905092915050565b612514848484611e9f565b61252084848484612f48565b61255f576040517f08c379a0000000000000000000000000000000000000000000000000000000008152600401612556906149a0565b60405180910390fd5b50505050565b6000804690508091505090565b606060405180602001604052806000815250905090565b606060008214156125d1576040518060400160405280600181526020017f300000000000000000000000000000000000000000000000000000000000000081525090506126e5565b600082905060005b600082146126035780806125ec90615115565b915050600a826125fc9190614e29565b91506125d9565b60008167ffffffffffffffff81111561261f5761261e615284565b5b6040519080825280601f01601f1916602001820160405280156126515781602001600182028036833780820191505090505b5090505b600085146126de5760018261266a9190614ee5565b9150600a856126799190615168565b60306126859190614d57565b60f81b81838151811061269b5761269a615255565b5b60200101907effffffffffffffffffffffffffffffffffffffffffffffffffffffffffffff1916908160001a905350600a856126d79190614e29565b9450612655565b8093505050505b919050565b60006126f8826000016130df565b9050919050565b61270882610a95565b61271981612714611d00565b61282c565b6127238383612a1a565b505050565b60006c010000000000000000000000008310829061277c576040517f08c379a0000000000000000000000000000000000000000000000000000000008152600401612773919061491e565b60405180910390fd5b5082905092915050565b60007f7965db0b000000000000000000000000000000000000000000000000000000007bffffffffffffffffffffffffffffffffffffffffffffffffffffffff1916827bffffffffffffffffffffffffffffffffffffffffffffffffffffffff191614806127f957506127f8826130f0565b5b9050919050565b61280b83838361316a565b61282761281784610c66565b61282084610c66565b6001612c10565b505050565b6128368282611364565b6128c55761285b8173ffffffffffffffffffffffffffffffffffffffff16601461327e565b6128698360001c602061327e565b60405160200161287a929190614778565b6040516020818303038152906040526040517f08c379a00000000000000000000000000000000000000000000000000000000081526004016128bc919061491e565b60405180910390fd5b5050565b6128d38282611364565b6129a657600160cd600084815260200190815260200160002060000160008373ffffffffffffffffffffffffffffffffffffffff1673ffffffffffffffffffffffffffffffffffffffff16815260200190815260200160002060006101000a81548160ff02191690831515021790555061294b611d00565b73ffffffffffffffffffffffffffffffffffffffff168173ffffffffffffffffffffffffffffffffffffffff16837f2f8788117e7eff1d82e926ec794901d17c78024a50270940304540a733656f0d60405160405180910390a45b5050565b60006129b683836134ba565b612a0f578260000182908060018154018082558091505060019003906000526020600020016000909190919091505582600001805490508360010160008481526020019081526020016000208190555060019050612a14565b600090505b92915050565b612a248282611364565b15612af857600060cd600084815260200190815260200160002060000160008373ffffffffffffffffffffffffffffffffffffffff1673ffffffffffffffffffffffffffffffffffffffff16815260200190815260200160002060006101000a81548160ff021916908315150217905550612a9d611d00565b73ffffffffffffffffffffffffffffffffffffffff168173ffffffffffffffffffffffffffffffffffffffff16837ff6391f5c32d9c69d2a47ea670b442974b53935d1edc7fd64eb21e047a839171b60405160405180910390a45b5050565b60008083600101600084815260200190815260200160002054905060008114612c04576000600182612b2e9190614ee5565b9050600060018660000180549050612b469190614ee5565b9050818114612bb5576000866000018281548110612b6757612b66615255565b5b9060005260206000200154905080876000018481548110612b8b57612b8a615255565b5b90600052602060002001819055508387600101600083815260200190815260200160002081905550505b85600001805480612bc957612bc8615226565b5b600190038181906000526020600020016000905590558560010160008681526020019081526020016000206000905560019350505050612c0a565b60009150505b92915050565b8173ffffffffffffffffffffffffffffffffffffffff168373ffffffffffffffffffffffffffffffffffffffff1614158015612c5a57506000816bffffffffffffffffffffffff16115b15612f1857600073ffffffffffffffffffffffffffffffffffffffff168373ffffffffffffffffffffffffffffffffffffffff1614612dbb57600060cb60008573ffffffffffffffffffffffffffffffffffffffff1673ffffffffffffffffffffffffffffffffffffffff16815260200190815260200160002060009054906101000a900463ffffffff1690506000808263ffffffff1611612cfd576000612d82565b60ca60008673ffffffffffffffffffffffffffffffffffffffff1673ffffffffffffffffffffffffffffffffffffffff1681526020019081526020016000206000600184612d4b9190614f19565b63ffffffff1663ffffffff16815260200190815260200160002060000160049054906101000a90046bffffffffffffffffffffffff165b90506000612da98285604051806060016040528060378152602001615ade603791396134dd565b9050612db786848484613557565b5050505b600073ffffffffffffffffffffffffffffffffffffffff168273ffffffffffffffffffffffffffffffffffffffff1614612f1757600060cb60008473ffffffffffffffffffffffffffffffffffffffff1673ffffffffffffffffffffffffffffffffffffffff16815260200190815260200160002060009054906101000a900463ffffffff1690506000808263ffffffff1611612e59576000612ede565b60ca60008573ffffffffffffffffffffffffffffffffffffffff1673ffffffffffffffffffffffffffffffffffffffff1681526020019081526020016000206000600184612ea79190614f19565b63ffffffff1663ffffffff16815260200190815260200160002060000160049054906101000a90046bffffffffffffffffffffffff165b90506000612f058285604051806060016040528060368152602001615a2760369139613865565b9050612f1385848484613557565b5050505b5b505050565b6000826000018281548110612f3557612f34615255565b5b9060005260206000200154905092915050565b6000612f698473ffffffffffffffffffffffffffffffffffffffff166138e4565b156130d2578373ffffffffffffffffffffffffffffffffffffffff1663150b7a02612f92611d00565b8786866040518563ffffffff1660e01b8152600401612fb494939291906147cd565b602060405180830381600087803b158015612fce57600080fd5b505af1925050508015612fff57506040513d601f19601f82011682018060405250810190612ffc9190614226565b60015b613082573d806000811461302f576040519150601f19603f3d011682016040523d82523d6000602084013e613034565b606091505b5060008151141561307a576040517f08c379a0000000000000000000000000000000000000000000000000000000008152600401613071906149a0565b60405180910390fd5b805181602001fd5b63150b7a0260e01b7bffffffffffffffffffffffffffffffffffffffffffffffffffffffff1916817bffffffffffffffffffffffffffffffffffffffffffffffffffffffff1916149150506130d7565b600190505b949350505050565b600081600001805490509050919050565b60007f780e9d63000000000000000000000000000000000000000000000000000000007bffffffffffffffffffffffffffffffffffffffffffffffffffffffff1916827bffffffffffffffffffffffffffffffffffffffffffffffffffffffff191614806131635750613162826138f7565b5b9050919050565b6131758383836139d9565b600073ffffffffffffffffffffffffffffffffffffffff168373ffffffffffffffffffffffffffffffffffffffff1614156131b8576131b3816139de565b6131f7565b8173ffffffffffffffffffffffffffffffffffffffff168373ffffffffffffffffffffffffffffffffffffffff16146131f6576131f58382613a27565b5b5b600073ffffffffffffffffffffffffffffffffffffffff168273ffffffffffffffffffffffffffffffffffffffff16141561323a5761323581613b94565b613279565b8273ffffffffffffffffffffffffffffffffffffffff168273ffffffffffffffffffffffffffffffffffffffff1614613278576132778282613c65565b5b5b505050565b6060600060028360026132919190614e8b565b61329b9190614d57565b67ffffffffffffffff8111156132b4576132b3615284565b5b6040519080825280601f01601f1916602001820160405280156132e65781602001600182028036833780820191505090505b5090507f30000000000000000000000000000000000000000000000000000000000000008160008151811061331e5761331d615255565b5b60200101907effffffffffffffffffffffffffffffffffffffffffffffffffffffffffffff1916908160001a9053507f78000000000000000000000000000000000000000000000000000000000000008160018151811061338257613381615255565b5b60200101907effffffffffffffffffffffffffffffffffffffffffffffffffffffffffffff1916908160001a905350600060018460026133c29190614e8b565b6133cc9190614d57565b90505b600181111561346c577f3031323334353637383961626364656600000000000000000000000000000000600f86166010811061340e5761340d615255565b5b1a60f81b82828151811061342557613424615255565b5b60200101907effffffffffffffffffffffffffffffffffffffffffffffffffffffffffffff1916908160001a905350600485901c94508061346590615088565b90506133cf565b50600084146134b0576040517f08c379a00000000000000000000000000000000000000000000000000000000081526004016134a790614940565b60405180910390fd5b8091505092915050565b600080836001016000848152602001908152602001600020541415905092915050565b6000836bffffffffffffffffffffffff16836bffffffffffffffffffffffff1611158290613541576040517f08c379a0000000000000000000000000000000000000000000000000000000008152600401613538919061491e565b60405180910390fd5b50828461354e9190614f4d565b90509392505050565b600061357b43604051806080016040528060448152602001615a5d60449139613ce4565b905060008463ffffffff1611801561361957508063ffffffff1660ca60008773ffffffffffffffffffffffffffffffffffffffff1673ffffffffffffffffffffffffffffffffffffffff16815260200190815260200160002060006001876135e39190614f19565b63ffffffff1663ffffffff16815260200190815260200160002060000160009054906101000a900463ffffffff1663ffffffff16145b156136bd578160ca60008773ffffffffffffffffffffffffffffffffffffffff1673ffffffffffffffffffffffffffffffffffffffff168152602001908152602001600020600060018761366d9190614f19565b63ffffffff1663ffffffff16815260200190815260200160002060000160046101000a8154816bffffffffffffffffffffffff02191690836bffffffffffffffffffffffff16021790555061380e565b60405180604001604052808263ffffffff168152602001836bffffffffffffffffffffffff1681525060ca60008773ffffffffffffffffffffffffffffffffffffffff1673ffffffffffffffffffffffffffffffffffffffff16815260200190815260200160002060008663ffffffff1663ffffffff16815260200190815260200160002060008201518160000160006101000a81548163ffffffff021916908363ffffffff16021790555060208201518160000160046101000a8154816bffffffffffffffffffffffff02191690836bffffffffffffffffffffffff1602179055509050506001846137b09190614dad565b60cb60008773ffffffffffffffffffffffffffffffffffffffff1673ffffffffffffffffffffffffffffffffffffffff16815260200190815260200160002060006101000a81548163ffffffff021916908363ffffffff1602179055505b8473ffffffffffffffffffffffffffffffffffffffff167fdec2bacdd2f05b59de34da9b523dff8be42e5e38e818c82fdb0bae774387a7248484604051613856929190614c95565b60405180910390a25050505050565b60008083856138749190614de7565b9050846bffffffffffffffffffffffff16816bffffffffffffffffffffffff16101583906138d8576040517f08c379a00000000000000000000000000000000000000000000000000000000081526004016138cf919061491e565b60405180910390fd5b50809150509392505050565b600080823b905060008111915050919050565b60007f80ac58cd000000000000000000000000000000000000000000000000000000007bffffffffffffffffffffffffffffffffffffffffffffffffffffffff1916827bffffffffffffffffffffffffffffffffffffffffffffffffffffffff191614806139c257507f5b5e139f000000000000000000000000000000000000000000000000000000007bffffffffffffffffffffffffffffffffffffffffffffffffffffffff1916827bffffffffffffffffffffffffffffffffffffffffffffffffffffffff1916145b806139d257506139d182613d3a565b5b9050919050565b505050565b609980549050609a600083815260200190815260200160002081905550609981908060018154018082558091505060019003906000526020600020016000909190919091505550565b60006001613a3484610e2a565b613a3e9190614ee5565b9050600060986000848152602001908152602001600020549050818114613b23576000609760008673ffffffffffffffffffffffffffffffffffffffff1673ffffffffffffffffffffffffffffffffffffffff168152602001908152602001600020600084815260200190815260200160002054905080609760008773ffffffffffffffffffffffffffffffffffffffff1673ffffffffffffffffffffffffffffffffffffffff168152602001908152602001600020600084815260200190815260200160002081905550816098600083815260200190815260200160002081905550505b6098600084815260200190815260200160002060009055609760008573ffffffffffffffffffffffffffffffffffffffff1673ffffffffffffffffffffffffffffffffffffffff16815260200190815260200160002060008381526020019081526020016000206000905550505050565b60006001609980549050613ba89190614ee5565b90506000609a6000848152602001908152602001600020549050600060998381548110613bd857613bd7615255565b5b906000526020600020015490508060998381548110613bfa57613bf9615255565b5b906000526020600020018190555081609a600083815260200190815260200160002081905550609a6000858152602001908152602001600020600090556099805480613c4957613c48615226565b5b6001900381819060005260206000200160009055905550505050565b6000613c7083610e2a565b905081609760008573ffffffffffffffffffffffffffffffffffffffff1673ffffffffffffffffffffffffffffffffffffffff168152602001908152602001600020600083815260200190815260200160002081905550806098600084815260200190815260200160002081905550505050565b600064010000000083108290613d30576040517f08c379a0000000000000000000000000000000000000000000000000000000008152600401613d27919061491e565b60405180910390fd5b5082905092915050565b60007f01ffc9a7000000000000000000000000000000000000000000000000000000007bffffffffffffffffffffffffffffffffffffffffffffffffffffffff1916827bffffffffffffffffffffffffffffffffffffffffffffffffffffffff1916149050919050565b6000613db7613db284614ce3565b614cbe565b905082815260208101848484011115613dd357613dd26152b8565b5b613dde848285615046565b509392505050565b600081359050613df581615985565b92915050565b600081359050613e0a8161599c565b92915050565b600081359050613e1f816159b3565b92915050565b600081359050613e34816159ca565b92915050565b600081519050613e49816159ca565b92915050565b600082601f830112613e6457613e636152b3565b5b8135613e74848260208601613da4565b91505092915050565b600081359050613e8c816159e1565b92915050565b600081359050613ea1816159f8565b92915050565b600081359050613eb681615a0f565b92915050565b600060208284031215613ed257613ed16152c2565b5b6000613ee084828501613de6565b91505092915050565b60008060408385031215613f0057613eff6152c2565b5b6000613f0e85828601613de6565b9250506020613f1f85828601613de6565b9150509250929050565b600080600060608486031215613f4257613f416152c2565b5b6000613f5086828701613de6565b9350506020613f6186828701613de6565b9250506040613f7286828701613e7d565b9150509250925092565b60008060008060808587031215613f9657613f956152c2565b5b6000613fa487828801613de6565b9450506020613fb587828801613de6565b9350506040613fc687828801613e7d565b925050606085013567ffffffffffffffff811115613fe757613fe66152bd565b5b613ff387828801613e4f565b91505092959194509250565b60008060408385031215614016576140156152c2565b5b600061402485828601613de6565b925050602061403585828601613dfb565b9150509250929050565b60008060408385031215614056576140556152c2565b5b600061406485828601613de6565b925050602061407585828601613e7d565b9150509250929050565b60008060008060008060c0878903121561409c5761409b6152c2565b5b60006140aa89828a01613de6565b96505060206140bb89828a01613e7d565b95505060406140cc89828a01613e7d565b94505060606140dd89828a01613ea7565b93505060806140ee89828a01613e10565b92505060a06140ff89828a01613e10565b9150509295509295509295565b60008060408385031215614123576141226152c2565b5b600061413185828601613de6565b925050602061414285828601613e92565b9150509250929050565b600060208284031215614162576141616152c2565b5b600061417084828501613e10565b91505092915050565b600080604083850312156141905761418f6152c2565b5b600061419e85828601613e10565b92505060206141af85828601613de6565b9150509250929050565b600080604083850312156141d0576141cf6152c2565b5b60006141de85828601613e10565b92505060206141ef85828601613e7d565b9150509250929050565b60006020828403121561420f5761420e6152c2565b5b600061421d84828501613e25565b91505092915050565b60006020828403121561423c5761423b6152c2565b5b600061424a84828501613e3a565b91505092915050565b600060208284031215614269576142686152c2565b5b600061427784828501613e7d565b91505092915050565b61428981614f81565b82525050565b61429881614f93565b82525050565b6142a781614f9f565b82525050565b6142be6142b982614f9f565b61515e565b82525050565b60006142cf82614d14565b6142d98185614d2a565b93506142e9818560208601615055565b6142f2816152c7565b840191505092915050565b600061430882614d1f565b6143128185614d3b565b9350614322818560208601615055565b61432b816152c7565b840191505092915050565b600061434182614d1f565b61434b8185614d4c565b935061435b818560208601615055565b80840191505092915050565b6000614374602083614d3b565b915061437f826152d8565b602082019050919050565b6000614397603683614d3b565b91506143a282615301565b604082019050919050565b60006143ba602b83614d3b565b91506143c582615350565b604082019050919050565b60006143dd603283614d3b565b91506143e88261539f565b604082019050919050565b6000614400601c83614d3b565b915061440b826153ee565b602082019050919050565b6000614423600283614d4c565b915061442e82615417565b600282019050919050565b6000614446603283614d3b565b915061445182615440565b604082019050919050565b6000614469602483614d3b565b91506144748261548f565b604082019050919050565b600061448c601983614d3b565b9150614497826154de565b602082019050919050565b60006144af603683614d3b565b91506144ba82615507565b604082019050919050565b60006144d2602c83614d3b565b91506144dd82615556565b604082019050919050565b60006144f5603883614d3b565b9150614500826155a5565b604082019050919050565b6000614518602a83614d3b565b9150614523826155f4565b604082019050919050565b600061453b602983614d3b565b915061454682615643565b604082019050919050565b600061455e602083614d3b565b915061456982615692565b602082019050919050565b6000614581602c83614d3b565b915061458c826156bb565b604082019050919050565b60006145a4602983614d3b565b91506145af8261570a565b604082019050919050565b60006145c7602f83614d3b565b91506145d282615759565b604082019050919050565b60006145ea602183614d3b565b91506145f5826157a8565b604082019050919050565b600061460d603183614d3b565b9150614618826157f7565b604082019050919050565b6000614630603783614d3b565b915061463b82615846565b604082019050919050565b6000614653602c83614d3b565b915061465e82615895565b604082019050919050565b6000614676601783614d4c565b9150614681826158e4565b601782019050919050565b6000614699601183614d4c565b91506146a48261590d565b601182019050919050565b60006146bc602f83614d3b565b91506146c782615936565b604082019050919050565b6146db81614ff5565b82525050565b6146ea81614fff565b82525050565b6146f98161500f565b82525050565b61470881615034565b82525050565b6147178161501c565b82525050565b60006147298285614336565b91506147358284614336565b91508190509392505050565b600061474c82614416565b915061475882856142ad565b60208201915061476882846142ad565b6020820191508190509392505050565b600061478382614669565b915061478f8285614336565b915061479a8261468c565b91506147a68284614336565b91508190509392505050565b60006020820190506147c76000830184614280565b92915050565b60006080820190506147e26000830187614280565b6147ef6020830186614280565b6147fc60408301856146d2565b818103606083015261480e81846142c4565b905095945050505050565b600060208201905061482e600083018461428f565b92915050565b6000602082019050614849600083018461429e565b92915050565b6000608082019050614864600083018761429e565b6148716020830186614280565b61487e60408301856146d2565b61488b60608301846146d2565b95945050505050565b60006080820190506148a9600083018761429e565b6148b6602083018661429e565b6148c360408301856146d2565b6148d06060830184614280565b95945050505050565b60006080820190506148ee600083018761429e565b6148fb60208301866146f0565b614908604083018561429e565b614915606083018461429e565b95945050505050565b6000602082019050818103600083015261493881846142fd565b905092915050565b6000602082019050818103600083015261495981614367565b9050919050565b600060208201905081810360008301526149798161438a565b9050919050565b60006020820190508181036000830152614999816143ad565b9050919050565b600060208201905081810360008301526149b9816143d0565b9050919050565b600060208201905081810360008301526149d9816143f3565b9050919050565b600060208201905081810360008301526149f981614439565b9050919050565b60006020820190508181036000830152614a198161445c565b9050919050565b60006020820190508181036000830152614a398161447f565b9050919050565b60006020820190508181036000830152614a59816144a2565b9050919050565b60006020820190508181036000830152614a79816144c5565b9050919050565b60006020820190508181036000830152614a99816144e8565b9050919050565b60006020820190508181036000830152614ab98161450b565b9050919050565b60006020820190508181036000830152614ad98161452e565b9050919050565b60006020820190508181036000830152614af981614551565b9050919050565b60006020820190508181036000830152614b1981614574565b9050919050565b60006020820190508181036000830152614b3981614597565b9050919050565b60006020820190508181036000830152614b59816145ba565b9050919050565b60006020820190508181036000830152614b79816145dd565b9050919050565b60006020820190508181036000830152614b9981614600565b9050919050565b60006020820190508181036000830152614bb981614623565b9050919050565b60006020820190508181036000830152614bd981614646565b9050919050565b60006020820190508181036000830152614bf9816146af565b9050919050565b6000602082019050614c1560008301846146d2565b92915050565b6000602082019050614c3060008301846146e1565b92915050565b6000604082019050614c4b60008301856146e1565b614c58602083018461470e565b9392505050565b6000602082019050614c7460008301846146f0565b92915050565b6000602082019050614c8f600083018461470e565b92915050565b6000604082019050614caa60008301856146ff565b614cb760208301846146ff565b9392505050565b6000614cc8614cd9565b9050614cd482826150e4565b919050565b6000604051905090565b600067ffffffffffffffff821115614cfe57614cfd615284565b5b614d07826152c7565b9050602081019050919050565b600081519050919050565b600081519050919050565b600082825260208201905092915050565b600082825260208201905092915050565b600081905092915050565b6000614d6282614ff5565b9150614d6d83614ff5565b9250827fffffffffffffffffffffffffffffffffffffffffffffffffffffffffffffffff03821115614da257614da1615199565b5b828201905092915050565b6000614db882614fff565b9150614dc383614fff565b92508263ffffffff03821115614ddc57614ddb615199565b5b828201905092915050565b6000614df28261501c565b9150614dfd8361501c565b9250826bffffffffffffffffffffffff03821115614e1e57614e1d615199565b5b828201905092915050565b6000614e3482614ff5565b9150614e3f83614ff5565b925082614e4f57614e4e6151c8565b5b828204905092915050565b6000614e6582614fff565b9150614e7083614fff565b925082614e8057614e7f6151c8565b5b828204905092915050565b6000614e9682614ff5565b9150614ea183614ff5565b9250817fffffffffffffffffffffffffffffffffffffffffffffffffffffffffffffffff0483118215151615614eda57614ed9615199565b5b828202905092915050565b6000614ef082614ff5565b9150614efb83614ff5565b925082821015614f0e57614f0d615199565b5b828203905092915050565b6000614f2482614fff565b9150614f2f83614fff565b925082821015614f4257614f41615199565b5b828203905092915050565b6000614f588261501c565b9150614f638361501c565b925082821015614f7657614f75615199565b5b828203905092915050565b6000614f8c82614fd5565b9050919050565b60008115159050919050565b6000819050919050565b60007fffffffff0000000000000000000000000000000000000000000000000000000082169050919050565b600073ffffffffffffffffffffffffffffffffffffffff82169050919050565b6000819050919050565b600063ffffffff82169050919050565b600060ff82169050919050565b60006bffffffffffffffffffffffff82169050919050565b600061503f8261501c565b9050919050565b82818337600083830152505050565b60005b83811015615073578082015181840152602081019050615058565b83811115615082576000848401525b50505050565b600061509382614ff5565b915060008214156150a7576150a6615199565b5b600182039050919050565b600060028204905060018216806150ca57607f821691505b602082108114156150de576150dd6151f7565b5b50919050565b6150ed826152c7565b810181811067ffffffffffffffff8211171561510c5761510b615284565b5b80604052505050565b600061512082614ff5565b91507fffffffffffffffffffffffffffffffffffffffffffffffffffffffffffffffff82141561515357615152615199565b5b600182019050919050565b6000819050919050565b600061517382614ff5565b915061517e83614ff5565b92508261518e5761518d6151c8565b5b828206905092915050565b7f4e487b7100000000000000000000000000000000000000000000000000000000600052601160045260246000fd5b7f4e487b7100000000000000000000000000000000000000000000000000000000600052601260045260246000fd5b7f4e487b7100000000000000000000000000000000000000000000000000000000600052602260045260246000fd5b7f4e487b7100000000000000000000000000000000000000000000000000000000600052603160045260246000fd5b7f4e487b7100000000000000000000000000000000000000000000000000000000600052603260045260246000fd5b7f4e487b7100000000000000000000000000000000000000000000000000000000600052604160045260246000fd5b600080fd5b600080fd5b600080fd5b600080fd5b6000601f19601f8301169050919050565b7f537472696e67733a20686578206c656e67746820696e73756666696369656e74600082015250565b7f455243373231436865636b706f696e7461626c653a3a64656c6567617465427960008201527f5369673a207369676e6174757265206578706972656400000000000000000000602082015250565b7f455243373231456e756d657261626c653a206f776e657220696e646578206f7560008201527f74206f6620626f756e6473000000000000000000000000000000000000000000602082015250565b7f4552433732313a207472616e7366657220746f206e6f6e20455243373231526560008201527f63656976657220696d706c656d656e7465720000000000000000000000000000602082015250565b7f4552433732313a20746f6b656e20616c7265616479206d696e74656400000000600082015250565b7f1901000000000000000000000000000000000000000000000000000000000000600082015250565b7f455243373231436865636b706f696e7461626c653a3a64656c6567617465427960008201527f5369673a20696e76616c6964206e6f6e63650000000000000000000000000000602082015250565b7f4552433732313a207472616e7366657220746f20746865207a65726f2061646460008201527f7265737300000000000000000000000000000000000000000000000000000000602082015250565b7f4552433732313a20617070726f766520746f2063616c6c657200000000000000600082015250565b7f455243373231436865636b706f696e7461626c653a3a64656c6567617465427960008201527f5369673a20696e76616c6964207369676e617475726500000000000000000000602082015250565b7f4552433732313a206f70657261746f7220717565727920666f72206e6f6e657860008201527f697374656e7420746f6b656e0000000000000000000000000000000000000000602082015250565b7f4552433732313a20617070726f76652063616c6c6572206973206e6f74206f7760008201527f6e6572206e6f7220617070726f76656420666f7220616c6c0000000000000000602082015250565b7f4552433732313a2062616c616e636520717565727920666f7220746865207a6560008201527f726f206164647265737300000000000000000000000000000000000000000000602082015250565b7f4552433732313a206f776e657220717565727920666f72206e6f6e657869737460008201527f656e7420746f6b656e0000000000000000000000000000000000000000000000602082015250565b7f4552433732313a206d696e7420746f20746865207a65726f2061646472657373600082015250565b7f4552433732313a20617070726f76656420717565727920666f72206e6f6e657860008201527f697374656e7420746f6b656e0000000000000000000000000000000000000000602082015250565b7f4552433732313a207472616e73666572206f6620746f6b656e2074686174206960008201527f73206e6f74206f776e0000000000000000000000000000000000000000000000602082015250565b7f4552433732314d657461646174613a2055524920717565727920666f72206e6f60008201527f6e6578697374656e7420746f6b656e0000000000000000000000000000000000602082015250565b7f4552433732313a20617070726f76616c20746f2063757272656e74206f776e6560008201527f7200000000000000000000000000000000000000000000000000000000000000602082015250565b7f4552433732313a207472616e736665722063616c6c6572206973206e6f74206f60008201527f776e6572206e6f7220617070726f766564000000000000000000000000000000602082015250565b7f455243373231436865636b706f696e7461626c653a3a6765745072696f72566f60008201527f7465733a206e6f74207965742064657465726d696e6564000000000000000000602082015250565b7f455243373231456e756d657261626c653a20676c6f62616c20696e646578206f60008201527f7574206f6620626f756e64730000000000000000000000000000000000000000602082015250565b7f416363657373436f6e74726f6c3a206163636f756e7420000000000000000000600082015250565b7f206973206d697373696e6720726f6c6520000000000000000000000000000000600082015250565b7f416363657373436f6e74726f6c3a2063616e206f6e6c792072656e6f756e636560008201527f20726f6c657320666f722073656c660000000000000000000000000000000000602082015250565b61598e81614f81565b811461599957600080fd5b50565b6159a581614f93565b81146159b057600080fd5b50565b6159bc81614f9f565b81146159c757600080fd5b50565b6159d381614fa9565b81146159de57600080fd5b50565b6159ea81614ff5565b81146159f557600080fd5b50565b615a0181614fff565b8114615a0c57600080fd5b50565b615a188161500f565b8114615a2357600080fd5b5056fe455243373231436865636b706f696e7461626c653a3a5f6d6f766544656c6567617465733a20616d6f756e74206f766572666c6f7773455243373231436865636b706f696e7461626c653a3a5f7772697465436865636b706f696e743a20626c6f636b206e756d62657220657863656564732033322062697473455243373231436865636b706f696e7461626c653a3a766f746573546f44656c65676174653a20616d6f756e7420657863656564732039362062697473455243373231436865636b706f696e7461626c653a3a5f6d6f766544656c6567617465733a20616d6f756e7420756e646572666c6f7773a2646970667358221220ba8a6a224763d00dfbd93ba6c5e098d646f541169c8e731454f41fe5801cdf0c64736f6c63430008060033",
  "linkReferences": {},
  "deployedLinkReferences": {}
}