{
  "_format": "hh-sol-artifact-1",
  "contractName": "ERC721DAOToken",
  "sourceName": "contracts/ERC721DAOToken.sol",
  "abi": [
    {
      "anonymous": false,
      "inputs": [
        {
          "indexed": true,
          "internalType": "address",
          "name": "owner",
          "type": "address"
        },
        {
          "indexed": true,
          "internalType": "address",
          "name": "approved",
          "type": "address"
        },
        {
          "indexed": true,
          "internalType": "uint256",
          "name": "tokenId",
          "type": "uint256"
        }
      ],
      "name": "Approval",
      "type": "event"
    },
    {
      "anonymous": false,
      "inputs": [
        {
          "indexed": true,
          "internalType": "address",
          "name": "owner",
          "type": "address"
        },
        {
          "indexed": true,
          "internalType": "address",
          "name": "operator",
          "type": "address"
        },
        {
          "indexed": false,
          "internalType": "bool",
          "name": "approved",
          "type": "bool"
        }
      ],
      "name": "ApprovalForAll",
      "type": "event"
    },
    {
      "anonymous": false,
      "inputs": [
        {
          "indexed": false,
          "internalType": "string",
          "name": "newURI",
          "type": "string"
        }
      ],
      "name": "BaseURIChanged",
      "type": "event"
    },
    {
      "anonymous": false,
      "inputs": [
        {
          "indexed": false,
          "internalType": "string",
          "name": "newFilename",
          "type": "string"
        }
      ],
      "name": "ContractInfoFilenameChanged",
      "type": "event"
    },
    {
      "anonymous": false,
      "inputs": [
        {
          "indexed": true,
          "internalType": "address",
          "name": "delegator",
          "type": "address"
        },
        {
          "indexed": true,
          "internalType": "address",
          "name": "fromDelegate",
          "type": "address"
        },
        {
          "indexed": true,
          "internalType": "address",
          "name": "toDelegate",
          "type": "address"
        }
      ],
      "name": "DelegateChanged",
      "type": "event"
    },
    {
      "anonymous": false,
      "inputs": [
        {
          "indexed": true,
          "internalType": "address",
          "name": "delegate",
          "type": "address"
        },
        {
          "indexed": false,
          "internalType": "uint256",
          "name": "previousBalance",
          "type": "uint256"
        },
        {
          "indexed": false,
          "internalType": "uint256",
          "name": "newBalance",
          "type": "uint256"
        }
      ],
      "name": "DelegateVotesChanged",
      "type": "event"
    },
    {
      "anonymous": false,
      "inputs": [
        {
          "indexed": true,
          "internalType": "bytes32",
          "name": "role",
          "type": "bytes32"
        },
        {
          "indexed": true,
          "internalType": "bytes32",
          "name": "previousAdminRole",
          "type": "bytes32"
        },
        {
          "indexed": true,
          "internalType": "bytes32",
          "name": "newAdminRole",
          "type": "bytes32"
        }
      ],
      "name": "RoleAdminChanged",
      "type": "event"
    },
    {
      "anonymous": false,
      "inputs": [
        {
          "indexed": true,
          "internalType": "bytes32",
          "name": "role",
          "type": "bytes32"
        },
        {
          "indexed": true,
          "internalType": "address",
          "name": "account",
          "type": "address"
        },
        {
          "indexed": true,
          "internalType": "address",
          "name": "sender",
          "type": "address"
        }
      ],
      "name": "RoleGranted",
      "type": "event"
    },
    {
      "anonymous": false,
      "inputs": [
        {
          "indexed": true,
          "internalType": "bytes32",
          "name": "role",
          "type": "bytes32"
        },
        {
          "indexed": true,
          "internalType": "address",
          "name": "account",
          "type": "address"
        },
        {
          "indexed": true,
          "internalType": "address",
          "name": "sender",
          "type": "address"
        }
      ],
      "name": "RoleRevoked",
      "type": "event"
    },
    {
      "anonymous": false,
      "inputs": [
        {
          "indexed": true,
          "internalType": "address",
          "name": "from",
          "type": "address"
        },
        {
          "indexed": true,
          "internalType": "address",
          "name": "to",
          "type": "address"
        },
        {
          "indexed": true,
          "internalType": "uint256",
          "name": "tokenId",
          "type": "uint256"
        }
      ],
      "name": "Transfer",
      "type": "event"
    },
    {
      "inputs": [],
      "name": "ADMIN_ROLE",
      "outputs": [
        {
          "internalType": "bytes32",
          "name": "",
          "type": "bytes32"
        }
      ],
      "stateMutability": "view",
      "type": "function"
    },
    {
      "inputs": [],
      "name": "BASE_URI_ROLE",
      "outputs": [
        {
          "internalType": "bytes32",
          "name": "",
          "type": "bytes32"
        }
      ],
      "stateMutability": "view",
      "type": "function"
    },
    {
      "inputs": [],
      "name": "BURNER_ROLE",
      "outputs": [
        {
          "internalType": "bytes32",
          "name": "",
          "type": "bytes32"
        }
      ],
      "stateMutability": "view",
      "type": "function"
    },
    {
      "inputs": [],
      "name": "DEFAULT_ADMIN_ROLE",
      "outputs": [
        {
          "internalType": "bytes32",
          "name": "",
          "type": "bytes32"
        }
      ],
      "stateMutability": "view",
      "type": "function"
    },
    {
      "inputs": [],
      "name": "DELEGATION_TYPEHASH",
      "outputs": [
        {
          "internalType": "bytes32",
          "name": "",
          "type": "bytes32"
        }
      ],
      "stateMutability": "view",
      "type": "function"
    },
    {
      "inputs": [],
      "name": "DOMAIN_TYPEHASH",
      "outputs": [
        {
          "internalType": "bytes32",
          "name": "",
          "type": "bytes32"
        }
      ],
      "stateMutability": "view",
      "type": "function"
    },
    {
      "inputs": [],
      "name": "MINTER_ROLE",
      "outputs": [
        {
          "internalType": "bytes32",
          "name": "",
          "type": "bytes32"
        }
      ],
      "stateMutability": "view",
      "type": "function"
    },
    {
      "inputs": [
        {
          "internalType": "address",
          "name": "to",
          "type": "address"
        },
        {
          "internalType": "uint256",
          "name": "tokenId",
          "type": "uint256"
        }
      ],
      "name": "approve",
      "outputs": [],
      "stateMutability": "nonpayable",
      "type": "function"
    },
    {
      "inputs": [
        {
          "internalType": "address",
          "name": "owner",
          "type": "address"
        }
      ],
      "name": "balanceOf",
      "outputs": [
        {
          "internalType": "uint256",
          "name": "",
          "type": "uint256"
        }
      ],
      "stateMutability": "view",
      "type": "function"
    },
    {
      "inputs": [],
      "name": "baseURI",
      "outputs": [
        {
          "internalType": "string",
          "name": "",
          "type": "string"
        }
      ],
      "stateMutability": "view",
      "type": "function"
    },
    {
      "inputs": [
        {
          "internalType": "address",
          "name": "",
          "type": "address"
        },
        {
          "internalType": "uint32",
          "name": "",
          "type": "uint32"
        }
      ],
      "name": "checkpoints",
      "outputs": [
        {
          "internalType": "uint32",
          "name": "fromBlock",
          "type": "uint32"
        },
        {
          "internalType": "uint96",
          "name": "votes",
          "type": "uint96"
        }
      ],
      "stateMutability": "view",
      "type": "function"
    },
    {
      "inputs": [],
      "name": "contractInfoURI",
      "outputs": [
        {
          "internalType": "string",
          "name": "",
          "type": "string"
        }
      ],
      "stateMutability": "view",
      "type": "function"
    },
    {
      "inputs": [],
      "name": "decimals",
      "outputs": [
        {
          "internalType": "uint8",
          "name": "",
          "type": "uint8"
        }
      ],
      "stateMutability": "view",
      "type": "function"
    },
    {
      "inputs": [
        {
          "internalType": "address",
          "name": "delegatee",
          "type": "address"
        }
      ],
      "name": "delegate",
      "outputs": [],
      "stateMutability": "nonpayable",
      "type": "function"
    },
    {
      "inputs": [
        {
          "internalType": "address",
          "name": "delegatee",
          "type": "address"
        },
        {
          "internalType": "uint256",
          "name": "nonce",
          "type": "uint256"
        },
        {
          "internalType": "uint256",
          "name": "expiry",
          "type": "uint256"
        },
        {
          "internalType": "uint8",
          "name": "v",
          "type": "uint8"
        },
        {
          "internalType": "bytes32",
          "name": "r",
          "type": "bytes32"
        },
        {
          "internalType": "bytes32",
          "name": "s",
          "type": "bytes32"
        }
      ],
      "name": "delegateBySig",
      "outputs": [],
      "stateMutability": "nonpayable",
      "type": "function"
    },
    {
      "inputs": [
        {
          "internalType": "address",
          "name": "delegator",
          "type": "address"
        }
      ],
      "name": "delegates",
      "outputs": [
        {
          "internalType": "address",
          "name": "",
          "type": "address"
        }
      ],
      "stateMutability": "view",
      "type": "function"
    },
    {
      "inputs": [
        {
          "internalType": "uint256",
          "name": "tokenId",
          "type": "uint256"
        }
      ],
      "name": "getApproved",
      "outputs": [
        {
          "internalType": "address",
          "name": "",
          "type": "address"
        }
      ],
      "stateMutability": "view",
      "type": "function"
    },
    {
      "inputs": [
        {
          "internalType": "address",
          "name": "account",
          "type": "address"
        }
      ],
      "name": "getCurrentVotes",
      "outputs": [
        {
          "internalType": "uint96",
          "name": "",
          "type": "uint96"
        }
      ],
      "stateMutability": "view",
      "type": "function"
    },
    {
      "inputs": [
        {
          "internalType": "address",
          "name": "account",
          "type": "address"
        },
        {
          "internalType": "uint256",
          "name": "blockNumber",
          "type": "uint256"
        }
      ],
      "name": "getPriorVotes",
      "outputs": [
        {
          "internalType": "uint96",
          "name": "",
          "type": "uint96"
        }
      ],
      "stateMutability": "view",
      "type": "function"
    },
    {
      "inputs": [
        {
          "internalType": "bytes32",
          "name": "role",
          "type": "bytes32"
        }
      ],
      "name": "getRoleAdmin",
      "outputs": [
        {
          "internalType": "bytes32",
          "name": "",
          "type": "bytes32"
        }
      ],
      "stateMutability": "view",
      "type": "function"
    },
    {
      "inputs": [
        {
          "internalType": "bytes32",
          "name": "role",
          "type": "bytes32"
        },
        {
          "internalType": "uint256",
          "name": "index",
          "type": "uint256"
        }
      ],
      "name": "getRoleMember",
      "outputs": [
        {
          "internalType": "address",
          "name": "",
          "type": "address"
        }
      ],
      "stateMutability": "view",
      "type": "function"
    },
    {
      "inputs": [
        {
          "internalType": "bytes32",
          "name": "role",
          "type": "bytes32"
        }
      ],
      "name": "getRoleMemberCount",
      "outputs": [
        {
          "internalType": "uint256",
          "name": "",
          "type": "uint256"
        }
      ],
      "stateMutability": "view",
      "type": "function"
    },
    {
      "inputs": [
        {
          "internalType": "bytes32",
          "name": "role",
          "type": "bytes32"
        },
        {
          "internalType": "address",
          "name": "account",
          "type": "address"
        }
      ],
      "name": "grantRole",
      "outputs": [],
      "stateMutability": "nonpayable",
      "type": "function"
    },
    {
      "inputs": [
        {
          "internalType": "bytes32",
          "name": "role",
          "type": "bytes32"
        },
        {
          "internalType": "address",
          "name": "account",
          "type": "address"
        }
      ],
      "name": "hasRole",
      "outputs": [
        {
          "internalType": "bool",
          "name": "",
          "type": "bool"
        }
      ],
      "stateMutability": "view",
      "type": "function"
    },
    {
      "inputs": [
        {
          "internalType": "string",
          "name": "name_",
          "type": "string"
        },
        {
          "internalType": "string",
          "name": "symbol_",
          "type": "string"
        },
        {
          "internalType": "bytes32[]",
          "name": "roles",
          "type": "bytes32[]"
        },
        {
          "internalType": "address[]",
          "name": "rolesAssignees",
          "type": "address[]"
        }
      ],
      "name": "initialize",
      "outputs": [],
      "stateMutability": "nonpayable",
      "type": "function"
    },
    {
      "inputs": [
        {
          "internalType": "address",
          "name": "owner",
          "type": "address"
        },
        {
          "internalType": "address",
          "name": "operator",
          "type": "address"
        }
      ],
      "name": "isApprovedForAll",
      "outputs": [
        {
          "internalType": "bool",
          "name": "",
          "type": "bool"
        }
      ],
      "stateMutability": "view",
      "type": "function"
    },
    {
      "inputs": [
        {
          "internalType": "address",
          "name": "to",
          "type": "address"
        },
        {
          "internalType": "uint256",
          "name": "tokenId",
          "type": "uint256"
        }
      ],
      "name": "mint",
      "outputs": [],
      "stateMutability": "nonpayable",
      "type": "function"
    },
    {
      "inputs": [],
      "name": "name",
      "outputs": [
        {
          "internalType": "string",
          "name": "",
          "type": "string"
        }
      ],
      "stateMutability": "view",
      "type": "function"
    },
    {
      "inputs": [
        {
          "internalType": "address",
          "name": "",
          "type": "address"
        }
      ],
      "name": "nonces",
      "outputs": [
        {
          "internalType": "uint256",
          "name": "",
          "type": "uint256"
        }
      ],
      "stateMutability": "view",
      "type": "function"
    },
    {
      "inputs": [
        {
          "internalType": "address",
          "name": "",
          "type": "address"
        }
      ],
      "name": "numCheckpoints",
      "outputs": [
        {
          "internalType": "uint32",
          "name": "",
          "type": "uint32"
        }
      ],
      "stateMutability": "view",
      "type": "function"
    },
    {
      "inputs": [
        {
          "internalType": "uint256",
          "name": "tokenId",
          "type": "uint256"
        }
      ],
      "name": "ownerOf",
      "outputs": [
        {
          "internalType": "address",
          "name": "",
          "type": "address"
        }
      ],
      "stateMutability": "view",
      "type": "function"
    },
    {
      "inputs": [
        {
          "internalType": "bytes32",
          "name": "role",
          "type": "bytes32"
        },
        {
          "internalType": "address",
          "name": "account",
          "type": "address"
        }
      ],
      "name": "renounceRole",
      "outputs": [],
      "stateMutability": "nonpayable",
      "type": "function"
    },
    {
      "inputs": [
        {
          "internalType": "bytes32",
          "name": "role",
          "type": "bytes32"
        },
        {
          "internalType": "address",
          "name": "account",
          "type": "address"
        }
      ],
      "name": "revokeRole",
      "outputs": [],
      "stateMutability": "nonpayable",
      "type": "function"
    },
    {
      "inputs": [
        {
          "internalType": "address",
          "name": "from",
          "type": "address"
        },
        {
          "internalType": "address",
          "name": "to",
          "type": "address"
        },
        {
          "internalType": "uint256",
          "name": "tokenId",
          "type": "uint256"
        }
      ],
      "name": "safeTransferFrom",
      "outputs": [],
      "stateMutability": "nonpayable",
      "type": "function"
    },
    {
      "inputs": [
        {
          "internalType": "address",
          "name": "from",
          "type": "address"
        },
        {
          "internalType": "address",
          "name": "to",
          "type": "address"
        },
        {
          "internalType": "uint256",
          "name": "tokenId",
          "type": "uint256"
        },
        {
          "internalType": "bytes",
          "name": "_data",
          "type": "bytes"
        }
      ],
      "name": "safeTransferFrom",
      "outputs": [],
      "stateMutability": "nonpayable",
      "type": "function"
    },
    {
      "inputs": [
        {
          "internalType": "address",
          "name": "operator",
          "type": "address"
        },
        {
          "internalType": "bool",
          "name": "approved",
          "type": "bool"
        }
      ],
      "name": "setApprovalForAll",
      "outputs": [],
      "stateMutability": "nonpayable",
      "type": "function"
    },
    {
      "inputs": [
        {
          "internalType": "string",
          "name": "baseURI_",
          "type": "string"
        }
      ],
      "name": "setBaseURI",
      "outputs": [],
      "stateMutability": "nonpayable",
      "type": "function"
    },
    {
      "inputs": [
        {
          "internalType": "string",
          "name": "contractInfoFilename_",
          "type": "string"
        }
      ],
      "name": "setContractInfoFilename",
      "outputs": [],
      "stateMutability": "nonpayable",
      "type": "function"
    },
    {
      "inputs": [
        {
          "internalType": "bytes4",
          "name": "interfaceId",
          "type": "bytes4"
        }
      ],
      "name": "supportsInterface",
      "outputs": [
        {
          "internalType": "bool",
          "name": "",
          "type": "bool"
        }
      ],
      "stateMutability": "view",
      "type": "function"
    },
    {
      "inputs": [],
      "name": "symbol",
      "outputs": [
        {
          "internalType": "string",
          "name": "",
          "type": "string"
        }
      ],
      "stateMutability": "view",
      "type": "function"
    },
    {
      "inputs": [
        {
          "internalType": "uint256",
          "name": "index",
          "type": "uint256"
        }
      ],
      "name": "tokenByIndex",
      "outputs": [
        {
          "internalType": "uint256",
          "name": "",
          "type": "uint256"
        }
      ],
      "stateMutability": "view",
      "type": "function"
    },
    {
      "inputs": [
        {
          "internalType": "address",
          "name": "owner",
          "type": "address"
        },
        {
          "internalType": "uint256",
          "name": "index",
          "type": "uint256"
        }
      ],
      "name": "tokenOfOwnerByIndex",
      "outputs": [
        {
          "internalType": "uint256",
          "name": "",
          "type": "uint256"
        }
      ],
      "stateMutability": "view",
      "type": "function"
    },
    {
      "inputs": [
        {
          "internalType": "uint256",
          "name": "tokenId",
          "type": "uint256"
        }
      ],
      "name": "tokenURI",
      "outputs": [
        {
          "internalType": "string",
          "name": "",
          "type": "string"
        }
      ],
      "stateMutability": "view",
      "type": "function"
    },
    {
      "inputs": [],
      "name": "totalSupply",
      "outputs": [
        {
          "internalType": "uint256",
          "name": "",
          "type": "uint256"
        }
      ],
      "stateMutability": "view",
      "type": "function"
    },
    {
      "inputs": [
        {
          "internalType": "address",
          "name": "from",
          "type": "address"
        },
        {
          "internalType": "address",
          "name": "to",
          "type": "address"
        },
        {
          "internalType": "uint256",
          "name": "tokenId",
          "type": "uint256"
        }
      ],
      "name": "transferFrom",
      "outputs": [],
      "stateMutability": "nonpayable",
      "type": "function"
    },
    {
      "inputs": [
        {
          "internalType": "address",
          "name": "delegator",
          "type": "address"
        }
      ],
      "name": "votesToDelegate",
      "outputs": [
        {
          "internalType": "uint96",
          "name": "",
          "type": "uint96"
        }
      ],
      "stateMutability": "view",
      "type": "function"
    }
  ],
  "bytecode": "0x60a06040819052600060808190526200001c916101319162000068565b5060408051808201909152600c8082526b383937b532b1ba173539b7b760a11b602090920191825262000053916101329162000068565b503480156200006157600080fd5b506200014b565b82805462000076906200010e565b90600052602060002090601f0160209004810192826200009a5760008555620000e5565b82601f10620000b557805160ff1916838001178555620000e5565b82800160010185558215620000e5579182015b82811115620000e5578251825591602001919060010190620000c8565b50620000f3929150620000f7565b5090565b5b80821115620000f35760008155600101620000f8565b600181811c908216806200012357607f821691505b602082108114156200014557634e487b7160e01b600052602260045260246000fd5b50919050565b6143de806200015b6000396000f3fe608060405234801561001057600080fd5b506004361061030a5760003560e01c80636fcfff451161019c578063b4b5ea57116100ee578063d539139311610097578063e9580e9111610071578063e9580e911461074b578063e985e9c51461075e578063f1127ed81461079a57600080fd5b8063d5391393146106ea578063d547741f14610711578063e7a324dc1461072457600080fd5b8063c3cda520116100c8578063c3cda520146106b1578063c87b56dd146106c4578063ca15c873146106d757600080fd5b8063b4b5ea5714610664578063b88d4fde14610677578063bdadce3c1461068a57600080fd5b80639010d07c1161015057806395d89b411161012a57806395d89b4114610641578063a217fddf14610649578063a22cb4651461065157600080fd5b80639010d07c146105e2578063914fbd0a146105f557806391d148541461060857600080fd5b806375b238fc1161018157806375b238fc1461056b578063782d6fe1146105925780637ecebe00146105c257600080fd5b80636fcfff451461051d57806370a082311461055857600080fd5b8063313ce567116102605780635034ea09116102095780635c19a95c116101e35780635c19a95c146104ef5780636352211e146105025780636c0360eb1461051557600080fd5b80635034ea09146104c157806355f804b3146104c9578063587cde1e146104dc57600080fd5b806340c10f191161023a57806340c10f191461048857806342842e0e1461049b5780634f6ccce7146104ae57600080fd5b8063313ce5671461044857806336568abe14610462578063384881331461047557600080fd5b806320606b70116102c2578063282c51f31161029c578063282c51f3146103fb5780632f2ff15d146104225780632f745c591461043557600080fd5b806320606b701461039e57806323b872dd146103c5578063248a9ca3146103d857600080fd5b8063081812fc116102f3578063081812fc1461034c578063095ea7b31461037757806318160ddd1461038c57600080fd5b806301ffc9a71461030f57806306fdde0314610337575b600080fd5b61032261031d366004613b9c565b61080c565b60405190151581526020015b60405180910390f35b61033f61081d565b60405161032e9190613f04565b61035f61035a366004613b3e565b6108af565b6040516001600160a01b03909116815260200161032e565b61038a610385366004613a7f565b61095a565b005b6099545b60405190815260200161032e565b6103907f8cad95687ba82c2ce50e74f7b754645e5117c3a5bec8151c0726d5857980a86681565b61038a6103d336600461398b565b610a8c565b6103906103e6366004613b3e565b600090815260cd602052604090206001015490565b6103907f3c11d16cbaffd01df69ce1c404f6340ee057498f5f00246190ea54220576a84881565b61038a610430366004613b57565b610b13565b610390610443366004613a7f565b610b35565b610450600081565b60405160ff909116815260200161032e565b61038a610470366004613b57565b610bdd565b61038a610483366004613bd6565b610bff565b61038a610496366004613a7f565b610c7a565b61038a6104a936600461398b565b610caf565b6103906104bc366004613b3e565b610cca565b61033f610d6e565b61038a6104d7366004613bd6565b610d9b565b61035f6104ea36600461393d565b610e0a565b61038a6104fd36600461393d565b610e3c565b61035f610510366004613b3e565b610e5a565b61033f610ee5565b61054361052b36600461393d565b60cb6020526000908152604090205463ffffffff1681565b60405163ffffffff909116815260200161032e565b61039061056636600461393d565b610f74565b6103907fa49807205ce4d355092ef5a8a18f56e8913cf4a201fbe287825b095693c2177581565b6105a56105a0366004613a7f565b61100e565b6040516bffffffffffffffffffffffff909116815260200161032e565b6103906105d036600461393d565b60cc6020526000908152604090205481565b61035f6105f0366004613b7a565b6112bd565b61038a610603366004613c0b565b6112d5565b610322610616366004613b57565b600091825260cd602090815260408084206001600160a01b0393909316845291905290205460ff1690565b61033f6114bf565b610390600081565b61038a61065f366004613a43565b6114ce565b6105a561067236600461393d565b6115b1565b61038a6106853660046139c7565b611634565b6103907ff372640890c51dda497431936a65d3bb1ddf67b1c27cd6cdf578ce883c4f5c3681565b61038a6106bf366004613aa9565b6116c2565b61033f6106d2366004613b3e565b6119f4565b6103906106e5366004613b3e565b611adc565b6103907f9f2df0fed2c77648de5860a4cc508cd0818c85b8b8a1ab4ceeef8d981c8956a681565b61038a61071f366004613b57565b611af3565b6103907fe48329057bfd03d55e49b547132e39cffd9c1820ad7b9d4c5307691425d15adf81565b6105a561075936600461393d565b611afd565b61032261076c366004613958565b6001600160a01b039182166000908152606a6020908152604080832093909416825291909152205460ff1690565b6107e36107a8366004613b09565b60ca60209081526000928352604080842090915290825290205463ffffffff81169064010000000090046bffffffffffffffffffffffff1682565b6040805163ffffffff90931683526bffffffffffffffffffffffff90911660208301520161032e565b600061081782611b29565b92915050565b60606065805461082c90614100565b80601f016020809104026020016040519081016040528092919081815260200182805461085890614100565b80156108a55780601f1061087a576101008083540402835291602001916108a5565b820191906000526020600020905b81548152906001019060200180831161088857829003601f168201915b5050505050905090565b6000818152606760205260408120546001600160a01b031661093e5760405162461bcd60e51b815260206004820152602c60248201527f4552433732313a20617070726f76656420717565727920666f72206e6f6e657860448201527f697374656e7420746f6b656e000000000000000000000000000000000000000060648201526084015b60405180910390fd5b506000908152606960205260409020546001600160a01b031690565b600061096582610e5a565b9050806001600160a01b0316836001600160a01b031614156109ef5760405162461bcd60e51b815260206004820152602160248201527f4552433732313a20617070726f76616c20746f2063757272656e74206f776e6560448201527f72000000000000000000000000000000000000000000000000000000000000006064820152608401610935565b336001600160a01b0382161480610a0b5750610a0b813361076c565b610a7d5760405162461bcd60e51b815260206004820152603860248201527f4552433732313a20617070726f76652063616c6c6572206973206e6f74206f7760448201527f6e6572206e6f7220617070726f76656420666f7220616c6c00000000000000006064820152608401610935565b610a878383611b7f565b505050565b610a963382611c05565b610b085760405162461bcd60e51b815260206004820152603160248201527f4552433732313a207472616e736665722063616c6c6572206973206e6f74206f60448201527f776e6572206e6f7220617070726f7665640000000000000000000000000000006064820152608401610935565b610a87838383611d0d565b610b1d8282611efd565b600082815260ff60205260409020610a879082611f23565b6000610b4083610f74565b8210610bb45760405162461bcd60e51b815260206004820152602b60248201527f455243373231456e756d657261626c653a206f776e657220696e646578206f7560448201527f74206f6620626f756e64730000000000000000000000000000000000000000006064820152608401610935565b506001600160a01b03919091166000908152609760209081526040808320938352929052205490565b610be78282611f38565b600082815260ff60205260409020610a879082611fc4565b7ff372640890c51dda497431936a65d3bb1ddf67b1c27cd6cdf578ce883c4f5c36610c2a8133611fd9565b8151610c3e90610132906020850190613797565b507f3d4771b7d2c496d9930380b3925c15e869e9ef0408bfd2709c90c96e0689f8eb82604051610c6e9190613f04565b60405180910390a15050565b7f9f2df0fed2c77648de5860a4cc508cd0818c85b8b8a1ab4ceeef8d981c8956a6610ca58133611fd9565b610a878383612059565b610a8783838360405180602001604052806000815250611634565b6000610cd560995490565b8210610d495760405162461bcd60e51b815260206004820152602c60248201527f455243373231456e756d657261626c653a20676c6f62616c20696e646578206f60448201527f7574206f6620626f756e647300000000000000000000000000000000000000006064820152608401610935565b60998281548110610d5c57610d5c61422e565b90600052602060002001549050919050565b6060610131610132604051602001610d87929190613e32565b604051602081830303815290604052905090565b7ff372640890c51dda497431936a65d3bb1ddf67b1c27cd6cdf578ce883c4f5c36610dc68133611fd9565b8151610dda90610131906020850190613797565b507f5411e8ebf1636d9e83d5fc4900bf80cbac82e8790da2a4c94db4895e889eedf682604051610c6e9190613f04565b6001600160a01b03808216600090815260c960205260408120549091168015610e335780610e35565b825b9392505050565b6001600160a01b038116610e4d5750335b610e5733826121bf565b50565b6000818152606760205260408120546001600160a01b0316806108175760405162461bcd60e51b815260206004820152602960248201527f4552433732313a206f776e657220717565727920666f72206e6f6e657869737460448201527f656e7420746f6b656e00000000000000000000000000000000000000000000006064820152608401610935565b6101318054610ef390614100565b80601f0160208091040260200160405190810160405280929190818152602001828054610f1f90614100565b8015610f6c5780601f10610f4157610100808354040283529160200191610f6c565b820191906000526020600020905b815481529060010190602001808311610f4f57829003601f168201915b505050505081565b60006001600160a01b038216610ff25760405162461bcd60e51b815260206004820152602a60248201527f4552433732313a2062616c616e636520717565727920666f7220746865207a6560448201527f726f2061646472657373000000000000000000000000000000000000000000006064820152608401610935565b506001600160a01b031660009081526068602052604090205490565b60004382106110855760405162461bcd60e51b815260206004820152603760248201527f455243373231436865636b706f696e7461626c653a3a6765745072696f72566f60448201527f7465733a206e6f74207965742064657465726d696e65640000000000000000006064820152608401610935565b6001600160a01b038316600090815260cb602052604090205463ffffffff16806110b3576000915050610817565b6001600160a01b038416600090815260ca6020526040812084916110d8600185614055565b63ffffffff90811682526020820192909252604001600020541611611151576001600160a01b038416600090815260ca602052604081209061111b600184614055565b63ffffffff16815260208101919091526040016000205464010000000090046bffffffffffffffffffffffff1691506108179050565b6001600160a01b038416600090815260ca6020908152604080832083805290915290205463ffffffff1683101561118c576000915050610817565b60008061119a600184614055565b90505b8163ffffffff168163ffffffff16111561127257600060026111bf8484614055565b6111c99190613fde565b6111d39083614055565b6001600160a01b038816600090815260ca6020908152604080832063ffffffff8581168552908352928190208151808301909252549283168082526401000000009093046bffffffffffffffffffffffff1691810191909152919250871415611246576020015194506108179350505050565b805163ffffffff1687111561125d5781935061126b565b611268600183614055565b92505b505061119d565b506001600160a01b038516600090815260ca6020908152604080832063ffffffff909416835292905220546bffffffffffffffffffffffff6401000000009091041691505092915050565b600082815260ff60205260408120610e359083612257565b805182511461134c5760405162461bcd60e51b815260206004820152603c60248201527f45524337323144414f546f6b656e3a3a696e697469616c697a65723a20726f6c60448201527f65732061737369676e6d656e74206172697479206d69736d61746368000000006064820152608401610935565b6113568484612263565b6113807fa49807205ce4d355092ef5a8a18f56e8913cf4a201fbe287825b095693c217758061237a565b6113ca7f9f2df0fed2c77648de5860a4cc508cd0818c85b8b8a1ab4ceeef8d981c8956a67fa49807205ce4d355092ef5a8a18f56e8913cf4a201fbe287825b095693c2177561237a565b6114147f3c11d16cbaffd01df69ce1c404f6340ee057498f5f00246190ea54220576a8487fa49807205ce4d355092ef5a8a18f56e8913cf4a201fbe287825b095693c2177561237a565b61145e7ff372640890c51dda497431936a65d3bb1ddf67b1c27cd6cdf578ce883c4f5c367fa49807205ce4d355092ef5a8a18f56e8913cf4a201fbe287825b095693c2177561237a565b60005b82518110156114b8576114a683828151811061147f5761147f61422e565b60200260200101518383815181106114995761149961422e565b60200260200101516123c5565b806114b081614154565b915050611461565b5050505050565b60606066805461082c90614100565b6001600160a01b0382163314156115275760405162461bcd60e51b815260206004820152601960248201527f4552433732313a20617070726f766520746f2063616c6c6572000000000000006044820152606401610935565b336000818152606a602090815260408083206001600160a01b0387168085529083529281902080547fffffffffffffffffffffffffffffffffffffffffffffffffffffffffffffff001686151590811790915590519081529192917f17307eab39ab6107e8899845ad3d59bd9653f200f220920489ca2b5937696c31910160405180910390a35050565b6001600160a01b038116600090815260cb602052604081205463ffffffff16806115dc576000610e35565b6001600160a01b038316600090815260ca6020526040812090611600600184614055565b63ffffffff16815260208101919091526040016000205464010000000090046bffffffffffffffffffffffff169392505050565b61163e3383611c05565b6116b05760405162461bcd60e51b815260206004820152603160248201527f4552433732313a207472616e736665722063616c6c6572206973206e6f74206f60448201527f776e6572206e6f7220617070726f7665640000000000000000000000000000006064820152608401610935565b6116bc848484846123cf565b50505050565b60007f8cad95687ba82c2ce50e74f7b754645e5117c3a5bec8151c0726d5857980a8666116ed61081d565b805190602001206116fb4690565b60408051602080820195909552808201939093526060830191909152306080808401919091528151808403909101815260a0830182528051908401207fe48329057bfd03d55e49b547132e39cffd9c1820ad7b9d4c5307691425d15adf60c08401526001600160a01b038b1660e084015261010083018a90526101208084018a9052825180850390910181526101408401909252815191909301207f1901000000000000000000000000000000000000000000000000000000000000610160830152610162820183905261018282018190529192506000906101a20160408051601f198184030181528282528051602091820120600080855291840180845281905260ff8a169284019290925260608301889052608083018790529092509060019060a0016020604051602081039080840390855afa158015611842573d6000803e3d6000fd5b5050604051601f1901519150506001600160a01b0381166118cb5760405162461bcd60e51b815260206004820152603660248201527f455243373231436865636b706f696e7461626c653a3a64656c6567617465427960448201527f5369673a20696e76616c6964207369676e6174757265000000000000000000006064820152608401610935565b6001600160a01b038116600090815260cc602052604081208054916118ef83614154565b9190505589146119675760405162461bcd60e51b815260206004820152603260248201527f455243373231436865636b706f696e7461626c653a3a64656c6567617465427960448201527f5369673a20696e76616c6964206e6f6e636500000000000000000000000000006064820152608401610935565b874211156119dd5760405162461bcd60e51b815260206004820152603660248201527f455243373231436865636b706f696e7461626c653a3a64656c6567617465427960448201527f5369673a207369676e61747572652065787069726564000000000000000000006064820152608401610935565b6119e7818b6121bf565b505050505b505050505050565b6000818152606760205260409020546060906001600160a01b0316611a815760405162461bcd60e51b815260206004820152602f60248201527f4552433732314d657461646174613a2055524920717565727920666f72206e6f60448201527f6e6578697374656e7420746f6b656e00000000000000000000000000000000006064820152608401610935565b6000611a8b612458565b90506000815111611aab5760405180602001604052806000815250610e35565b80611ab584612468565b604051602001611ac6929190613e03565b6040516020818303038152906040529392505050565b600081815260ff602052604081206108179061259a565b610be782826125a4565b6000610817611b0b83610f74565b6040518060600160405280603d8152602001614335603d91396125ca565b60007fffffffff0000000000000000000000000000000000000000000000000000000082167f5a05180f000000000000000000000000000000000000000000000000000000001480610817575061081782612602565b600081815260696020526040902080547fffffffffffffffffffffffff0000000000000000000000000000000000000000166001600160a01b0384169081179091558190611bcc82610e5a565b6001600160a01b03167f8c5be1e5ebec7d5bd14f71427d1e84f3dd0314c0f7b2291e5b200ac8c7c3b92560405160405180910390a45050565b6000818152606760205260408120546001600160a01b0316611c8f5760405162461bcd60e51b815260206004820152602c60248201527f4552433732313a206f70657261746f7220717565727920666f72206e6f6e657860448201527f697374656e7420746f6b656e00000000000000000000000000000000000000006064820152608401610935565b6000611c9a83610e5a565b9050806001600160a01b0316846001600160a01b03161480611cd55750836001600160a01b0316611cca846108af565b6001600160a01b0316145b80611d0557506001600160a01b038082166000908152606a602090815260408083209388168352929052205460ff165b949350505050565b826001600160a01b0316611d2082610e5a565b6001600160a01b031614611d9c5760405162461bcd60e51b815260206004820152602960248201527f4552433732313a207472616e73666572206f6620746f6b656e2074686174206960448201527f73206e6f74206f776e00000000000000000000000000000000000000000000006064820152608401610935565b6001600160a01b038216611e175760405162461bcd60e51b8152602060048201526024808201527f4552433732313a207472616e7366657220746f20746865207a65726f2061646460448201527f72657373000000000000000000000000000000000000000000000000000000006064820152608401610935565b611e22838383612658565b611e2d600082611b7f565b6001600160a01b0383166000908152606860205260408120805460019290611e5690849061403e565b90915550506001600160a01b0382166000908152606860205260408120805460019290611e84908490613f6c565b909155505060008181526067602052604080822080547fffffffffffffffffffffffff0000000000000000000000000000000000000000166001600160a01b0386811691821790925591518493918716917fddf252ad1be2c89b69c2b068fc378daa952ba7f163c4a11628f55a4df523b3ef91a4505050565b600082815260cd6020526040902060010154611f198133611fd9565b610a87838361267f565b6000610e35836001600160a01b03841661273f565b6001600160a01b0381163314611fb65760405162461bcd60e51b815260206004820152602f60248201527f416363657373436f6e74726f6c3a2063616e206f6e6c792072656e6f756e636560448201527f20726f6c657320666f722073656c6600000000000000000000000000000000006064820152608401610935565b611fc0828261278e565b5050565b6000610e35836001600160a01b03841661282f565b600082815260cd602090815260408083206001600160a01b038516845290915290205460ff16611fc057612017816001600160a01b03166014612922565b612022836020612922565b604051602001612033929190613e47565b60408051601f198184030181529082905262461bcd60e51b825261093591600401613f04565b6001600160a01b0382166120af5760405162461bcd60e51b815260206004820181905260248201527f4552433732313a206d696e7420746f20746865207a65726f20616464726573736044820152606401610935565b6000818152606760205260409020546001600160a01b0316156121145760405162461bcd60e51b815260206004820152601c60248201527f4552433732313a20746f6b656e20616c7265616479206d696e746564000000006044820152606401610935565b61212060008383612658565b6001600160a01b0382166000908152606860205260408120805460019290612149908490613f6c565b909155505060008181526067602052604080822080547fffffffffffffffffffffffff0000000000000000000000000000000000000000166001600160a01b03861690811790915590518392907fddf252ad1be2c89b69c2b068fc378daa952ba7f163c4a11628f55a4df523b3ef908290a45050565b60006121ca83610e0a565b6001600160a01b03848116600081815260c9602052604080822080547fffffffffffffffffffffffff000000000000000000000000000000000000000016888616908117909155905194955093928516927f3134e8a2e6d97e929a7e54011ea5485d7d196dd5f0ba4d4ef95803e8e3fc257f9190a4600061224a84611afd565b90506116bc828483612b4b565b6000610e358383612d08565b600054610100900460ff168061227c575060005460ff16155b6122ee5760405162461bcd60e51b815260206004820152602e60248201527f496e697469616c697a61626c653a20636f6e747261637420697320616c72656160448201527f647920696e697469616c697a65640000000000000000000000000000000000006064820152608401610935565b600054610100900460ff1615801561232d57600080547fffffffffffffffffffffffffffffffffffffffffffffffffffffffffffff0000166101011790555b612335612d32565b61233d612d32565b6123478383612e2d565b8015610a8757600080547fffffffffffffffffffffffffffffffffffffffffffffffffffffffffffff00ff169055505050565b600082815260cd6020526040808220600101805490849055905190918391839186917fbd79b86ffe0ab8e8776151514217cd7cacd52c909f66475c3af44e129f0b00ff9190a4505050565b610b1d8282612f52565b6123da848484611d0d565b6123e684848484612f5c565b6116bc5760405162461bcd60e51b815260206004820152603260248201527f4552433732313a207472616e7366657220746f206e6f6e20455243373231526560448201527f63656976657220696d706c656d656e74657200000000000000000000000000006064820152608401610935565b6060610131805461082c90614100565b6060816124a857505060408051808201909152600181527f3000000000000000000000000000000000000000000000000000000000000000602082015290565b8160005b81156124d257806124bc81614154565b91506124cb9050600a83613fca565b91506124ac565b60008167ffffffffffffffff8111156124ed576124ed61425d565b6040519080825280601f01601f191660200182016040528015612517576020820181803683370190505b5090505b8415611d055761252c60018361403e565b9150612539600a8661418d565b612544906030613f6c565b60f81b8183815181106125595761255961422e565b60200101907effffffffffffffffffffffffffffffffffffffffffffffffffffffffffffff1916908160001a905350612593600a86613fca565b945061251b565b6000610817825490565b600082815260cd60205260409020600101546125c08133611fd9565b610a87838361278e565b6000816c0100000000000000000000000084106125fa5760405162461bcd60e51b81526004016109359190613f04565b509192915050565b60007fffffffff0000000000000000000000000000000000000000000000000000000082167f7965db0b000000000000000000000000000000000000000000000000000000001480610817575061081782613109565b61266383838361315f565b610a8761266f84610e0a565b61267884610e0a565b6001612b4b565b600082815260cd602090815260408083206001600160a01b038516845290915290205460ff16611fc057600082815260cd602090815260408083206001600160a01b0385168452909152902080547fffffffffffffffffffffffffffffffffffffffffffffffffffffffffffffff001660011790556126fb3390565b6001600160a01b0316816001600160a01b0316837f2f8788117e7eff1d82e926ec794901d17c78024a50270940304540a733656f0d60405160405180910390a45050565b600081815260018301602052604081205461278657508154600181810184556000848152602080822090930184905584548482528286019093526040902091909155610817565b506000610817565b600082815260cd602090815260408083206001600160a01b038516845290915290205460ff1615611fc057600082815260cd602090815260408083206001600160a01b038516808552925280832080547fffffffffffffffffffffffffffffffffffffffffffffffffffffffffffffff0016905551339285917ff6391f5c32d9c69d2a47ea670b442974b53935d1edc7fd64eb21e047a839171b9190a45050565b6000818152600183016020526040812054801561291857600061285360018361403e565b85549091506000906128679060019061403e565b90508181146128cc5760008660000182815481106128875761288761422e565b90600052602060002001549050808760000184815481106128aa576128aa61422e565b6000918252602080832090910192909255918252600188019052604090208390555b85548690806128dd576128dd6141ff565b600190038181906000526020600020016000905590558560010160008681526020019081526020016000206000905560019350505050610817565b6000915050610817565b60606000612931836002614001565b61293c906002613f6c565b67ffffffffffffffff8111156129545761295461425d565b6040519080825280601f01601f19166020018201604052801561297e576020820181803683370190505b5090507f3000000000000000000000000000000000000000000000000000000000000000816000815181106129b5576129b561422e565b60200101907effffffffffffffffffffffffffffffffffffffffffffffffffffffffffffff1916908160001a9053507f780000000000000000000000000000000000000000000000000000000000000081600181518110612a1857612a1861422e565b60200101907effffffffffffffffffffffffffffffffffffffffffffffffffffffffffffff1916908160001a9053506000612a54846002614001565b612a5f906001613f6c565b90505b6001811115612afc577f303132333435363738396162636465660000000000000000000000000000000085600f1660108110612aa057612aa061422e565b1a60f81b828281518110612ab657612ab661422e565b60200101907effffffffffffffffffffffffffffffffffffffffffffffffffffffffffffff1916908160001a90535060049490941c93612af5816140cb565b9050612a62565b508315610e355760405162461bcd60e51b815260206004820181905260248201527f537472696e67733a20686578206c656e67746820696e73756666696369656e746044820152606401610935565b816001600160a01b0316836001600160a01b031614158015612b7b57506000816bffffffffffffffffffffffff16115b15610a87576001600160a01b03831615612c46576001600160a01b038316600090815260cb602052604081205463ffffffff169081612bbb576000612c0d565b6001600160a01b038516600090815260ca6020526040812090612bdf600185614055565b63ffffffff16815260208101919091526040016000205464010000000090046bffffffffffffffffffffffff165b90506000612c34828560405180606001604052806037815260200161437260379139613217565b9050612c4286848484613263565b5050505b6001600160a01b03821615610a87576001600160a01b038216600090815260cb602052604081205463ffffffff169081612c81576000612cd3565b6001600160a01b038416600090815260ca6020526040812090612ca5600185614055565b63ffffffff16815260208101919091526040016000205464010000000090046bffffffffffffffffffffffff165b90506000612cfa82856040518060600160405280603681526020016142bb603691396134a5565b90506119ec85848484613263565b6000826000018281548110612d1f57612d1f61422e565b9060005260206000200154905092915050565b600054610100900460ff1680612d4b575060005460ff16155b612dbd5760405162461bcd60e51b815260206004820152602e60248201527f496e697469616c697a61626c653a20636f6e747261637420697320616c72656160448201527f647920696e697469616c697a65640000000000000000000000000000000000006064820152608401610935565b600054610100900460ff16158015612dfc57600080547fffffffffffffffffffffffffffffffffffffffffffffffffffffffffffff0000166101011790555b8015610e5757600080547fffffffffffffffffffffffffffffffffffffffffffffffffffffffffffff00ff16905550565b600054610100900460ff1680612e46575060005460ff16155b612eb85760405162461bcd60e51b815260206004820152602e60248201527f496e697469616c697a61626c653a20636f6e747261637420697320616c72656160448201527f647920696e697469616c697a65640000000000000000000000000000000000006064820152608401610935565b600054610100900460ff16158015612ef757600080547fffffffffffffffffffffffffffffffffffffffffffffffffffffffffffff0000166101011790555b8251612f0a906065906020860190613797565b508151612f1e906066906020850190613797565b508015610a8757600080547fffffffffffffffffffffffffffffffffffffffffffffffffffffffffffff00ff169055505050565b611fc0828261267f565b60006001600160a01b0384163b156130fe576040517f150b7a020000000000000000000000000000000000000000000000000000000081526001600160a01b0385169063150b7a0290612fb9903390899088908890600401613ec8565b602060405180830381600087803b158015612fd357600080fd5b505af1925050508015613003575060408051601f3d908101601f1916820190925261300091810190613bb9565b60015b6130b3573d808015613031576040519150601f19603f3d011682016040523d82523d6000602084013e613036565b606091505b5080516130ab5760405162461bcd60e51b815260206004820152603260248201527f4552433732313a207472616e7366657220746f206e6f6e20455243373231526560448201527f63656976657220696d706c656d656e74657200000000000000000000000000006064820152608401610935565b805181602001fd5b7fffffffff00000000000000000000000000000000000000000000000000000000167f150b7a0200000000000000000000000000000000000000000000000000000000149050611d05565b506001949350505050565b60007fffffffff0000000000000000000000000000000000000000000000000000000082167f780e9d630000000000000000000000000000000000000000000000000000000014806108175750610817826134fc565b6001600160a01b0383166131ba576131b581609980546000838152609a60205260408120829055600182018355919091527f72a152ddfb8e864297c917af52ea6c1c68aead0fee1a62673fcc7e0c94979d000155565b6131dd565b816001600160a01b0316836001600160a01b0316146131dd576131dd83826135df565b6001600160a01b0382166131f457610a878161367c565b826001600160a01b0316826001600160a01b031614610a8757610a87828261372b565b6000836bffffffffffffffffffffffff16836bffffffffffffffffffffffff16111582906132585760405162461bcd60e51b81526004016109359190613f04565b50611d05838561407a565b6000613287436040518060800160405280604481526020016142f16044913961376f565b905060008463ffffffff161180156132e157506001600160a01b038516600090815260ca6020526040812063ffffffff8316916132c5600188614055565b63ffffffff908116825260208201929092526040016000205416145b1561336a576001600160a01b038516600090815260ca60205260408120839161330b600188614055565b63ffffffff168152602081019190915260400160002080546bffffffffffffffffffffffff92909216640100000000027fffffffffffffffffffffffffffffffff000000000000000000000000ffffffff90921691909117905561344b565b60408051808201825263ffffffff80841682526bffffffffffffffffffffffff80861660208085019182526001600160a01b038b16600090815260ca82528681208b8616825290915294909420925183549451909116640100000000027fffffffffffffffffffffffffffffffff000000000000000000000000000000009094169116179190911790556133ff846001613f84565b6001600160a01b038616600090815260cb6020526040902080547fffffffffffffffffffffffffffffffffffffffffffffffffffffffff000000001663ffffffff929092169190911790555b604080516bffffffffffffffffffffffff8086168252841660208201526001600160a01b038716917fdec2bacdd2f05b59de34da9b523dff8be42e5e38e818c82fdb0bae774387a724910160405180910390a25050505050565b6000806134b28486613fa3565b9050846bffffffffffffffffffffffff16816bffffffffffffffffffffffff16101583906134f35760405162461bcd60e51b81526004016109359190613f04565b50949350505050565b60007fffffffff0000000000000000000000000000000000000000000000000000000082167f80ac58cd00000000000000000000000000000000000000000000000000000000148061358f57507fffffffff0000000000000000000000000000000000000000000000000000000082167f5b5e139f00000000000000000000000000000000000000000000000000000000145b8061081757507f01ffc9a7000000000000000000000000000000000000000000000000000000007fffffffff00000000000000000000000000000000000000000000000000000000831614610817565b600060016135ec84610f74565b6135f6919061403e565b600083815260986020526040902054909150808214613649576001600160a01b03841660009081526097602090815260408083208584528252808320548484528184208190558352609890915290208190555b5060009182526098602090815260408084208490556001600160a01b039094168352609781528383209183525290812055565b60995460009061368e9060019061403e565b6000838152609a6020526040812054609980549394509092849081106136b6576136b661422e565b9060005260206000200154905080609983815481106136d7576136d761422e565b6000918252602080832090910192909255828152609a9091526040808220849055858252812055609980548061370f5761370f6141ff565b6001900381819060005260206000200160009055905550505050565b600061373683610f74565b6001600160a01b039093166000908152609760209081526040808320868452825280832085905593825260989052919091209190915550565b60008164010000000084106125fa5760405162461bcd60e51b81526004016109359190613f04565b8280546137a390614100565b90600052602060002090601f0160209004810192826137c5576000855561380b565b82601f106137de57805160ff191683800117855561380b565b8280016001018555821561380b579182015b8281111561380b5782518255916020019190600101906137f0565b5061381792915061381b565b5090565b5b80821115613817576000815560010161381c565b600067ffffffffffffffff83111561384a5761384a61425d565b61385d6020601f19601f86011601613f17565b905082815283838301111561387157600080fd5b828260208301376000602084830101529392505050565b80356001600160a01b038116811461389f57600080fd5b919050565b600082601f8301126138b557600080fd5b813560206138ca6138c583613f48565b613f17565b80838252828201915082860187848660051b89010111156138ea57600080fd5b60005b85811015613910576138fe82613888565b845292840192908401906001016138ed565b5090979650505050505050565b600082601f83011261392e57600080fd5b610e3583833560208501613830565b60006020828403121561394f57600080fd5b610e3582613888565b6000806040838503121561396b57600080fd5b61397483613888565b915061398260208401613888565b90509250929050565b6000806000606084860312156139a057600080fd5b6139a984613888565b92506139b760208501613888565b9150604084013590509250925092565b600080600080608085870312156139dd57600080fd5b6139e685613888565b93506139f460208601613888565b925060408501359150606085013567ffffffffffffffff811115613a1757600080fd5b8501601f81018713613a2857600080fd5b613a3787823560208401613830565b91505092959194509250565b60008060408385031215613a5657600080fd5b613a5f83613888565b915060208301358015158114613a7457600080fd5b809150509250929050565b60008060408385031215613a9257600080fd5b613a9b83613888565b946020939093013593505050565b60008060008060008060c08789031215613ac257600080fd5b613acb87613888565b95506020870135945060408701359350606087013560ff81168114613aef57600080fd5b9598949750929560808101359460a0909101359350915050565b60008060408385031215613b1c57600080fd5b613b2583613888565b9150602083013563ffffffff81168114613a7457600080fd5b600060208284031215613b5057600080fd5b5035919050565b60008060408385031215613b6a57600080fd5b8235915061398260208401613888565b60008060408385031215613b8d57600080fd5b50508035926020909101359150565b600060208284031215613bae57600080fd5b8135610e358161428c565b600060208284031215613bcb57600080fd5b8151610e358161428c565b600060208284031215613be857600080fd5b813567ffffffffffffffff811115613bff57600080fd5b611d058482850161391d565b60008060008060808587031215613c2157600080fd5b843567ffffffffffffffff80821115613c3957600080fd5b613c458883890161391d565b9550602091508187013581811115613c5c57600080fd5b613c6889828a0161391d565b955050604087013581811115613c7d57600080fd5b8701601f81018913613c8e57600080fd5b8035613c9c6138c582613f48565b8082825285820191508584018c878560051b8701011115613cbc57600080fd5b600094505b83851015613cdf578035835260019490940193918601918601613cc1565b5096505050506060870135915080821115613cf957600080fd5b50613a37878288016138a4565b60008151808452613d1e81602086016020860161409f565b601f01601f19169290920160200192915050565b8054600090600181811c9080831680613d4c57607f831692505b6020808410821415613d87577f4e487b7100000000000000000000000000000000000000000000000000000000600052602260045260246000fd5b818015613d9b5760018114613dca57613df7565b7fffffffffffffffffffffffffffffffffffffffffffffffffffffffffffffff00861689528489019650613df7565b60008881526020902060005b86811015613def5781548b820152908501908301613dd6565b505084890196505b50505050505092915050565b60008351613e1581846020880161409f565b835190830190613e2981836020880161409f565b01949350505050565b6000611d05613e418386613d32565b84613d32565b7f416363657373436f6e74726f6c3a206163636f756e7420000000000000000000815260008351613e7f81601785016020880161409f565b7f206973206d697373696e6720726f6c65200000000000000000000000000000006017918401918201528351613ebc81602884016020880161409f565b01602801949350505050565b60006001600160a01b03808716835280861660208401525083604083015260806060830152613efa6080830184613d06565b9695505050505050565b602081526000610e356020830184613d06565b604051601f8201601f1916810167ffffffffffffffff81118282101715613f4057613f4061425d565b604052919050565b600067ffffffffffffffff821115613f6257613f6261425d565b5060051b60200190565b60008219821115613f7f57613f7f6141a1565b500190565b600063ffffffff808316818516808303821115613e2957613e296141a1565b60006bffffffffffffffffffffffff808316818516808303821115613e2957613e296141a1565b600082613fd957613fd96141d0565b500490565b600063ffffffff80841680613ff557613ff56141d0565b92169190910492915050565b6000817fffffffffffffffffffffffffffffffffffffffffffffffffffffffffffffffff0483118215151615614039576140396141a1565b500290565b600082821015614050576140506141a1565b500390565b600063ffffffff83811690831681811015614072576140726141a1565b039392505050565b60006bffffffffffffffffffffffff83811690831681811015614072576140726141a1565b60005b838110156140ba5781810151838201526020016140a2565b838111156116bc5750506000910152565b6000816140da576140da6141a1565b507fffffffffffffffffffffffffffffffffffffffffffffffffffffffffffffffff0190565b600181811c9082168061411457607f821691505b6020821081141561414e577f4e487b7100000000000000000000000000000000000000000000000000000000600052602260045260246000fd5b50919050565b60007fffffffffffffffffffffffffffffffffffffffffffffffffffffffffffffffff821415614186576141866141a1565b5060010190565b60008261419c5761419c6141d0565b500690565b7f4e487b7100000000000000000000000000000000000000000000000000000000600052601160045260246000fd5b7f4e487b7100000000000000000000000000000000000000000000000000000000600052601260045260246000fd5b7f4e487b7100000000000000000000000000000000000000000000000000000000600052603160045260246000fd5b7f4e487b7100000000000000000000000000000000000000000000000000000000600052603260045260246000fd5b7f4e487b7100000000000000000000000000000000000000000000000000000000600052604160045260246000fd5b7fffffffff0000000000000000000000000000000000000000000000000000000081168114610e5757600080fdfe455243373231436865636b706f696e7461626c653a3a5f6d6f766544656c6567617465733a20616d6f756e74206f766572666c6f7773455243373231436865636b706f696e7461626c653a3a5f7772697465436865636b706f696e743a20626c6f636b206e756d62657220657863656564732033322062697473455243373231436865636b706f696e7461626c653a3a766f746573546f44656c65676174653a20616d6f756e7420657863656564732039362062697473455243373231436865636b706f696e7461626c653a3a5f6d6f766544656c6567617465733a20616d6f756e7420756e646572666c6f7773a2646970667358221220678b594916f653500a1277b9a5147d2e53ccb21b28f09a983998cf166ed35d6a64736f6c63430008060033",
  "linkReferences": {},
  "deployedLinkReferences": {}
}