{
  "_format": "hh-sol-artifact-1",
  "contractName": "ERC721DAOToken",
  "sourceName": "contracts/ERC721DAOToken.sol",
  "abi": [
    {
      "anonymous": false,
      "inputs": [
        {
          "indexed": true,
          "internalType": "address",
          "name": "owner",
          "type": "address"
        },
        {
          "indexed": true,
          "internalType": "address",
          "name": "approved",
          "type": "address"
        },
        {
          "indexed": true,
          "internalType": "uint256",
          "name": "tokenId",
          "type": "uint256"
        }
      ],
      "name": "Approval",
      "type": "event"
    },
    {
      "anonymous": false,
      "inputs": [
        {
          "indexed": true,
          "internalType": "address",
          "name": "owner",
          "type": "address"
        },
        {
          "indexed": true,
          "internalType": "address",
          "name": "operator",
          "type": "address"
        },
        {
          "indexed": false,
          "internalType": "bool",
          "name": "approved",
          "type": "bool"
        }
      ],
      "name": "ApprovalForAll",
      "type": "event"
    },
    {
      "anonymous": false,
      "inputs": [
        {
          "indexed": false,
          "internalType": "string",
          "name": "newURI",
          "type": "string"
        }
      ],
      "name": "BaseURIChanged",
      "type": "event"
    },
    {
      "anonymous": false,
      "inputs": [
        {
          "indexed": false,
          "internalType": "string",
          "name": "newFilename",
          "type": "string"
        }
      ],
      "name": "ContractInfoFilenameChanged",
      "type": "event"
    },
    {
      "anonymous": false,
      "inputs": [
        {
          "indexed": true,
          "internalType": "address",
          "name": "delegator",
          "type": "address"
        },
        {
          "indexed": true,
          "internalType": "address",
          "name": "fromDelegate",
          "type": "address"
        },
        {
          "indexed": true,
          "internalType": "address",
          "name": "toDelegate",
          "type": "address"
        }
      ],
      "name": "DelegateChanged",
      "type": "event"
    },
    {
      "anonymous": false,
      "inputs": [
        {
          "indexed": true,
          "internalType": "address",
          "name": "delegate",
          "type": "address"
        },
        {
          "indexed": false,
          "internalType": "uint256",
          "name": "previousBalance",
          "type": "uint256"
        },
        {
          "indexed": false,
          "internalType": "uint256",
          "name": "newBalance",
          "type": "uint256"
        }
      ],
      "name": "DelegateVotesChanged",
      "type": "event"
    },
    {
      "anonymous": false,
      "inputs": [
        {
          "indexed": true,
          "internalType": "bytes32",
          "name": "role",
          "type": "bytes32"
        },
        {
          "indexed": true,
          "internalType": "bytes32",
          "name": "previousAdminRole",
          "type": "bytes32"
        },
        {
          "indexed": true,
          "internalType": "bytes32",
          "name": "newAdminRole",
          "type": "bytes32"
        }
      ],
      "name": "RoleAdminChanged",
      "type": "event"
    },
    {
      "anonymous": false,
      "inputs": [
        {
          "indexed": true,
          "internalType": "bytes32",
          "name": "role",
          "type": "bytes32"
        },
        {
          "indexed": true,
          "internalType": "address",
          "name": "account",
          "type": "address"
        },
        {
          "indexed": true,
          "internalType": "address",
          "name": "sender",
          "type": "address"
        }
      ],
      "name": "RoleGranted",
      "type": "event"
    },
    {
      "anonymous": false,
      "inputs": [
        {
          "indexed": true,
          "internalType": "bytes32",
          "name": "role",
          "type": "bytes32"
        },
        {
          "indexed": true,
          "internalType": "address",
          "name": "account",
          "type": "address"
        },
        {
          "indexed": true,
          "internalType": "address",
          "name": "sender",
          "type": "address"
        }
      ],
      "name": "RoleRevoked",
      "type": "event"
    },
    {
      "anonymous": false,
      "inputs": [
        {
          "indexed": true,
          "internalType": "address",
          "name": "from",
          "type": "address"
        },
        {
          "indexed": true,
          "internalType": "address",
          "name": "to",
          "type": "address"
        },
        {
          "indexed": true,
          "internalType": "uint256",
          "name": "tokenId",
          "type": "uint256"
        }
      ],
      "name": "Transfer",
      "type": "event"
    },
    {
      "inputs": [],
      "name": "ADMIN_ROLE",
      "outputs": [
        {
          "internalType": "bytes32",
          "name": "",
          "type": "bytes32"
        }
      ],
      "stateMutability": "view",
      "type": "function"
    },
    {
      "inputs": [],
      "name": "BASE_URI_ROLE",
      "outputs": [
        {
          "internalType": "bytes32",
          "name": "",
          "type": "bytes32"
        }
      ],
      "stateMutability": "view",
      "type": "function"
    },
    {
      "inputs": [],
      "name": "BURNER_ROLE",
      "outputs": [
        {
          "internalType": "bytes32",
          "name": "",
          "type": "bytes32"
        }
      ],
      "stateMutability": "view",
      "type": "function"
    },
    {
      "inputs": [],
      "name": "DEFAULT_ADMIN_ROLE",
      "outputs": [
        {
          "internalType": "bytes32",
          "name": "",
          "type": "bytes32"
        }
      ],
      "stateMutability": "view",
      "type": "function"
    },
    {
      "inputs": [],
      "name": "DELEGATION_TYPEHASH",
      "outputs": [
        {
          "internalType": "bytes32",
          "name": "",
          "type": "bytes32"
        }
      ],
      "stateMutability": "view",
      "type": "function"
    },
    {
      "inputs": [],
      "name": "DOMAIN_TYPEHASH",
      "outputs": [
        {
          "internalType": "bytes32",
          "name": "",
          "type": "bytes32"
        }
      ],
      "stateMutability": "view",
      "type": "function"
    },
    {
      "inputs": [],
      "name": "MINTER_ROLE",
      "outputs": [
        {
          "internalType": "bytes32",
          "name": "",
          "type": "bytes32"
        }
      ],
      "stateMutability": "view",
      "type": "function"
    },
    {
      "inputs": [
        {
          "internalType": "address",
          "name": "to",
          "type": "address"
        },
        {
          "internalType": "uint256",
          "name": "tokenId",
          "type": "uint256"
        }
      ],
      "name": "approve",
      "outputs": [],
      "stateMutability": "nonpayable",
      "type": "function"
    },
    {
      "inputs": [
        {
          "internalType": "address",
          "name": "owner",
          "type": "address"
        }
      ],
      "name": "balanceOf",
      "outputs": [
        {
          "internalType": "uint256",
          "name": "",
          "type": "uint256"
        }
      ],
      "stateMutability": "view",
      "type": "function"
    },
    {
      "inputs": [],
      "name": "baseURI",
      "outputs": [
        {
          "internalType": "string",
          "name": "",
          "type": "string"
        }
      ],
      "stateMutability": "view",
      "type": "function"
    },
    {
      "inputs": [
        {
          "internalType": "address",
          "name": "",
          "type": "address"
        },
        {
          "internalType": "uint32",
          "name": "",
          "type": "uint32"
        }
      ],
      "name": "checkpoints",
      "outputs": [
        {
          "internalType": "uint32",
          "name": "fromBlock",
          "type": "uint32"
        },
        {
          "internalType": "uint96",
          "name": "votes",
          "type": "uint96"
        }
      ],
      "stateMutability": "view",
      "type": "function"
    },
    {
      "inputs": [],
      "name": "contractInfoURI",
      "outputs": [
        {
          "internalType": "string",
          "name": "",
          "type": "string"
        }
      ],
      "stateMutability": "view",
      "type": "function"
    },
    {
      "inputs": [],
      "name": "decimals",
      "outputs": [
        {
          "internalType": "uint8",
          "name": "",
          "type": "uint8"
        }
      ],
      "stateMutability": "view",
      "type": "function"
    },
    {
      "inputs": [
        {
          "internalType": "address",
          "name": "delegatee",
          "type": "address"
        }
      ],
      "name": "delegate",
      "outputs": [],
      "stateMutability": "nonpayable",
      "type": "function"
    },
    {
      "inputs": [
        {
          "internalType": "address",
          "name": "delegatee",
          "type": "address"
        },
        {
          "internalType": "uint256",
          "name": "nonce",
          "type": "uint256"
        },
        {
          "internalType": "uint256",
          "name": "expiry",
          "type": "uint256"
        },
        {
          "internalType": "uint8",
          "name": "v",
          "type": "uint8"
        },
        {
          "internalType": "bytes32",
          "name": "r",
          "type": "bytes32"
        },
        {
          "internalType": "bytes32",
          "name": "s",
          "type": "bytes32"
        }
      ],
      "name": "delegateBySig",
      "outputs": [],
      "stateMutability": "nonpayable",
      "type": "function"
    },
    {
      "inputs": [
        {
          "internalType": "address",
          "name": "delegator",
          "type": "address"
        }
      ],
      "name": "delegates",
      "outputs": [
        {
          "internalType": "address",
          "name": "",
          "type": "address"
        }
      ],
      "stateMutability": "view",
      "type": "function"
    },
    {
      "inputs": [
        {
          "internalType": "uint256",
          "name": "tokenId",
          "type": "uint256"
        }
      ],
      "name": "getApproved",
      "outputs": [
        {
          "internalType": "address",
          "name": "",
          "type": "address"
        }
      ],
      "stateMutability": "view",
      "type": "function"
    },
    {
      "inputs": [
        {
          "internalType": "address",
          "name": "account",
          "type": "address"
        }
      ],
      "name": "getCurrentVotes",
      "outputs": [
        {
          "internalType": "uint96",
          "name": "",
          "type": "uint96"
        }
      ],
      "stateMutability": "view",
      "type": "function"
    },
    {
      "inputs": [
        {
          "internalType": "uint256",
          "name": "blockNumber",
          "type": "uint256"
        }
      ],
      "name": "getPastTotalSupply",
      "outputs": [
        {
          "internalType": "uint256",
          "name": "",
          "type": "uint256"
        }
      ],
      "stateMutability": "view",
      "type": "function"
    },
    {
      "inputs": [
        {
          "internalType": "address",
          "name": "account",
          "type": "address"
        },
        {
          "internalType": "uint256",
          "name": "blockNumber",
          "type": "uint256"
        }
      ],
      "name": "getPriorVotes",
      "outputs": [
        {
          "internalType": "uint96",
          "name": "",
          "type": "uint96"
        }
      ],
      "stateMutability": "view",
      "type": "function"
    },
    {
      "inputs": [
        {
          "internalType": "bytes32",
          "name": "role",
          "type": "bytes32"
        }
      ],
      "name": "getRoleAdmin",
      "outputs": [
        {
          "internalType": "bytes32",
          "name": "",
          "type": "bytes32"
        }
      ],
      "stateMutability": "view",
      "type": "function"
    },
    {
      "inputs": [
        {
          "internalType": "bytes32",
          "name": "role",
          "type": "bytes32"
        },
        {
          "internalType": "uint256",
          "name": "index",
          "type": "uint256"
        }
      ],
      "name": "getRoleMember",
      "outputs": [
        {
          "internalType": "address",
          "name": "",
          "type": "address"
        }
      ],
      "stateMutability": "view",
      "type": "function"
    },
    {
      "inputs": [
        {
          "internalType": "bytes32",
          "name": "role",
          "type": "bytes32"
        }
      ],
      "name": "getRoleMemberCount",
      "outputs": [
        {
          "internalType": "uint256",
          "name": "",
          "type": "uint256"
        }
      ],
      "stateMutability": "view",
      "type": "function"
    },
    {
      "inputs": [
        {
          "internalType": "bytes32",
          "name": "role",
          "type": "bytes32"
        },
        {
          "internalType": "address",
          "name": "account",
          "type": "address"
        }
      ],
      "name": "grantRole",
      "outputs": [],
      "stateMutability": "nonpayable",
      "type": "function"
    },
    {
      "inputs": [
        {
          "internalType": "bytes32",
          "name": "role",
          "type": "bytes32"
        },
        {
          "internalType": "address",
          "name": "account",
          "type": "address"
        }
      ],
      "name": "hasRole",
      "outputs": [
        {
          "internalType": "bool",
          "name": "",
          "type": "bool"
        }
      ],
      "stateMutability": "view",
      "type": "function"
    },
    {
      "inputs": [
        {
          "internalType": "string",
          "name": "name_",
          "type": "string"
        },
        {
          "internalType": "string",
          "name": "symbol_",
          "type": "string"
        },
        {
          "internalType": "bytes32[]",
          "name": "roles",
          "type": "bytes32[]"
        },
        {
          "internalType": "address[]",
          "name": "rolesAssignees",
          "type": "address[]"
        }
      ],
      "name": "initialize",
      "outputs": [],
      "stateMutability": "nonpayable",
      "type": "function"
    },
    {
      "inputs": [
        {
          "internalType": "address",
          "name": "owner",
          "type": "address"
        },
        {
          "internalType": "address",
          "name": "operator",
          "type": "address"
        }
      ],
      "name": "isApprovedForAll",
      "outputs": [
        {
          "internalType": "bool",
          "name": "",
          "type": "bool"
        }
      ],
      "stateMutability": "view",
      "type": "function"
    },
    {
      "inputs": [
        {
          "internalType": "address",
          "name": "to",
          "type": "address"
        },
        {
          "internalType": "uint256",
          "name": "tokenId",
          "type": "uint256"
        }
      ],
      "name": "mint",
      "outputs": [],
      "stateMutability": "nonpayable",
      "type": "function"
    },
    {
      "inputs": [],
      "name": "name",
      "outputs": [
        {
          "internalType": "string",
          "name": "",
          "type": "string"
        }
      ],
      "stateMutability": "view",
      "type": "function"
    },
    {
      "inputs": [
        {
          "internalType": "address",
          "name": "",
          "type": "address"
        }
      ],
      "name": "nonces",
      "outputs": [
        {
          "internalType": "uint256",
          "name": "",
          "type": "uint256"
        }
      ],
      "stateMutability": "view",
      "type": "function"
    },
    {
      "inputs": [
        {
          "internalType": "address",
          "name": "",
          "type": "address"
        }
      ],
      "name": "numCheckpoints",
      "outputs": [
        {
          "internalType": "uint32",
          "name": "",
          "type": "uint32"
        }
      ],
      "stateMutability": "view",
      "type": "function"
    },
    {
      "inputs": [
        {
          "internalType": "uint256",
          "name": "tokenId",
          "type": "uint256"
        }
      ],
      "name": "ownerOf",
      "outputs": [
        {
          "internalType": "address",
          "name": "",
          "type": "address"
        }
      ],
      "stateMutability": "view",
      "type": "function"
    },
    {
      "inputs": [
        {
          "internalType": "bytes32",
          "name": "role",
          "type": "bytes32"
        },
        {
          "internalType": "address",
          "name": "account",
          "type": "address"
        }
      ],
      "name": "renounceRole",
      "outputs": [],
      "stateMutability": "nonpayable",
      "type": "function"
    },
    {
      "inputs": [
        {
          "internalType": "bytes32",
          "name": "role",
          "type": "bytes32"
        },
        {
          "internalType": "address",
          "name": "account",
          "type": "address"
        }
      ],
      "name": "revokeRole",
      "outputs": [],
      "stateMutability": "nonpayable",
      "type": "function"
    },
    {
      "inputs": [
        {
          "internalType": "address",
          "name": "from",
          "type": "address"
        },
        {
          "internalType": "address",
          "name": "to",
          "type": "address"
        },
        {
          "internalType": "uint256",
          "name": "tokenId",
          "type": "uint256"
        }
      ],
      "name": "safeTransferFrom",
      "outputs": [],
      "stateMutability": "nonpayable",
      "type": "function"
    },
    {
      "inputs": [
        {
          "internalType": "address",
          "name": "from",
          "type": "address"
        },
        {
          "internalType": "address",
          "name": "to",
          "type": "address"
        },
        {
          "internalType": "uint256",
          "name": "tokenId",
          "type": "uint256"
        },
        {
          "internalType": "bytes",
          "name": "_data",
          "type": "bytes"
        }
      ],
      "name": "safeTransferFrom",
      "outputs": [],
      "stateMutability": "nonpayable",
      "type": "function"
    },
    {
      "inputs": [
        {
          "internalType": "address",
          "name": "operator",
          "type": "address"
        },
        {
          "internalType": "bool",
          "name": "approved",
          "type": "bool"
        }
      ],
      "name": "setApprovalForAll",
      "outputs": [],
      "stateMutability": "nonpayable",
      "type": "function"
    },
    {
      "inputs": [
        {
          "internalType": "string",
          "name": "baseURI_",
          "type": "string"
        }
      ],
      "name": "setBaseURI",
      "outputs": [],
      "stateMutability": "nonpayable",
      "type": "function"
    },
    {
      "inputs": [
        {
          "internalType": "string",
          "name": "contractInfoFilename_",
          "type": "string"
        }
      ],
      "name": "setContractInfoFilename",
      "outputs": [],
      "stateMutability": "nonpayable",
      "type": "function"
    },
    {
      "inputs": [
        {
          "internalType": "bytes4",
          "name": "interfaceId",
          "type": "bytes4"
        }
      ],
      "name": "supportsInterface",
      "outputs": [
        {
          "internalType": "bool",
          "name": "",
          "type": "bool"
        }
      ],
      "stateMutability": "view",
      "type": "function"
    },
    {
      "inputs": [],
      "name": "symbol",
      "outputs": [
        {
          "internalType": "string",
          "name": "",
          "type": "string"
        }
      ],
      "stateMutability": "view",
      "type": "function"
    },
    {
      "inputs": [
        {
          "internalType": "uint256",
          "name": "index",
          "type": "uint256"
        }
      ],
      "name": "tokenByIndex",
      "outputs": [
        {
          "internalType": "uint256",
          "name": "",
          "type": "uint256"
        }
      ],
      "stateMutability": "view",
      "type": "function"
    },
    {
      "inputs": [
        {
          "internalType": "address",
          "name": "owner",
          "type": "address"
        },
        {
          "internalType": "uint256",
          "name": "index",
          "type": "uint256"
        }
      ],
      "name": "tokenOfOwnerByIndex",
      "outputs": [
        {
          "internalType": "uint256",
          "name": "",
          "type": "uint256"
        }
      ],
      "stateMutability": "view",
      "type": "function"
    },
    {
      "inputs": [
        {
          "internalType": "uint256",
          "name": "tokenId",
          "type": "uint256"
        }
      ],
      "name": "tokenURI",
      "outputs": [
        {
          "internalType": "string",
          "name": "",
          "type": "string"
        }
      ],
      "stateMutability": "view",
      "type": "function"
    },
    {
      "inputs": [],
      "name": "totalSupply",
      "outputs": [
        {
          "internalType": "uint256",
          "name": "",
          "type": "uint256"
        }
      ],
      "stateMutability": "view",
      "type": "function"
    },
    {
      "inputs": [
        {
          "internalType": "address",
          "name": "from",
          "type": "address"
        },
        {
          "internalType": "address",
          "name": "to",
          "type": "address"
        },
        {
          "internalType": "uint256",
          "name": "tokenId",
          "type": "uint256"
        }
      ],
      "name": "transferFrom",
      "outputs": [],
      "stateMutability": "nonpayable",
      "type": "function"
    },
    {
      "inputs": [
        {
          "internalType": "address",
          "name": "delegator",
          "type": "address"
        }
      ],
      "name": "votesToDelegate",
      "outputs": [
        {
          "internalType": "uint96",
          "name": "",
          "type": "uint96"
        }
      ],
      "stateMutability": "view",
      "type": "function"
    }
  ],
  "bytecode": "0x60a06040819052600060808190526200001c916101329162000068565b5060408051808201909152600c8082526b383937b532b1ba173539b7b760a11b602090920191825262000053916101339162000068565b503480156200006157600080fd5b506200014b565b82805462000076906200010e565b90600052602060002090601f0160209004810192826200009a5760008555620000e5565b82601f10620000b557805160ff1916838001178555620000e5565b82800160010185558215620000e5579182015b82811115620000e5578251825591602001919060010190620000c8565b50620000f3929150620000f7565b5090565b5b80821115620000f35760008155600101620000f8565b600181811c908216806200012357607f821691505b602082108114156200014557634e487b7160e01b600052602260045260246000fd5b50919050565b614969806200015b6000396000f3fe608060405234801561001057600080fd5b50600436106103155760003560e01c80636fcfff45116101a7578063b4b5ea57116100ee578063d539139311610097578063e9580e9111610071578063e9580e9114610769578063e985e9c51461077c578063f1127ed8146107b857600080fd5b8063d539139314610708578063d547741f1461072f578063e7a324dc1461074257600080fd5b8063c3cda520116100c8578063c3cda520146106cf578063c87b56dd146106e2578063ca15c873146106f557600080fd5b8063b4b5ea5714610682578063b88d4fde14610695578063bdadce3c146106a857600080fd5b80639010d07c1161015057806395d89b411161012a57806395d89b411461065f578063a217fddf14610667578063a22cb4651461066f57600080fd5b80639010d07c14610600578063914fbd0a1461061357806391d148541461062657600080fd5b8063782d6fe111610181578063782d6fe11461059d5780637ecebe00146105cd5780638e539e8c146105ed57600080fd5b80636fcfff451461052857806370a082311461056357806375b238fc1461057657600080fd5b8063313ce5671161026b5780635034ea09116102145780635c19a95c116101ee5780635c19a95c146104fa5780636352211e1461050d5780636c0360eb1461052057600080fd5b80635034ea09146104cc57806355f804b3146104d4578063587cde1e146104e757600080fd5b806340c10f191161024557806340c10f191461049357806342842e0e146104a65780634f6ccce7146104b957600080fd5b8063313ce5671461045357806336568abe1461046d578063384881331461048057600080fd5b806320606b70116102cd578063282c51f3116102a7578063282c51f3146104065780632f2ff15d1461042d5780632f745c591461044057600080fd5b806320606b70146103a957806323b872dd146103d0578063248a9ca3146103e357600080fd5b8063081812fc116102fe578063081812fc14610357578063095ea7b31461038257806318160ddd1461039757600080fd5b806301ffc9a71461031a57806306fdde0314610342575b600080fd5b61032d6103283660046140d8565b61082a565b60405190151581526020015b60405180910390f35b61034a61083b565b6040516103399190614440565b61036a61036536600461407a565b6108cd565b6040516001600160a01b039091168152602001610339565b610395610390366004613fbb565b610978565b005b6099545b604051908152602001610339565b61039b7f8cad95687ba82c2ce50e74f7b754645e5117c3a5bec8151c0726d5857980a86681565b6103956103de366004613ec7565b610aaa565b61039b6103f136600461407a565b600090815260ce602052604090206001015490565b61039b7f3c11d16cbaffd01df69ce1c404f6340ee057498f5f00246190ea54220576a84881565b61039561043b366004614093565b610b31565b61039b61044e366004613fbb565b610b54565b61045b600081565b60405160ff9091168152602001610339565b61039561047b366004614093565b610bfc565b61039561048e366004614112565b610c1f565b6103956104a1366004613fbb565b610c9a565b6103956104b4366004613ec7565b610ccf565b61039b6104c736600461407a565b610cea565b61034a610d8e565b6103956104e2366004614112565b610dbb565b61036a6104f5366004613e79565b610e2a565b610395610508366004613e79565b610e5c565b61036a61051b36600461407a565b610e7a565b61034a610f05565b61054e610536366004613e79565b60cb6020526000908152604090205463ffffffff1681565b60405163ffffffff9091168152602001610339565b61039b610571366004613e79565b610f94565b61039b7fa49807205ce4d355092ef5a8a18f56e8913cf4a201fbe287825b095693c2177581565b6105b06105ab366004613fbb565b61102e565b6040516bffffffffffffffffffffffff9091168152602001610339565b61039b6105db366004613e79565b60cd6020526000908152604090205481565b61039b6105fb36600461407a565b6112dd565b61036a61060e3660046140b6565b611537565b610395610621366004614147565b611550565b61032d610634366004614093565b600091825260ce602090815260408084206001600160a01b0393909316845291905290205460ff1690565b61034a611834565b61039b600081565b61039561067d366004613f7f565b611843565b6105b0610690366004613e79565b611926565b6103956106a3366004613f03565b6119a9565b61039b7ff372640890c51dda497431936a65d3bb1ddf67b1c27cd6cdf578ce883c4f5c3681565b6103956106dd366004613fe5565b611a37565b61034a6106f036600461407a565b611d69565b61039b61070336600461407a565b611e51565b61039b7f9f2df0fed2c77648de5860a4cc508cd0818c85b8b8a1ab4ceeef8d981c8956a681565b61039561073d366004614093565b611e69565b61039b7fe48329057bfd03d55e49b547132e39cffd9c1820ad7b9d4c5307691425d15adf81565b6105b0610777366004613e79565b611e73565b61032d61078a366004613e94565b6001600160a01b039182166000908152606a6020908152604080832093909416825291909152205460ff1690565b6108016107c6366004614045565b60ca60209081526000928352604080842090915290825290205463ffffffff81169064010000000090046bffffffffffffffffffffffff1682565b6040805163ffffffff90931683526bffffffffffffffffffffffff909116602083015201610339565b600061083582611e9f565b92915050565b60606065805461084a9061463c565b80601f01602080910402602001604051908101604052809291908181526020018280546108769061463c565b80156108c35780601f10610898576101008083540402835291602001916108c3565b820191906000526020600020905b8154815290600101906020018083116108a657829003601f168201915b5050505050905090565b6000818152606760205260408120546001600160a01b031661095c5760405162461bcd60e51b815260206004820152602c60248201527f4552433732313a20617070726f76656420717565727920666f72206e6f6e657860448201527f697374656e7420746f6b656e000000000000000000000000000000000000000060648201526084015b60405180910390fd5b506000908152606960205260409020546001600160a01b031690565b600061098382610e7a565b9050806001600160a01b0316836001600160a01b03161415610a0d5760405162461bcd60e51b815260206004820152602160248201527f4552433732313a20617070726f76616c20746f2063757272656e74206f776e6560448201527f72000000000000000000000000000000000000000000000000000000000000006064820152608401610953565b336001600160a01b0382161480610a295750610a29813361078a565b610a9b5760405162461bcd60e51b815260206004820152603860248201527f4552433732313a20617070726f76652063616c6c6572206973206e6f74206f7760448201527f6e6572206e6f7220617070726f76656420666f7220616c6c00000000000000006064820152608401610953565b610aa58383611ef5565b505050565b610ab43382611f7b565b610b265760405162461bcd60e51b815260206004820152603160248201527f4552433732313a207472616e736665722063616c6c6572206973206e6f74206f60448201527f776e6572206e6f7220617070726f7665640000000000000000000000000000006064820152608401610953565b610aa5838383612083565b610b3b8282612273565b600082815261010060205260409020610aa59082612299565b6000610b5f83610f94565b8210610bd35760405162461bcd60e51b815260206004820152602b60248201527f455243373231456e756d657261626c653a206f776e657220696e646578206f7560448201527f74206f6620626f756e64730000000000000000000000000000000000000000006064820152608401610953565b506001600160a01b03919091166000908152609760209081526040808320938352929052205490565b610c0682826122ae565b600082815261010060205260409020610aa5908261233a565b7ff372640890c51dda497431936a65d3bb1ddf67b1c27cd6cdf578ce883c4f5c36610c4a813361234f565b8151610c5e90610133906020850190613cd3565b507f3d4771b7d2c496d9930380b3925c15e869e9ef0408bfd2709c90c96e0689f8eb82604051610c8e9190614440565b60405180910390a15050565b7f9f2df0fed2c77648de5860a4cc508cd0818c85b8b8a1ab4ceeef8d981c8956a6610cc5813361234f565b610aa583836123cf565b610aa5838383604051806020016040528060008152506119a9565b6000610cf560995490565b8210610d695760405162461bcd60e51b815260206004820152602c60248201527f455243373231456e756d657261626c653a20676c6f62616c20696e646578206f60448201527f7574206f6620626f756e647300000000000000000000000000000000000000006064820152608401610953565b60998281548110610d7c57610d7c61476a565b90600052602060002001549050919050565b6060610132610133604051602001610da792919061436e565b604051602081830303815290604052905090565b7ff372640890c51dda497431936a65d3bb1ddf67b1c27cd6cdf578ce883c4f5c36610de6813361234f565b8151610dfa90610132906020850190613cd3565b507f5411e8ebf1636d9e83d5fc4900bf80cbac82e8790da2a4c94db4895e889eedf682604051610c8e9190614440565b6001600160a01b03808216600090815260c960205260408120549091168015610e535780610e55565b825b9392505050565b6001600160a01b038116610e6d5750335b610e773382612535565b50565b6000818152606760205260408120546001600160a01b0316806108355760405162461bcd60e51b815260206004820152602960248201527f4552433732313a206f776e657220717565727920666f72206e6f6e657869737460448201527f656e7420746f6b656e00000000000000000000000000000000000000000000006064820152608401610953565b6101328054610f139061463c565b80601f0160208091040260200160405190810160405280929190818152602001828054610f3f9061463c565b8015610f8c5780601f10610f6157610100808354040283529160200191610f8c565b820191906000526020600020905b815481529060010190602001808311610f6f57829003601f168201915b505050505081565b60006001600160a01b0382166110125760405162461bcd60e51b815260206004820152602a60248201527f4552433732313a2062616c616e636520717565727920666f7220746865207a6560448201527f726f2061646472657373000000000000000000000000000000000000000000006064820152608401610953565b506001600160a01b031660009081526068602052604090205490565b60004382106110a55760405162461bcd60e51b815260206004820152603760248201527f455243373231436865636b706f696e7461626c653a3a6765745072696f72566f60448201527f7465733a206e6f74207965742064657465726d696e65640000000000000000006064820152608401610953565b6001600160a01b038316600090815260cb602052604090205463ffffffff16806110d3576000915050610835565b6001600160a01b038416600090815260ca6020526040812084916110f8600185614591565b63ffffffff90811682526020820192909252604001600020541611611171576001600160a01b038416600090815260ca602052604081209061113b600184614591565b63ffffffff16815260208101919091526040016000205464010000000090046bffffffffffffffffffffffff1691506108359050565b6001600160a01b038416600090815260ca6020908152604080832083805290915290205463ffffffff168310156111ac576000915050610835565b6000806111ba600184614591565b90505b8163ffffffff168163ffffffff16111561129257600060026111df8484614591565b6111e9919061451a565b6111f39083614591565b6001600160a01b038816600090815260ca6020908152604080832063ffffffff8581168552908352928190208151808301909252549283168082526401000000009093046bffffffffffffffffffffffff1691810191909152919250871415611266576020015194506108359350505050565b805163ffffffff1687111561127d5781935061128b565b611288600183614591565b92505b50506111bd565b506001600160a01b038516600090815260ca6020908152604080832063ffffffff909416835292905220546bffffffffffffffffffffffff6401000000009091041691505092915050565b60004382106113545760405162461bcd60e51b815260206004820152603e60248201527f455243373231436865636b706f696e7461626c653a3a6765745072696f72546f60448201527f74616c537570706c793a20626c6f636b206e6f7420796574206d696e656400006064820152608401610953565b60cc54806113655750600092915050565b8260cc61137360018461457a565b815481106113835761138361476a565b60009182526020909120015463ffffffff16116113e05760cc6113a760018361457a565b815481106113b7576113b761476a565b60009182526020909120015464010000000090046bffffffffffffffffffffffff169392505050565b8260cc6000815481106113f5576113f561476a565b60009182526020909120015463ffffffff1611156114165750600092915050565b60008061142460018461457a565b90505b818111156114f9576000600261143d848461457a565b6114479190614506565b611451908361457a565b9050600060cc82815481106114685761146861476a565b60009182526020918290206040805180820190915291015463ffffffff81168083526401000000009091046bffffffffffffffffffffffff169282019290925291508714156114cd57602001516bffffffffffffffffffffffff169695505050505050565b805163ffffffff168711156114e4578193506114f2565b6114ef60018361457a565b92505b5050611427565b60cc828154811061150c5761150c61476a565b60009182526020909120015464010000000090046bffffffffffffffffffffffff1695945050505050565b600082815261010060205260408120610e5590836125cd565b600054610100900460ff1680611569575060005460ff16155b6115db5760405162461bcd60e51b815260206004820152602e60248201527f496e697469616c697a61626c653a20636f6e747261637420697320616c72656160448201527f647920696e697469616c697a65640000000000000000000000000000000000006064820152608401610953565b600054610100900460ff1615801561161a57600080547fffffffffffffffffffffffffffffffffffffffffffffffffffffffffffff0000166101011790555b81518351146116915760405162461bcd60e51b815260206004820152603c60248201527f45524337323144414f546f6b656e3a3a696e697469616c697a65723a20726f6c60448201527f65732061737369676e6d656e74206172697479206d69736d61746368000000006064820152608401610953565b61169b85856125d9565b6116c57fa49807205ce4d355092ef5a8a18f56e8913cf4a201fbe287825b095693c21775806126f0565b61170f7f9f2df0fed2c77648de5860a4cc508cd0818c85b8b8a1ab4ceeef8d981c8956a67fa49807205ce4d355092ef5a8a18f56e8913cf4a201fbe287825b095693c217756126f0565b6117597f3c11d16cbaffd01df69ce1c404f6340ee057498f5f00246190ea54220576a8487fa49807205ce4d355092ef5a8a18f56e8913cf4a201fbe287825b095693c217756126f0565b6117a37ff372640890c51dda497431936a65d3bb1ddf67b1c27cd6cdf578ce883c4f5c367fa49807205ce4d355092ef5a8a18f56e8913cf4a201fbe287825b095693c217756126f0565b60005b83518110156117fd576117eb8482815181106117c4576117c461476a565b60200260200101518483815181106117de576117de61476a565b602002602001015161273b565b806117f581614690565b9150506117a6565b50801561182d57600080547fffffffffffffffffffffffffffffffffffffffffffffffffffffffffffff00ff1690555b5050505050565b60606066805461084a9061463c565b6001600160a01b03821633141561189c5760405162461bcd60e51b815260206004820152601960248201527f4552433732313a20617070726f766520746f2063616c6c6572000000000000006044820152606401610953565b336000818152606a602090815260408083206001600160a01b0387168085529083529281902080547fffffffffffffffffffffffffffffffffffffffffffffffffffffffffffffff001686151590811790915590519081529192917f17307eab39ab6107e8899845ad3d59bd9653f200f220920489ca2b5937696c31910160405180910390a35050565b6001600160a01b038116600090815260cb602052604081205463ffffffff1680611951576000610e55565b6001600160a01b038316600090815260ca6020526040812090611975600184614591565b63ffffffff16815260208101919091526040016000205464010000000090046bffffffffffffffffffffffff169392505050565b6119b33383611f7b565b611a255760405162461bcd60e51b815260206004820152603160248201527f4552433732313a207472616e736665722063616c6c6572206973206e6f74206f60448201527f776e6572206e6f7220617070726f7665640000000000000000000000000000006064820152608401610953565b611a3184848484612745565b50505050565b60007f8cad95687ba82c2ce50e74f7b754645e5117c3a5bec8151c0726d5857980a866611a6261083b565b80519060200120611a704690565b60408051602080820195909552808201939093526060830191909152306080808401919091528151808403909101815260a0830182528051908401207fe48329057bfd03d55e49b547132e39cffd9c1820ad7b9d4c5307691425d15adf60c08401526001600160a01b038b1660e084015261010083018a90526101208084018a9052825180850390910181526101408401909252815191909301207f1901000000000000000000000000000000000000000000000000000000000000610160830152610162820183905261018282018190529192506000906101a20160408051601f198184030181528282528051602091820120600080855291840180845281905260ff8a169284019290925260608301889052608083018790529092509060019060a0016020604051602081039080840390855afa158015611bb7573d6000803e3d6000fd5b5050604051601f1901519150506001600160a01b038116611c405760405162461bcd60e51b815260206004820152603660248201527f455243373231436865636b706f696e7461626c653a3a64656c6567617465427960448201527f5369673a20696e76616c6964207369676e6174757265000000000000000000006064820152608401610953565b6001600160a01b038116600090815260cd60205260408120805491611c6483614690565b919050558914611cdc5760405162461bcd60e51b815260206004820152603260248201527f455243373231436865636b706f696e7461626c653a3a64656c6567617465427960448201527f5369673a20696e76616c6964206e6f6e636500000000000000000000000000006064820152608401610953565b87421115611d525760405162461bcd60e51b815260206004820152603660248201527f455243373231436865636b706f696e7461626c653a3a64656c6567617465427960448201527f5369673a207369676e61747572652065787069726564000000000000000000006064820152608401610953565b611d5c818b612535565b505050505b505050505050565b6000818152606760205260409020546060906001600160a01b0316611df65760405162461bcd60e51b815260206004820152602f60248201527f4552433732314d657461646174613a2055524920717565727920666f72206e6f60448201527f6e6578697374656e7420746f6b656e00000000000000000000000000000000006064820152608401610953565b6000611e006127ce565b90506000815111611e205760405180602001604052806000815250610e55565b80611e2a846127de565b604051602001611e3b92919061433f565b6040516020818303038152906040529392505050565b60008181526101006020526040812061083590612910565b610c06828261291a565b6000610835611e8183610f94565b6040518060600160405280603d81526020016148c0603d9139612940565b60007fffffffff0000000000000000000000000000000000000000000000000000000082167f5a05180f000000000000000000000000000000000000000000000000000000001480610835575061083582612978565b600081815260696020526040902080547fffffffffffffffffffffffff0000000000000000000000000000000000000000166001600160a01b0384169081179091558190611f4282610e7a565b6001600160a01b03167f8c5be1e5ebec7d5bd14f71427d1e84f3dd0314c0f7b2291e5b200ac8c7c3b92560405160405180910390a45050565b6000818152606760205260408120546001600160a01b03166120055760405162461bcd60e51b815260206004820152602c60248201527f4552433732313a206f70657261746f7220717565727920666f72206e6f6e657860448201527f697374656e7420746f6b656e00000000000000000000000000000000000000006064820152608401610953565b600061201083610e7a565b9050806001600160a01b0316846001600160a01b0316148061204b5750836001600160a01b0316612040846108cd565b6001600160a01b0316145b8061207b57506001600160a01b038082166000908152606a602090815260408083209388168352929052205460ff165b949350505050565b826001600160a01b031661209682610e7a565b6001600160a01b0316146121125760405162461bcd60e51b815260206004820152602960248201527f4552433732313a207472616e73666572206f6620746f6b656e2074686174206960448201527f73206e6f74206f776e00000000000000000000000000000000000000000000006064820152608401610953565b6001600160a01b03821661218d5760405162461bcd60e51b8152602060048201526024808201527f4552433732313a207472616e7366657220746f20746865207a65726f2061646460448201527f72657373000000000000000000000000000000000000000000000000000000006064820152608401610953565b6121988383836129ce565b6121a3600082611ef5565b6001600160a01b03831660009081526068602052604081208054600192906121cc90849061457a565b90915550506001600160a01b03821660009081526068602052604081208054600192906121fa9084906144a8565b909155505060008181526067602052604080822080547fffffffffffffffffffffffff0000000000000000000000000000000000000000166001600160a01b0386811691821790925591518493918716917fddf252ad1be2c89b69c2b068fc378daa952ba7f163c4a11628f55a4df523b3ef91a4505050565b600082815260ce602052604090206001015461228f813361234f565b610aa58383612a1f565b6000610e55836001600160a01b038416612adf565b6001600160a01b038116331461232c5760405162461bcd60e51b815260206004820152602f60248201527f416363657373436f6e74726f6c3a2063616e206f6e6c792072656e6f756e636560448201527f20726f6c657320666f722073656c6600000000000000000000000000000000006064820152608401610953565b6123368282612b2e565b5050565b6000610e55836001600160a01b038416612bcf565b600082815260ce602090815260408083206001600160a01b038516845290915290205460ff166123365761238d816001600160a01b03166014612cc2565b612398836020612cc2565b6040516020016123a9929190614383565b60408051601f198184030181529082905262461bcd60e51b825261095391600401614440565b6001600160a01b0382166124255760405162461bcd60e51b815260206004820181905260248201527f4552433732313a206d696e7420746f20746865207a65726f20616464726573736044820152606401610953565b6000818152606760205260409020546001600160a01b03161561248a5760405162461bcd60e51b815260206004820152601c60248201527f4552433732313a20746f6b656e20616c7265616479206d696e746564000000006044820152606401610953565b612496600083836129ce565b6001600160a01b03821660009081526068602052604081208054600192906124bf9084906144a8565b909155505060008181526067602052604080822080547fffffffffffffffffffffffff0000000000000000000000000000000000000000166001600160a01b03861690811790915590518392907fddf252ad1be2c89b69c2b068fc378daa952ba7f163c4a11628f55a4df523b3ef908290a45050565b600061254083610e2a565b6001600160a01b03848116600081815260c9602052604080822080547fffffffffffffffffffffffff000000000000000000000000000000000000000016888616908117909155905194955093928516927f3134e8a2e6d97e929a7e54011ea5485d7d196dd5f0ba4d4ef95803e8e3fc257f9190a460006125c084611e73565b9050611a31828483612eeb565b6000610e5583836130a8565b600054610100900460ff16806125f2575060005460ff16155b6126645760405162461bcd60e51b815260206004820152602e60248201527f496e697469616c697a61626c653a20636f6e747261637420697320616c72656160448201527f647920696e697469616c697a65640000000000000000000000000000000000006064820152608401610953565b600054610100900460ff161580156126a357600080547fffffffffffffffffffffffffffffffffffffffffffffffffffffffffffff0000166101011790555b6126ab6130d2565b6126b36130d2565b6126bd83836131cd565b8015610aa557600080547fffffffffffffffffffffffffffffffffffffffffffffffffffffffffffff00ff169055505050565b600082815260ce6020526040808220600101805490849055905190918391839186917fbd79b86ffe0ab8e8776151514217cd7cacd52c909f66475c3af44e129f0b00ff9190a4505050565b610b3b82826132f2565b612750848484612083565b61275c848484846132fc565b611a315760405162461bcd60e51b815260206004820152603260248201527f4552433732313a207472616e7366657220746f206e6f6e20455243373231526560448201527f63656976657220696d706c656d656e74657200000000000000000000000000006064820152608401610953565b6060610132805461084a9061463c565b60608161281e57505060408051808201909152600181527f3000000000000000000000000000000000000000000000000000000000000000602082015290565b8160005b8115612848578061283281614690565b91506128419050600a83614506565b9150612822565b60008167ffffffffffffffff81111561286357612863614799565b6040519080825280601f01601f19166020018201604052801561288d576020820181803683370190505b5090505b841561207b576128a260018361457a565b91506128af600a866146c9565b6128ba9060306144a8565b60f81b8183815181106128cf576128cf61476a565b60200101907effffffffffffffffffffffffffffffffffffffffffffffffffffffffffffff1916908160001a905350612909600a86614506565b9450612891565b6000610835825490565b600082815260ce6020526040902060010154612936813361234f565b610aa58383612b2e565b6000816c0100000000000000000000000084106129705760405162461bcd60e51b81526004016109539190614440565b509192915050565b60007fffffffff0000000000000000000000000000000000000000000000000000000082167f7965db0b0000000000000000000000000000000000000000000000000000000014806108355750610835826134a9565b6129d98383836134ff565b6129f56129e584610e2a565b6129ee84610e2a565b6001612eeb565b6001600160a01b0383161580612a1257506001600160a01b038216155b15610aa557610aa56135b7565b600082815260ce602090815260408083206001600160a01b038516845290915290205460ff1661233657600082815260ce602090815260408083206001600160a01b0385168452909152902080547fffffffffffffffffffffffffffffffffffffffffffffffffffffffffffffff00166001179055612a9b3390565b6001600160a01b0316816001600160a01b0316837f2f8788117e7eff1d82e926ec794901d17c78024a50270940304540a733656f0d60405160405180910390a45050565b6000818152600183016020526040812054612b2657508154600181810184556000848152602080822090930184905584548482528286019093526040902091909155610835565b506000610835565b600082815260ce602090815260408083206001600160a01b038516845290915290205460ff161561233657600082815260ce602090815260408083206001600160a01b038516808552925280832080547fffffffffffffffffffffffffffffffffffffffffffffffffffffffffffffff0016905551339285917ff6391f5c32d9c69d2a47ea670b442974b53935d1edc7fd64eb21e047a839171b9190a45050565b60008181526001830160205260408120548015612cb8576000612bf360018361457a565b8554909150600090612c079060019061457a565b9050818114612c6c576000866000018281548110612c2757612c2761476a565b9060005260206000200154905080876000018481548110612c4a57612c4a61476a565b6000918252602080832090910192909255918252600188019052604090208390555b8554869080612c7d57612c7d61473b565b600190038181906000526020600020016000905590558560010160008681526020019081526020016000206000905560019350505050610835565b6000915050610835565b60606000612cd183600261453d565b612cdc9060026144a8565b67ffffffffffffffff811115612cf457612cf4614799565b6040519080825280601f01601f191660200182016040528015612d1e576020820181803683370190505b5090507f300000000000000000000000000000000000000000000000000000000000000081600081518110612d5557612d5561476a565b60200101907effffffffffffffffffffffffffffffffffffffffffffffffffffffffffffff1916908160001a9053507f780000000000000000000000000000000000000000000000000000000000000081600181518110612db857612db861476a565b60200101907effffffffffffffffffffffffffffffffffffffffffffffffffffffffffffff1916908160001a9053506000612df484600261453d565b612dff9060016144a8565b90505b6001811115612e9c577f303132333435363738396162636465660000000000000000000000000000000085600f1660108110612e4057612e4061476a565b1a60f81b828281518110612e5657612e5661476a565b60200101907effffffffffffffffffffffffffffffffffffffffffffffffffffffffffffff1916908160001a90535060049490941c93612e9581614607565b9050612e02565b508315610e555760405162461bcd60e51b815260206004820181905260248201527f537472696e67733a20686578206c656e67746820696e73756666696369656e746044820152606401610953565b816001600160a01b0316836001600160a01b031614158015612f1b57506000816bffffffffffffffffffffffff16115b15610aa5576001600160a01b03831615612fe6576001600160a01b038316600090815260cb602052604081205463ffffffff169081612f5b576000612fad565b6001600160a01b038516600090815260ca6020526040812090612f7f600185614591565b63ffffffff16815260208101919091526040016000205464010000000090046bffffffffffffffffffffffff165b90506000612fd482856040518060600160405280603781526020016148fd60379139613753565b9050612fe28684848461379f565b5050505b6001600160a01b03821615610aa5576001600160a01b038216600090815260cb602052604081205463ffffffff169081613021576000613073565b6001600160a01b038416600090815260ca6020526040812090613045600185614591565b63ffffffff16815260208101919091526040016000205464010000000090046bffffffffffffffffffffffff165b9050600061309a82856040518060600160405280603681526020016147f7603691396139e1565b9050611d618584848461379f565b60008260000182815481106130bf576130bf61476a565b9060005260206000200154905092915050565b600054610100900460ff16806130eb575060005460ff16155b61315d5760405162461bcd60e51b815260206004820152602e60248201527f496e697469616c697a61626c653a20636f6e747261637420697320616c72656160448201527f647920696e697469616c697a65640000000000000000000000000000000000006064820152608401610953565b600054610100900460ff1615801561319c57600080547fffffffffffffffffffffffffffffffffffffffffffffffffffffffffffff0000166101011790555b8015610e7757600080547fffffffffffffffffffffffffffffffffffffffffffffffffffffffffffff00ff16905550565b600054610100900460ff16806131e6575060005460ff16155b6132585760405162461bcd60e51b815260206004820152602e60248201527f496e697469616c697a61626c653a20636f6e747261637420697320616c72656160448201527f647920696e697469616c697a65640000000000000000000000000000000000006064820152608401610953565b600054610100900460ff1615801561329757600080547fffffffffffffffffffffffffffffffffffffffffffffffffffffffffffff0000166101011790555b82516132aa906065906020860190613cd3565b5081516132be906066906020850190613cd3565b508015610aa557600080547fffffffffffffffffffffffffffffffffffffffffffffffffffffffffffff00ff169055505050565b6123368282612a1f565b60006001600160a01b0384163b1561349e576040517f150b7a020000000000000000000000000000000000000000000000000000000081526001600160a01b0385169063150b7a0290613359903390899088908890600401614404565b602060405180830381600087803b15801561337357600080fd5b505af19250505080156133a3575060408051601f3d908101601f191682019092526133a0918101906140f5565b60015b613453573d8080156133d1576040519150601f19603f3d011682016040523d82523d6000602084013e6133d6565b606091505b50805161344b5760405162461bcd60e51b815260206004820152603260248201527f4552433732313a207472616e7366657220746f206e6f6e20455243373231526560448201527f63656976657220696d706c656d656e74657200000000000000000000000000006064820152608401610953565b805181602001fd5b7fffffffff00000000000000000000000000000000000000000000000000000000167f150b7a020000000000000000000000000000000000000000000000000000000014905061207b565b506001949350505050565b60007fffffffff0000000000000000000000000000000000000000000000000000000082167f780e9d63000000000000000000000000000000000000000000000000000000001480610835575061083582613a38565b6001600160a01b03831661355a5761355581609980546000838152609a60205260408120829055600182018355919091527f72a152ddfb8e864297c917af52ea6c1c68aead0fee1a62673fcc7e0c94979d000155565b61357d565b816001600160a01b0316836001600160a01b03161461357d5761357d8382613b1b565b6001600160a01b03821661359457610aa581613bb8565b826001600160a01b0316826001600160a01b031614610aa557610aa58282613c67565b60006135db4360405180608001604052806044815260200161482d60449139613cab565b905060006136096135eb60995490565b6040518060800160405280604f8152602001614871604f9139612940565b60cc549091508015801590613651575063ffffffff831660cc61362d60018461457a565b8154811061363d5761363d61476a565b60009182526020909120015463ffffffff16145b156136b4578160cc61366460018461457a565b815481106136745761367461476a565b9060005260206000200160000160046101000a8154816bffffffffffffffffffffffff02191690836bffffffffffffffffffffffff160217905550505050565b506040805180820190915263ffffffff92831681526bffffffffffffffffffffffff9182166020820190815260cc805460018101825560009190915291517f47197230e1e4b29fc0bd84d7d78966c0925452aff72a2a121538b102457e9ebe90920180549151929094167fffffffffffffffffffffffffffffffff00000000000000000000000000000000909116176401000000009190921602179055565b6000836bffffffffffffffffffffffff16836bffffffffffffffffffffffff16111582906137945760405162461bcd60e51b81526004016109539190614440565b5061207b83856145b6565b60006137c34360405180608001604052806044815260200161482d60449139613cab565b905060008463ffffffff1611801561381d57506001600160a01b038516600090815260ca6020526040812063ffffffff831691613801600188614591565b63ffffffff908116825260208201929092526040016000205416145b156138a6576001600160a01b038516600090815260ca602052604081208391613847600188614591565b63ffffffff168152602081019190915260400160002080546bffffffffffffffffffffffff92909216640100000000027fffffffffffffffffffffffffffffffff000000000000000000000000ffffffff909216919091179055613987565b60408051808201825263ffffffff80841682526bffffffffffffffffffffffff80861660208085019182526001600160a01b038b16600090815260ca82528681208b8616825290915294909420925183549451909116640100000000027fffffffffffffffffffffffffffffffff0000000000000000000000000000000090941691161791909117905561393b8460016144c0565b6001600160a01b038616600090815260cb6020526040902080547fffffffffffffffffffffffffffffffffffffffffffffffffffffffff000000001663ffffffff929092169190911790555b604080516bffffffffffffffffffffffff8086168252841660208201526001600160a01b038716917fdec2bacdd2f05b59de34da9b523dff8be42e5e38e818c82fdb0bae774387a724910160405180910390a25050505050565b6000806139ee84866144df565b9050846bffffffffffffffffffffffff16816bffffffffffffffffffffffff1610158390613a2f5760405162461bcd60e51b81526004016109539190614440565b50949350505050565b60007fffffffff0000000000000000000000000000000000000000000000000000000082167f80ac58cd000000000000000000000000000000000000000000000000000000001480613acb57507fffffffff0000000000000000000000000000000000000000000000000000000082167f5b5e139f00000000000000000000000000000000000000000000000000000000145b8061083557507f01ffc9a7000000000000000000000000000000000000000000000000000000007fffffffff00000000000000000000000000000000000000000000000000000000831614610835565b60006001613b2884610f94565b613b32919061457a565b600083815260986020526040902054909150808214613b85576001600160a01b03841660009081526097602090815260408083208584528252808320548484528184208190558352609890915290208190555b5060009182526098602090815260408084208490556001600160a01b039094168352609781528383209183525290812055565b609954600090613bca9060019061457a565b6000838152609a602052604081205460998054939450909284908110613bf257613bf261476a565b906000526020600020015490508060998381548110613c1357613c1361476a565b6000918252602080832090910192909255828152609a90915260408082208490558582528120556099805480613c4b57613c4b61473b565b6001900381819060005260206000200160009055905550505050565b6000613c7283610f94565b6001600160a01b039093166000908152609760209081526040808320868452825280832085905593825260989052919091209190915550565b60008164010000000084106129705760405162461bcd60e51b81526004016109539190614440565b828054613cdf9061463c565b90600052602060002090601f016020900481019282613d015760008555613d47565b82601f10613d1a57805160ff1916838001178555613d47565b82800160010185558215613d47579182015b82811115613d47578251825591602001919060010190613d2c565b50613d53929150613d57565b5090565b5b80821115613d535760008155600101613d58565b600067ffffffffffffffff831115613d8657613d86614799565b613d996020601f19601f86011601614453565b9050828152838383011115613dad57600080fd5b828260208301376000602084830101529392505050565b80356001600160a01b0381168114613ddb57600080fd5b919050565b600082601f830112613df157600080fd5b81356020613e06613e0183614484565b614453565b80838252828201915082860187848660051b8901011115613e2657600080fd5b60005b85811015613e4c57613e3a82613dc4565b84529284019290840190600101613e29565b5090979650505050505050565b600082601f830112613e6a57600080fd5b610e5583833560208501613d6c565b600060208284031215613e8b57600080fd5b610e5582613dc4565b60008060408385031215613ea757600080fd5b613eb083613dc4565b9150613ebe60208401613dc4565b90509250929050565b600080600060608486031215613edc57600080fd5b613ee584613dc4565b9250613ef360208501613dc4565b9150604084013590509250925092565b60008060008060808587031215613f1957600080fd5b613f2285613dc4565b9350613f3060208601613dc4565b925060408501359150606085013567ffffffffffffffff811115613f5357600080fd5b8501601f81018713613f6457600080fd5b613f7387823560208401613d6c565b91505092959194509250565b60008060408385031215613f9257600080fd5b613f9b83613dc4565b915060208301358015158114613fb057600080fd5b809150509250929050565b60008060408385031215613fce57600080fd5b613fd783613dc4565b946020939093013593505050565b60008060008060008060c08789031215613ffe57600080fd5b61400787613dc4565b95506020870135945060408701359350606087013560ff8116811461402b57600080fd5b9598949750929560808101359460a0909101359350915050565b6000806040838503121561405857600080fd5b61406183613dc4565b9150602083013563ffffffff81168114613fb057600080fd5b60006020828403121561408c57600080fd5b5035919050565b600080604083850312156140a657600080fd5b82359150613ebe60208401613dc4565b600080604083850312156140c957600080fd5b50508035926020909101359150565b6000602082840312156140ea57600080fd5b8135610e55816147c8565b60006020828403121561410757600080fd5b8151610e55816147c8565b60006020828403121561412457600080fd5b813567ffffffffffffffff81111561413b57600080fd5b61207b84828501613e59565b6000806000806080858703121561415d57600080fd5b843567ffffffffffffffff8082111561417557600080fd5b61418188838901613e59565b955060209150818701358181111561419857600080fd5b6141a489828a01613e59565b9550506040870135818111156141b957600080fd5b8701601f810189136141ca57600080fd5b80356141d8613e0182614484565b8082825285820191508584018c878560051b87010111156141f857600080fd5b600094505b8385101561421b5780358352600194909401939186019186016141fd565b509650505050606087013591508082111561423557600080fd5b50613f7387828801613de0565b6000815180845261425a8160208601602086016145db565b601f01601f19169290920160200192915050565b8054600090600181811c908083168061428857607f831692505b60208084108214156142c3577f4e487b7100000000000000000000000000000000000000000000000000000000600052602260045260246000fd5b8180156142d7576001811461430657614333565b7fffffffffffffffffffffffffffffffffffffffffffffffffffffffffffffff00861689528489019650614333565b60008881526020902060005b8681101561432b5781548b820152908501908301614312565b505084890196505b50505050505092915050565b600083516143518184602088016145db565b8351908301906143658183602088016145db565b01949350505050565b600061207b61437d838661426e565b8461426e565b7f416363657373436f6e74726f6c3a206163636f756e74200000000000000000008152600083516143bb8160178501602088016145db565b7f206973206d697373696e6720726f6c652000000000000000000000000000000060179184019182015283516143f88160288401602088016145db565b01602801949350505050565b60006001600160a01b038087168352808616602084015250836040830152608060608301526144366080830184614242565b9695505050505050565b602081526000610e556020830184614242565b604051601f8201601f1916810167ffffffffffffffff8111828210171561447c5761447c614799565b604052919050565b600067ffffffffffffffff82111561449e5761449e614799565b5060051b60200190565b600082198211156144bb576144bb6146dd565b500190565b600063ffffffff808316818516808303821115614365576143656146dd565b60006bffffffffffffffffffffffff808316818516808303821115614365576143656146dd565b6000826145155761451561470c565b500490565b600063ffffffff808416806145315761453161470c565b92169190910492915050565b6000817fffffffffffffffffffffffffffffffffffffffffffffffffffffffffffffffff0483118215151615614575576145756146dd565b500290565b60008282101561458c5761458c6146dd565b500390565b600063ffffffff838116908316818110156145ae576145ae6146dd565b039392505050565b60006bffffffffffffffffffffffff838116908316818110156145ae576145ae6146dd565b60005b838110156145f65781810151838201526020016145de565b83811115611a315750506000910152565b600081614616576146166146dd565b507fffffffffffffffffffffffffffffffffffffffffffffffffffffffffffffffff0190565b600181811c9082168061465057607f821691505b6020821081141561468a577f4e487b7100000000000000000000000000000000000000000000000000000000600052602260045260246000fd5b50919050565b60007fffffffffffffffffffffffffffffffffffffffffffffffffffffffffffffffff8214156146c2576146c26146dd565b5060010190565b6000826146d8576146d861470c565b500690565b7f4e487b7100000000000000000000000000000000000000000000000000000000600052601160045260246000fd5b7f4e487b7100000000000000000000000000000000000000000000000000000000600052601260045260246000fd5b7f4e487b7100000000000000000000000000000000000000000000000000000000600052603160045260246000fd5b7f4e487b7100000000000000000000000000000000000000000000000000000000600052603260045260246000fd5b7f4e487b7100000000000000000000000000000000000000000000000000000000600052604160045260246000fd5b7fffffffff0000000000000000000000000000000000000000000000000000000081168114610e7757600080fdfe455243373231436865636b706f696e7461626c653a3a5f6d6f766544656c6567617465733a20616d6f756e74206f766572666c6f7773455243373231436865636b706f696e7461626c653a3a5f7772697465436865636b706f696e743a20626c6f636b206e756d62657220657863656564732033322062697473455243373231436865636b706f696e7461626c653a3a5f7772697465546f74616c537570706c79436865636b706f696e743a20746f74616c20737570706c7920657863636564732039362062697473455243373231436865636b706f696e7461626c653a3a766f746573546f44656c65676174653a20616d6f756e7420657863656564732039362062697473455243373231436865636b706f696e7461626c653a3a5f6d6f766544656c6567617465733a20616d6f756e7420756e646572666c6f7773a2646970667358221220d8f9772ce8d7a97829fa3cdd83688561c9f7aea7dd9a62b6bc7a10c8d6e66e9764736f6c63430008060033",
  "linkReferences": {},
  "deployedLinkReferences": {}
}