{
  "contracts/Multicall.sol": {
    "Multicall": {
      "abi": [
        {
          "inputs": [
            {
              "components": [
                {
                  "internalType": "address",
                  "name": "target",
                  "type": "address"
                },
                {
                  "internalType": "bytes",
                  "name": "callData",
                  "type": "bytes"
                }
              ],
              "internalType": "struct Multicall.Call[]",
              "name": "calls",
              "type": "tuple[]"
            }
          ],
          "name": "aggregate",
          "outputs": [
            {
              "internalType": "uint256",
              "name": "blockNumber",
              "type": "uint256"
            },
            {
              "internalType": "bytes[]",
              "name": "returnData",
              "type": "bytes[]"
            }
          ],
          "stateMutability": "nonpayable",
          "type": "function"
        },
        {
          "inputs": [
            {
              "internalType": "uint256",
              "name": "blockNumber",
              "type": "uint256"
            }
          ],
          "name": "getBlockHash",
          "outputs": [
            {
              "internalType": "bytes32",
              "name": "blockHash",
              "type": "bytes32"
            }
          ],
          "stateMutability": "view",
          "type": "function"
        },
        {
          "inputs": [],
          "name": "getCurrentBlockCoinbase",
          "outputs": [
            {
              "internalType": "address",
              "name": "coinbase",
              "type": "address"
            }
          ],
          "stateMutability": "view",
          "type": "function"
        },
        {
          "inputs": [],
          "name": "getCurrentBlockDifficulty",
          "outputs": [
            {
              "internalType": "uint256",
              "name": "difficulty",
              "type": "uint256"
            }
          ],
          "stateMutability": "view",
          "type": "function"
        },
        {
          "inputs": [],
          "name": "getCurrentBlockGasLimit",
          "outputs": [
            {
              "internalType": "uint256",
              "name": "gaslimit",
              "type": "uint256"
            }
          ],
          "stateMutability": "view",
          "type": "function"
        },
        {
          "inputs": [],
          "name": "getCurrentBlockTimestamp",
          "outputs": [
            {
              "internalType": "uint256",
              "name": "timestamp",
              "type": "uint256"
            }
          ],
          "stateMutability": "view",
          "type": "function"
        },
        {
          "inputs": [
            {
              "internalType": "address",
              "name": "addr",
              "type": "address"
            }
          ],
          "name": "getEthBalance",
          "outputs": [
            {
              "internalType": "uint256",
              "name": "balance",
              "type": "uint256"
            }
          ],
          "stateMutability": "view",
          "type": "function"
        },
        {
          "inputs": [],
          "name": "getLastBlockHash",
          "outputs": [
            {
              "internalType": "bytes32",
              "name": "blockHash",
              "type": "bytes32"
            }
          ],
          "stateMutability": "view",
          "type": "function"
        }
      ],
      "evm": {
        "bytecode": {
          "linkReferences": {},
          "object": "608060405234801561001057600080fd5b506106f6806100206000396000f3fe608060405234801561001057600080fd5b50600436106100885760003560e01c806372425d9d1161005b57806372425d9d146100f357806386d516e8146100f9578063a8b0574e146100ff578063ee82ac5e1461010d57600080fd5b80630f28c97d1461008d578063252dba42146100a257806327e86d6e146100c35780634d2301cc146100cb575b600080fd5b425b6040519081526020015b60405180910390f35b6100b56100b03660046102ca565b61011f565b60405161009992919061047d565b61008f61026c565b61008f6100d93660046102a8565b73ffffffffffffffffffffffffffffffffffffffff163190565b4461008f565b4561008f565b604051418152602001610099565b61008f61011b366004610448565b4090565b8051439060609067ffffffffffffffff81111561013e5761013e610691565b60405190808252806020026020018201604052801561017157816020015b606081526020019060019003908161015c5790505b50905060005b83518110156102665760008085838151811061019557610195610662565b60200260200101516000015173ffffffffffffffffffffffffffffffffffffffff168684815181106101c9576101c9610662565b6020026020010151602001516040516101e29190610461565b6000604051808303816000865af19150503d806000811461021f576040519150601f19603f3d011682016040523d82523d6000602084013e610224565b606091505b50915091508161023357600080fd5b8084848151811061024657610246610662565b60200260200101819052505050808061025e906105fa565b915050610177565b50915091565b60006102796001436105b3565b40905090565b803573ffffffffffffffffffffffffffffffffffffffff811681146102a357600080fd5b919050565b6000602082840312156102ba57600080fd5b6102c38261027f565b9392505050565b600060208083850312156102dd57600080fd5b823567ffffffffffffffff808211156102f557600080fd5b818501915085601f83011261030957600080fd5b81358181111561031b5761031b610691565b8060051b61032a858201610564565b8281528581019085870183870188018b101561034557600080fd5b600093505b8484101561043a5780358681111561036157600080fd5b87017fffffffffffffffffffffffffffffffffffffffffffffffffffffffffffffffe06040828e038201121561039657600080fd5b61039e61053b565b6103a98b840161027f565b81526040830135898111156103bd57600080fd5b8084019350508d603f8401126103d257600080fd5b8a830135898111156103e6576103e6610691565b6103f68c84601f84011601610564565b92508083528e604082860101111561040d57600080fd5b80604085018d85013760009083018c0152808b01919091528452506001939093019291870191870161034a565b509998505050505050505050565b60006020828403121561045a57600080fd5b5035919050565b600082516104738184602087016105ca565b9190910192915050565b600060408201848352602060408185015281855180845260608601915060608160051b870101935082870160005b8281101561052d577fffffffffffffffffffffffffffffffffffffffffffffffffffffffffffffffa0888703018452815180518088526104f081888a018985016105ca565b601f017fffffffffffffffffffffffffffffffffffffffffffffffffffffffffffffffe016969096018501955092840192908401906001016104ab565b509398975050505050505050565b6040805190810167ffffffffffffffff8111828210171561055e5761055e610691565b60405290565b604051601f82017fffffffffffffffffffffffffffffffffffffffffffffffffffffffffffffffe016810167ffffffffffffffff811182821017156105ab576105ab610691565b604052919050565b6000828210156105c5576105c5610633565b500390565b60005b838110156105e55781810151838201526020016105cd565b838111156105f4576000848401525b50505050565b60007fffffffffffffffffffffffffffffffffffffffffffffffffffffffffffffffff82141561062c5761062c610633565b5060010190565b7f4e487b7100000000000000000000000000000000000000000000000000000000600052601160045260246000fd5b7f4e487b7100000000000000000000000000000000000000000000000000000000600052603260045260246000fd5b7f4e487b7100000000000000000000000000000000000000000000000000000000600052604160045260246000fdfea26469706673582212203ea0986384a111b7db78ea86cd0c7d34f09cf1d0f0c6c2eb0573063c7ecd250264736f6c63430008060033",
          "opcodes": "PUSH1 0x80 PUSH1 0x40 MSTORE CALLVALUE DUP1 ISZERO PUSH2 0x10 JUMPI PUSH1 0x0 DUP1 REVERT JUMPDEST POP PUSH2 0x6F6 DUP1 PUSH2 0x20 PUSH1 0x0 CODECOPY PUSH1 0x0 RETURN INVALID PUSH1 0x80 PUSH1 0x40 MSTORE CALLVALUE DUP1 ISZERO PUSH2 0x10 JUMPI PUSH1 0x0 DUP1 REVERT JUMPDEST POP PUSH1 0x4 CALLDATASIZE LT PUSH2 0x88 JUMPI PUSH1 0x0 CALLDATALOAD PUSH1 0xE0 SHR DUP1 PUSH4 0x72425D9D GT PUSH2 0x5B JUMPI DUP1 PUSH4 0x72425D9D EQ PUSH2 0xF3 JUMPI DUP1 PUSH4 0x86D516E8 EQ PUSH2 0xF9 JUMPI DUP1 PUSH4 0xA8B0574E EQ PUSH2 0xFF JUMPI DUP1 PUSH4 0xEE82AC5E EQ PUSH2 0x10D JUMPI PUSH1 0x0 DUP1 REVERT JUMPDEST DUP1 PUSH4 0xF28C97D EQ PUSH2 0x8D JUMPI DUP1 PUSH4 0x252DBA42 EQ PUSH2 0xA2 JUMPI DUP1 PUSH4 0x27E86D6E EQ PUSH2 0xC3 JUMPI DUP1 PUSH4 0x4D2301CC EQ PUSH2 0xCB JUMPI JUMPDEST PUSH1 0x0 DUP1 REVERT JUMPDEST TIMESTAMP JUMPDEST PUSH1 0x40 MLOAD SWAP1 DUP2 MSTORE PUSH1 0x20 ADD JUMPDEST PUSH1 0x40 MLOAD DUP1 SWAP2 SUB SWAP1 RETURN JUMPDEST PUSH2 0xB5 PUSH2 0xB0 CALLDATASIZE PUSH1 0x4 PUSH2 0x2CA JUMP JUMPDEST PUSH2 0x11F JUMP JUMPDEST PUSH1 0x40 MLOAD PUSH2 0x99 SWAP3 SWAP2 SWAP1 PUSH2 0x47D JUMP JUMPDEST PUSH2 0x8F PUSH2 0x26C JUMP JUMPDEST PUSH2 0x8F PUSH2 0xD9 CALLDATASIZE PUSH1 0x4 PUSH2 0x2A8 JUMP JUMPDEST PUSH20 0xFFFFFFFFFFFFFFFFFFFFFFFFFFFFFFFFFFFFFFFF AND BALANCE SWAP1 JUMP JUMPDEST DIFFICULTY PUSH2 0x8F JUMP JUMPDEST GASLIMIT PUSH2 0x8F JUMP JUMPDEST PUSH1 0x40 MLOAD COINBASE DUP2 MSTORE PUSH1 0x20 ADD PUSH2 0x99 JUMP JUMPDEST PUSH2 0x8F PUSH2 0x11B CALLDATASIZE PUSH1 0x4 PUSH2 0x448 JUMP JUMPDEST BLOCKHASH SWAP1 JUMP JUMPDEST DUP1 MLOAD NUMBER SWAP1 PUSH1 0x60 SWAP1 PUSH8 0xFFFFFFFFFFFFFFFF DUP2 GT ISZERO PUSH2 0x13E JUMPI PUSH2 0x13E PUSH2 0x691 JUMP JUMPDEST PUSH1 0x40 MLOAD SWAP1 DUP1 DUP3 MSTORE DUP1 PUSH1 0x20 MUL PUSH1 0x20 ADD DUP3 ADD PUSH1 0x40 MSTORE DUP1 ISZERO PUSH2 0x171 JUMPI DUP2 PUSH1 0x20 ADD JUMPDEST PUSH1 0x60 DUP2 MSTORE PUSH1 0x20 ADD SWAP1 PUSH1 0x1 SWAP1 SUB SWAP1 DUP2 PUSH2 0x15C JUMPI SWAP1 POP JUMPDEST POP SWAP1 POP PUSH1 0x0 JUMPDEST DUP4 MLOAD DUP2 LT ISZERO PUSH2 0x266 JUMPI PUSH1 0x0 DUP1 DUP6 DUP4 DUP2 MLOAD DUP2 LT PUSH2 0x195 JUMPI PUSH2 0x195 PUSH2 0x662 JUMP JUMPDEST PUSH1 0x20 MUL PUSH1 0x20 ADD ADD MLOAD PUSH1 0x0 ADD MLOAD PUSH20 0xFFFFFFFFFFFFFFFFFFFFFFFFFFFFFFFFFFFFFFFF AND DUP7 DUP5 DUP2 MLOAD DUP2 LT PUSH2 0x1C9 JUMPI PUSH2 0x1C9 PUSH2 0x662 JUMP JUMPDEST PUSH1 0x20 MUL PUSH1 0x20 ADD ADD MLOAD PUSH1 0x20 ADD MLOAD PUSH1 0x40 MLOAD PUSH2 0x1E2 SWAP2 SWAP1 PUSH2 0x461 JUMP JUMPDEST PUSH1 0x0 PUSH1 0x40 MLOAD DUP1 DUP4 SUB DUP2 PUSH1 0x0 DUP7 GAS CALL SWAP2 POP POP RETURNDATASIZE DUP1 PUSH1 0x0 DUP2 EQ PUSH2 0x21F JUMPI PUSH1 0x40 MLOAD SWAP2 POP PUSH1 0x1F NOT PUSH1 0x3F RETURNDATASIZE ADD AND DUP3 ADD PUSH1 0x40 MSTORE RETURNDATASIZE DUP3 MSTORE RETURNDATASIZE PUSH1 0x0 PUSH1 0x20 DUP5 ADD RETURNDATACOPY PUSH2 0x224 JUMP JUMPDEST PUSH1 0x60 SWAP2 POP JUMPDEST POP SWAP2 POP SWAP2 POP DUP2 PUSH2 0x233 JUMPI PUSH1 0x0 DUP1 REVERT JUMPDEST DUP1 DUP5 DUP5 DUP2 MLOAD DUP2 LT PUSH2 0x246 JUMPI PUSH2 0x246 PUSH2 0x662 JUMP JUMPDEST PUSH1 0x20 MUL PUSH1 0x20 ADD ADD DUP2 SWAP1 MSTORE POP POP POP DUP1 DUP1 PUSH2 0x25E SWAP1 PUSH2 0x5FA JUMP JUMPDEST SWAP2 POP POP PUSH2 0x177 JUMP JUMPDEST POP SWAP2 POP SWAP2 JUMP JUMPDEST PUSH1 0x0 PUSH2 0x279 PUSH1 0x1 NUMBER PUSH2 0x5B3 JUMP JUMPDEST BLOCKHASH SWAP1 POP SWAP1 JUMP JUMPDEST DUP1 CALLDATALOAD PUSH20 0xFFFFFFFFFFFFFFFFFFFFFFFFFFFFFFFFFFFFFFFF DUP2 AND DUP2 EQ PUSH2 0x2A3 JUMPI PUSH1 0x0 DUP1 REVERT JUMPDEST SWAP2 SWAP1 POP JUMP JUMPDEST PUSH1 0x0 PUSH1 0x20 DUP3 DUP5 SUB SLT ISZERO PUSH2 0x2BA JUMPI PUSH1 0x0 DUP1 REVERT JUMPDEST PUSH2 0x2C3 DUP3 PUSH2 0x27F JUMP JUMPDEST SWAP4 SWAP3 POP POP POP JUMP JUMPDEST PUSH1 0x0 PUSH1 0x20 DUP1 DUP4 DUP6 SUB SLT ISZERO PUSH2 0x2DD JUMPI PUSH1 0x0 DUP1 REVERT JUMPDEST DUP3 CALLDATALOAD PUSH8 0xFFFFFFFFFFFFFFFF DUP1 DUP3 GT ISZERO PUSH2 0x2F5 JUMPI PUSH1 0x0 DUP1 REVERT JUMPDEST DUP2 DUP6 ADD SWAP2 POP DUP6 PUSH1 0x1F DUP4 ADD SLT PUSH2 0x309 JUMPI PUSH1 0x0 DUP1 REVERT JUMPDEST DUP2 CALLDATALOAD DUP2 DUP2 GT ISZERO PUSH2 0x31B JUMPI PUSH2 0x31B PUSH2 0x691 JUMP JUMPDEST DUP1 PUSH1 0x5 SHL PUSH2 0x32A DUP6 DUP3 ADD PUSH2 0x564 JUMP JUMPDEST DUP3 DUP2 MSTORE DUP6 DUP2 ADD SWAP1 DUP6 DUP8 ADD DUP4 DUP8 ADD DUP9 ADD DUP12 LT ISZERO PUSH2 0x345 JUMPI PUSH1 0x0 DUP1 REVERT JUMPDEST PUSH1 0x0 SWAP4 POP JUMPDEST DUP5 DUP5 LT ISZERO PUSH2 0x43A JUMPI DUP1 CALLDATALOAD DUP7 DUP2 GT ISZERO PUSH2 0x361 JUMPI PUSH1 0x0 DUP1 REVERT JUMPDEST DUP8 ADD PUSH32 0xFFFFFFFFFFFFFFFFFFFFFFFFFFFFFFFFFFFFFFFFFFFFFFFFFFFFFFFFFFFFFFE0 PUSH1 0x40 DUP3 DUP15 SUB DUP3 ADD SLT ISZERO PUSH2 0x396 JUMPI PUSH1 0x0 DUP1 REVERT JUMPDEST PUSH2 0x39E PUSH2 0x53B JUMP JUMPDEST PUSH2 0x3A9 DUP12 DUP5 ADD PUSH2 0x27F JUMP JUMPDEST DUP2 MSTORE PUSH1 0x40 DUP4 ADD CALLDATALOAD DUP10 DUP2 GT ISZERO PUSH2 0x3BD JUMPI PUSH1 0x0 DUP1 REVERT JUMPDEST DUP1 DUP5 ADD SWAP4 POP POP DUP14 PUSH1 0x3F DUP5 ADD SLT PUSH2 0x3D2 JUMPI PUSH1 0x0 DUP1 REVERT JUMPDEST DUP11 DUP4 ADD CALLDATALOAD DUP10 DUP2 GT ISZERO PUSH2 0x3E6 JUMPI PUSH2 0x3E6 PUSH2 0x691 JUMP JUMPDEST PUSH2 0x3F6 DUP13 DUP5 PUSH1 0x1F DUP5 ADD AND ADD PUSH2 0x564 JUMP JUMPDEST SWAP3 POP DUP1 DUP4 MSTORE DUP15 PUSH1 0x40 DUP3 DUP7 ADD ADD GT ISZERO PUSH2 0x40D JUMPI PUSH1 0x0 DUP1 REVERT JUMPDEST DUP1 PUSH1 0x40 DUP6 ADD DUP14 DUP6 ADD CALLDATACOPY PUSH1 0x0 SWAP1 DUP4 ADD DUP13 ADD MSTORE DUP1 DUP12 ADD SWAP2 SWAP1 SWAP2 MSTORE DUP5 MSTORE POP PUSH1 0x1 SWAP4 SWAP1 SWAP4 ADD SWAP3 SWAP2 DUP8 ADD SWAP2 DUP8 ADD PUSH2 0x34A JUMP JUMPDEST POP SWAP10 SWAP9 POP POP POP POP POP POP POP POP POP JUMP JUMPDEST PUSH1 0x0 PUSH1 0x20 DUP3 DUP5 SUB SLT ISZERO PUSH2 0x45A JUMPI PUSH1 0x0 DUP1 REVERT JUMPDEST POP CALLDATALOAD SWAP2 SWAP1 POP JUMP JUMPDEST PUSH1 0x0 DUP3 MLOAD PUSH2 0x473 DUP2 DUP5 PUSH1 0x20 DUP8 ADD PUSH2 0x5CA JUMP JUMPDEST SWAP2 SWAP1 SWAP2 ADD SWAP3 SWAP2 POP POP JUMP JUMPDEST PUSH1 0x0 PUSH1 0x40 DUP3 ADD DUP5 DUP4 MSTORE PUSH1 0x20 PUSH1 0x40 DUP2 DUP6 ADD MSTORE DUP2 DUP6 MLOAD DUP1 DUP5 MSTORE PUSH1 0x60 DUP7 ADD SWAP2 POP PUSH1 0x60 DUP2 PUSH1 0x5 SHL DUP8 ADD ADD SWAP4 POP DUP3 DUP8 ADD PUSH1 0x0 JUMPDEST DUP3 DUP2 LT ISZERO PUSH2 0x52D JUMPI PUSH32 0xFFFFFFFFFFFFFFFFFFFFFFFFFFFFFFFFFFFFFFFFFFFFFFFFFFFFFFFFFFFFFFA0 DUP9 DUP8 SUB ADD DUP5 MSTORE DUP2 MLOAD DUP1 MLOAD DUP1 DUP9 MSTORE PUSH2 0x4F0 DUP2 DUP9 DUP11 ADD DUP10 DUP6 ADD PUSH2 0x5CA JUMP JUMPDEST PUSH1 0x1F ADD PUSH32 0xFFFFFFFFFFFFFFFFFFFFFFFFFFFFFFFFFFFFFFFFFFFFFFFFFFFFFFFFFFFFFFE0 AND SWAP7 SWAP1 SWAP7 ADD DUP6 ADD SWAP6 POP SWAP3 DUP5 ADD SWAP3 SWAP1 DUP5 ADD SWAP1 PUSH1 0x1 ADD PUSH2 0x4AB JUMP JUMPDEST POP SWAP4 SWAP9 SWAP8 POP POP POP POP POP POP POP POP JUMP JUMPDEST PUSH1 0x40 DUP1 MLOAD SWAP1 DUP2 ADD PUSH8 0xFFFFFFFFFFFFFFFF DUP2 GT DUP3 DUP3 LT OR ISZERO PUSH2 0x55E JUMPI PUSH2 0x55E PUSH2 0x691 JUMP JUMPDEST PUSH1 0x40 MSTORE SWAP1 JUMP JUMPDEST PUSH1 0x40 MLOAD PUSH1 0x1F DUP3 ADD PUSH32 0xFFFFFFFFFFFFFFFFFFFFFFFFFFFFFFFFFFFFFFFFFFFFFFFFFFFFFFFFFFFFFFE0 AND DUP2 ADD PUSH8 0xFFFFFFFFFFFFFFFF DUP2 GT DUP3 DUP3 LT OR ISZERO PUSH2 0x5AB JUMPI PUSH2 0x5AB PUSH2 0x691 JUMP JUMPDEST PUSH1 0x40 MSTORE SWAP2 SWAP1 POP JUMP JUMPDEST PUSH1 0x0 DUP3 DUP3 LT ISZERO PUSH2 0x5C5 JUMPI PUSH2 0x5C5 PUSH2 0x633 JUMP JUMPDEST POP SUB SWAP1 JUMP JUMPDEST PUSH1 0x0 JUMPDEST DUP4 DUP2 LT ISZERO PUSH2 0x5E5 JUMPI DUP2 DUP2 ADD MLOAD DUP4 DUP3 ADD MSTORE PUSH1 0x20 ADD PUSH2 0x5CD JUMP JUMPDEST DUP4 DUP2 GT ISZERO PUSH2 0x5F4 JUMPI PUSH1 0x0 DUP5 DUP5 ADD MSTORE JUMPDEST POP POP POP POP JUMP JUMPDEST PUSH1 0x0 PUSH32 0xFFFFFFFFFFFFFFFFFFFFFFFFFFFFFFFFFFFFFFFFFFFFFFFFFFFFFFFFFFFFFFFF DUP3 EQ ISZERO PUSH2 0x62C JUMPI PUSH2 0x62C PUSH2 0x633 JUMP JUMPDEST POP PUSH1 0x1 ADD SWAP1 JUMP JUMPDEST PUSH32 0x4E487B7100000000000000000000000000000000000000000000000000000000 PUSH1 0x0 MSTORE PUSH1 0x11 PUSH1 0x4 MSTORE PUSH1 0x24 PUSH1 0x0 REVERT JUMPDEST PUSH32 0x4E487B7100000000000000000000000000000000000000000000000000000000 PUSH1 0x0 MSTORE PUSH1 0x32 PUSH1 0x4 MSTORE PUSH1 0x24 PUSH1 0x0 REVERT JUMPDEST PUSH32 0x4E487B7100000000000000000000000000000000000000000000000000000000 PUSH1 0x0 MSTORE PUSH1 0x41 PUSH1 0x4 MSTORE PUSH1 0x24 PUSH1 0x0 REVERT INVALID LOG2 PUSH5 0x6970667358 0x22 SLT KECCAK256 RETURNDATACOPY LOG0 SWAP9 PUSH4 0x84A111B7 0xDB PUSH25 0xEA86CD0C7D34F09CF1D0F0C6C2EB0573063C7ECD250264736F PUSH13 0x63430008060033000000000000 "
        },
        "methodIdentifiers": {
          "aggregate((address,bytes)[])": "252dba42",
          "getBlockHash(uint256)": "ee82ac5e",
          "getCurrentBlockCoinbase()": "a8b0574e",
          "getCurrentBlockDifficulty()": "72425d9d",
          "getCurrentBlockGasLimit()": "86d516e8",
          "getCurrentBlockTimestamp()": "0f28c97d",
          "getEthBalance(address)": "4d2301cc",
          "getLastBlockHash()": "27e86d6e"
        }
      }
    }
  }
}