{
  "_format": "hh-sol-artifact-1",
  "contractName": "ERC721Governor",
  "sourceName": "contracts/ERC721Governor.sol",
  "abi": [
    {
      "anonymous": false,
      "inputs": [
        {
          "indexed": false,
          "internalType": "uint256",
          "name": "proposalId",
          "type": "uint256"
        }
      ],
      "name": "ProposalCanceled",
      "type": "event"
    },
    {
      "anonymous": false,
      "inputs": [
        {
          "indexed": false,
          "internalType": "uint256",
          "name": "proposalId",
          "type": "uint256"
        },
        {
          "indexed": false,
          "internalType": "address",
          "name": "proposer",
          "type": "address"
        },
        {
          "indexed": false,
          "internalType": "address[]",
          "name": "targets",
          "type": "address[]"
        },
        {
          "indexed": false,
          "internalType": "uint256[]",
          "name": "values",
          "type": "uint256[]"
        },
        {
          "indexed": false,
          "internalType": "string[]",
          "name": "signatures",
          "type": "string[]"
        },
        {
          "indexed": false,
          "internalType": "bytes[]",
          "name": "calldatas",
          "type": "bytes[]"
        },
        {
          "indexed": false,
          "internalType": "uint256",
          "name": "startBlock",
          "type": "uint256"
        },
        {
          "indexed": false,
          "internalType": "uint256",
          "name": "endBlock",
          "type": "uint256"
        },
        {
          "indexed": false,
          "internalType": "string",
          "name": "description",
          "type": "string"
        }
      ],
      "name": "ProposalCreated",
      "type": "event"
    },
    {
      "anonymous": false,
      "inputs": [
        {
          "indexed": false,
          "internalType": "uint256",
          "name": "proposalId",
          "type": "uint256"
        }
      ],
      "name": "ProposalExecuted",
      "type": "event"
    },
    {
      "anonymous": false,
      "inputs": [
        {
          "indexed": false,
          "internalType": "uint256",
          "name": "proposalId",
          "type": "uint256"
        },
        {
          "indexed": false,
          "internalType": "uint256",
          "name": "eta",
          "type": "uint256"
        }
      ],
      "name": "ProposalQueued",
      "type": "event"
    },
    {
      "anonymous": false,
      "inputs": [
        {
          "indexed": false,
          "internalType": "address",
          "name": "oldTimelock",
          "type": "address"
        },
        {
          "indexed": false,
          "internalType": "address",
          "name": "newTimelock",
          "type": "address"
        }
      ],
      "name": "TimelockChange",
      "type": "event"
    },
    {
      "anonymous": false,
      "inputs": [
        {
          "indexed": true,
          "internalType": "address",
          "name": "voter",
          "type": "address"
        },
        {
          "indexed": false,
          "internalType": "uint256",
          "name": "proposalId",
          "type": "uint256"
        },
        {
          "indexed": false,
          "internalType": "uint8",
          "name": "support",
          "type": "uint8"
        },
        {
          "indexed": false,
          "internalType": "uint256",
          "name": "weight",
          "type": "uint256"
        },
        {
          "indexed": false,
          "internalType": "string",
          "name": "reason",
          "type": "string"
        }
      ],
      "name": "VoteCast",
      "type": "event"
    },
    {
      "inputs": [],
      "name": "BALLOT_TYPEHASH",
      "outputs": [
        {
          "internalType": "bytes32",
          "name": "",
          "type": "bytes32"
        }
      ],
      "stateMutability": "view",
      "type": "function"
    },
    {
      "inputs": [],
      "name": "COUNTING_MODE",
      "outputs": [
        {
          "internalType": "string",
          "name": "",
          "type": "string"
        }
      ],
      "stateMutability": "pure",
      "type": "function"
    },
    {
      "inputs": [
        {
          "internalType": "uint256",
          "name": "proposalId",
          "type": "uint256"
        },
        {
          "internalType": "uint8",
          "name": "support",
          "type": "uint8"
        }
      ],
      "name": "castVote",
      "outputs": [
        {
          "internalType": "uint256",
          "name": "",
          "type": "uint256"
        }
      ],
      "stateMutability": "nonpayable",
      "type": "function"
    },
    {
      "inputs": [
        {
          "internalType": "uint256",
          "name": "proposalId",
          "type": "uint256"
        },
        {
          "internalType": "uint8",
          "name": "support",
          "type": "uint8"
        },
        {
          "internalType": "uint8",
          "name": "v",
          "type": "uint8"
        },
        {
          "internalType": "bytes32",
          "name": "r",
          "type": "bytes32"
        },
        {
          "internalType": "bytes32",
          "name": "s",
          "type": "bytes32"
        }
      ],
      "name": "castVoteBySig",
      "outputs": [
        {
          "internalType": "uint256",
          "name": "",
          "type": "uint256"
        }
      ],
      "stateMutability": "nonpayable",
      "type": "function"
    },
    {
      "inputs": [
        {
          "internalType": "uint256",
          "name": "proposalId",
          "type": "uint256"
        },
        {
          "internalType": "uint8",
          "name": "support",
          "type": "uint8"
        },
        {
          "internalType": "string",
          "name": "reason",
          "type": "string"
        }
      ],
      "name": "castVoteWithReason",
      "outputs": [
        {
          "internalType": "uint256",
          "name": "",
          "type": "uint256"
        }
      ],
      "stateMutability": "nonpayable",
      "type": "function"
    },
    {
      "inputs": [
        {
          "internalType": "address[]",
          "name": "targets",
          "type": "address[]"
        },
        {
          "internalType": "uint256[]",
          "name": "values",
          "type": "uint256[]"
        },
        {
          "internalType": "bytes[]",
          "name": "calldatas",
          "type": "bytes[]"
        },
        {
          "internalType": "bytes32",
          "name": "descriptionHash",
          "type": "bytes32"
        }
      ],
      "name": "execute",
      "outputs": [
        {
          "internalType": "uint256",
          "name": "",
          "type": "uint256"
        }
      ],
      "stateMutability": "payable",
      "type": "function"
    },
    {
      "inputs": [
        {
          "internalType": "address",
          "name": "account",
          "type": "address"
        },
        {
          "internalType": "uint256",
          "name": "blockNumber",
          "type": "uint256"
        }
      ],
      "name": "getVotes",
      "outputs": [
        {
          "internalType": "uint256",
          "name": "",
          "type": "uint256"
        }
      ],
      "stateMutability": "view",
      "type": "function"
    },
    {
      "inputs": [
        {
          "internalType": "uint256",
          "name": "proposalId",
          "type": "uint256"
        },
        {
          "internalType": "address",
          "name": "account",
          "type": "address"
        }
      ],
      "name": "hasVoted",
      "outputs": [
        {
          "internalType": "bool",
          "name": "",
          "type": "bool"
        }
      ],
      "stateMutability": "view",
      "type": "function"
    },
    {
      "inputs": [
        {
          "internalType": "address[]",
          "name": "targets",
          "type": "address[]"
        },
        {
          "internalType": "uint256[]",
          "name": "values",
          "type": "uint256[]"
        },
        {
          "internalType": "bytes[]",
          "name": "calldatas",
          "type": "bytes[]"
        },
        {
          "internalType": "bytes32",
          "name": "descriptionHash",
          "type": "bytes32"
        }
      ],
      "name": "hashProposal",
      "outputs": [
        {
          "internalType": "uint256",
          "name": "",
          "type": "uint256"
        }
      ],
      "stateMutability": "pure",
      "type": "function"
    },
    {
      "inputs": [
        {
          "internalType": "string",
          "name": "name_",
          "type": "string"
        },
        {
          "internalType": "contract ERC721DAOToken",
          "name": "token_",
          "type": "address"
        },
        {
          "internalType": "contract TimelockControllerUpgradeable",
          "name": "timelockAddress",
          "type": "address"
        }
      ],
      "name": "initialize",
      "outputs": [],
      "stateMutability": "nonpayable",
      "type": "function"
    },
    {
      "inputs": [],
      "name": "name",
      "outputs": [
        {
          "internalType": "string",
          "name": "",
          "type": "string"
        }
      ],
      "stateMutability": "view",
      "type": "function"
    },
    {
      "inputs": [
        {
          "internalType": "uint256",
          "name": "proposalId",
          "type": "uint256"
        }
      ],
      "name": "proposalDeadline",
      "outputs": [
        {
          "internalType": "uint256",
          "name": "",
          "type": "uint256"
        }
      ],
      "stateMutability": "view",
      "type": "function"
    },
    {
      "inputs": [
        {
          "internalType": "uint256",
          "name": "proposalId",
          "type": "uint256"
        }
      ],
      "name": "proposalEta",
      "outputs": [
        {
          "internalType": "uint256",
          "name": "",
          "type": "uint256"
        }
      ],
      "stateMutability": "view",
      "type": "function"
    },
    {
      "inputs": [
        {
          "internalType": "uint256",
          "name": "proposalId",
          "type": "uint256"
        }
      ],
      "name": "proposalSnapshot",
      "outputs": [
        {
          "internalType": "uint256",
          "name": "",
          "type": "uint256"
        }
      ],
      "stateMutability": "view",
      "type": "function"
    },
    {
      "inputs": [
        {
          "internalType": "uint256",
          "name": "proposalId",
          "type": "uint256"
        }
      ],
      "name": "proposalVotes",
      "outputs": [
        {
          "internalType": "uint256",
          "name": "againstVotes",
          "type": "uint256"
        },
        {
          "internalType": "uint256",
          "name": "forVotes",
          "type": "uint256"
        },
        {
          "internalType": "uint256",
          "name": "abstainVotes",
          "type": "uint256"
        }
      ],
      "stateMutability": "view",
      "type": "function"
    },
    {
      "inputs": [
        {
          "internalType": "address[]",
          "name": "targets",
          "type": "address[]"
        },
        {
          "internalType": "uint256[]",
          "name": "values",
          "type": "uint256[]"
        },
        {
          "internalType": "bytes[]",
          "name": "calldatas",
          "type": "bytes[]"
        },
        {
          "internalType": "string",
          "name": "description",
          "type": "string"
        }
      ],
      "name": "propose",
      "outputs": [
        {
          "internalType": "uint256",
          "name": "",
          "type": "uint256"
        }
      ],
      "stateMutability": "nonpayable",
      "type": "function"
    },
    {
      "inputs": [
        {
          "internalType": "address[]",
          "name": "targets",
          "type": "address[]"
        },
        {
          "internalType": "uint256[]",
          "name": "values",
          "type": "uint256[]"
        },
        {
          "internalType": "bytes[]",
          "name": "calldatas",
          "type": "bytes[]"
        },
        {
          "internalType": "bytes32",
          "name": "descriptionHash",
          "type": "bytes32"
        }
      ],
      "name": "queue",
      "outputs": [
        {
          "internalType": "uint256",
          "name": "",
          "type": "uint256"
        }
      ],
      "stateMutability": "nonpayable",
      "type": "function"
    },
    {
      "inputs": [
        {
          "internalType": "uint256",
          "name": "blockNumber",
          "type": "uint256"
        }
      ],
      "name": "quorum",
      "outputs": [
        {
          "internalType": "uint256",
          "name": "",
          "type": "uint256"
        }
      ],
      "stateMutability": "view",
      "type": "function"
    },
    {
      "inputs": [
        {
          "internalType": "uint256",
          "name": "proposalId",
          "type": "uint256"
        }
      ],
      "name": "state",
      "outputs": [
        {
          "internalType": "enum IGovernorUpgradeable.ProposalState",
          "name": "",
          "type": "uint8"
        }
      ],
      "stateMutability": "view",
      "type": "function"
    },
    {
      "inputs": [
        {
          "internalType": "bytes4",
          "name": "interfaceId",
          "type": "bytes4"
        }
      ],
      "name": "supportsInterface",
      "outputs": [
        {
          "internalType": "bool",
          "name": "",
          "type": "bool"
        }
      ],
      "stateMutability": "view",
      "type": "function"
    },
    {
      "inputs": [],
      "name": "timelock",
      "outputs": [
        {
          "internalType": "address",
          "name": "",
          "type": "address"
        }
      ],
      "stateMutability": "view",
      "type": "function"
    },
    {
      "inputs": [],
      "name": "token",
      "outputs": [
        {
          "internalType": "contract ERC721DAOToken",
          "name": "",
          "type": "address"
        }
      ],
      "stateMutability": "view",
      "type": "function"
    },
    {
      "inputs": [
        {
          "internalType": "contract TimelockControllerUpgradeable",
          "name": "newTimelock",
          "type": "address"
        }
      ],
      "name": "updateTimelock",
      "outputs": [],
      "stateMutability": "nonpayable",
      "type": "function"
    },
    {
      "inputs": [],
      "name": "version",
      "outputs": [
        {
          "internalType": "string",
          "name": "",
          "type": "string"
        }
      ],
      "stateMutability": "view",
      "type": "function"
    },
    {
      "inputs": [],
      "name": "votingDelay",
      "outputs": [
        {
          "internalType": "uint256",
          "name": "",
          "type": "uint256"
        }
      ],
      "stateMutability": "view",
      "type": "function"
    },
    {
      "inputs": [],
      "name": "votingPeriod",
      "outputs": [
        {
          "internalType": "uint256",
          "name": "",
          "type": "uint256"
        }
      ],
      "stateMutability": "view",
      "type": "function"
    }
  ],
  "bytecode": "0x608060405234801561001057600080fd5b5061322c806100206000396000f3fe6080604052600436106101a15760003560e01c806356781388116100e1578063c59057e41161008a578063deaaa7cc11610064578063deaaa7cc14610544578063eb9019d414610578578063f8ce560a14610598578063fc0c546a146105b957600080fd5b8063c59057e414610491578063d33219b4146104b1578063dd4e2ba5146104fe57600080fd5b8063a890c910116100bb578063a890c91014610431578063ab58fb8e14610451578063c01f9e371461047157600080fd5b806356781388146103d15780637b3c71d3146103f15780637d5e81e21461041157600080fd5b80633932abb11161014e578063438596321161012857806343859632146102bb578063463fd1af14610313578063544ffc9c1461033557806354fd4d501461038b57600080fd5b80633932abb1146101db5780633bccf4fd1461026e5780633e4f49e61461028e57600080fd5b8063160cbed71161017f578063160cbed71461021b5780632656227d1461023b5780632d63f6931461024e57600080fd5b806301ffc9a7146101a657806302a251a3146101db57806306fdde03146101f9575b600080fd5b3480156101b257600080fd5b506101c66101c1366004612a96565b6105e7565b60405190151581526020015b60405180910390f35b3480156101e757600080fd5b5060005b6040519081526020016101d2565b34801561020557600080fd5b5061020e6105f8565b6040516101d29190612f26565b34801561022757600080fd5b506101eb61023636600461291e565b61068a565b6101eb61024936600461291e565b610979565b34801561025a57600080fd5b506101eb610269366004612b59565b610ac5565b34801561027a57600080fd5b506101eb610289366004612c55565b610afe565b34801561029a57600080fd5b506102ae6102a9366004612b59565b610b92565b6040516101d29190612ee5565b3480156102c757600080fd5b506101c66102d6366004612b72565b60008281526101306020908152604080832073ffffffffffffffffffffffffffffffffffffffff8516845260030190915290205460ff1692915050565b34801561031f57600080fd5b5061033361032e366004612af5565b610b9d565b005b34801561034157600080fd5b50610370610350366004612b59565b600090815261013060205260409020805460018201546002909201549092565b604080519384526020840192909252908201526060016101d2565b34801561039757600080fd5b5060408051808201909152600181527f3100000000000000000000000000000000000000000000000000000000000000602082015261020e565b3480156103dd57600080fd5b506101eb6103ec366004612ba2565b610c7d565b3480156103fd57600080fd5b506101eb61040c366004612bce565b610ca6565b34801561041d57600080fd5b506101eb61042c3660046129ae565b610cf8565b34801561043d57600080fd5b5061033361044c366004612ad8565b61102c565b34801561045d57600080fd5b506101eb61046c366004612b59565b6110ba565b34801561047d57600080fd5b506101eb61048c366004612b59565b61118c565b34801561049d57600080fd5b506101eb6104ac36600461291e565b6111bc565b3480156104bd57600080fd5b506101625473ffffffffffffffffffffffffffffffffffffffff165b60405173ffffffffffffffffffffffffffffffffffffffff90911681526020016101d2565b34801561050a57600080fd5b506040805180820190915260208082527f737570706f72743d627261766f2671756f72756d3d666f722c6162737461696e9082015261020e565b34801561055057600080fd5b506101eb7f150214d74d59b7d1e90c73fc22ef3d991dd0a76b046543d4d80ab92d2a50328f81565b34801561058457600080fd5b506101eb6105933660046128f2565b6111f6565b3480156105a457600080fd5b506101eb6105b3366004612b59565b50600090565b3480156105c557600080fd5b5061012f546104d99073ffffffffffffffffffffffffffffffffffffffff1681565b60006105f2826112b7565b92915050565b606060fd8054610607906130f9565b80601f0160208091040260200160405190810160405280929190818152602001828054610633906130f9565b80156106805780601f1061065557610100808354040283529160200191610680565b820191906000526020600020905b81548152906001019060200180831161066357829003601f168201915b5050505050905090565b600080610699868686866111bc565b905060046106a682610b92565b60078111156106b7576106b7613176565b1461072f5760405162461bcd60e51b815260206004820152602160248201527f476f7665726e6f723a2070726f706f73616c206e6f742073756363657373667560448201527f6c0000000000000000000000000000000000000000000000000000000000000060648201526084015b60405180910390fd5b61016254604080517ff27a0c92000000000000000000000000000000000000000000000000000000008152905160009273ffffffffffffffffffffffffffffffffffffffff169163f27a0c92916004808301926020929190829003018186803b15801561079b57600080fd5b505afa1580156107af573d6000803e3d6000fd5b505050506040513d601f19601f820116820180604052508101906107d39190612a7d565b610162546040517fb1c5f42700000000000000000000000000000000000000000000000000000000815291925073ffffffffffffffffffffffffffffffffffffffff169063b1c5f42790610834908a908a908a906000908b90600401612e3f565b60206040518083038186803b15801561084c57600080fd5b505afa158015610860573d6000803e3d6000fd5b505050506040513d601f19601f820116820180604052508101906108849190612a7d565b60008381526101636020526040808220929092556101625491517f8f2a0bb000000000000000000000000000000000000000000000000000000000815273ffffffffffffffffffffffffffffffffffffffff90921691638f2a0bb0916108f7918b918b918b91908b908990600401612e8d565b600060405180830381600087803b15801561091157600080fd5b505af1158015610925573d6000803e3d6000fd5b505050507f9a2e42fd6722813d69113e7d0079d3d940171428df7373df9c7f7617cfda289282824261095791906130b5565b6040805192835260208301919091520160405180910390a15095945050505050565b600080610988868686866111bc565b9050600061099582610b92565b905060048160078111156109ab576109ab613176565b14806109c8575060058160078111156109c6576109c6613176565b145b610a3a5760405162461bcd60e51b815260206004820152602160248201527f476f7665726e6f723a2070726f706f73616c206e6f742073756363657373667560448201527f6c000000000000000000000000000000000000000000000000000000000000006064820152608401610726565b600082815260fe60205260409081902060020180547fffffffffffffffffffffffffffffffffffffffffffffffffffffffffffffff00166001179055517f712ae1383f79ac853f8d882153778e0260ef8f03b504e2866e0593e04d2b291f90610aa69084815260200190565b60405180910390a1610abb828888888861130d565b5095945050505050565b600081815260fe6020908152604080832081519283019091525467ffffffffffffffff16908190525b67ffffffffffffffff1692915050565b604080517f150214d74d59b7d1e90c73fc22ef3d991dd0a76b046543d4d80ab92d2a50328f602082015290810186905260ff851660608201526000908190610b6a90610b629060800160405160208183030381529060405280519060200120611321565b86868661138a565b9050610b87878288604051806020016040528060008152506113a8565b979650505050505050565b60006105f2826114da565b600054610100900460ff1680610bb6575060005460ff16155b610c285760405162461bcd60e51b815260206004820152602e60248201527f496e697469616c697a61626c653a20636f6e747261637420697320616c72656160448201527f647920696e697469616c697a65640000000000000000000000000000000000006064820152608401610726565b600054610100900460ff16158015610c4a576000805461ffff19166101011790555b610c53846115df565b610c5c83611706565b610c65826117d4565b8015610c77576000805461ff00191690555b50505050565b600080339050610c9e848285604051806020016040528060008152506113a8565b949350505050565b600080339050610cee86828787878080601f0160208091040260200160405190810160405280939291908181526020018383808284376000920191909152506113a892505050565b9695505050505050565b600080610d0e86868686805190602001206111bc565b90508451865114610d875760405162461bcd60e51b815260206004820152602160248201527f476f7665726e6f723a20696e76616c69642070726f706f73616c206c656e677460448201527f68000000000000000000000000000000000000000000000000000000000000006064820152608401610726565b8351865114610dfe5760405162461bcd60e51b815260206004820152602160248201527f476f7665726e6f723a20696e76616c69642070726f706f73616c206c656e677460448201527f68000000000000000000000000000000000000000000000000000000000000006064820152608401610726565b6000865111610e4f5760405162461bcd60e51b815260206004820152601860248201527f476f7665726e6f723a20656d7074792070726f706f73616c00000000000000006044820152606401610726565b600081815260fe60209081526040918290208251918201909252815467ffffffffffffffff169081905215610eec5760405162461bcd60e51b815260206004820152602160248201527f476f7665726e6f723a2070726f706f73616c20616c726561647920657869737460448201527f73000000000000000000000000000000000000000000000000000000000000006064820152608401610726565b6000610ef7816118aa565b610f00436118aa565b610f0a91906130cd565b90506000610f17816118aa565b610f2190836130cd565b83547fffffffffffffffffffffffffffffffffffffffffffffffff00000000000000001667ffffffffffffffff841617845590506001830180547fffffffffffffffffffffffffffffffffffffffffffffffff00000000000000001667ffffffffffffffff83161790557f7d84a6263ae0d98d3329bd7b46bb4e8d6f98cd35a7adb45c274c8b7fd5ebd5e084338b8b8d5167ffffffffffffffff811115610fca57610fca6131a5565b604051908082528060200260200182016040528015610ffd57816020015b6060815260200190600190039081610fe85790505b508c88888e60405161101799989796959493929190612f39565b60405180910390a15091979650505050505050565b61103461192e565b73ffffffffffffffffffffffffffffffffffffffff163373ffffffffffffffffffffffffffffffffffffffff16146110ae5760405162461bcd60e51b815260206004820152601860248201527f476f7665726e6f723a206f6e6c79476f7665726e616e636500000000000000006044820152606401610726565b6110b781611955565b50565b61016254600082815261016360205260408082205490517fd45c443500000000000000000000000000000000000000000000000000000000815260048101919091529091829173ffffffffffffffffffffffffffffffffffffffff9091169063d45c44359060240160206040518083038186803b15801561113a57600080fd5b505afa15801561114e573d6000803e3d6000fd5b505050506040513d601f19601f820116820180604052508101906111729190612a7d565b9050806001146111825780611185565b60005b9392505050565b600081815260fe6020908152604080832081519283019091526001015467ffffffffffffffff1690819052610aee565b6000848484846040516020016111d59493929190612df4565b60408051601f19818403018152919052805160209091012095945050505050565b61012f546040517f782d6fe100000000000000000000000000000000000000000000000000000000815273ffffffffffffffffffffffffffffffffffffffff848116600483015260248201849052600092169063782d6fe19060440160206040518083038186803b15801561126a57600080fd5b505afa15801561127e573d6000803e3d6000fd5b505050506040513d601f19601f820116820180604052508101906112a29190612ca3565b6bffffffffffffffffffffffff169392505050565b60007fffffffff0000000000000000000000000000000000000000000000000000000082167f6e665ced0000000000000000000000000000000000000000000000000000000014806105f257506105f2826119f2565b61131a8585858585611a89565b5050505050565b60006105f261132e611b24565b836040517f19010000000000000000000000000000000000000000000000000000000000006020820152602281018390526042810182905260009060620160405160208183030381529060405280519060200120905092915050565b600080600061139b87878787611b9f565b91509150610abb81611c99565b600084815260fe6020526040812060016113c187610b92565b60078111156113d2576113d2613176565b146114455760405162461bcd60e51b815260206004820152602360248201527f476f7665726e6f723a20766f7465206e6f742063757272656e746c792061637460448201527f69766500000000000000000000000000000000000000000000000000000000006064820152608401610726565b6040805160208101909152815467ffffffffffffffff169081905260009061146e9087906111f6565b905061147c87878784611e8a565b8573ffffffffffffffffffffffffffffffffffffffff167fb8e138887d0aa13bab447e82de9d5c1777041ecd21ca36ba824ff1e6c07ddda4888784886040516114c89493929190613038565b60405180910390a29695505050505050565b6000806114e683612060565b905060048160078111156114fc576114fc613176565b146115075792915050565b6000838152610163602052604090205480611523575092915050565b610162546040517f2ab0f5290000000000000000000000000000000000000000000000000000000081526004810183905273ffffffffffffffffffffffffffffffffffffffff90911690632ab0f5299060240160206040518083038186803b15801561158e57600080fd5b505afa1580156115a2573d6000803e3d6000fd5b505050506040513d601f19601f820116820180604052508101906115c69190612a5b565b156115d5575060079392505050565b5060059392505050565b600054610100900460ff16806115f8575060005460ff16155b61166a5760405162461bcd60e51b815260206004820152602e60248201527f496e697469616c697a61626c653a20636f6e747261637420697320616c72656160448201527f647920696e697469616c697a65640000000000000000000000000000000000006064820152608401610726565b600054610100900460ff1615801561168c576000805461ffff19166101011790555b6116946121c7565b61169c6121c7565b6116df826116da60408051808201909152600181527f3100000000000000000000000000000000000000000000000000000000000000602082015290565b612288565b6116e76121c7565b6116f082612369565b8015611702576000805461ff00191690555b5050565b600054610100900460ff168061171f575060005460ff16155b6117915760405162461bcd60e51b815260206004820152602e60248201527f496e697469616c697a61626c653a20636f6e747261637420697320616c72656160448201527f647920696e697469616c697a65640000000000000000000000000000000000006064820152608401610726565b600054610100900460ff161580156117b3576000805461ffff19166101011790555b6117bb6121c7565b6117c36121c7565b6117cb6121c7565b6116f08261243f565b600054610100900460ff16806117ed575060005460ff16155b61185f5760405162461bcd60e51b815260206004820152602e60248201527f496e697469616c697a61626c653a20636f6e747261637420697320616c72656160448201527f647920696e697469616c697a65640000000000000000000000000000000000006064820152608401610726565b600054610100900460ff16158015611881576000805461ffff19166101011790555b6118896121c7565b6118916121c7565b6118996121c7565b6118a16121c7565b6116f082612542565b600067ffffffffffffffff82111561192a5760405162461bcd60e51b815260206004820152602660248201527f53616665436173743a2076616c756520646f65736e27742066697420696e203660448201527f34206269747300000000000000000000000000000000000000000000000000006064820152608401610726565b5090565b60006119506101625473ffffffffffffffffffffffffffffffffffffffff1690565b905090565b610162546040805173ffffffffffffffffffffffffffffffffffffffff928316815291831660208301527f08f74ea46ef7894f65eabfb5e6e695de773a000b47c529ab559178069b226401910160405180910390a161016280547fffffffffffffffffffffffff00000000000000000000000000000000000000001673ffffffffffffffffffffffffffffffffffffffff92909216919091179055565b60007fffffffff0000000000000000000000000000000000000000000000000000000082167fbf26d8970000000000000000000000000000000000000000000000000000000014806105f257507f01ffc9a7000000000000000000000000000000000000000000000000000000007fffffffff000000000000000000000000000000000000000000000000000000008316146105f2565b610162546040517fe38335e500000000000000000000000000000000000000000000000000000000815273ffffffffffffffffffffffffffffffffffffffff9091169063e38335e5903490611aeb908890889088906000908990600401612e3f565b6000604051808303818588803b158015611b0457600080fd5b505af1158015611b18573d6000803e3d6000fd5b50505050505050505050565b60006119507f8b73c3c69bb8fe3d512ecc4cf759cc79239f7b179b0ffacaa9a75d522b39400f611b5360655490565b6066546040805160208101859052908101839052606081018290524660808201523060a082015260009060c0016040516020818303038152906040528051906020012090509392505050565b6000807f7fffffffffffffffffffffffffffffff5d576e7357a4501ddfe92f46681b20a0831115611bd65750600090506003611c90565b8460ff16601b14158015611bee57508460ff16601c14155b15611bff5750600090506004611c90565b6040805160008082526020820180845289905260ff881692820192909252606081018690526080810185905260019060a0016020604051602081039080840390855afa158015611c53573d6000803e3d6000fd5b5050604051601f19015191505073ffffffffffffffffffffffffffffffffffffffff8116611c8957600060019250925050611c90565b9150600090505b94509492505050565b6000816004811115611cad57611cad613176565b1415611cb65750565b6001816004811115611cca57611cca613176565b1415611d185760405162461bcd60e51b815260206004820152601860248201527f45434453413a20696e76616c6964207369676e617475726500000000000000006044820152606401610726565b6002816004811115611d2c57611d2c613176565b1415611d7a5760405162461bcd60e51b815260206004820152601f60248201527f45434453413a20696e76616c6964207369676e6174757265206c656e677468006044820152606401610726565b6003816004811115611d8e57611d8e613176565b1415611e025760405162461bcd60e51b815260206004820152602260248201527f45434453413a20696e76616c6964207369676e6174757265202773272076616c60448201527f75650000000000000000000000000000000000000000000000000000000000006064820152608401610726565b6004816004811115611e1657611e16613176565b14156110b75760405162461bcd60e51b815260206004820152602260248201527f45434453413a20696e76616c6964207369676e6174757265202776272076616c60448201527f75650000000000000000000000000000000000000000000000000000000000006064820152608401610726565b60008481526101306020908152604080832073ffffffffffffffffffffffffffffffffffffffff87168452600381019092529091205460ff1615611f365760405162461bcd60e51b815260206004820152602760248201527f476f7665726e6f72566f74696e6753696d706c653a20766f746520616c72656160448201527f64792063617374000000000000000000000000000000000000000000000000006064820152608401610726565b73ffffffffffffffffffffffffffffffffffffffff84166000908152600382016020526040812080547fffffffffffffffffffffffffffffffffffffffffffffffffffffffffffffff0016600117905560ff168360ff161415611fb25781816000016000828254611fa791906130b5565b9091555061131a9050565b60ff831660011415611fd25781816001016000828254611fa791906130b5565b60ff831660021415611ff25781816002016000828254611fa791906130b5565b60405162461bcd60e51b815260206004820152603560248201527f476f7665726e6f72566f74696e6753696d706c653a20696e76616c696420766160448201527f6c756520666f7220656e756d20566f74655479706500000000000000000000006064820152608401610726565b600081815260fe60209081526040808320815160a081018352815467ffffffffffffffff9081166080830190815282528351808601855260018401549091168152938101939093526002015460ff8082161580159385019390935261010090910416151560608301526120d65750600792915050565b8060600151156120e95750600292915050565b8051514367ffffffffffffffff90911611156121085750600092915050565b6020810151514367ffffffffffffffff909116111561212a5750600192915050565b61213781602001516125f8565b156121795761214583612629565b801561216557506000838152610130602052604090208054600190910154115b612170576003611185565b60049392505050565b60405162461bcd60e51b815260206004820152601d60248201527f476f7665726e6f723a20756e6b6e6f776e2070726f706f73616c2069640000006044820152606401610726565b50919050565b600054610100900460ff16806121e0575060005460ff16155b6122525760405162461bcd60e51b815260206004820152602e60248201527f496e697469616c697a61626c653a20636f6e747261637420697320616c72656160448201527f647920696e697469616c697a65640000000000000000000000000000000000006064820152608401610726565b600054610100900460ff16158015612274576000805461ffff19166101011790555b80156110b7576000805461ff001916905550565b600054610100900460ff16806122a1575060005460ff16155b6123135760405162461bcd60e51b815260206004820152602e60248201527f496e697469616c697a61626c653a20636f6e747261637420697320616c72656160448201527f647920696e697469616c697a65640000000000000000000000000000000000006064820152608401610726565b600054610100900460ff16158015612335576000805461ffff19166101011790555b82516020808501919091208351918401919091206065919091556066558015612364576000805461ff00191690555b505050565b600054610100900460ff1680612382575060005460ff16155b6123f45760405162461bcd60e51b815260206004820152602e60248201527f496e697469616c697a61626c653a20636f6e747261637420697320616c72656160448201527f647920696e697469616c697a65640000000000000000000000000000000000006064820152608401610726565b600054610100900460ff16158015612416576000805461ffff19166101011790555b81516124299060fd906020850190612661565b508015611702576000805461ff00191690555050565b600054610100900460ff1680612458575060005460ff16155b6124ca5760405162461bcd60e51b815260206004820152602e60248201527f496e697469616c697a61626c653a20636f6e747261637420697320616c72656160448201527f647920696e697469616c697a65640000000000000000000000000000000000006064820152608401610726565b600054610100900460ff161580156124ec576000805461ffff19166101011790555b61012f80547fffffffffffffffffffffffff00000000000000000000000000000000000000001673ffffffffffffffffffffffffffffffffffffffff84161790558015611702576000805461ff00191690555050565b600054610100900460ff168061255b575060005460ff16155b6125cd5760405162461bcd60e51b815260206004820152602e60248201527f496e697469616c697a61626c653a20636f6e747261637420697320616c72656160448201527f647920696e697469616c697a65640000000000000000000000000000000000006064820152608401610726565b600054610100900460ff161580156125ef576000805461ffff19166101011790555b6116f082611955565b600061260e825167ffffffffffffffff16151590565b80156105f2575050514367ffffffffffffffff909116111590565b6000818152610130602052604081206002810154600182015461264c91906130b5565b6126586105b385610ac5565b11159392505050565b82805461266d906130f9565b90600052602060002090601f01602090048101928261268f57600085556126d5565b82601f106126a857805160ff19168380011785556126d5565b828001600101855582156126d5579182015b828111156126d55782518255916020019190600101906126ba565b5061192a9291505b8082111561192a57600081556001016126dd565b600067ffffffffffffffff83111561270b5761270b6131a5565b61271e6020601f19601f86011601613060565b905082815283838301111561273257600080fd5b828260208301376000602084830101529392505050565b600082601f83011261275a57600080fd5b8135602061276f61276a83613091565b613060565b80838252828201915082860187848660051b890101111561278f57600080fd5b60005b858110156127b75781356127a5816131d4565b84529284019290840190600101612792565b5090979650505050505050565b600082601f8301126127d557600080fd5b813560206127e561276a83613091565b80838252828201915082860187848660051b890101111561280557600080fd5b60005b858110156127b757813567ffffffffffffffff81111561282757600080fd5b8801603f81018a1361283857600080fd5b6128498a87830135604084016126f1565b8552509284019290840190600101612808565b600082601f83011261286d57600080fd5b8135602061287d61276a83613091565b80838252828201915082860187848660051b890101111561289d57600080fd5b60005b858110156127b7578135845292840192908401906001016128a0565b600082601f8301126128cd57600080fd5b611185838335602085016126f1565b803560ff811681146128ed57600080fd5b919050565b6000806040838503121561290557600080fd5b8235612910816131d4565b946020939093013593505050565b6000806000806080858703121561293457600080fd5b843567ffffffffffffffff8082111561294c57600080fd5b61295888838901612749565b9550602087013591508082111561296e57600080fd5b61297a8883890161285c565b9450604087013591508082111561299057600080fd5b5061299d878288016127c4565b949793965093946060013593505050565b600080600080608085870312156129c457600080fd5b843567ffffffffffffffff808211156129dc57600080fd5b6129e888838901612749565b955060208701359150808211156129fe57600080fd5b612a0a8883890161285c565b94506040870135915080821115612a2057600080fd5b612a2c888389016127c4565b93506060870135915080821115612a4257600080fd5b50612a4f878288016128bc565b91505092959194509250565b600060208284031215612a6d57600080fd5b8151801515811461118557600080fd5b600060208284031215612a8f57600080fd5b5051919050565b600060208284031215612aa857600080fd5b81357fffffffff000000000000000000000000000000000000000000000000000000008116811461118557600080fd5b600060208284031215612aea57600080fd5b8135611185816131d4565b600080600060608486031215612b0a57600080fd5b833567ffffffffffffffff811115612b2157600080fd5b612b2d868287016128bc565b9350506020840135612b3e816131d4565b91506040840135612b4e816131d4565b809150509250925092565b600060208284031215612b6b57600080fd5b5035919050565b60008060408385031215612b8557600080fd5b823591506020830135612b97816131d4565b809150509250929050565b60008060408385031215612bb557600080fd5b82359150612bc5602084016128dc565b90509250929050565b60008060008060608587031215612be457600080fd5b84359350612bf4602086016128dc565b9250604085013567ffffffffffffffff80821115612c1157600080fd5b818701915087601f830112612c2557600080fd5b813581811115612c3457600080fd5b886020828501011115612c4657600080fd5b95989497505060200194505050565b600080600080600060a08688031215612c6d57600080fd5b85359450612c7d602087016128dc565b9350612c8b604087016128dc565b94979396509394606081013594506080013592915050565b600060208284031215612cb557600080fd5b81516bffffffffffffffffffffffff8116811461118557600080fd5b600081518084526020808501945080840160005b83811015612d1757815173ffffffffffffffffffffffffffffffffffffffff1687529582019590820190600101612ce5565b509495945050505050565b600081518084526020808501808196508360051b8101915082860160005b85811015612d6a578284038952612d58848351612da7565b98850198935090840190600101612d40565b5091979650505050505050565b600081518084526020808501945080840160005b83811015612d1757815187529582019590820190600101612d8b565b6000815180845260005b81811015612dcd57602081850181015186830182015201612db1565b81811115612ddf576000602083870101525b50601f01601f19169290920160200192915050565b608081526000612e076080830187612cd1565b8281036020840152612e198187612d77565b90508281036040840152612e2d8186612d22565b91505082606083015295945050505050565b60a081526000612e5260a0830188612cd1565b8281036020840152612e648188612d77565b90508281036040840152612e788187612d22565b60608401959095525050608001529392505050565b60c081526000612ea060c0830189612cd1565b8281036020840152612eb28189612d77565b90508281036040840152612ec68188612d22565b60608401969096525050608081019290925260a0909101529392505050565b6020810160088310612f20577f4e487b7100000000000000000000000000000000000000000000000000000000600052602160045260246000fd5b91905290565b6020815260006111856020830184612da7565b60006101208b8352602073ffffffffffffffffffffffffffffffffffffffff8c1681850152816040850152612f708285018c612cd1565b91508382036060850152612f84828b612d77565b915083820360808501528189518084528284019150828160051b850101838c0160005b83811015612fd557601f19878403018552612fc3838351612da7565b94860194925090850190600101612fa7565b505086810360a0880152612fe9818c612d22565b94505050505061300560c084018767ffffffffffffffff169052565b67ffffffffffffffff851660e08401528281036101008401526130288185612da7565b9c9b505050505050505050505050565b84815260ff84166020820152826040820152608060608201526000610cee6080830184612da7565b604051601f8201601f1916810167ffffffffffffffff81118282101715613089576130896131a5565b604052919050565b600067ffffffffffffffff8211156130ab576130ab6131a5565b5060051b60200190565b600082198211156130c8576130c8613147565b500190565b600067ffffffffffffffff8083168185168083038211156130f0576130f0613147565b01949350505050565b600181811c9082168061310d57607f821691505b602082108114156121c1577f4e487b7100000000000000000000000000000000000000000000000000000000600052602260045260246000fd5b7f4e487b7100000000000000000000000000000000000000000000000000000000600052601160045260246000fd5b7f4e487b7100000000000000000000000000000000000000000000000000000000600052602160045260246000fd5b7f4e487b7100000000000000000000000000000000000000000000000000000000600052604160045260246000fd5b73ffffffffffffffffffffffffffffffffffffffff811681146110b757600080fdfea2646970667358221220abac5739fa223efaf40b833b51adf9acac2fd7c32a2d996bb4b1d9fdce66766b64736f6c63430008060033",
  "linkReferences": {},
  "deployedLinkReferences": {}
}