{
  "_format": "hh-sol-artifact-1",
  "contractName": "ERC721Governor",
  "sourceName": "contracts/ERC721Governor.sol",
  "abi": [
    {
      "anonymous": false,
      "inputs": [
        {
          "indexed": false,
          "internalType": "uint256",
          "name": "proposalId",
          "type": "uint256"
        }
      ],
      "name": "ProposalCanceled",
      "type": "event"
    },
    {
      "anonymous": false,
      "inputs": [
        {
          "indexed": false,
          "internalType": "uint256",
          "name": "proposalId",
          "type": "uint256"
        },
        {
          "indexed": false,
          "internalType": "address",
          "name": "proposer",
          "type": "address"
        },
        {
          "indexed": false,
          "internalType": "address[]",
          "name": "targets",
          "type": "address[]"
        },
        {
          "indexed": false,
          "internalType": "uint256[]",
          "name": "values",
          "type": "uint256[]"
        },
        {
          "indexed": false,
          "internalType": "string[]",
          "name": "signatures",
          "type": "string[]"
        },
        {
          "indexed": false,
          "internalType": "bytes[]",
          "name": "calldatas",
          "type": "bytes[]"
        },
        {
          "indexed": false,
          "internalType": "uint256",
          "name": "startBlock",
          "type": "uint256"
        },
        {
          "indexed": false,
          "internalType": "uint256",
          "name": "endBlock",
          "type": "uint256"
        },
        {
          "indexed": false,
          "internalType": "string",
          "name": "description",
          "type": "string"
        }
      ],
      "name": "ProposalCreated",
      "type": "event"
    },
    {
      "anonymous": false,
      "inputs": [
        {
          "indexed": false,
          "internalType": "uint256",
          "name": "proposalId",
          "type": "uint256"
        }
      ],
      "name": "ProposalExecuted",
      "type": "event"
    },
    {
      "anonymous": false,
      "inputs": [
        {
          "indexed": false,
          "internalType": "uint256",
          "name": "proposalId",
          "type": "uint256"
        },
        {
          "indexed": false,
          "internalType": "uint256",
          "name": "eta",
          "type": "uint256"
        }
      ],
      "name": "ProposalQueued",
      "type": "event"
    },
    {
      "anonymous": false,
      "inputs": [
        {
          "indexed": false,
          "internalType": "address",
          "name": "oldTimelock",
          "type": "address"
        },
        {
          "indexed": false,
          "internalType": "address",
          "name": "newTimelock",
          "type": "address"
        }
      ],
      "name": "TimelockChange",
      "type": "event"
    },
    {
      "anonymous": false,
      "inputs": [
        {
          "indexed": true,
          "internalType": "address",
          "name": "voter",
          "type": "address"
        },
        {
          "indexed": false,
          "internalType": "uint256",
          "name": "proposalId",
          "type": "uint256"
        },
        {
          "indexed": false,
          "internalType": "uint8",
          "name": "support",
          "type": "uint8"
        },
        {
          "indexed": false,
          "internalType": "uint256",
          "name": "weight",
          "type": "uint256"
        },
        {
          "indexed": false,
          "internalType": "string",
          "name": "reason",
          "type": "string"
        }
      ],
      "name": "VoteCast",
      "type": "event"
    },
    {
      "inputs": [],
      "name": "BALLOT_TYPEHASH",
      "outputs": [
        {
          "internalType": "bytes32",
          "name": "",
          "type": "bytes32"
        }
      ],
      "stateMutability": "view",
      "type": "function"
    },
    {
      "inputs": [],
      "name": "COUNTING_MODE",
      "outputs": [
        {
          "internalType": "string",
          "name": "",
          "type": "string"
        }
      ],
      "stateMutability": "pure",
      "type": "function"
    },
    {
      "inputs": [
        {
          "internalType": "uint256",
          "name": "proposalId",
          "type": "uint256"
        },
        {
          "internalType": "uint8",
          "name": "support",
          "type": "uint8"
        }
      ],
      "name": "castVote",
      "outputs": [
        {
          "internalType": "uint256",
          "name": "",
          "type": "uint256"
        }
      ],
      "stateMutability": "nonpayable",
      "type": "function"
    },
    {
      "inputs": [
        {
          "internalType": "uint256",
          "name": "proposalId",
          "type": "uint256"
        },
        {
          "internalType": "uint8",
          "name": "support",
          "type": "uint8"
        },
        {
          "internalType": "uint8",
          "name": "v",
          "type": "uint8"
        },
        {
          "internalType": "bytes32",
          "name": "r",
          "type": "bytes32"
        },
        {
          "internalType": "bytes32",
          "name": "s",
          "type": "bytes32"
        }
      ],
      "name": "castVoteBySig",
      "outputs": [
        {
          "internalType": "uint256",
          "name": "",
          "type": "uint256"
        }
      ],
      "stateMutability": "nonpayable",
      "type": "function"
    },
    {
      "inputs": [
        {
          "internalType": "uint256",
          "name": "proposalId",
          "type": "uint256"
        },
        {
          "internalType": "uint8",
          "name": "support",
          "type": "uint8"
        },
        {
          "internalType": "string",
          "name": "reason",
          "type": "string"
        }
      ],
      "name": "castVoteWithReason",
      "outputs": [
        {
          "internalType": "uint256",
          "name": "",
          "type": "uint256"
        }
      ],
      "stateMutability": "nonpayable",
      "type": "function"
    },
    {
      "inputs": [
        {
          "internalType": "address[]",
          "name": "targets",
          "type": "address[]"
        },
        {
          "internalType": "uint256[]",
          "name": "values",
          "type": "uint256[]"
        },
        {
          "internalType": "bytes[]",
          "name": "calldatas",
          "type": "bytes[]"
        },
        {
          "internalType": "bytes32",
          "name": "descriptionHash",
          "type": "bytes32"
        }
      ],
      "name": "execute",
      "outputs": [
        {
          "internalType": "uint256",
          "name": "",
          "type": "uint256"
        }
      ],
      "stateMutability": "payable",
      "type": "function"
    },
    {
      "inputs": [
        {
          "internalType": "address",
          "name": "account",
          "type": "address"
        },
        {
          "internalType": "uint256",
          "name": "blockNumber",
          "type": "uint256"
        }
      ],
      "name": "getVotes",
      "outputs": [
        {
          "internalType": "uint256",
          "name": "",
          "type": "uint256"
        }
      ],
      "stateMutability": "view",
      "type": "function"
    },
    {
      "inputs": [
        {
          "internalType": "uint256",
          "name": "proposalId",
          "type": "uint256"
        },
        {
          "internalType": "address",
          "name": "account",
          "type": "address"
        }
      ],
      "name": "hasVoted",
      "outputs": [
        {
          "internalType": "bool",
          "name": "",
          "type": "bool"
        }
      ],
      "stateMutability": "view",
      "type": "function"
    },
    {
      "inputs": [
        {
          "internalType": "address[]",
          "name": "targets",
          "type": "address[]"
        },
        {
          "internalType": "uint256[]",
          "name": "values",
          "type": "uint256[]"
        },
        {
          "internalType": "bytes[]",
          "name": "calldatas",
          "type": "bytes[]"
        },
        {
          "internalType": "bytes32",
          "name": "descriptionHash",
          "type": "bytes32"
        }
      ],
      "name": "hashProposal",
      "outputs": [
        {
          "internalType": "uint256",
          "name": "",
          "type": "uint256"
        }
      ],
      "stateMutability": "pure",
      "type": "function"
    },
    {
      "inputs": [
        {
          "internalType": "string",
          "name": "name_",
          "type": "string"
        },
        {
          "internalType": "contract ERC721DAOToken",
          "name": "token_",
          "type": "address"
        },
        {
          "internalType": "contract TimelockControllerUpgradeable",
          "name": "timelockAddress",
          "type": "address"
        },
        {
          "internalType": "uint256",
          "name": "votingDelay_",
          "type": "uint256"
        },
        {
          "internalType": "uint256",
          "name": "votingPeriod_",
          "type": "uint256"
        }
      ],
      "name": "initialize",
      "outputs": [],
      "stateMutability": "nonpayable",
      "type": "function"
    },
    {
      "inputs": [],
      "name": "name",
      "outputs": [
        {
          "internalType": "string",
          "name": "",
          "type": "string"
        }
      ],
      "stateMutability": "view",
      "type": "function"
    },
    {
      "inputs": [
        {
          "internalType": "uint256",
          "name": "proposalId",
          "type": "uint256"
        }
      ],
      "name": "proposalDeadline",
      "outputs": [
        {
          "internalType": "uint256",
          "name": "",
          "type": "uint256"
        }
      ],
      "stateMutability": "view",
      "type": "function"
    },
    {
      "inputs": [
        {
          "internalType": "uint256",
          "name": "proposalId",
          "type": "uint256"
        }
      ],
      "name": "proposalEta",
      "outputs": [
        {
          "internalType": "uint256",
          "name": "",
          "type": "uint256"
        }
      ],
      "stateMutability": "view",
      "type": "function"
    },
    {
      "inputs": [
        {
          "internalType": "uint256",
          "name": "proposalId",
          "type": "uint256"
        }
      ],
      "name": "proposalSnapshot",
      "outputs": [
        {
          "internalType": "uint256",
          "name": "",
          "type": "uint256"
        }
      ],
      "stateMutability": "view",
      "type": "function"
    },
    {
      "inputs": [
        {
          "internalType": "uint256",
          "name": "proposalId",
          "type": "uint256"
        }
      ],
      "name": "proposalVotes",
      "outputs": [
        {
          "internalType": "uint256",
          "name": "againstVotes",
          "type": "uint256"
        },
        {
          "internalType": "uint256",
          "name": "forVotes",
          "type": "uint256"
        },
        {
          "internalType": "uint256",
          "name": "abstainVotes",
          "type": "uint256"
        }
      ],
      "stateMutability": "view",
      "type": "function"
    },
    {
      "inputs": [
        {
          "internalType": "address[]",
          "name": "targets",
          "type": "address[]"
        },
        {
          "internalType": "uint256[]",
          "name": "values",
          "type": "uint256[]"
        },
        {
          "internalType": "bytes[]",
          "name": "calldatas",
          "type": "bytes[]"
        },
        {
          "internalType": "string",
          "name": "description",
          "type": "string"
        }
      ],
      "name": "propose",
      "outputs": [
        {
          "internalType": "uint256",
          "name": "",
          "type": "uint256"
        }
      ],
      "stateMutability": "nonpayable",
      "type": "function"
    },
    {
      "inputs": [
        {
          "internalType": "address[]",
          "name": "targets",
          "type": "address[]"
        },
        {
          "internalType": "uint256[]",
          "name": "values",
          "type": "uint256[]"
        },
        {
          "internalType": "bytes[]",
          "name": "calldatas",
          "type": "bytes[]"
        },
        {
          "internalType": "bytes32",
          "name": "descriptionHash",
          "type": "bytes32"
        }
      ],
      "name": "queue",
      "outputs": [
        {
          "internalType": "uint256",
          "name": "",
          "type": "uint256"
        }
      ],
      "stateMutability": "nonpayable",
      "type": "function"
    },
    {
      "inputs": [
        {
          "internalType": "uint256",
          "name": "blockNumber",
          "type": "uint256"
        }
      ],
      "name": "quorum",
      "outputs": [
        {
          "internalType": "uint256",
          "name": "",
          "type": "uint256"
        }
      ],
      "stateMutability": "view",
      "type": "function"
    },
    {
      "inputs": [
        {
          "internalType": "uint256",
          "name": "proposalId",
          "type": "uint256"
        }
      ],
      "name": "state",
      "outputs": [
        {
          "internalType": "enum IGovernorUpgradeable.ProposalState",
          "name": "",
          "type": "uint8"
        }
      ],
      "stateMutability": "view",
      "type": "function"
    },
    {
      "inputs": [
        {
          "internalType": "bytes4",
          "name": "interfaceId",
          "type": "bytes4"
        }
      ],
      "name": "supportsInterface",
      "outputs": [
        {
          "internalType": "bool",
          "name": "",
          "type": "bool"
        }
      ],
      "stateMutability": "view",
      "type": "function"
    },
    {
      "inputs": [],
      "name": "timelock",
      "outputs": [
        {
          "internalType": "address",
          "name": "",
          "type": "address"
        }
      ],
      "stateMutability": "view",
      "type": "function"
    },
    {
      "inputs": [],
      "name": "token",
      "outputs": [
        {
          "internalType": "contract ERC721DAOToken",
          "name": "",
          "type": "address"
        }
      ],
      "stateMutability": "view",
      "type": "function"
    },
    {
      "inputs": [
        {
          "internalType": "contract TimelockControllerUpgradeable",
          "name": "newTimelock",
          "type": "address"
        }
      ],
      "name": "updateTimelock",
      "outputs": [],
      "stateMutability": "nonpayable",
      "type": "function"
    },
    {
      "inputs": [],
      "name": "version",
      "outputs": [
        {
          "internalType": "string",
          "name": "",
          "type": "string"
        }
      ],
      "stateMutability": "view",
      "type": "function"
    },
    {
      "inputs": [],
      "name": "votingDelay",
      "outputs": [
        {
          "internalType": "uint256",
          "name": "",
          "type": "uint256"
        }
      ],
      "stateMutability": "view",
      "type": "function"
    },
    {
      "inputs": [],
      "name": "votingPeriod",
      "outputs": [
        {
          "internalType": "uint256",
          "name": "",
          "type": "uint256"
        }
      ],
      "stateMutability": "view",
      "type": "function"
    }
  ],
  "bytecode": "0x608060405234801561001057600080fd5b50613247806100206000396000f3fe6080604052600436106101a15760003560e01c80637b3c71d3116100e1578063c59057e41161008a578063deaaa7cc11610064578063deaaa7cc1461055c578063eb9019d414610590578063f8ce560a146105b0578063fc0c546a146105d157600080fd5b8063c59057e4146104a9578063d33219b4146104c9578063dd4e2ba51461051657600080fd5b8063ab58fb8e116100bb578063ab58fb8e14610449578063b2f36b5b14610469578063c01f9e371461048957600080fd5b80637b3c71d3146103e75780637d5e81e214610407578063a890c9101461042757600080fd5b80633932abb11161014e578063438596321161012857806343859632146102d3578063544ffc9c1461032b57806354fd4d501461038157806356781388146103c757600080fd5b80633932abb1146102705780633bccf4fd146102865780633e4f49e6146102a657600080fd5b8063160cbed71161017f578063160cbed71461021d5780632656227d1461023d5780632d63f6931461025057600080fd5b806301ffc9a7146101a657806302a251a3146101db57806306fdde03146101fb575b600080fd5b3480156101b257600080fd5b506101c66101c1366004612ac9565b6105ff565b60405190151581526020015b60405180910390f35b3480156101e757600080fd5b50610195545b6040519081526020016101d2565b34801561020757600080fd5b50610210610610565b6040516101d29190612f41565b34801561022957600080fd5b506101ed610238366004612951565b6106a2565b6101ed61024b366004612951565b610991565b34801561025c57600080fd5b506101ed61026b366004612b9c565b610add565b34801561027c57600080fd5b50610194546101ed565b34801561029257600080fd5b506101ed6102a1366004612c98565b610b16565b3480156102b257600080fd5b506102c66102c1366004612b9c565b610baa565b6040516101d29190612f00565b3480156102df57600080fd5b506101c66102ee366004612bb5565b60008281526101306020908152604080832073ffffffffffffffffffffffffffffffffffffffff8516845260030190915290205460ff1692915050565b34801561033757600080fd5b50610366610346366004612b9c565b600090815261013060205260409020805460018201546002909201549092565b604080519384526020840192909252908201526060016101d2565b34801561038d57600080fd5b5060408051808201909152600181527f31000000000000000000000000000000000000000000000000000000000000006020820152610210565b3480156103d357600080fd5b506101ed6103e2366004612be5565b610bb5565b3480156103f357600080fd5b506101ed610402366004612c11565b610bde565b34801561041357600080fd5b506101ed6104223660046129e1565b610c30565b34801561043357600080fd5b50610447610442366004612b0b565b610f71565b005b34801561045557600080fd5b506101ed610464366004612b9c565b610fff565b34801561047557600080fd5b50610447610484366004612b28565b6110d1565b34801561049557600080fd5b506101ed6104a4366004612b9c565b6111bf565b3480156104b557600080fd5b506101ed6104c4366004612951565b6111ef565b3480156104d557600080fd5b506101625473ffffffffffffffffffffffffffffffffffffffff165b60405173ffffffffffffffffffffffffffffffffffffffff90911681526020016101d2565b34801561052257600080fd5b506040805180820190915260208082527f737570706f72743d627261766f2671756f72756d3d666f722c6162737461696e90820152610210565b34801561056857600080fd5b506101ed7f150214d74d59b7d1e90c73fc22ef3d991dd0a76b046543d4d80ab92d2a50328f81565b34801561059c57600080fd5b506101ed6105ab366004612925565b611229565b3480156105bc57600080fd5b506101ed6105cb366004612b9c565b50600090565b3480156105dd57600080fd5b5061012f546104f19073ffffffffffffffffffffffffffffffffffffffff1681565b600061060a826112ea565b92915050565b606060fd805461061f90613114565b80601f016020809104026020016040519081016040528092919081815260200182805461064b90613114565b80156106985780601f1061066d57610100808354040283529160200191610698565b820191906000526020600020905b81548152906001019060200180831161067b57829003601f168201915b5050505050905090565b6000806106b1868686866111ef565b905060046106be82610baa565b60078111156106cf576106cf613191565b146107475760405162461bcd60e51b815260206004820152602160248201527f476f7665726e6f723a2070726f706f73616c206e6f742073756363657373667560448201527f6c0000000000000000000000000000000000000000000000000000000000000060648201526084015b60405180910390fd5b61016254604080517ff27a0c92000000000000000000000000000000000000000000000000000000008152905160009273ffffffffffffffffffffffffffffffffffffffff169163f27a0c92916004808301926020929190829003018186803b1580156107b357600080fd5b505afa1580156107c7573d6000803e3d6000fd5b505050506040513d601f19601f820116820180604052508101906107eb9190612ab0565b610162546040517fb1c5f42700000000000000000000000000000000000000000000000000000000815291925073ffffffffffffffffffffffffffffffffffffffff169063b1c5f4279061084c908a908a908a906000908b90600401612e5a565b60206040518083038186803b15801561086457600080fd5b505afa158015610878573d6000803e3d6000fd5b505050506040513d601f19601f8201168201806040525081019061089c9190612ab0565b60008381526101636020526040808220929092556101625491517f8f2a0bb000000000000000000000000000000000000000000000000000000000815273ffffffffffffffffffffffffffffffffffffffff90921691638f2a0bb09161090f918b918b918b91908b908990600401612ea8565b600060405180830381600087803b15801561092957600080fd5b505af115801561093d573d6000803e3d6000fd5b505050507f9a2e42fd6722813d69113e7d0079d3d940171428df7373df9c7f7617cfda289282824261096f91906130d0565b6040805192835260208301919091520160405180910390a15095945050505050565b6000806109a0868686866111ef565b905060006109ad82610baa565b905060048160078111156109c3576109c3613191565b14806109e0575060058160078111156109de576109de613191565b145b610a525760405162461bcd60e51b815260206004820152602160248201527f476f7665726e6f723a2070726f706f73616c206e6f742073756363657373667560448201527f6c00000000000000000000000000000000000000000000000000000000000000606482015260840161073e565b600082815260fe60205260409081902060020180547fffffffffffffffffffffffffffffffffffffffffffffffffffffffffffffff00166001179055517f712ae1383f79ac853f8d882153778e0260ef8f03b504e2866e0593e04d2b291f90610abe9084815260200190565b60405180910390a1610ad38288888888611340565b5095945050505050565b600081815260fe6020908152604080832081519283019091525467ffffffffffffffff16908190525b67ffffffffffffffff1692915050565b604080517f150214d74d59b7d1e90c73fc22ef3d991dd0a76b046543d4d80ab92d2a50328f602082015290810186905260ff851660608201526000908190610b8290610b7a9060800160405160208183030381529060405280519060200120611354565b8686866113bd565b9050610b9f878288604051806020016040528060008152506113db565b979650505050505050565b600061060a8261150d565b600080339050610bd6848285604051806020016040528060008152506113db565b949350505050565b600080339050610c2686828787878080601f0160208091040260200160405190810160405280939291908181526020018383808284376000920191909152506113db92505050565b9695505050505050565b600080610c4686868686805190602001206111ef565b90508451865114610cbf5760405162461bcd60e51b815260206004820152602160248201527f476f7665726e6f723a20696e76616c69642070726f706f73616c206c656e677460448201527f6800000000000000000000000000000000000000000000000000000000000000606482015260840161073e565b8351865114610d365760405162461bcd60e51b815260206004820152602160248201527f476f7665726e6f723a20696e76616c69642070726f706f73616c206c656e677460448201527f6800000000000000000000000000000000000000000000000000000000000000606482015260840161073e565b6000865111610d875760405162461bcd60e51b815260206004820152601860248201527f476f7665726e6f723a20656d7074792070726f706f73616c0000000000000000604482015260640161073e565b600081815260fe60209081526040918290208251918201909252815467ffffffffffffffff169081905215610e245760405162461bcd60e51b815260206004820152602160248201527f476f7665726e6f723a2070726f706f73616c20616c726561647920657869737460448201527f7300000000000000000000000000000000000000000000000000000000000000606482015260840161073e565b6000610e38610e336101945490565b611612565b610e4143611612565b610e4b91906130e8565b90506000610e5c610e336101955490565b610e6690836130e8565b83547fffffffffffffffffffffffffffffffffffffffffffffffff00000000000000001667ffffffffffffffff841617845590506001830180547fffffffffffffffffffffffffffffffffffffffffffffffff00000000000000001667ffffffffffffffff83161790557f7d84a6263ae0d98d3329bd7b46bb4e8d6f98cd35a7adb45c274c8b7fd5ebd5e084338b8b8d5167ffffffffffffffff811115610f0f57610f0f6131c0565b604051908082528060200260200182016040528015610f4257816020015b6060815260200190600190039081610f2d5790505b508c88888e604051610f5c99989796959493929190612f54565b60405180910390a15091979650505050505050565b610f79611696565b73ffffffffffffffffffffffffffffffffffffffff163373ffffffffffffffffffffffffffffffffffffffff1614610ff35760405162461bcd60e51b815260206004820152601860248201527f476f7665726e6f723a206f6e6c79476f7665726e616e63650000000000000000604482015260640161073e565b610ffc816116bd565b50565b61016254600082815261016360205260408082205490517fd45c443500000000000000000000000000000000000000000000000000000000815260048101919091529091829173ffffffffffffffffffffffffffffffffffffffff9091169063d45c44359060240160206040518083038186803b15801561107f57600080fd5b505afa158015611093573d6000803e3d6000fd5b505050506040513d601f19601f820116820180604052508101906110b79190612ab0565b9050806001146110c757806110ca565b60005b9392505050565b600054610100900460ff16806110ea575060005460ff16155b61115c5760405162461bcd60e51b815260206004820152602e60248201527f496e697469616c697a61626c653a20636f6e747261637420697320616c72656160448201527f647920696e697469616c697a6564000000000000000000000000000000000000606482015260840161073e565b600054610100900460ff1615801561117e576000805461ffff19166101011790555b6111878661175a565b61119085611881565b6111998461194f565b61019483905561019582905580156111b7576000805461ff00191690555b505050505050565b600081815260fe6020908152604080832081519283019091526001015467ffffffffffffffff1690819052610b06565b6000848484846040516020016112089493929190612e0f565b60408051601f19818403018152919052805160209091012095945050505050565b61012f546040517f782d6fe100000000000000000000000000000000000000000000000000000000815273ffffffffffffffffffffffffffffffffffffffff848116600483015260248201849052600092169063782d6fe19060440160206040518083038186803b15801561129d57600080fd5b505afa1580156112b1573d6000803e3d6000fd5b505050506040513d601f19601f820116820180604052508101906112d59190612cce565b6bffffffffffffffffffffffff169392505050565b60007fffffffff0000000000000000000000000000000000000000000000000000000082167f6e665ced00000000000000000000000000000000000000000000000000000000148061060a575061060a82611a25565b61134d8585858585611abc565b5050505050565b600061060a611361611b57565b836040517f19010000000000000000000000000000000000000000000000000000000000006020820152602281018390526042810182905260009060620160405160208183030381529060405280519060200120905092915050565b60008060006113ce87878787611bd2565b91509150610ad381611ccc565b600084815260fe6020526040812060016113f487610baa565b600781111561140557611405613191565b146114785760405162461bcd60e51b815260206004820152602360248201527f476f7665726e6f723a20766f7465206e6f742063757272656e746c792061637460448201527f6976650000000000000000000000000000000000000000000000000000000000606482015260840161073e565b6040805160208101909152815467ffffffffffffffff16908190526000906114a1908790611229565b90506114af87878784611ebd565b8573ffffffffffffffffffffffffffffffffffffffff167fb8e138887d0aa13bab447e82de9d5c1777041ecd21ca36ba824ff1e6c07ddda4888784886040516114fb9493929190613053565b60405180910390a29695505050505050565b60008061151983612093565b9050600481600781111561152f5761152f613191565b1461153a5792915050565b6000838152610163602052604090205480611556575092915050565b610162546040517f2ab0f5290000000000000000000000000000000000000000000000000000000081526004810183905273ffffffffffffffffffffffffffffffffffffffff90911690632ab0f5299060240160206040518083038186803b1580156115c157600080fd5b505afa1580156115d5573d6000803e3d6000fd5b505050506040513d601f19601f820116820180604052508101906115f99190612a8e565b15611608575060079392505050565b5060059392505050565b600067ffffffffffffffff8211156116925760405162461bcd60e51b815260206004820152602660248201527f53616665436173743a2076616c756520646f65736e27742066697420696e203660448201527f3420626974730000000000000000000000000000000000000000000000000000606482015260840161073e565b5090565b60006116b86101625473ffffffffffffffffffffffffffffffffffffffff1690565b905090565b610162546040805173ffffffffffffffffffffffffffffffffffffffff928316815291831660208301527f08f74ea46ef7894f65eabfb5e6e695de773a000b47c529ab559178069b226401910160405180910390a161016280547fffffffffffffffffffffffff00000000000000000000000000000000000000001673ffffffffffffffffffffffffffffffffffffffff92909216919091179055565b600054610100900460ff1680611773575060005460ff16155b6117e55760405162461bcd60e51b815260206004820152602e60248201527f496e697469616c697a61626c653a20636f6e747261637420697320616c72656160448201527f647920696e697469616c697a6564000000000000000000000000000000000000606482015260840161073e565b600054610100900460ff16158015611807576000805461ffff19166101011790555b61180f6121fa565b6118176121fa565b61185a8261185560408051808201909152600181527f3100000000000000000000000000000000000000000000000000000000000000602082015290565b6122bb565b6118626121fa565b61186b8261239c565b801561187d576000805461ff00191690555b5050565b600054610100900460ff168061189a575060005460ff16155b61190c5760405162461bcd60e51b815260206004820152602e60248201527f496e697469616c697a61626c653a20636f6e747261637420697320616c72656160448201527f647920696e697469616c697a6564000000000000000000000000000000000000606482015260840161073e565b600054610100900460ff1615801561192e576000805461ffff19166101011790555b6119366121fa565b61193e6121fa565b6119466121fa565b61186b82612472565b600054610100900460ff1680611968575060005460ff16155b6119da5760405162461bcd60e51b815260206004820152602e60248201527f496e697469616c697a61626c653a20636f6e747261637420697320616c72656160448201527f647920696e697469616c697a6564000000000000000000000000000000000000606482015260840161073e565b600054610100900460ff161580156119fc576000805461ffff19166101011790555b611a046121fa565b611a0c6121fa565b611a146121fa565b611a1c6121fa565b61186b82612575565b60007fffffffff0000000000000000000000000000000000000000000000000000000082167fbf26d89700000000000000000000000000000000000000000000000000000000148061060a57507f01ffc9a7000000000000000000000000000000000000000000000000000000007fffffffff0000000000000000000000000000000000000000000000000000000083161461060a565b610162546040517fe38335e500000000000000000000000000000000000000000000000000000000815273ffffffffffffffffffffffffffffffffffffffff9091169063e38335e5903490611b1e908890889088906000908990600401612e5a565b6000604051808303818588803b158015611b3757600080fd5b505af1158015611b4b573d6000803e3d6000fd5b50505050505050505050565b60006116b87f8b73c3c69bb8fe3d512ecc4cf759cc79239f7b179b0ffacaa9a75d522b39400f611b8660655490565b6066546040805160208101859052908101839052606081018290524660808201523060a082015260009060c0016040516020818303038152906040528051906020012090509392505050565b6000807f7fffffffffffffffffffffffffffffff5d576e7357a4501ddfe92f46681b20a0831115611c095750600090506003611cc3565b8460ff16601b14158015611c2157508460ff16601c14155b15611c325750600090506004611cc3565b6040805160008082526020820180845289905260ff881692820192909252606081018690526080810185905260019060a0016020604051602081039080840390855afa158015611c86573d6000803e3d6000fd5b5050604051601f19015191505073ffffffffffffffffffffffffffffffffffffffff8116611cbc57600060019250925050611cc3565b9150600090505b94509492505050565b6000816004811115611ce057611ce0613191565b1415611ce95750565b6001816004811115611cfd57611cfd613191565b1415611d4b5760405162461bcd60e51b815260206004820152601860248201527f45434453413a20696e76616c6964207369676e61747572650000000000000000604482015260640161073e565b6002816004811115611d5f57611d5f613191565b1415611dad5760405162461bcd60e51b815260206004820152601f60248201527f45434453413a20696e76616c6964207369676e6174757265206c656e67746800604482015260640161073e565b6003816004811115611dc157611dc1613191565b1415611e355760405162461bcd60e51b815260206004820152602260248201527f45434453413a20696e76616c6964207369676e6174757265202773272076616c60448201527f7565000000000000000000000000000000000000000000000000000000000000606482015260840161073e565b6004816004811115611e4957611e49613191565b1415610ffc5760405162461bcd60e51b815260206004820152602260248201527f45434453413a20696e76616c6964207369676e6174757265202776272076616c60448201527f7565000000000000000000000000000000000000000000000000000000000000606482015260840161073e565b60008481526101306020908152604080832073ffffffffffffffffffffffffffffffffffffffff87168452600381019092529091205460ff1615611f695760405162461bcd60e51b815260206004820152602760248201527f476f7665726e6f72566f74696e6753696d706c653a20766f746520616c72656160448201527f6479206361737400000000000000000000000000000000000000000000000000606482015260840161073e565b73ffffffffffffffffffffffffffffffffffffffff84166000908152600382016020526040812080547fffffffffffffffffffffffffffffffffffffffffffffffffffffffffffffff0016600117905560ff168360ff161415611fe55781816000016000828254611fda91906130d0565b9091555061134d9050565b60ff8316600114156120055781816001016000828254611fda91906130d0565b60ff8316600214156120255781816002016000828254611fda91906130d0565b60405162461bcd60e51b815260206004820152603560248201527f476f7665726e6f72566f74696e6753696d706c653a20696e76616c696420766160448201527f6c756520666f7220656e756d20566f7465547970650000000000000000000000606482015260840161073e565b600081815260fe60209081526040808320815160a081018352815467ffffffffffffffff9081166080830190815282528351808601855260018401549091168152938101939093526002015460ff8082161580159385019390935261010090910416151560608301526121095750600792915050565b80606001511561211c5750600292915050565b8051514367ffffffffffffffff909116111561213b5750600092915050565b6020810151514367ffffffffffffffff909116111561215d5750600192915050565b61216a816020015161262b565b156121ac576121788361265c565b801561219857506000838152610130602052604090208054600190910154115b6121a35760036110ca565b60049392505050565b60405162461bcd60e51b815260206004820152601d60248201527f476f7665726e6f723a20756e6b6e6f776e2070726f706f73616c206964000000604482015260640161073e565b50919050565b600054610100900460ff1680612213575060005460ff16155b6122855760405162461bcd60e51b815260206004820152602e60248201527f496e697469616c697a61626c653a20636f6e747261637420697320616c72656160448201527f647920696e697469616c697a6564000000000000000000000000000000000000606482015260840161073e565b600054610100900460ff161580156122a7576000805461ffff19166101011790555b8015610ffc576000805461ff001916905550565b600054610100900460ff16806122d4575060005460ff16155b6123465760405162461bcd60e51b815260206004820152602e60248201527f496e697469616c697a61626c653a20636f6e747261637420697320616c72656160448201527f647920696e697469616c697a6564000000000000000000000000000000000000606482015260840161073e565b600054610100900460ff16158015612368576000805461ffff19166101011790555b82516020808501919091208351918401919091206065919091556066558015612397576000805461ff00191690555b505050565b600054610100900460ff16806123b5575060005460ff16155b6124275760405162461bcd60e51b815260206004820152602e60248201527f496e697469616c697a61626c653a20636f6e747261637420697320616c72656160448201527f647920696e697469616c697a6564000000000000000000000000000000000000606482015260840161073e565b600054610100900460ff16158015612449576000805461ffff19166101011790555b815161245c9060fd906020850190612694565b50801561187d576000805461ff00191690555050565b600054610100900460ff168061248b575060005460ff16155b6124fd5760405162461bcd60e51b815260206004820152602e60248201527f496e697469616c697a61626c653a20636f6e747261637420697320616c72656160448201527f647920696e697469616c697a6564000000000000000000000000000000000000606482015260840161073e565b600054610100900460ff1615801561251f576000805461ffff19166101011790555b61012f80547fffffffffffffffffffffffff00000000000000000000000000000000000000001673ffffffffffffffffffffffffffffffffffffffff8416179055801561187d576000805461ff00191690555050565b600054610100900460ff168061258e575060005460ff16155b6126005760405162461bcd60e51b815260206004820152602e60248201527f496e697469616c697a61626c653a20636f6e747261637420697320616c72656160448201527f647920696e697469616c697a6564000000000000000000000000000000000000606482015260840161073e565b600054610100900460ff16158015612622576000805461ffff19166101011790555b61186b826116bd565b6000612641825167ffffffffffffffff16151590565b801561060a575050514367ffffffffffffffff909116111590565b6000818152610130602052604081206002810154600182015461267f91906130d0565b61268b6105cb85610add565b11159392505050565b8280546126a090613114565b90600052602060002090601f0160209004810192826126c25760008555612708565b82601f106126db57805160ff1916838001178555612708565b82800160010185558215612708579182015b828111156127085782518255916020019190600101906126ed565b506116929291505b808211156116925760008155600101612710565b600067ffffffffffffffff83111561273e5761273e6131c0565b6127516020601f19601f8601160161307b565b905082815283838301111561276557600080fd5b828260208301376000602084830101529392505050565b600082601f83011261278d57600080fd5b813560206127a261279d836130ac565b61307b565b80838252828201915082860187848660051b89010111156127c257600080fd5b60005b858110156127ea5781356127d8816131ef565b845292840192908401906001016127c5565b5090979650505050505050565b600082601f83011261280857600080fd5b8135602061281861279d836130ac565b80838252828201915082860187848660051b890101111561283857600080fd5b60005b858110156127ea57813567ffffffffffffffff81111561285a57600080fd5b8801603f81018a1361286b57600080fd5b61287c8a8783013560408401612724565b855250928401929084019060010161283b565b600082601f8301126128a057600080fd5b813560206128b061279d836130ac565b80838252828201915082860187848660051b89010111156128d057600080fd5b60005b858110156127ea578135845292840192908401906001016128d3565b600082601f83011261290057600080fd5b6110ca83833560208501612724565b803560ff8116811461292057600080fd5b919050565b6000806040838503121561293857600080fd5b8235612943816131ef565b946020939093013593505050565b6000806000806080858703121561296757600080fd5b843567ffffffffffffffff8082111561297f57600080fd5b61298b8883890161277c565b955060208701359150808211156129a157600080fd5b6129ad8883890161288f565b945060408701359150808211156129c357600080fd5b506129d0878288016127f7565b949793965093946060013593505050565b600080600080608085870312156129f757600080fd5b843567ffffffffffffffff80821115612a0f57600080fd5b612a1b8883890161277c565b95506020870135915080821115612a3157600080fd5b612a3d8883890161288f565b94506040870135915080821115612a5357600080fd5b612a5f888389016127f7565b93506060870135915080821115612a7557600080fd5b50612a82878288016128ef565b91505092959194509250565b600060208284031215612aa057600080fd5b815180151581146110ca57600080fd5b600060208284031215612ac257600080fd5b5051919050565b600060208284031215612adb57600080fd5b81357fffffffff00000000000000000000000000000000000000000000000000000000811681146110ca57600080fd5b600060208284031215612b1d57600080fd5b81356110ca816131ef565b600080600080600060a08688031215612b4057600080fd5b853567ffffffffffffffff811115612b5757600080fd5b612b63888289016128ef565b9550506020860135612b74816131ef565b93506040860135612b84816131ef565b94979396509394606081013594506080013592915050565b600060208284031215612bae57600080fd5b5035919050565b60008060408385031215612bc857600080fd5b823591506020830135612bda816131ef565b809150509250929050565b60008060408385031215612bf857600080fd5b82359150612c086020840161290f565b90509250929050565b60008060008060608587031215612c2757600080fd5b84359350612c376020860161290f565b9250604085013567ffffffffffffffff80821115612c5457600080fd5b818701915087601f830112612c6857600080fd5b813581811115612c7757600080fd5b886020828501011115612c8957600080fd5b95989497505060200194505050565b600080600080600060a08688031215612cb057600080fd5b85359450612cc06020870161290f565b9350612b846040870161290f565b600060208284031215612ce057600080fd5b81516bffffffffffffffffffffffff811681146110ca57600080fd5b600081518084526020808501945080840160005b83811015612d4257815173ffffffffffffffffffffffffffffffffffffffff1687529582019590820190600101612d10565b509495945050505050565b6000815180845260208085019450848260051b860182860160005b858110156127ea578383038952612d80838351612dc2565b98850198925090840190600101612d68565b600081518084526020808501945080840160005b83811015612d4257815187529582019590820190600101612da6565b6000815180845260005b81811015612de857602081850181015186830182015201612dcc565b81811115612dfa576000602083870101525b50601f01601f19169290920160200192915050565b608081526000612e226080830187612cfc565b8281036020840152612e348187612d92565b90508281036040840152612e488186612d4d565b91505082606083015295945050505050565b60a081526000612e6d60a0830188612cfc565b8281036020840152612e7f8188612d92565b90508281036040840152612e938187612d4d565b60608401959095525050608001529392505050565b60c081526000612ebb60c0830189612cfc565b8281036020840152612ecd8189612d92565b90508281036040840152612ee18188612d4d565b60608401969096525050608081019290925260a0909101529392505050565b6020810160088310612f3b577f4e487b7100000000000000000000000000000000000000000000000000000000600052602160045260246000fd5b91905290565b6020815260006110ca6020830184612dc2565b60006101208b8352602073ffffffffffffffffffffffffffffffffffffffff8c1681850152816040850152612f8b8285018c612cfc565b91508382036060850152612f9f828b612d92565b915083820360808501528189518084528284019150828160051b850101838c0160005b83811015612ff057601f19878403018552612fde838351612dc2565b94860194925090850190600101612fc2565b505086810360a0880152613004818c612d4d565b94505050505061302060c084018767ffffffffffffffff169052565b67ffffffffffffffff851660e08401528281036101008401526130438185612dc2565b9c9b505050505050505050505050565b84815260ff84166020820152826040820152608060608201526000610c266080830184612dc2565b604051601f8201601f1916810167ffffffffffffffff811182821017156130a4576130a46131c0565b604052919050565b600067ffffffffffffffff8211156130c6576130c66131c0565b5060051b60200190565b600082198211156130e3576130e3613162565b500190565b600067ffffffffffffffff80831681851680830382111561310b5761310b613162565b01949350505050565b600181811c9082168061312857607f821691505b602082108114156121f4577f4e487b7100000000000000000000000000000000000000000000000000000000600052602260045260246000fd5b7f4e487b7100000000000000000000000000000000000000000000000000000000600052601160045260246000fd5b7f4e487b7100000000000000000000000000000000000000000000000000000000600052602160045260246000fd5b7f4e487b7100000000000000000000000000000000000000000000000000000000600052604160045260246000fd5b73ffffffffffffffffffffffffffffffffffffffff81168114610ffc57600080fdfea26469706673582212202858725ec732fcc2e2f937d6b62c8ab5b5ebdad84563d91296365b1ace05574564736f6c63430008060033",
  "linkReferences": {},
  "deployedLinkReferences": {}
}