{
  "_format": "hh-sol-artifact-1",
  "contractName": "ERC721Governor",
  "sourceName": "contracts/ERC721Governor.sol",
  "abi": [
    {
      "anonymous": false,
      "inputs": [
        {
          "indexed": false,
          "internalType": "uint256",
          "name": "proposalId",
          "type": "uint256"
        }
      ],
      "name": "ProposalCanceled",
      "type": "event"
    },
    {
      "anonymous": false,
      "inputs": [
        {
          "indexed": false,
          "internalType": "uint256",
          "name": "proposalId",
          "type": "uint256"
        },
        {
          "indexed": false,
          "internalType": "address",
          "name": "proposer",
          "type": "address"
        },
        {
          "indexed": false,
          "internalType": "address[]",
          "name": "targets",
          "type": "address[]"
        },
        {
          "indexed": false,
          "internalType": "uint256[]",
          "name": "values",
          "type": "uint256[]"
        },
        {
          "indexed": false,
          "internalType": "string[]",
          "name": "signatures",
          "type": "string[]"
        },
        {
          "indexed": false,
          "internalType": "bytes[]",
          "name": "calldatas",
          "type": "bytes[]"
        },
        {
          "indexed": false,
          "internalType": "uint256",
          "name": "startBlock",
          "type": "uint256"
        },
        {
          "indexed": false,
          "internalType": "uint256",
          "name": "endBlock",
          "type": "uint256"
        },
        {
          "indexed": false,
          "internalType": "string",
          "name": "description",
          "type": "string"
        }
      ],
      "name": "ProposalCreated",
      "type": "event"
    },
    {
      "anonymous": false,
      "inputs": [
        {
          "indexed": false,
          "internalType": "uint256",
          "name": "proposalId",
          "type": "uint256"
        }
      ],
      "name": "ProposalExecuted",
      "type": "event"
    },
    {
      "anonymous": false,
      "inputs": [
        {
          "indexed": false,
          "internalType": "uint256",
          "name": "proposalId",
          "type": "uint256"
        },
        {
          "indexed": false,
          "internalType": "uint256",
          "name": "eta",
          "type": "uint256"
        }
      ],
      "name": "ProposalQueued",
      "type": "event"
    },
    {
      "anonymous": false,
      "inputs": [
        {
          "indexed": false,
          "internalType": "uint256",
          "name": "oldQuorumNumerator",
          "type": "uint256"
        },
        {
          "indexed": false,
          "internalType": "uint256",
          "name": "newQuorumNumerator",
          "type": "uint256"
        }
      ],
      "name": "QuorumNumeratorUpdated",
      "type": "event"
    },
    {
      "anonymous": false,
      "inputs": [
        {
          "indexed": false,
          "internalType": "address",
          "name": "oldTimelock",
          "type": "address"
        },
        {
          "indexed": false,
          "internalType": "address",
          "name": "newTimelock",
          "type": "address"
        }
      ],
      "name": "TimelockChange",
      "type": "event"
    },
    {
      "anonymous": false,
      "inputs": [
        {
          "indexed": true,
          "internalType": "address",
          "name": "voter",
          "type": "address"
        },
        {
          "indexed": false,
          "internalType": "uint256",
          "name": "proposalId",
          "type": "uint256"
        },
        {
          "indexed": false,
          "internalType": "uint8",
          "name": "support",
          "type": "uint8"
        },
        {
          "indexed": false,
          "internalType": "uint256",
          "name": "weight",
          "type": "uint256"
        },
        {
          "indexed": false,
          "internalType": "string",
          "name": "reason",
          "type": "string"
        }
      ],
      "name": "VoteCast",
      "type": "event"
    },
    {
      "inputs": [],
      "name": "BALLOT_TYPEHASH",
      "outputs": [
        {
          "internalType": "bytes32",
          "name": "",
          "type": "bytes32"
        }
      ],
      "stateMutability": "view",
      "type": "function"
    },
    {
      "inputs": [],
      "name": "COUNTING_MODE",
      "outputs": [
        {
          "internalType": "string",
          "name": "",
          "type": "string"
        }
      ],
      "stateMutability": "pure",
      "type": "function"
    },
    {
      "inputs": [
        {
          "internalType": "uint256",
          "name": "proposalId",
          "type": "uint256"
        },
        {
          "internalType": "uint8",
          "name": "support",
          "type": "uint8"
        }
      ],
      "name": "castVote",
      "outputs": [
        {
          "internalType": "uint256",
          "name": "",
          "type": "uint256"
        }
      ],
      "stateMutability": "nonpayable",
      "type": "function"
    },
    {
      "inputs": [
        {
          "internalType": "uint256",
          "name": "proposalId",
          "type": "uint256"
        },
        {
          "internalType": "uint8",
          "name": "support",
          "type": "uint8"
        },
        {
          "internalType": "uint8",
          "name": "v",
          "type": "uint8"
        },
        {
          "internalType": "bytes32",
          "name": "r",
          "type": "bytes32"
        },
        {
          "internalType": "bytes32",
          "name": "s",
          "type": "bytes32"
        }
      ],
      "name": "castVoteBySig",
      "outputs": [
        {
          "internalType": "uint256",
          "name": "",
          "type": "uint256"
        }
      ],
      "stateMutability": "nonpayable",
      "type": "function"
    },
    {
      "inputs": [
        {
          "internalType": "uint256",
          "name": "proposalId",
          "type": "uint256"
        },
        {
          "internalType": "uint8",
          "name": "support",
          "type": "uint8"
        },
        {
          "internalType": "string",
          "name": "reason",
          "type": "string"
        }
      ],
      "name": "castVoteWithReason",
      "outputs": [
        {
          "internalType": "uint256",
          "name": "",
          "type": "uint256"
        }
      ],
      "stateMutability": "nonpayable",
      "type": "function"
    },
    {
      "inputs": [
        {
          "internalType": "address[]",
          "name": "targets",
          "type": "address[]"
        },
        {
          "internalType": "uint256[]",
          "name": "values",
          "type": "uint256[]"
        },
        {
          "internalType": "bytes[]",
          "name": "calldatas",
          "type": "bytes[]"
        },
        {
          "internalType": "bytes32",
          "name": "descriptionHash",
          "type": "bytes32"
        }
      ],
      "name": "execute",
      "outputs": [
        {
          "internalType": "uint256",
          "name": "",
          "type": "uint256"
        }
      ],
      "stateMutability": "payable",
      "type": "function"
    },
    {
      "inputs": [
        {
          "internalType": "address",
          "name": "account",
          "type": "address"
        },
        {
          "internalType": "uint256",
          "name": "blockNumber",
          "type": "uint256"
        }
      ],
      "name": "getVotes",
      "outputs": [
        {
          "internalType": "uint256",
          "name": "",
          "type": "uint256"
        }
      ],
      "stateMutability": "view",
      "type": "function"
    },
    {
      "inputs": [
        {
          "internalType": "uint256",
          "name": "proposalId",
          "type": "uint256"
        },
        {
          "internalType": "address",
          "name": "account",
          "type": "address"
        }
      ],
      "name": "hasVoted",
      "outputs": [
        {
          "internalType": "bool",
          "name": "",
          "type": "bool"
        }
      ],
      "stateMutability": "view",
      "type": "function"
    },
    {
      "inputs": [
        {
          "internalType": "address[]",
          "name": "targets",
          "type": "address[]"
        },
        {
          "internalType": "uint256[]",
          "name": "values",
          "type": "uint256[]"
        },
        {
          "internalType": "bytes[]",
          "name": "calldatas",
          "type": "bytes[]"
        },
        {
          "internalType": "bytes32",
          "name": "descriptionHash",
          "type": "bytes32"
        }
      ],
      "name": "hashProposal",
      "outputs": [
        {
          "internalType": "uint256",
          "name": "",
          "type": "uint256"
        }
      ],
      "stateMutability": "pure",
      "type": "function"
    },
    {
      "inputs": [
        {
          "internalType": "string",
          "name": "name_",
          "type": "string"
        },
        {
          "internalType": "contract ERC721DAOToken",
          "name": "token_",
          "type": "address"
        },
        {
          "internalType": "contract TimelockControllerUpgradeable",
          "name": "timelock_",
          "type": "address"
        },
        {
          "internalType": "uint256",
          "name": "proposalThreshold_",
          "type": "uint256"
        },
        {
          "internalType": "uint256",
          "name": "votingDelay_",
          "type": "uint256"
        },
        {
          "internalType": "uint256",
          "name": "votingPeriod_",
          "type": "uint256"
        },
        {
          "internalType": "uint256",
          "name": "quorumNumerator_",
          "type": "uint256"
        }
      ],
      "name": "initialize",
      "outputs": [],
      "stateMutability": "nonpayable",
      "type": "function"
    },
    {
      "inputs": [],
      "name": "name",
      "outputs": [
        {
          "internalType": "string",
          "name": "",
          "type": "string"
        }
      ],
      "stateMutability": "view",
      "type": "function"
    },
    {
      "inputs": [
        {
          "internalType": "uint256",
          "name": "proposalId",
          "type": "uint256"
        }
      ],
      "name": "proposalDeadline",
      "outputs": [
        {
          "internalType": "uint256",
          "name": "",
          "type": "uint256"
        }
      ],
      "stateMutability": "view",
      "type": "function"
    },
    {
      "inputs": [
        {
          "internalType": "uint256",
          "name": "proposalId",
          "type": "uint256"
        }
      ],
      "name": "proposalEta",
      "outputs": [
        {
          "internalType": "uint256",
          "name": "",
          "type": "uint256"
        }
      ],
      "stateMutability": "view",
      "type": "function"
    },
    {
      "inputs": [
        {
          "internalType": "uint256",
          "name": "proposalId",
          "type": "uint256"
        }
      ],
      "name": "proposalSnapshot",
      "outputs": [
        {
          "internalType": "uint256",
          "name": "",
          "type": "uint256"
        }
      ],
      "stateMutability": "view",
      "type": "function"
    },
    {
      "inputs": [],
      "name": "proposalThreshold",
      "outputs": [
        {
          "internalType": "uint256",
          "name": "",
          "type": "uint256"
        }
      ],
      "stateMutability": "view",
      "type": "function"
    },
    {
      "inputs": [
        {
          "internalType": "uint256",
          "name": "proposalId",
          "type": "uint256"
        }
      ],
      "name": "proposalVotes",
      "outputs": [
        {
          "internalType": "uint256",
          "name": "againstVotes",
          "type": "uint256"
        },
        {
          "internalType": "uint256",
          "name": "forVotes",
          "type": "uint256"
        },
        {
          "internalType": "uint256",
          "name": "abstainVotes",
          "type": "uint256"
        }
      ],
      "stateMutability": "view",
      "type": "function"
    },
    {
      "inputs": [
        {
          "internalType": "address[]",
          "name": "targets",
          "type": "address[]"
        },
        {
          "internalType": "uint256[]",
          "name": "values",
          "type": "uint256[]"
        },
        {
          "internalType": "bytes[]",
          "name": "calldatas",
          "type": "bytes[]"
        },
        {
          "internalType": "string",
          "name": "description",
          "type": "string"
        }
      ],
      "name": "propose",
      "outputs": [
        {
          "internalType": "uint256",
          "name": "",
          "type": "uint256"
        }
      ],
      "stateMutability": "nonpayable",
      "type": "function"
    },
    {
      "inputs": [
        {
          "internalType": "address[]",
          "name": "targets",
          "type": "address[]"
        },
        {
          "internalType": "uint256[]",
          "name": "values",
          "type": "uint256[]"
        },
        {
          "internalType": "bytes[]",
          "name": "calldatas",
          "type": "bytes[]"
        },
        {
          "internalType": "bytes32",
          "name": "descriptionHash",
          "type": "bytes32"
        }
      ],
      "name": "queue",
      "outputs": [
        {
          "internalType": "uint256",
          "name": "",
          "type": "uint256"
        }
      ],
      "stateMutability": "nonpayable",
      "type": "function"
    },
    {
      "inputs": [
        {
          "internalType": "uint256",
          "name": "blockNumber",
          "type": "uint256"
        }
      ],
      "name": "quorum",
      "outputs": [
        {
          "internalType": "uint256",
          "name": "",
          "type": "uint256"
        }
      ],
      "stateMutability": "view",
      "type": "function"
    },
    {
      "inputs": [],
      "name": "quorumDenominator",
      "outputs": [
        {
          "internalType": "uint256",
          "name": "",
          "type": "uint256"
        }
      ],
      "stateMutability": "view",
      "type": "function"
    },
    {
      "inputs": [],
      "name": "quorumNumerator",
      "outputs": [
        {
          "internalType": "uint256",
          "name": "",
          "type": "uint256"
        }
      ],
      "stateMutability": "view",
      "type": "function"
    },
    {
      "inputs": [
        {
          "internalType": "uint256",
          "name": "proposalId",
          "type": "uint256"
        }
      ],
      "name": "state",
      "outputs": [
        {
          "internalType": "enum IGovernorUpgradeable.ProposalState",
          "name": "",
          "type": "uint8"
        }
      ],
      "stateMutability": "view",
      "type": "function"
    },
    {
      "inputs": [
        {
          "internalType": "bytes4",
          "name": "interfaceId",
          "type": "bytes4"
        }
      ],
      "name": "supportsInterface",
      "outputs": [
        {
          "internalType": "bool",
          "name": "",
          "type": "bool"
        }
      ],
      "stateMutability": "view",
      "type": "function"
    },
    {
      "inputs": [],
      "name": "timelock",
      "outputs": [
        {
          "internalType": "address",
          "name": "",
          "type": "address"
        }
      ],
      "stateMutability": "view",
      "type": "function"
    },
    {
      "inputs": [],
      "name": "token",
      "outputs": [
        {
          "internalType": "contract ERC721DAOToken",
          "name": "",
          "type": "address"
        }
      ],
      "stateMutability": "view",
      "type": "function"
    },
    {
      "inputs": [
        {
          "internalType": "uint256",
          "name": "newQuorumNumerator",
          "type": "uint256"
        }
      ],
      "name": "updateQuorumNumerator",
      "outputs": [],
      "stateMutability": "nonpayable",
      "type": "function"
    },
    {
      "inputs": [
        {
          "internalType": "contract TimelockControllerUpgradeable",
          "name": "newTimelock",
          "type": "address"
        }
      ],
      "name": "updateTimelock",
      "outputs": [],
      "stateMutability": "nonpayable",
      "type": "function"
    },
    {
      "inputs": [],
      "name": "version",
      "outputs": [
        {
          "internalType": "string",
          "name": "",
          "type": "string"
        }
      ],
      "stateMutability": "view",
      "type": "function"
    },
    {
      "inputs": [],
      "name": "votingDelay",
      "outputs": [
        {
          "internalType": "uint256",
          "name": "",
          "type": "uint256"
        }
      ],
      "stateMutability": "view",
      "type": "function"
    },
    {
      "inputs": [],
      "name": "votingPeriod",
      "outputs": [
        {
          "internalType": "uint256",
          "name": "",
          "type": "uint256"
        }
      ],
      "stateMutability": "view",
      "type": "function"
    }
  ],
  "bytecode": "0x608060405234801561001057600080fd5b50613836806100206000396000f3fe6080604052600436106101cd5760003560e01c80637b3c71d3116100f7578063c01f9e3711610095578063deaaa7cc11610064578063deaaa7cc146105e8578063eb9019d41461061c578063f8ce560a1461063c578063fc0c546a1461065c57600080fd5b8063c01f9e3714610515578063c59057e414610535578063d33219b414610555578063dd4e2ba5146105a257600080fd5b8063a7713a70116100d1578063a7713a70146104a9578063a890c910146104bf578063ab58fb8e146104df578063b58131b0146104ff57600080fd5b80637b3c71d3146104555780637d5e81e21461047557806397c3d3341461049557600080fd5b80633932abb11161016f578063544ffc9c1161013e578063544ffc9c1461037957806354fd4d50146103cf578063567813881461041557806374fe29161461043557600080fd5b80633932abb1146102be5780633bccf4fd146102d45780633e4f49e6146102f4578063438596321461032157600080fd5b806306fdde03116101ab57806306fdde0314610249578063160cbed71461026b5780632656227d1461028b5780632d63f6931461029e57600080fd5b806301ffc9a7146101d257806302a251a31461020757806306f3f9e614610227575b600080fd5b3480156101de57600080fd5b506101f26101ed366004612fee565b61068a565b60405190151581526020015b60405180910390f35b34801561021357600080fd5b506101fa545b6040519081526020016101fe565b34801561023357600080fd5b506102476102423660046130d4565b61069b565b005b34801561025557600080fd5b5061025e61072e565b6040516101fe91906134a1565b34801561027757600080fd5b50610219610286366004612e76565b6107c0565b610219610299366004612e76565b610aaa565b3480156102aa57600080fd5b506102196102b93660046130d4565b610bf6565b3480156102ca57600080fd5b506101f954610219565b3480156102e057600080fd5b506102196102ef3660046131d0565b610c2f565b34801561030057600080fd5b5061031461030f3660046130d4565b610cc3565b6040516101fe9190613460565b34801561032d57600080fd5b506101f261033c3660046130ed565b60008281526101626020908152604080832073ffffffffffffffffffffffffffffffffffffffff8516845260030190915290205460ff1692915050565b34801561038557600080fd5b506103b46103943660046130d4565b600090815261016260205260409020805460018201546002909201549092565b604080519384526020840192909252908201526060016101fe565b3480156103db57600080fd5b5060408051808201909152600181527f3100000000000000000000000000000000000000000000000000000000000000602082015261025e565b34801561042157600080fd5b5061021961043036600461311d565b610cce565b34801561044157600080fd5b5061024761045036600461304d565b610cf7565b34801561046157600080fd5b50610219610470366004613149565b610df6565b34801561048157600080fd5b50610219610490366004612f06565b610e48565b3480156104a157600080fd5b506064610219565b3480156104b557600080fd5b5061013054610219565b3480156104cb57600080fd5b506102476104da366004613030565b610e5f565b3480156104eb57600080fd5b506102196104fa3660046130d4565b610eea565b34801561050b57600080fd5b506101f854610219565b34801561052157600080fd5b506102196105303660046130d4565b610fbc565b34801561054157600080fd5b50610219610550366004612e76565b610fec565b34801561056157600080fd5b506101945473ffffffffffffffffffffffffffffffffffffffff165b60405173ffffffffffffffffffffffffffffffffffffffff90911681526020016101fe565b3480156105ae57600080fd5b506040805180820190915260208082527f737570706f72743d627261766f2671756f72756d3d666f722c6162737461696e9082015261025e565b3480156105f457600080fd5b506102197f150214d74d59b7d1e90c73fc22ef3d991dd0a76b046543d4d80ab92d2a50328f81565b34801561062857600080fd5b50610219610637366004612e4a565b611026565b34801561064857600080fd5b506102196106573660046130d4565b6110e7565b34801561066857600080fd5b5061012f5461057d9073ffffffffffffffffffffffffffffffffffffffff1681565b6000610695826111a6565b92915050565b6106a36111fc565b73ffffffffffffffffffffffffffffffffffffffff163373ffffffffffffffffffffffffffffffffffffffff16146107225760405162461bcd60e51b815260206004820152601860248201527f476f7665726e6f723a206f6e6c79476f7665726e616e6365000000000000000060448201526064015b60405180910390fd5b61072b81611223565b50565b606060fd805461073d90613703565b80601f016020809104026020016040519081016040528092919081815260200182805461076990613703565b80156107b65780601f1061078b576101008083540402835291602001916107b6565b820191906000526020600020905b81548152906001019060200180831161079957829003601f168201915b5050505050905090565b6000806107cf86868686610fec565b905060046107dc82610cc3565b60078111156107ed576107ed613780565b146108605760405162461bcd60e51b815260206004820152602160248201527f476f7665726e6f723a2070726f706f73616c206e6f742073756363657373667560448201527f6c000000000000000000000000000000000000000000000000000000000000006064820152608401610719565b61019454604080517ff27a0c92000000000000000000000000000000000000000000000000000000008152905160009273ffffffffffffffffffffffffffffffffffffffff169163f27a0c92916004808301926020929190829003018186803b1580156108cc57600080fd5b505afa1580156108e0573d6000803e3d6000fd5b505050506040513d601f19601f820116820180604052508101906109049190612fd5565b610194546040517fb1c5f42700000000000000000000000000000000000000000000000000000000815291925073ffffffffffffffffffffffffffffffffffffffff169063b1c5f42790610965908a908a908a906000908b906004016133ba565b60206040518083038186803b15801561097d57600080fd5b505afa158015610991573d6000803e3d6000fd5b505050506040513d601f19601f820116820180604052508101906109b59190612fd5565b60008381526101956020526040808220929092556101945491517f8f2a0bb000000000000000000000000000000000000000000000000000000000815273ffffffffffffffffffffffffffffffffffffffff90921691638f2a0bb091610a28918b918b918b91908b908990600401613408565b600060405180830381600087803b158015610a4257600080fd5b505af1158015610a56573d6000803e3d6000fd5b505050507f9a2e42fd6722813d69113e7d0079d3d940171428df7373df9c7f7617cfda2892828242610a889190613630565b6040805192835260208301919091520160405180910390a15095945050505050565b600080610ab986868686610fec565b90506000610ac682610cc3565b90506004816007811115610adc57610adc613780565b1480610af957506005816007811115610af757610af7613780565b145b610b6b5760405162461bcd60e51b815260206004820152602160248201527f476f7665726e6f723a2070726f706f73616c206e6f742073756363657373667560448201527f6c000000000000000000000000000000000000000000000000000000000000006064820152608401610719565b600082815260fe60205260409081902060020180547fffffffffffffffffffffffffffffffffffffffffffffffffffffffffffffff00166001179055517f712ae1383f79ac853f8d882153778e0260ef8f03b504e2866e0593e04d2b291f90610bd79084815260200190565b60405180910390a1610bec8288888888611306565b5095945050505050565b600081815260fe6020908152604080832081519283019091525467ffffffffffffffff16908190525b67ffffffffffffffff1692915050565b604080517f150214d74d59b7d1e90c73fc22ef3d991dd0a76b046543d4d80ab92d2a50328f602082015290810186905260ff851660608201526000908190610c9b90610c93906080016040516020818303038152906040528051906020012061131a565b868686611383565b9050610cb8878288604051806020016040528060008152506113a1565b979650505050505050565b6000610695826114d3565b600080339050610cef848285604051806020016040528060008152506113a1565b949350505050565b600054610100900460ff1680610d10575060005460ff16155b610d825760405162461bcd60e51b815260206004820152602e60248201527f496e697469616c697a61626c653a20636f6e747261637420697320616c72656160448201527f647920696e697469616c697a65640000000000000000000000000000000000006064820152608401610719565b600054610100900460ff16158015610da4576000805461ffff19166101011790555b610dad886115d8565b610db6876116ff565b610dbf866117cd565b610dc8826118a3565b6101f88590556101f98490556101fa8390558015610dec576000805461ff00191690555b5050505050505050565b600080339050610e3e86828787878080601f0160208091040260200160405190810160405280939291908181526020018383808284376000920191909152506113a192505050565b9695505050505050565b6000610e5685858585611971565b95945050505050565b610e676111fc565b73ffffffffffffffffffffffffffffffffffffffff163373ffffffffffffffffffffffffffffffffffffffff1614610ee15760405162461bcd60e51b815260206004820152601860248201527f476f7665726e6f723a206f6e6c79476f7665726e616e636500000000000000006044820152606401610719565b61072b81611a32565b61019454600082815261019560205260408082205490517fd45c443500000000000000000000000000000000000000000000000000000000815260048101919091529091829173ffffffffffffffffffffffffffffffffffffffff9091169063d45c44359060240160206040518083038186803b158015610f6a57600080fd5b505afa158015610f7e573d6000803e3d6000fd5b505050506040513d601f19601f82011682018060405250810190610fa29190612fd5565b905080600114610fb25780610fb5565b60005b9392505050565b600081815260fe6020908152604080832081519283019091526001015467ffffffffffffffff1690819052610c1f565b600084848484604051602001611005949392919061336f565b60408051601f19818403018152919052805160209091012095945050505050565b61012f546040517f782d6fe100000000000000000000000000000000000000000000000000000000815273ffffffffffffffffffffffffffffffffffffffff848116600483015260248201849052600092169063782d6fe19060440160206040518083038186803b15801561109a57600080fd5b505afa1580156110ae573d6000803e3d6000fd5b505050506040513d601f19601f820116820180604052508101906110d2919061321e565b6bffffffffffffffffffffffff169392505050565b600060646101305461012f546040517f8e539e8c0000000000000000000000000000000000000000000000000000000081526004810186905273ffffffffffffffffffffffffffffffffffffffff90911690638e539e8c9060240160206040518083038186803b15801561115a57600080fd5b505afa15801561116e573d6000803e3d6000fd5b505050506040513d601f19601f820116820180604052508101906111929190612fd5565b61119c91906136af565b6106959190613674565b60007fffffffff0000000000000000000000000000000000000000000000000000000082167f6e665ced000000000000000000000000000000000000000000000000000000001480610695575061069582611acf565b600061121e6101945473ffffffffffffffffffffffffffffffffffffffff1690565b905090565b60648111156112c05760405162461bcd60e51b815260206004820152604360248201527f476f7665726e6f72566f74657351756f72756d4672616374696f6e3a2071756f60448201527f72756d4e756d657261746f72206f7665722071756f72756d44656e6f6d696e6160648201527f746f720000000000000000000000000000000000000000000000000000000000608482015260a401610719565b61013080549082905560408051828152602081018490527f0553476bf02ef2726e8ce5ced78d63e26e602e4a2257b1f559418e24b4633997910160405180910390a15050565b6113138585858585611b66565b5050505050565b6000610695611327611c01565b836040517f19010000000000000000000000000000000000000000000000000000000000006020820152602281018390526042810182905260009060620160405160208183030381529060405280519060200120905092915050565b600080600061139487878787611c7c565b91509150610bec81611d76565b600084815260fe6020526040812060016113ba87610cc3565b60078111156113cb576113cb613780565b1461143e5760405162461bcd60e51b815260206004820152602360248201527f476f7665726e6f723a20766f7465206e6f742063757272656e746c792061637460448201527f69766500000000000000000000000000000000000000000000000000000000006064820152608401610719565b6040805160208101909152815467ffffffffffffffff1690819052600090611467908790611026565b905061147587878784611f67565b8573ffffffffffffffffffffffffffffffffffffffff167fb8e138887d0aa13bab447e82de9d5c1777041ecd21ca36ba824ff1e6c07ddda4888784886040516114c194939291906135b3565b60405180910390a29695505050505050565b6000806114df8361213d565b905060048160078111156114f5576114f5613780565b146115005792915050565b600083815261019560205260409020548061151c575092915050565b610194546040517f2ab0f5290000000000000000000000000000000000000000000000000000000081526004810183905273ffffffffffffffffffffffffffffffffffffffff90911690632ab0f5299060240160206040518083038186803b15801561158757600080fd5b505afa15801561159b573d6000803e3d6000fd5b505050506040513d601f19601f820116820180604052508101906115bf9190612fb3565b156115ce575060079392505050565b5060059392505050565b600054610100900460ff16806115f1575060005460ff16155b6116635760405162461bcd60e51b815260206004820152602e60248201527f496e697469616c697a61626c653a20636f6e747261637420697320616c72656160448201527f647920696e697469616c697a65640000000000000000000000000000000000006064820152608401610719565b600054610100900460ff16158015611685576000805461ffff19166101011790555b61168d6122a4565b6116956122a4565b6116d8826116d360408051808201909152600181527f3100000000000000000000000000000000000000000000000000000000000000602082015290565b612365565b6116e06122a4565b6116e982612446565b80156116fb576000805461ff00191690555b5050565b600054610100900460ff1680611718575060005460ff16155b61178a5760405162461bcd60e51b815260206004820152602e60248201527f496e697469616c697a61626c653a20636f6e747261637420697320616c72656160448201527f647920696e697469616c697a65640000000000000000000000000000000000006064820152608401610719565b600054610100900460ff161580156117ac576000805461ffff19166101011790555b6117b46122a4565b6117bc6122a4565b6117c46122a4565b6116e98261251c565b600054610100900460ff16806117e6575060005460ff16155b6118585760405162461bcd60e51b815260206004820152602e60248201527f496e697469616c697a61626c653a20636f6e747261637420697320616c72656160448201527f647920696e697469616c697a65640000000000000000000000000000000000006064820152608401610719565b600054610100900460ff1615801561187a576000805461ffff19166101011790555b6118826122a4565b61188a6122a4565b6118926122a4565b61189a6122a4565b6116e98261261f565b600054610100900460ff16806118bc575060005460ff16155b61192e5760405162461bcd60e51b815260206004820152602e60248201527f496e697469616c697a61626c653a20636f6e747261637420697320616c72656160448201527f647920696e697469616c697a65640000000000000000000000000000000000006064820152608401610719565b600054610100900460ff16158015611950576000805461ffff19166101011790555b6119586122a4565b6119606122a4565b6119686122a4565b6116e9826126d5565b600061197d6101f85490565b61198c336106376001436136ec565b1015611a265760405162461bcd60e51b815260206004820152604360248201527f476f7665726e6f72436f6d7061746962696c697479427261766f3a2070726f7060448201527f6f73657220766f7465732062656c6f772070726f706f73616c2074687265736860648201527f6f6c640000000000000000000000000000000000000000000000000000000000608482015260a401610719565b610e568585858561278b565b610194546040805173ffffffffffffffffffffffffffffffffffffffff928316815291831660208301527f08f74ea46ef7894f65eabfb5e6e695de773a000b47c529ab559178069b226401910160405180910390a161019480547fffffffffffffffffffffffff00000000000000000000000000000000000000001673ffffffffffffffffffffffffffffffffffffffff92909216919091179055565b60007fffffffff0000000000000000000000000000000000000000000000000000000082167fbf26d89700000000000000000000000000000000000000000000000000000000148061069557507f01ffc9a7000000000000000000000000000000000000000000000000000000007fffffffff00000000000000000000000000000000000000000000000000000000831614610695565b610194546040517fe38335e500000000000000000000000000000000000000000000000000000000815273ffffffffffffffffffffffffffffffffffffffff9091169063e38335e5903490611bc89088908890889060009089906004016133ba565b6000604051808303818588803b158015611be157600080fd5b505af1158015611bf5573d6000803e3d6000fd5b50505050505050505050565b600061121e7f8b73c3c69bb8fe3d512ecc4cf759cc79239f7b179b0ffacaa9a75d522b39400f611c3060655490565b6066546040805160208101859052908101839052606081018290524660808201523060a082015260009060c0016040516020818303038152906040528051906020012090509392505050565b6000807f7fffffffffffffffffffffffffffffff5d576e7357a4501ddfe92f46681b20a0831115611cb35750600090506003611d6d565b8460ff16601b14158015611ccb57508460ff16601c14155b15611cdc5750600090506004611d6d565b6040805160008082526020820180845289905260ff881692820192909252606081018690526080810185905260019060a0016020604051602081039080840390855afa158015611d30573d6000803e3d6000fd5b5050604051601f19015191505073ffffffffffffffffffffffffffffffffffffffff8116611d6657600060019250925050611d6d565b9150600090505b94509492505050565b6000816004811115611d8a57611d8a613780565b1415611d935750565b6001816004811115611da757611da7613780565b1415611df55760405162461bcd60e51b815260206004820152601860248201527f45434453413a20696e76616c6964207369676e617475726500000000000000006044820152606401610719565b6002816004811115611e0957611e09613780565b1415611e575760405162461bcd60e51b815260206004820152601f60248201527f45434453413a20696e76616c6964207369676e6174757265206c656e677468006044820152606401610719565b6003816004811115611e6b57611e6b613780565b1415611edf5760405162461bcd60e51b815260206004820152602260248201527f45434453413a20696e76616c6964207369676e6174757265202773272076616c60448201527f75650000000000000000000000000000000000000000000000000000000000006064820152608401610719565b6004816004811115611ef357611ef3613780565b141561072b5760405162461bcd60e51b815260206004820152602260248201527f45434453413a20696e76616c6964207369676e6174757265202776272076616c60448201527f75650000000000000000000000000000000000000000000000000000000000006064820152608401610719565b60008481526101626020908152604080832073ffffffffffffffffffffffffffffffffffffffff87168452600381019092529091205460ff16156120135760405162461bcd60e51b815260206004820152602760248201527f476f7665726e6f72566f74696e6753696d706c653a20766f746520616c72656160448201527f64792063617374000000000000000000000000000000000000000000000000006064820152608401610719565b73ffffffffffffffffffffffffffffffffffffffff84166000908152600382016020526040812080547fffffffffffffffffffffffffffffffffffffffffffffffffffffffffffffff0016600117905560ff168360ff16141561208f57818160000160008282546120849190613630565b909155506113139050565b60ff8316600114156120af57818160010160008282546120849190613630565b60ff8316600214156120cf57818160020160008282546120849190613630565b60405162461bcd60e51b815260206004820152603560248201527f476f7665726e6f72566f74696e6753696d706c653a20696e76616c696420766160448201527f6c756520666f7220656e756d20566f74655479706500000000000000000000006064820152608401610719565b600081815260fe60209081526040808320815160a081018352815467ffffffffffffffff9081166080830190815282528351808601855260018401549091168152938101939093526002015460ff8082161580159385019390935261010090910416151560608301526121b35750600792915050565b8060600151156121c65750600292915050565b8051514367ffffffffffffffff90911611156121e55750600092915050565b6020810151514367ffffffffffffffff90911611156122075750600192915050565b6122148160200151612acc565b156122565761222283612afd565b801561224257506000838152610162602052604090208054600190910154115b61224d576003610fb5565b60049392505050565b60405162461bcd60e51b815260206004820152601d60248201527f476f7665726e6f723a20756e6b6e6f776e2070726f706f73616c2069640000006044820152606401610719565b50919050565b600054610100900460ff16806122bd575060005460ff16155b61232f5760405162461bcd60e51b815260206004820152602e60248201527f496e697469616c697a61626c653a20636f6e747261637420697320616c72656160448201527f647920696e697469616c697a65640000000000000000000000000000000000006064820152608401610719565b600054610100900460ff16158015612351576000805461ffff19166101011790555b801561072b576000805461ff001916905550565b600054610100900460ff168061237e575060005460ff16155b6123f05760405162461bcd60e51b815260206004820152602e60248201527f496e697469616c697a61626c653a20636f6e747261637420697320616c72656160448201527f647920696e697469616c697a65640000000000000000000000000000000000006064820152608401610719565b600054610100900460ff16158015612412576000805461ffff19166101011790555b82516020808501919091208351918401919091206065919091556066558015612441576000805461ff00191690555b505050565b600054610100900460ff168061245f575060005460ff16155b6124d15760405162461bcd60e51b815260206004820152602e60248201527f496e697469616c697a61626c653a20636f6e747261637420697320616c72656160448201527f647920696e697469616c697a65640000000000000000000000000000000000006064820152608401610719565b600054610100900460ff161580156124f3576000805461ffff19166101011790555b81516125069060fd906020850190612bb9565b5080156116fb576000805461ff00191690555050565b600054610100900460ff1680612535575060005460ff16155b6125a75760405162461bcd60e51b815260206004820152602e60248201527f496e697469616c697a61626c653a20636f6e747261637420697320616c72656160448201527f647920696e697469616c697a65640000000000000000000000000000000000006064820152608401610719565b600054610100900460ff161580156125c9576000805461ffff19166101011790555b61012f80547fffffffffffffffffffffffff00000000000000000000000000000000000000001673ffffffffffffffffffffffffffffffffffffffff841617905580156116fb576000805461ff00191690555050565b600054610100900460ff1680612638575060005460ff16155b6126aa5760405162461bcd60e51b815260206004820152602e60248201527f496e697469616c697a61626c653a20636f6e747261637420697320616c72656160448201527f647920696e697469616c697a65640000000000000000000000000000000000006064820152608401610719565b600054610100900460ff161580156126cc576000805461ffff19166101011790555b6116e982611a32565b600054610100900460ff16806126ee575060005460ff16155b6127605760405162461bcd60e51b815260206004820152602e60248201527f496e697469616c697a61626c653a20636f6e747261637420697320616c72656160448201527f647920696e697469616c697a65640000000000000000000000000000000000006064820152608401610719565b600054610100900460ff16158015612782576000805461ffff19166101011790555b6116e982611223565b6000806127a18686868680519060200120610fec565b9050845186511461281a5760405162461bcd60e51b815260206004820152602160248201527f476f7665726e6f723a20696e76616c69642070726f706f73616c206c656e677460448201527f68000000000000000000000000000000000000000000000000000000000000006064820152608401610719565b83518651146128915760405162461bcd60e51b815260206004820152602160248201527f476f7665726e6f723a20696e76616c69642070726f706f73616c206c656e677460448201527f68000000000000000000000000000000000000000000000000000000000000006064820152608401610719565b60008651116128e25760405162461bcd60e51b815260206004820152601860248201527f476f7665726e6f723a20656d7074792070726f706f73616c00000000000000006044820152606401610719565b600081815260fe60209081526040918290208251918201909252815467ffffffffffffffff16908190521561297f5760405162461bcd60e51b815260206004820152602160248201527f476f7665726e6f723a2070726f706f73616c20616c726561647920657869737460448201527f73000000000000000000000000000000000000000000000000000000000000006064820152608401610719565b600061299361298e6101f95490565b612b35565b61299c43612b35565b6129a69190613648565b905060006129b761298e6101fa5490565b6129c19083613648565b83547fffffffffffffffffffffffffffffffffffffffffffffffff00000000000000001667ffffffffffffffff841617845590506001830180547fffffffffffffffffffffffffffffffffffffffffffffffff00000000000000001667ffffffffffffffff83161790557f7d84a6263ae0d98d3329bd7b46bb4e8d6f98cd35a7adb45c274c8b7fd5ebd5e084338b8b8d5167ffffffffffffffff811115612a6a57612a6a6137af565b604051908082528060200260200182016040528015612a9d57816020015b6060815260200190600190039081612a885790505b508c88888e604051612ab7999897969594939291906134b4565b60405180910390a15091979650505050505050565b6000612ae2825167ffffffffffffffff16151590565b8015610695575050514367ffffffffffffffff909116111590565b60008181526101626020526040812060028101546001820154612b209190613630565b612b2c61065785610bf6565b11159392505050565b600067ffffffffffffffff821115612bb55760405162461bcd60e51b815260206004820152602660248201527f53616665436173743a2076616c756520646f65736e27742066697420696e203660448201527f34206269747300000000000000000000000000000000000000000000000000006064820152608401610719565b5090565b828054612bc590613703565b90600052602060002090601f016020900481019282612be75760008555612c2d565b82601f10612c0057805160ff1916838001178555612c2d565b82800160010185558215612c2d579182015b82811115612c2d578251825591602001919060010190612c12565b50612bb59291505b80821115612bb55760008155600101612c35565b600067ffffffffffffffff831115612c6357612c636137af565b612c766020601f19601f860116016135db565b9050828152838383011115612c8a57600080fd5b828260208301376000602084830101529392505050565b600082601f830112612cb257600080fd5b81356020612cc7612cc28361360c565b6135db565b80838252828201915082860187848660051b8901011115612ce757600080fd5b60005b85811015612d0f578135612cfd816137de565b84529284019290840190600101612cea565b5090979650505050505050565b600082601f830112612d2d57600080fd5b81356020612d3d612cc28361360c565b80838252828201915082860187848660051b8901011115612d5d57600080fd5b60005b85811015612d0f57813567ffffffffffffffff811115612d7f57600080fd5b8801603f81018a13612d9057600080fd5b612da18a8783013560408401612c49565b8552509284019290840190600101612d60565b600082601f830112612dc557600080fd5b81356020612dd5612cc28361360c565b80838252828201915082860187848660051b8901011115612df557600080fd5b60005b85811015612d0f57813584529284019290840190600101612df8565b600082601f830112612e2557600080fd5b610fb583833560208501612c49565b803560ff81168114612e4557600080fd5b919050565b60008060408385031215612e5d57600080fd5b8235612e68816137de565b946020939093013593505050565b60008060008060808587031215612e8c57600080fd5b843567ffffffffffffffff80821115612ea457600080fd5b612eb088838901612ca1565b95506020870135915080821115612ec657600080fd5b612ed288838901612db4565b94506040870135915080821115612ee857600080fd5b50612ef587828801612d1c565b949793965093946060013593505050565b60008060008060808587031215612f1c57600080fd5b843567ffffffffffffffff80821115612f3457600080fd5b612f4088838901612ca1565b95506020870135915080821115612f5657600080fd5b612f6288838901612db4565b94506040870135915080821115612f7857600080fd5b612f8488838901612d1c565b93506060870135915080821115612f9a57600080fd5b50612fa787828801612e14565b91505092959194509250565b600060208284031215612fc557600080fd5b81518015158114610fb557600080fd5b600060208284031215612fe757600080fd5b5051919050565b60006020828403121561300057600080fd5b81357fffffffff0000000000000000000000000000000000000000000000000000000081168114610fb557600080fd5b60006020828403121561304257600080fd5b8135610fb5816137de565b600080600080600080600060e0888a03121561306857600080fd5b873567ffffffffffffffff81111561307f57600080fd5b61308b8a828b01612e14565b975050602088013561309c816137de565b955060408801356130ac816137de565b969995985095966060810135965060808101359560a0820135955060c0909101359350915050565b6000602082840312156130e657600080fd5b5035919050565b6000806040838503121561310057600080fd5b823591506020830135613112816137de565b809150509250929050565b6000806040838503121561313057600080fd5b8235915061314060208401612e34565b90509250929050565b6000806000806060858703121561315f57600080fd5b8435935061316f60208601612e34565b9250604085013567ffffffffffffffff8082111561318c57600080fd5b818701915087601f8301126131a057600080fd5b8135818111156131af57600080fd5b8860208285010111156131c157600080fd5b95989497505060200194505050565b600080600080600060a086880312156131e857600080fd5b853594506131f860208701612e34565b935061320660408701612e34565b94979396509394606081013594506080013592915050565b60006020828403121561323057600080fd5b81516bffffffffffffffffffffffff81168114610fb557600080fd5b600081518084526020808501945080840160005b8381101561329257815173ffffffffffffffffffffffffffffffffffffffff1687529582019590820190600101613260565b509495945050505050565b600081518084526020808501808196508360051b8101915082860160005b858110156132e55782840389526132d3848351613322565b988501989350908401906001016132bb565b5091979650505050505050565b600081518084526020808501945080840160005b8381101561329257815187529582019590820190600101613306565b6000815180845260005b818110156133485760208185018101518683018201520161332c565b8181111561335a576000602083870101525b50601f01601f19169290920160200192915050565b608081526000613382608083018761324c565b828103602084015261339481876132f2565b905082810360408401526133a8818661329d565b91505082606083015295945050505050565b60a0815260006133cd60a083018861324c565b82810360208401526133df81886132f2565b905082810360408401526133f3818761329d565b60608401959095525050608001529392505050565b60c08152600061341b60c083018961324c565b828103602084015261342d81896132f2565b90508281036040840152613441818861329d565b60608401969096525050608081019290925260a0909101529392505050565b602081016008831061349b577f4e487b7100000000000000000000000000000000000000000000000000000000600052602160045260246000fd5b91905290565b602081526000610fb56020830184613322565b60006101208b8352602073ffffffffffffffffffffffffffffffffffffffff8c16818501528160408501526134eb8285018c61324c565b915083820360608501526134ff828b6132f2565b915083820360808501528189518084528284019150828160051b850101838c0160005b8381101561355057601f1987840301855261353e838351613322565b94860194925090850190600101613522565b505086810360a0880152613564818c61329d565b94505050505061358060c084018767ffffffffffffffff169052565b67ffffffffffffffff851660e08401528281036101008401526135a38185613322565b9c9b505050505050505050505050565b84815260ff84166020820152826040820152608060608201526000610e3e6080830184613322565b604051601f8201601f1916810167ffffffffffffffff81118282101715613604576136046137af565b604052919050565b600067ffffffffffffffff821115613626576136266137af565b5060051b60200190565b6000821982111561364357613643613751565b500190565b600067ffffffffffffffff80831681851680830382111561366b5761366b613751565b01949350505050565b6000826136aa577f4e487b7100000000000000000000000000000000000000000000000000000000600052601260045260246000fd5b500490565b6000817fffffffffffffffffffffffffffffffffffffffffffffffffffffffffffffffff04831182151516156136e7576136e7613751565b500290565b6000828210156136fe576136fe613751565b500390565b600181811c9082168061371757607f821691505b6020821081141561229e577f4e487b7100000000000000000000000000000000000000000000000000000000600052602260045260246000fd5b7f4e487b7100000000000000000000000000000000000000000000000000000000600052601160045260246000fd5b7f4e487b7100000000000000000000000000000000000000000000000000000000600052602160045260246000fd5b7f4e487b7100000000000000000000000000000000000000000000000000000000600052604160045260246000fd5b73ffffffffffffffffffffffffffffffffffffffff8116811461072b57600080fdfea26469706673582212206a9adc22fe81d31bbeff4522e7883f3e6c654e63b4bfa802a0d2103222fb86a464736f6c63430008060033",
  "linkReferences": {},
  "deployedLinkReferences": {}
}